{
  "_format": "hh-sol-artifact-1",
  "contractName": "SupplyChain",
  "sourceName": "contracts/base/SupplyChain.sol",
  "abi": [
    {
      "constant": false,
      "inputs": [
        {
          "name": "_upc",
          "type": "uint256"
        }
      ],
      "name": "buyAsRetail",
      "outputs": [],
      "payable": true,
      "stateMutability": "payable",
      "type": "function"
    },
    {
      "constant": false,
      "inputs": [
        {
          "name": "account",
          "type": "address"
        }
      ],
      "name": "addConsumer",
      "outputs": [],
      "payable": false,
      "stateMutability": "nonpayable",
      "type": "function"
    },
    {
      "constant": false,
      "inputs": [
        {
          "name": "_upc",
          "type": "uint256"
        }
      ],
      "name": "buyAsDist",
      "outputs": [],
      "payable": true,
      "stateMutability": "payable",
      "type": "function"
    },
    {
      "constant": true,
      "inputs": [],
      "name": "fetchMyItems",
      "outputs": [
        {
          "components": [
            {
              "name": "sku",
              "type": "uint256"
            },
            {
              "name": "upc",
              "type": "uint256"
            },
            {
              "name": "ownerID",
              "type": "address"
            },
            {
              "name": "originFarmerID",
              "type": "address"
            },
            {
              "name": "originFarmName",
              "type": "string"
            },
            {
              "name": "originFarmMetadata",
              "type": "string"
            },
            {
              "name": "originFarmLatitude",
              "type": "string"
            },
            {
              "name": "originFarmLongitude",
              "type": "string"
            },
            {
              "name": "productID",
              "type": "uint256"
            },
            {
              "name": "productMetadata",
              "type": "string"
            },
            {
              "name": "productPrice",
              "type": "uint256"
            },
            {
              "name": "itemState",
              "type": "uint8"
            },
            {
              "name": "distributorID",
              "type": "address"
            },
            {
              "name": "retailerID",
              "type": "address"
            },
            {
              "name": "consumerID",
              "type": "address"
            }
          ],
          "name": "",
          "type": "tuple[]"
        }
      ],
      "payable": false,
      "stateMutability": "view",
      "type": "function"
    },
    {
      "constant": false,
      "inputs": [],
      "name": "kill",
      "outputs": [],
      "payable": false,
      "stateMutability": "nonpayable",
      "type": "function"
    },
    {
      "constant": true,
      "inputs": [],
      "name": "sku",
      "outputs": [
        {
          "name": "",
          "type": "uint256"
        }
      ],
      "payable": false,
      "stateMutability": "view",
      "type": "function"
    },
    {
      "constant": true,
      "inputs": [
        {
          "name": "account",
          "type": "address"
        }
      ],
      "name": "isRetailer",
      "outputs": [
        {
          "name": "",
          "type": "bool"
        }
      ],
      "payable": false,
      "stateMutability": "view",
      "type": "function"
    },
    {
      "constant": false,
      "inputs": [],
      "name": "renounceConsumer",
      "outputs": [],
      "payable": false,
      "stateMutability": "nonpayable",
      "type": "function"
    },
    {
      "constant": false,
      "inputs": [],
      "name": "renounceDistributor",
      "outputs": [],
      "payable": false,
      "stateMutability": "nonpayable",
      "type": "function"
    },
    {
      "constant": true,
      "inputs": [
        {
          "name": "_upc",
          "type": "uint256"
        }
      ],
      "name": "fetchItemBufferTwo",
      "outputs": [
        {
          "name": "itemSKU",
          "type": "uint256"
        },
        {
          "name": "itemUPC",
          "type": "uint256"
        },
        {
          "name": "productID",
          "type": "uint256"
        },
        {
          "name": "productMetadata",
          "type": "string"
        },
        {
          "name": "productPrice",
          "type": "uint256"
        },
        {
          "name": "itemState",
          "type": "uint256"
        },
        {
          "name": "distributorID",
          "type": "address"
        },
        {
          "name": "retailerID",
          "type": "address"
        },
        {
          "name": "consumerID",
          "type": "address"
        }
      ],
      "payable": false,
      "stateMutability": "view",
      "type": "function"
    },
    {
      "constant": true,
      "inputs": [],
      "name": "DEFAULT_STATE",
      "outputs": [
        {
          "name": "",
          "type": "uint8"
        }
      ],
      "payable": false,
      "stateMutability": "view",
      "type": "function"
    },
    {
      "constant": false,
      "inputs": [
        {
          "name": "account",
          "type": "address"
        }
      ],
      "name": "addDistributor",
      "outputs": [],
      "payable": false,
      "stateMutability": "nonpayable",
      "type": "function"
    },
    {
      "constant": true,
      "inputs": [
        {
          "name": "_upc",
          "type": "uint256"
        }
      ],
      "name": "fetchItemBufferOne",
      "outputs": [
        {
          "name": "itemSKU",
          "type": "uint256"
        },
        {
          "name": "itemUPC",
          "type": "uint256"
        },
        {
          "name": "ownerID",
          "type": "address"
        },
        {
          "name": "originFarmerID",
          "type": "address"
        },
        {
          "name": "originFarmName",
          "type": "string"
        },
        {
          "name": "originFarmMetadata",
          "type": "string"
        },
        {
          "name": "originFarmLatitude",
          "type": "string"
        },
        {
          "name": "originFarmLongitude",
          "type": "string"
        }
      ],
      "payable": false,
      "stateMutability": "view",
      "type": "function"
    },
    {
      "constant": true,
      "inputs": [
        {
          "name": "_upc",
          "type": "uint256"
        }
      ],
      "name": "fetchCurrentState",
      "outputs": [
        {
          "name": "itemState",
          "type": "uint256"
        }
      ],
      "payable": false,
      "stateMutability": "view",
      "type": "function"
    },
    {
      "constant": false,
      "inputs": [
        {
          "name": "account",
          "type": "address"
        }
      ],
      "name": "addFarmer",
      "outputs": [],
      "payable": false,
      "stateMutability": "nonpayable",
      "type": "function"
    },
    {
      "constant": false,
      "inputs": [],
      "name": "renounceFarmer",
      "outputs": [],
      "payable": false,
      "stateMutability": "nonpayable",
      "type": "function"
    },
    {
      "constant": true,
      "inputs": [
        {
          "name": "account",
          "type": "address"
        }
      ],
      "name": "isConsumer",
      "outputs": [
        {
          "name": "",
          "type": "bool"
        }
      ],
      "payable": false,
      "stateMutability": "view",
      "type": "function"
    },
    {
      "constant": true,
      "inputs": [],
      "name": "owner",
      "outputs": [
        {
          "name": "",
          "type": "address"
        }
      ],
      "payable": false,
      "stateMutability": "view",
      "type": "function"
    },
    {
      "constant": false,
      "inputs": [
        {
          "name": "account",
          "type": "address"
        }
      ],
      "name": "addRetailer",
      "outputs": [],
      "payable": false,
      "stateMutability": "nonpayable",
      "type": "function"
    },
    {
      "constant": true,
      "inputs": [
        {
          "name": "account",
          "type": "address"
        }
      ],
      "name": "isDistributor",
      "outputs": [
        {
          "name": "",
          "type": "bool"
        }
      ],
      "payable": false,
      "stateMutability": "view",
      "type": "function"
    },
    {
      "constant": false,
      "inputs": [
        {
          "name": "_upc",
          "type": "uint256"
        },
        {
          "name": "_amount",
          "type": "uint256"
        }
      ],
      "name": "shipItem",
      "outputs": [],
      "payable": false,
      "stateMutability": "nonpayable",
      "type": "function"
    },
    {
      "constant": true,
      "inputs": [],
      "name": "upc",
      "outputs": [
        {
          "name": "",
          "type": "uint256"
        }
      ],
      "payable": false,
      "stateMutability": "view",
      "type": "function"
    },
    {
      "constant": true,
      "inputs": [
        {
          "name": "_upc",
          "type": "uint256"
        }
      ],
      "name": "fetchItemBufferThree",
      "outputs": [
        {
          "name": "itemSKU",
          "type": "uint256"
        },
        {
          "name": "itemUPC",
          "type": "uint256"
        },
        {
          "name": "harvestedHash",
          "type": "bytes32"
        },
        {
          "name": "processedHash",
          "type": "bytes32"
        },
        {
          "name": "packagedHash",
          "type": "bytes32"
        },
        {
          "name": "sellToDistHash",
          "type": "bytes32"
        },
        {
          "name": "buyAsDistHash",
          "type": "bytes32"
        },
        {
          "name": "sellToRetailHash",
          "type": "bytes32"
        },
        {
          "name": "buyAsRetailHash",
          "type": "bytes32"
        },
        {
          "name": "sellToConsumerHash",
          "type": "bytes32"
        },
        {
          "name": "buyAsConsumerHash",
          "type": "bytes32"
        }
      ],
      "payable": false,
      "stateMutability": "view",
      "type": "function"
    },
    {
      "constant": true,
      "inputs": [
        {
          "name": "account",
          "type": "address"
        }
      ],
      "name": "isFarmer",
      "outputs": [
        {
          "name": "",
          "type": "bool"
        }
      ],
      "payable": false,
      "stateMutability": "view",
      "type": "function"
    },
    {
      "constant": false,
      "inputs": [],
      "name": "renounceRetailer",
      "outputs": [],
      "payable": false,
      "stateMutability": "nonpayable",
      "type": "function"
    },
    {
      "constant": false,
      "inputs": [
        {
          "name": "_originFarmName",
          "type": "string"
        },
        {
          "name": "_originFarmMetadata",
          "type": "string"
        },
        {
          "name": "_originFarmLatitude",
          "type": "string"
        },
        {
          "name": "_originFarmLongitude",
          "type": "string"
        },
        {
          "name": "_productMetadata",
          "type": "string"
        },
        {
          "name": "_productPrice",
          "type": "uint256"
        }
      ],
      "name": "harvestItem",
      "outputs": [],
      "payable": false,
      "stateMutability": "nonpayable",
      "type": "function"
    },
    {
      "constant": false,
      "inputs": [
        {
          "name": "_upc",
          "type": "uint256"
        }
      ],
      "name": "buyAsConsumer",
      "outputs": [],
      "payable": true,
      "stateMutability": "payable",
      "type": "function"
    },
    {
      "inputs": [],
      "payable": false,
      "stateMutability": "nonpayable",
      "type": "constructor"
    },
    {
      "anonymous": false,
      "inputs": [
        {
          "indexed": false,
          "name": "upc",
          "type": "uint256"
        }
      ],
      "name": "Harvested",
      "type": "event"
    },
    {
      "anonymous": false,
      "inputs": [
        {
          "indexed": false,
          "name": "upc",
          "type": "uint256"
        }
      ],
      "name": "Processed",
      "type": "event"
    },
    {
      "anonymous": false,
      "inputs": [
        {
          "indexed": false,
          "name": "upc",
          "type": "uint256"
        }
      ],
      "name": "Packaged",
      "type": "event"
    },
    {
      "anonymous": false,
      "inputs": [
        {
          "indexed": false,
          "name": "upc",
          "type": "uint256"
        }
      ],
      "name": "ForSale",
      "type": "event"
    },
    {
      "anonymous": false,
      "inputs": [
        {
          "indexed": false,
          "name": "upc",
          "type": "uint256"
        }
      ],
      "name": "SoldToDist",
      "type": "event"
    },
    {
      "anonymous": false,
      "inputs": [
        {
          "indexed": false,
          "name": "upc",
          "type": "uint256"
        }
      ],
      "name": "SoldToRetail",
      "type": "event"
    },
    {
      "anonymous": false,
      "inputs": [
        {
          "indexed": false,
          "name": "upc",
          "type": "uint256"
        }
      ],
      "name": "SoldToConsumer",
      "type": "event"
    },
    {
      "anonymous": false,
      "inputs": [
        {
          "indexed": false,
          "name": "upc",
          "type": "uint256"
        }
      ],
      "name": "Shipped",
      "type": "event"
    },
    {
      "anonymous": false,
      "inputs": [
        {
          "indexed": false,
          "name": "upc",
          "type": "uint256"
        }
      ],
      "name": "Received",
      "type": "event"
    },
    {
      "anonymous": false,
      "inputs": [
        {
          "indexed": false,
          "name": "upc",
          "type": "uint256"
        }
      ],
      "name": "Purchased",
      "type": "event"
    },
    {
      "anonymous": false,
      "inputs": [
        {
          "indexed": true,
          "name": "account",
          "type": "address"
        }
      ],
      "name": "ConsumerAdded",
      "type": "event"
    },
    {
      "anonymous": false,
      "inputs": [
        {
          "indexed": true,
          "name": "account",
          "type": "address"
        }
      ],
      "name": "ConsumerRemoved",
      "type": "event"
    },
    {
      "anonymous": false,
      "inputs": [
        {
          "indexed": true,
          "name": "account",
          "type": "address"
        }
      ],
      "name": "RetailerAdded",
      "type": "event"
    },
    {
      "anonymous": false,
      "inputs": [
        {
          "indexed": true,
          "name": "account",
          "type": "address"
        }
      ],
      "name": "RetailerRemoved",
      "type": "event"
    },
    {
      "anonymous": false,
      "inputs": [
        {
          "indexed": true,
          "name": "account",
          "type": "address"
        }
      ],
      "name": "DistributorAdded",
      "type": "event"
    },
    {
      "anonymous": false,
      "inputs": [
        {
          "indexed": true,
          "name": "account",
          "type": "address"
        }
      ],
      "name": "DistributorRemoved",
      "type": "event"
    },
    {
      "anonymous": false,
      "inputs": [
        {
          "indexed": true,
          "name": "account",
          "type": "address"
        }
      ],
      "name": "FarmerAdded",
      "type": "event"
    },
    {
      "anonymous": false,
      "inputs": [
        {
          "indexed": true,
          "name": "account",
          "type": "address"
        }
      ],
      "name": "FarmerRemoved",
      "type": "event"
    }
  ],
  "bytecode": "0x60806040523480156200001157600080fd5b50620000263364010000000062000084810204565b6200003a33640100000000620000d6810204565b6200004e3364010000000062000128810204565b62000062336401000000006200017a810204565b60048054600160a060020a03191633179055600160065560026005556200037f565b6200009f60008264010000000062002c3b620001cc82021704565b604051600160a060020a038216907f2e0ded4123377a3c2bc9a26f1717655a129e2f20752924d42e730ec89c83dbd090600090a250565b620000f160018264010000000062002c3b620001cc82021704565b604051600160a060020a038216907fddbf200aa634dc3fb81cfd68583dd1040d1c751d335e1d86b631bde3e977fea890600090a250565b6200014360028264010000000062002c3b620001cc82021704565b604051600160a060020a038216907f71ae26cad02663e3d92efd6ec56031a80d74a20c0ab4183faa8bf262261c9baa90600090a250565b6200019560038264010000000062002c3b620001cc82021704565b604051600160a060020a038216907f28b26e7a3d20aedbc5f8f2ebf7da671c0491723a2b78f47a097b0e46dee0714290600090a250565b600160a060020a03811615156200021a576040517f08c379a0000000000000000000000000000000000000000000000000000000008152600401620002119062000355565b60405180910390fd5b6200022f82826401000000006200028e810204565b1562000269576040517f08c379a000000000000000000000000000000000000000000000000000000000815260040162000211906200036d565b600160a060020a0316600090815260209190915260409020805460ff19166001179055565b6000600160a060020a0382161515620002d5576040517f08c379a0000000000000000000000000000000000000000000000000000000008152600401620002119062000355565b50600160a060020a03166000908152602091909152604090205460ff1690565b601581527f494e56414c49443a204445414420416464726573730000000000000000000000602082015260400190565b601a81527f494e56414c49443a204163636f756e74204861766520526f6c65000000000000602082015260400190565b602080825281016200036781620002f5565b92915050565b60208082528101620003678162000325565b613af8806200038f6000396000f30060806040526004361061015e5763ffffffff7c01000000000000000000000000000000000000000000000000000000006000350416630dd157a98114610163578063112940f91461017857806315758be51461019857806315c9ae10146101ab57806341c0e1b5146101d65780634462f40c146101eb5780635da09b881461020d57806361e6982d1461023a578063644241db1461024f57806366225ff914610264578063721c8560146102995780637250e224146102bb57806377c45913146102db5780637c0b4ab11461030f57806380c3f96d1461032f57806380fc0ce41461034f578063834ff739146103645780638da5cb5b146103845780638ec4f505146103a65780638f0c86fa146103c65780639a5aec9b146103e6578063ac2db09d14610406578063acd5fba61461041b578063b942906914610452578063db0e6a2f14610472578063df8627f514610487578063f3b1cde8146104a7575b600080fd5b610176610171366004613183565b6104ba565b005b34801561018457600080fd5b5061017661019336600461305f565b61066d565b6101766101a6366004613183565b610679565b3480156101b757600080fd5b506101c06107e8565b6040516101cd9190613707565b60405180910390f35b3480156101e257600080fd5b50610176610c48565b3480156101f757600080fd5b50610200610c83565b6040516101cd9190613834565b34801561021957600080fd5b5061022d61022836600461305f565b610c89565b6040516101cd9190613718565b34801561024657600080fd5b50610176610ca2565b34801561025b57600080fd5b50610176610cd7565b34801561027057600080fd5b5061028461027f366004613183565b610d0a565b6040516101cd99989796959493929190613978565b3480156102a557600080fd5b506102ae611125565b6040516101cd9190613726565b3480156102c757600080fd5b506101766102d636600461305f565b61112a565b3480156102e757600080fd5b506102fb6102f6366004613183565b611133565b6040516101cd989796959493929190613842565b34801561031b57600080fd5b5061020061032a366004613183565b61159c565b34801561033b57600080fd5b5061017661034a36600461305f565b61195e565b34801561035b57600080fd5b50610176611967565b34801561037057600080fd5b5061022d61037f36600461305f565b61199a565b34801561039057600080fd5b506103996119ad565b6040516101cd91906136f9565b3480156103b257600080fd5b506101766103c136600461305f565b6119bc565b3480156103d257600080fd5b5061022d6103e136600461305f565b6119c5565b3480156103f257600080fd5b506101766104013660046131a1565b6119d8565b34801561041257600080fd5b50610200611ae8565b34801561042757600080fd5b5061043b610436366004613183565b611aee565b6040516101cd9b9a999897969594939291906138d4565b34801561045e57600080fd5b5061022d61046d36600461305f565b61204c565b34801561047e57600080fd5b5061017661205e565b34801561049357600080fd5b506101766104a2366004613085565b612091565b6101766104b5366004613183565b612442565b8060036000828152600760205260409020600b015460ff1660098111156104dd57fe5b146105065760405160e560020a62461bcd0281526004016104fd906137f4565b60405180910390fd5b6000828152600760205260409020600a01543481111561053b5760405160e560020a62461bcd0281526004016104fd906137a4565b600083815260086020908152604080832043406006909101556007909152808220600281018054600160a060020a03191633179055600b81018054600560ff199091161790819055600a90910154915186939283926101009004600160a060020a0316916108fc821502919084818181858888f193505050501580156105c5573d6000803e3d6000fd5b506105cf33610c89565b15156105de576105de336119bc565b6105e786612590565b7f54dafe9ea34c9448f0b09cec86e7ede9744e44adedf54b15e3ad40a0942f2fb9866040516106169190613834565b60405180910390a15050600081815260076020526040808220600a0154905190913483900391339183156108fc02918491818181858888f19350505050158015610664573d6000803e3d6000fd5b50505050505050565b61067681612663565b50565b8060036000828152600760205260409020600b015460ff16600981111561069c57fe5b146106bc5760405160e560020a62461bcd0281526004016104fd906137f4565b6000828152600760205260409020600a0154348111156106f15760405160e560020a62461bcd0281526004016104fd906137a4565b60008381526008602090815260408083204340600491820155600790925280832060028101805433600160a060020a03199091168117909155600b8201805474ffffffffffffffffffffffffffffffffffffffff0019166101009092029190911760ff19169093179092556003820154600a9092015490518693928392600160a060020a039091169181156108fc02919084818181858888f193505050501580156107a0573d6000803e3d6000fd5b506107aa336119c5565b15156107b9576107b93361112a565b7f2900f7f2d701a69acf040421bf8d1b8ac9b76d9c3aa0eb50dd78ec1e8d70e22e866040516106169190613834565b6060600080606060008060006006549550600094508560405190808252806020026020018201604052801561083757816020015b610824612e78565b81526020019060019003908161081c5790505b509350600092505b85831015610c3d5760018301600090815260076020526040902060020154600160a060020a0316331415610c32575050600181810160008181526007602090815260409182902082516101e081018452815481528186015481840152600280830154600160a060020a0390811683870152600384015416606083015260048301805486516101009982161599909902600019011691909104601f81018590048502880185019095528487529495919490938593608086019392919083018282801561094b5780601f106109205761010080835404028352916020019161094b565b820191906000526020600020905b81548152906001019060200180831161092e57829003601f168201915b505050918352505060058201805460408051602060026001851615610100026000190190941693909304601f81018490048402820184019092528181529382019392918301828280156109df5780601f106109b4576101008083540402835291602001916109df565b820191906000526020600020905b8154815290600101906020018083116109c257829003601f168201915b505050918352505060068201805460408051602060026001851615610100026000190190941693909304601f8101849004840282018401909252818152938201939291830182828015610a735780601f10610a4857610100808354040283529160200191610a73565b820191906000526020600020905b815481529060010190602001808311610a5657829003601f168201915b505050918352505060078201805460408051602060026001851615610100026000190190941693909304601f8101849004840282018401909252818152938201939291830182828015610b075780601f10610adc57610100808354040283529160200191610b07565b820191906000526020600020905b815481529060010190602001808311610aea57829003601f168201915b5050509183525050600882015460208083019190915260098301805460408051601f60026000196101006001871615020190941693909304928301859004850281018501825282815294019392830182828015610ba55780601f10610b7a57610100808354040283529160200191610ba5565b820191906000526020600020905b815481529060010190602001808311610b8857829003601f168201915b5050509183525050600a8201546020820152600b82015460409091019060ff166009811115610bd057fe5b6009811115610bdb57fe5b8152600b820154600160a060020a0361010090910481166020830152600c83015481166040830152600d909201549091166060909101528451859087908110610c2057fe5b60209081029091010152600194909401935b60019092019161083f565b509195945050505050565b600454600160a060020a03163314610c755760405160e560020a62461bcd0281526004016104fd90613734565b600454600160a060020a0316ff5b60065481565b6000610c9c60028363ffffffff6126ab16565b92915050565b610cab3361199a565b1515610ccc5760405160e560020a62461bcd0281526004016104fd90613754565b610cd5336126f8565b565b610ce0336119c5565b1515610d015760405160e560020a62461bcd0281526004016104fd906137c4565b610cd533612740565b600080600060606000806000806000610d21612e78565b60008b81526007602090815260409182902082516101e0810184528154815260018083015482850152600280840154600160a060020a0390811684880152600385015416606084015260048401805487516101009482161594909402600019011691909104601f810186900486028301860190965285825291949293608086019391929190830182828015610df75780601f10610dcc57610100808354040283529160200191610df7565b820191906000526020600020905b815481529060010190602001808311610dda57829003601f168201915b505050918352505060058201805460408051602060026001851615610100026000190190941693909304601f8101849004840282018401909252818152938201939291830182828015610e8b5780601f10610e6057610100808354040283529160200191610e8b565b820191906000526020600020905b815481529060010190602001808311610e6e57829003601f168201915b505050918352505060068201805460408051602060026001851615610100026000190190941693909304601f8101849004840282018401909252818152938201939291830182828015610f1f5780601f10610ef457610100808354040283529160200191610f1f565b820191906000526020600020905b815481529060010190602001808311610f0257829003601f168201915b505050918352505060078201805460408051602060026001851615610100026000190190941693909304601f8101849004840282018401909252818152938201939291830182828015610fb35780601f10610f8857610100808354040283529160200191610fb3565b820191906000526020600020905b815481529060010190602001808311610f9657829003601f168201915b5050509183525050600882015460208083019190915260098301805460408051601f600260001961010060018716150201909416939093049283018590048502810185018252828152940193928301828280156110515780601f1061102657610100808354040283529160200191611051565b820191906000526020600020905b81548152906001019060200180831161103457829003601f168201915b5050509183525050600a8201546020820152600b82015460409091019060ff16600981111561107c57fe5b600981111561108757fe5b8152600b820154600160a060020a03610100918290048116602080850191909152600c85015482166040850152600d909401541660609092019190915282519183015190830151610120840151610140850151610160860151949f50929d50909b509950975090915060098111156110fb57fe5b6101808201516101a08301516101c084015192975090955093509150509193959799909294969850565b600081565b61067681612788565b600080600080606080606080611147612e78565b60008a81526007602090815260409182902082516101e0810184528154815260018083015482850152600280840154600160a060020a0390811684880152600385015416606084015260048401805487516101009482161594909402600019011691909104601f81018690048602830186019096528582529194929360808601939192919083018282801561121d5780601f106111f25761010080835404028352916020019161121d565b820191906000526020600020905b81548152906001019060200180831161120057829003601f168201915b505050918352505060058201805460408051602060026001851615610100026000190190941693909304601f81018490048402820184019092528181529382019392918301828280156112b15780601f10611286576101008083540402835291602001916112b1565b820191906000526020600020905b81548152906001019060200180831161129457829003601f168201915b505050918352505060068201805460408051602060026001851615610100026000190190941693909304601f81018490048402820184019092528181529382019392918301828280156113455780601f1061131a57610100808354040283529160200191611345565b820191906000526020600020905b81548152906001019060200180831161132857829003601f168201915b505050918352505060078201805460408051602060026001851615610100026000190190941693909304601f81018490048402820184019092528181529382019392918301828280156113d95780601f106113ae576101008083540402835291602001916113d9565b820191906000526020600020905b8154815290600101906020018083116113bc57829003601f168201915b5050509183525050600882015460208083019190915260098301805460408051601f600260001961010060018716150201909416939093049283018590048502810185018252828152940193928301828280156114775780601f1061144c57610100808354040283529160200191611477565b820191906000526020600020905b81548152906001019060200180831161145a57829003601f168201915b5050509183525050600a8201546020820152600b82015460409091019060ff1660098111156114a257fe5b60098111156114ad57fe5b8152602001600b820160019054906101000a9004600160a060020a0316600160a060020a0316600160a060020a03168152602001600c820160009054906101000a9004600160a060020a0316600160a060020a0316600160a060020a03168152602001600d820160009054906101000a9004600160a060020a0316600160a060020a0316600160a060020a031681525050905080600001519850806020015197508060400151965080606001519550806080015194508060a0015193508060c0015192508060e00151915088888888888888889850985098509850985098509850985050919395975091939597565b60006115a6612e78565b60008381526007602090815260409182902082516101e0810184528154815260018083015482850152600280840154600160a060020a0390811684880152600385015416606084015260048401805487516101009482161594909402600019011691909104601f81018690048602830186019096528582529194929360808601939192919083018282801561167c5780601f106116515761010080835404028352916020019161167c565b820191906000526020600020905b81548152906001019060200180831161165f57829003601f168201915b505050918352505060058201805460408051602060026001851615610100026000190190941693909304601f81018490048402820184019092528181529382019392918301828280156117105780601f106116e557610100808354040283529160200191611710565b820191906000526020600020905b8154815290600101906020018083116116f357829003601f168201915b505050918352505060068201805460408051602060026001851615610100026000190190941693909304601f81018490048402820184019092528181529382019392918301828280156117a45780601f10611779576101008083540402835291602001916117a4565b820191906000526020600020905b81548152906001019060200180831161178757829003601f168201915b505050918352505060078201805460408051602060026001851615610100026000190190941693909304601f81018490048402820184019092528181529382019392918301828280156118385780601f1061180d57610100808354040283529160200191611838565b820191906000526020600020905b81548152906001019060200180831161181b57829003601f168201915b5050509183525050600882015460208083019190915260098301805460408051601f600260001961010060018716150201909416939093049283018590048502810185018252828152940193928301828280156118d65780601f106118ab576101008083540402835291602001916118d6565b820191906000526020600020905b8154815290600101906020018083116118b957829003601f168201915b5050509183525050600a8201546020820152600b82015460409091019060ff16600981111561190157fe5b600981111561190c57fe5b8152600b820154600160a060020a0361010090910481166020830152600c83015481166040830152600d90920154909116606090910152610160810151909150600981111561195757fe5b9392505050565b610676816127d0565b6119703361204c565b15156119915760405160e560020a62461bcd0281526004016104fd90613794565b610cd533612818565b6000610c9c60038363ffffffff6126ab16565b600454600160a060020a031681565b61067681612860565b6000610c9c60018363ffffffff6126ab16565b8160046000828152600760205260409020600b015460ff1660098111156119fb57fe5b14611a1b5760405160e560020a62461bcd0281526004016104fd90613764565b611a24336119c5565b1515611a455760405160e560020a62461bcd0281526004016104fd906137c4565b600083815260076020526040902060030154600160a060020a0316338114611a825760405160e560020a62461bcd0281526004016104fd90613784565b6000848152600760208190526040909120600b01805460ff19169091179055611aab84846128a8565b7ff00b9a5725b80c54016f42114f6ed7792d22eecb116011c4afac29c57bef6c9584604051611ada9190613834565b60405180910390a150505050565b60055481565b6000806000806000806000806000806000611b07612e78565b611b0f612f0c565b60008e81526007602090815260409182902082516101e0810184528154815260018083015482850152600280840154600160a060020a0390811684880152600385015416606084015260048401805487516101009482161594909402600019011691909104601f810186900486028301860190965285825291949293608086019391929190830182828015611be55780601f10611bba57610100808354040283529160200191611be5565b820191906000526020600020905b815481529060010190602001808311611bc857829003601f168201915b505050918352505060058201805460408051602060026001851615610100026000190190941693909304601f8101849004840282018401909252818152938201939291830182828015611c795780601f10611c4e57610100808354040283529160200191611c79565b820191906000526020600020905b815481529060010190602001808311611c5c57829003601f168201915b505050918352505060068201805460408051602060026001851615610100026000190190941693909304601f8101849004840282018401909252818152938201939291830182828015611d0d5780601f10611ce257610100808354040283529160200191611d0d565b820191906000526020600020905b815481529060010190602001808311611cf057829003601f168201915b505050918352505060078201805460408051602060026001851615610100026000190190941693909304601f8101849004840282018401909252818152938201939291830182828015611da15780601f10611d7657610100808354040283529160200191611da1565b820191906000526020600020905b815481529060010190602001808311611d8457829003601f168201915b5050509183525050600882015460208083019190915260098301805460408051601f60026000196101006001871615020190941693909304928301859004850281018501825282815294019392830182828015611e3f5780601f10611e1457610100808354040283529160200191611e3f565b820191906000526020600020905b815481529060010190602001808311611e2257829003601f168201915b5050509183525050600a8201546020820152600b82015460409091019060ff166009811115611e6a57fe5b6009811115611e7557fe5b8152602001600b820160019054906101000a9004600160a060020a0316600160a060020a0316600160a060020a03168152602001600c820160009054906101000a9004600160a060020a0316600160a060020a0316600160a060020a03168152602001600d820160009054906101000a9004600160a060020a0316600160a060020a0316600160a060020a031681525050915081600001519c5081602001519b50600860008f815260200190815260200160002061012060405190810160405290816000820154600019166000191681526020016001820154600019166000191681526020016002820154600019166000191681526020016003820154600019166000191681526020016004820154600019166000191681526020016005820154600019166000191681526020016006820154600019166000191681526020016007820154600019166000191681526020016008820154600019166000191681525050905080600001519a50806020015199508060400151985080606001519750806080015196508060c0015195508060c0015194508060e00151935080610100015192508c8c8c8c8c8c8c8c8c8c8c9c509c509c509c509c509c509c509c509c509c509c50505091939597999b90929496989a50565b6000610c9c818363ffffffff6126ab16565b61206733610c89565b15156120885760405160e560020a62461bcd0281526004016104fd90613744565b610cd533612987565b6000600654600554016040516020016120aa9190613834565b6040516020818303038152906040526040518082805190602001908083835b602083106120e85780518252601f1990920191602091820191016120c9565b6001836020036101000a03801982511681845116808217855250505050505090500191505060405180910390206001900490506101e0604051908101604052806006548152602001600554815260200133600160a060020a0316815260200133600160a060020a031681526020018881526020018781526020018681526020018581526020018281526020018481526020018381526020016000600981111561218d57fe5b81526000602080830182905260408084018390526060938401839052600554835260078252918290208451815584820151600182015591840151600283018054600160a060020a0319908116600160a060020a03938416179091559385015160038401805490951691161790925560808301518051919261221692600485019290910190612f58565b5060a08201518051612232916005840191602090910190612f58565b5060c0820151805161224e916006840191602090910190612f58565b5060e0820151805161226a916007840191602090910190612f58565b5061010082015160088201556101208201518051612292916009840191602090910190612f58565b50610140820151600a820155610160820151600b8201805460ff191660018360098111156122bc57fe5b0217905550610180820151600b82018054600160a060020a0392831661010090810274ffffffffffffffffffffffffffffffffffffffff0019909216919091179091556101a0840151600c84018054918416600160a060020a03199283161790556101c090940151600d9093018054939092169290931691909117905560408051610120810182524340815260006020808301828152838501838152606085018481526080860185815260a0870186815260c0880187815260e089018881529a8901888152600580548a526008988990529a9098209851895594516001890155925160028801559051600387015551600486015551848601555160068401559351600783015551920191909155546123d3906129cf565b6006805460019081019091556005805490910190556123f13361204c565b1515612400576124003361195e565b7f8e55ccfc9778ff8eba1646d765cf1982537ce0f9257054a17b48aad7452501836005546040516124319190613834565b60405180910390a150505050505050565b8060036000828152600760205260409020600b015460ff16600981111561246557fe5b146124855760405160e560020a62461bcd0281526004016104fd906137f4565b6000828152600760205260409020600a0154348111156124ba5760405160e560020a62461bcd0281526004016104fd906137a4565b6000838152600860208181526040808420434093019290925560079052808220600281018054600160a060020a03191633179055600b8101805460ff19166006179055600c810154600a9091015491518693928392600160a060020a03169181156108fc02919084818181858888f1935050505015801561253f573d6000803e3d6000fd5b506125493361199a565b1515612558576125583361066d565b61256186612a77565b7ff8d4d18c02478c21f38cf4aa60c47b8baf0215ad5d0b0ad565ef8580e03c7ef1866040516106169190613834565b8060036000828152600760205260409020600b015460ff1660098111156125b357fe5b146125d35760405160e560020a62461bcd0281526004016104fd906137f4565b6125dc336119bc565b6000828152600760205260409020600281018054600160a060020a031990811633908117909255600c830180549091169091179055600b01805460ff1916600817905561262882612b36565b7fa8142743f8f70a4c26f3691cf4ed59718381fb2f18070ec52be1f1022d855557826040516126579190613834565b60405180910390a15050565b61267460038263ffffffff612c3b16565b604051600160a060020a038216907f28b26e7a3d20aedbc5f8f2ebf7da671c0491723a2b78f47a097b0e46dee0714290600090a250565b6000600160a060020a03821615156126d85760405160e560020a62461bcd0281526004016104fd906137e4565b50600160a060020a03166000908152602091909152604090205460ff1690565b61270960038263ffffffff612cb516565b604051600160a060020a038216907fe3f5ed5f263f1f01764a96edfc7d025f511ec5f7d180e8816908b78bcf74f09890600090a250565b61275160018263ffffffff612cb516565b604051600160a060020a038216907f126174f6cf49c81cdb4a9214c6b8f037bef55b4ec31e4fc776cea2a1c8a88d5990600090a250565b61279960018263ffffffff612c3b16565b604051600160a060020a038216907fddbf200aa634dc3fb81cfd68583dd1040d1c751d335e1d86b631bde3e977fea890600090a250565b6127e160008263ffffffff612c3b16565b604051600160a060020a038216907f2e0ded4123377a3c2bc9a26f1717655a129e2f20752924d42e730ec89c83dbd090600090a250565b61282960008263ffffffff612cb516565b604051600160a060020a038216907fa5e0f060af304ab17dd418c7927e3da3ae7868189bf387aee09ab179ccc572f290600090a250565b61287160028263ffffffff612c3b16565b604051600160a060020a038216907f71ae26cad02663e3d92efd6ec56031a80d74a20c0ab4183faa8bf262261c9baa90600090a250565b8160086000828152600760205260409020600b015460ff1660098111156128cb57fe5b146128eb5760405160e560020a62461bcd0281526004016104fd906137b4565b6128f4336119c5565b15156129155760405160e560020a62461bcd0281526004016104fd906137c4565b6000838152600760209081526040808320600b8101805460ff19166003179055600a018590556008909152908190204340600590910155517fa96ae0fc3224ebd79eebfe54bd130cc9cb94416cddd1f2386115e00b725324689061297a908590613834565b60405180910390a1505050565b61299860028263ffffffff612cb516565b604051600160a060020a038216907fdb7176e79cffef81cb01767dd0447a0b24bb72ca9778d4b245581086b2a7e6db90600090a250565b80600080828152600760205260409020600b015460ff1660098111156129f157fe5b14612a115760405160e560020a62461bcd0281526004016104fd90613804565b6000828152600760209081526040808320600b01805460ff19166001179055600890915290204340600290910155612a4882612d2d565b7f5afe3b1bf87069693c075da5c22a98d63d1aef98a30dbbe538d0781a98b77ee5826040516126579190613834565b8060036000828152600760205260409020600b015460ff166009811115612a9a57fe5b14612aba5760405160e560020a62461bcd0281526004016104fd906137f4565b612ac33361066d565b60008281526007602052604090819020600281018054600160a060020a031990811633908117909255600d830180549091169091179055600b01805460ff19166008179055517fa8142743f8f70a4c26f3691cf4ed59718381fb2f18070ec52be1f1022d85555790612657908490613834565b8060086000828152600760205260409020600b015460ff166009811115612b5957fe5b14612b795760405160e560020a62461bcd0281526004016104fd906137b4565b612b8233610c89565b1515612ba35760405160e560020a62461bcd0281526004016104fd90613744565b600082815260076020526040902060030154600160a060020a0316338114612be05760405160e560020a62461bcd0281526004016104fd90613784565b6000838152600760208181526040808420600b01805460ff191660031790556008909152918290204340910155517fa96ae0fc3224ebd79eebfe54bd130cc9cb94416cddd1f2386115e00b725324689061297a908590613834565b600160a060020a0381161515612c665760405160e560020a62461bcd0281526004016104fd906137e4565b612c7082826126ab565b15612c905760405160e560020a62461bcd0281526004016104fd90613814565b600160a060020a0316600090815260209190915260409020805460ff19166001179055565b600160a060020a0381161515612ce05760405160e560020a62461bcd0281526004016104fd906137e4565b612cea82826126ab565b1515612d0b5760405160e560020a62461bcd0281526004016104fd90613774565b600160a060020a0316600090815260209190915260409020805460ff19169055565b8060016000828152600760205260409020600b015460ff166009811115612d5057fe5b14612d705760405160e560020a62461bcd0281526004016104fd906137d4565b6000828152600760209081526040808320600b01805460ff1916600290811790915560089092529091204340910155612da882612dd7565b7f0c70d89b176b3792b9ff1a750105ae23454802a52d42ea9c264300e29fd8a3e1826040516126579190613834565b8060026000828152600760205260409020600b015460ff166009811115612dfa57fe5b14612e1a5760405160e560020a62461bcd0281526004016104fd90613824565b6000828152600760209081526040808320600b01805460ff191660039081179091556008909252918290204340910155517fa96ae0fc3224ebd79eebfe54bd130cc9cb94416cddd1f2386115e00b7253246890612657908490613834565b6101e06040519081016040528060008152602001600081526020016000600160a060020a031681526020016000600160a060020a031681526020016060815260200160608152602001606081526020016060815260200160008152602001606081526020016000815260200160006009811115612ef157fe5b81526000602082018190526040820181905260609091015290565b6040805161012081018252600080825260208201819052918101829052606081018290526080810182905260a0810182905260c0810182905260e0810182905261010081019190915290565b828054600181600116156101000203166002900490600052602060002090601f016020900481019282601f10612f9957805160ff1916838001178555612fc6565b82800160010185558215612fc6579182015b82811115612fc6578251825591602001919060010190612fab565b50612fd2929150612fd6565b5090565b612ff091905b80821115612fd25760008155600101612fdc565b90565b60006119578235613a50565b6000601f8201831361301057600080fd5b813561302361301e82613a1e565b6139f7565b9150808252602083016020830185838301111561303f57600080fd5b61304a838284613a78565b50505092915050565b60006119578235612ff0565b60006020828403121561307157600080fd5b600061307d8484612ff3565b949350505050565b60008060008060008060c0878903121561309e57600080fd5b863567ffffffffffffffff8111156130b557600080fd5b6130c189828a01612fff565b965050602087013567ffffffffffffffff8111156130de57600080fd5b6130ea89828a01612fff565b955050604087013567ffffffffffffffff81111561310757600080fd5b61311389828a01612fff565b945050606087013567ffffffffffffffff81111561313057600080fd5b61313c89828a01612fff565b935050608087013567ffffffffffffffff81111561315957600080fd5b61316589828a01612fff565b92505060a061317689828a01613053565b9150509295509295509295565b60006020828403121561319557600080fd5b600061307d8484613053565b600080604083850312156131b457600080fd5b60006131c08585613053565b92505060206131d185828601613053565b9150509250929050565b6131e481613a50565b82525050565b60006131f582613a4c565b8084526020840193508360208202850161320e85613a46565b60005b848110156132455783830388526132298383516135a1565b925061323482613a46565b602098909801979150600101613211565b50909695505050505050565b6131e481613a5c565b6131e481612ff0565b6131e481613a6d565b600061327782613a4c565b80845261328b816020860160208601613a84565b61329481613ab4565b9093016020019392505050565b601581527f494e56414c49443a20556e617574686f72697a65640000000000000000000000602082015260400190565b601781527f494e56414c49443a204e6f7420612052657461696c6572000000000000000000602082015260400190565b601781527f494e56414c49443a204e6f74206120436f6e73756d6572000000000000000000602082015260400190565b60208082527f494e56414c49443a204e6f7420536f6c6420546f204469737472696275746f729082015260400190565b601d81527f494e56414c49443a204163636f756e742048617665204e6f20526f6c65000000602082015260400190565b601581527f494e56414c49443a204e6f742056657269666965640000000000000000000000602082015260400190565b601581527f494e56414c49443a204e6f742061204661726d65720000000000000000000000602082015260400190565b601c81527f494e56414c49443a20496e73756666696369656e7420416d6f756e7400000000602082015260400190565b601a81527f494e56414c49443a204974656d204e6f74205265636569766564000000000000602082015260400190565b601a81527f494e56414c49443a204e6f742061204469737472696275746f72000000000000602082015260400190565b601b81527f494e56414c49443a204974656d204e6f742050726f6365737365640000000000602082015260400190565b601581527f494e56414c49443a204445414420416464726573730000000000000000000000602082015260400190565b601a81527f494e56414c49443a204974656d204e6f7420466f722053616c65000000000000602082015260400190565b601b81527f494e56414c49443a204974656d204e6f74204861727665737465640000000000602082015260400190565b601a81527f494e56414c49443a204163636f756e74204861766520526f6c65000000000000602082015260400190565b601a81527f494e56414c49443a204974656d204e6f74205061636b61676564000000000000602082015260400190565b80516000906101e08401906135b6858261325a565b5060208301516135c9602086018261325a565b5060408301516135dc60408601826131db565b5060608301516135ef60608601826131db565b5060808301518482036080860152613607828261326c565b91505060a083015184820360a0860152613621828261326c565b91505060c083015184820360c086015261363b828261326c565b91505060e083015184820360e0860152613655828261326c565b91505061010083015161366c61010086018261325a565b50610120830151848203610120860152613686828261326c565b91505061014083015161369d61014086018261325a565b506101608301516136b2610160860182613263565b506101808301516136c76101808601826131db565b506101a08301516136dc6101a08601826131db565b506101c08301516136f16101c08601826131db565b509392505050565b60208101610c9c82846131db565b6020808252810161195781846131ea565b60208101610c9c8284613251565b60208101610c9c8284613263565b60208082528101610c9c816132a1565b60208082528101610c9c816132d1565b60208082528101610c9c81613301565b60208082528101610c9c81613331565b60208082528101610c9c81613361565b60208082528101610c9c81613391565b60208082528101610c9c816133c1565b60208082528101610c9c816133f1565b60208082528101610c9c81613421565b60208082528101610c9c81613451565b60208082528101610c9c81613481565b60208082528101610c9c816134b1565b60208082528101610c9c816134e1565b60208082528101610c9c81613511565b60208082528101610c9c81613541565b60208082528101610c9c81613571565b60208101610c9c828461325a565b6101008101613851828b61325a565b61385e602083018a61325a565b61386b60408301896131db565b61387860608301886131db565b818103608083015261388a818761326c565b905081810360a083015261389e818661326c565b905081810360c08301526138b2818561326c565b905081810360e08301526138c6818461326c565b9a9950505050505050505050565b61016081016138e3828e61325a565b6138f0602083018d61325a565b6138fd604083018c61325a565b61390a606083018b61325a565b613917608083018a61325a565b61392460a083018961325a565b61393160c083018861325a565b61393e60e083018761325a565b61394c61010083018661325a565b61395a61012083018561325a565b61396861014083018461325a565b9c9b505050505050505050505050565b6101208101613987828c61325a565b613994602083018b61325a565b6139a1604083018a61325a565b81810360608301526139b3818961326c565b90506139c2608083018861325a565b6139cf60a083018761325a565b6139dc60c08301866131db565b6139e960e08301856131db565b6138c66101008301846131db565b60405181810167ffffffffffffffff81118282101715613a1657600080fd5b604052919050565b600067ffffffffffffffff821115613a3557600080fd5b506020601f91909101601f19160190565b60200190565b5190565b600160a060020a031690565b151590565b6000600a8210612fd257fe5b6000610c9c82613a61565b82818337506000910152565b60005b83811015613a9f578181015183820152602001613a87565b83811115613aae576000848401525b50505050565b601f01601f1916905600a265627a7a72305820e517d9fac93b6aa4f15149d1fec7d93670749c4a565c51f7fbef237d5447482c6c6578706572696d656e74616cf50037",
  "linkReferences": {},
  "deployedLinkReferences": {}
}