{
  "_format": "hh-sol-artifact-1",
  "contractName": "SupplyChain",
  "sourceName": "contracts/base/SupplyChain.sol",
  "abi": [
    {
      "constant": false,
      "inputs": [
        {
          "name": "_upc",
          "type": "uint256"
        }
      ],
      "name": "buyAsRetail",
      "outputs": [],
      "payable": true,
      "stateMutability": "payable",
      "type": "function"
    },
    {
      "constant": false,
      "inputs": [
        {
          "name": "account",
          "type": "address"
        }
      ],
      "name": "addConsumer",
      "outputs": [],
      "payable": false,
      "stateMutability": "nonpayable",
      "type": "function"
    },
    {
      "constant": false,
      "inputs": [
        {
          "name": "_upc",
          "type": "uint256"
        }
      ],
      "name": "buyAsDist",
      "outputs": [],
      "payable": true,
      "stateMutability": "payable",
      "type": "function"
    },
    {
      "constant": true,
      "inputs": [],
      "name": "fetchMyItems",
      "outputs": [
        {
          "components": [
            {
              "name": "sku",
              "type": "uint256"
            },
            {
              "name": "upc",
              "type": "uint256"
            },
            {
              "name": "ownerID",
              "type": "address"
            },
            {
              "name": "originFarmerID",
              "type": "address"
            },
            {
              "name": "originFarmName",
              "type": "string"
            },
            {
              "name": "originFarmMetadata",
              "type": "string"
            },
            {
              "name": "originFarmLatitude",
              "type": "string"
            },
            {
              "name": "originFarmLongitude",
              "type": "string"
            },
            {
              "name": "productID",
              "type": "uint256"
            },
            {
              "name": "productMetadata",
              "type": "string"
            },
            {
              "name": "productPrice",
              "type": "uint256"
            },
            {
              "name": "itemState",
              "type": "uint8"
            },
            {
              "name": "distributorID",
              "type": "address"
            },
            {
              "name": "retailerID",
              "type": "address"
            },
            {
              "name": "consumerID",
              "type": "address"
            }
          ],
          "name": "",
          "type": "tuple[]"
        }
      ],
      "payable": false,
      "stateMutability": "view",
      "type": "function"
    },
    {
      "constant": false,
      "inputs": [],
      "name": "kill",
      "outputs": [],
      "payable": false,
      "stateMutability": "nonpayable",
      "type": "function"
    },
    {
      "constant": true,
      "inputs": [],
      "name": "sku",
      "outputs": [
        {
          "name": "",
          "type": "uint256"
        }
      ],
      "payable": false,
      "stateMutability": "view",
      "type": "function"
    },
    {
      "constant": true,
      "inputs": [
        {
          "name": "account",
          "type": "address"
        }
      ],
      "name": "isRetailer",
      "outputs": [
        {
          "name": "",
          "type": "bool"
        }
      ],
      "payable": false,
      "stateMutability": "view",
      "type": "function"
    },
    {
      "constant": false,
      "inputs": [],
      "name": "renounceConsumer",
      "outputs": [],
      "payable": false,
      "stateMutability": "nonpayable",
      "type": "function"
    },
    {
      "constant": false,
      "inputs": [],
      "name": "renounceDistributor",
      "outputs": [],
      "payable": false,
      "stateMutability": "nonpayable",
      "type": "function"
    },
    {
      "constant": true,
      "inputs": [
        {
          "name": "_upc",
          "type": "uint256"
        }
      ],
      "name": "fetchItemBufferTwo",
      "outputs": [
        {
          "name": "itemSKU",
          "type": "uint256"
        },
        {
          "name": "itemUPC",
          "type": "uint256"
        },
        {
          "name": "productID",
          "type": "uint256"
        },
        {
          "name": "productMetadata",
          "type": "string"
        },
        {
          "name": "productPrice",
          "type": "uint256"
        },
        {
          "name": "itemState",
          "type": "uint256"
        },
        {
          "name": "distributorID",
          "type": "address"
        },
        {
          "name": "retailerID",
          "type": "address"
        },
        {
          "name": "consumerID",
          "type": "address"
        }
      ],
      "payable": false,
      "stateMutability": "view",
      "type": "function"
    },
    {
      "constant": true,
      "inputs": [],
      "name": "DEFAULT_STATE",
      "outputs": [
        {
          "name": "",
          "type": "uint8"
        }
      ],
      "payable": false,
      "stateMutability": "view",
      "type": "function"
    },
    {
      "constant": false,
      "inputs": [
        {
          "name": "account",
          "type": "address"
        }
      ],
      "name": "addDistributor",
      "outputs": [],
      "payable": false,
      "stateMutability": "nonpayable",
      "type": "function"
    },
    {
      "constant": true,
      "inputs": [
        {
          "name": "_upc",
          "type": "uint256"
        }
      ],
      "name": "fetchItemBufferOne",
      "outputs": [
        {
          "name": "itemSKU",
          "type": "uint256"
        },
        {
          "name": "itemUPC",
          "type": "uint256"
        },
        {
          "name": "ownerID",
          "type": "address"
        },
        {
          "name": "originFarmerID",
          "type": "address"
        },
        {
          "name": "originFarmName",
          "type": "string"
        },
        {
          "name": "originFarmMetadata",
          "type": "string"
        },
        {
          "name": "originFarmLatitude",
          "type": "string"
        },
        {
          "name": "originFarmLongitude",
          "type": "string"
        }
      ],
      "payable": false,
      "stateMutability": "view",
      "type": "function"
    },
    {
      "constant": true,
      "inputs": [
        {
          "name": "_upc",
          "type": "uint256"
        }
      ],
      "name": "fetchCurrentState",
      "outputs": [
        {
          "name": "itemState",
          "type": "uint256"
        }
      ],
      "payable": false,
      "stateMutability": "view",
      "type": "function"
    },
    {
      "constant": false,
      "inputs": [
        {
          "name": "account",
          "type": "address"
        }
      ],
      "name": "addFarmer",
      "outputs": [],
      "payable": false,
      "stateMutability": "nonpayable",
      "type": "function"
    },
    {
      "constant": false,
      "inputs": [],
      "name": "renounceFarmer",
      "outputs": [],
      "payable": false,
      "stateMutability": "nonpayable",
      "type": "function"
    },
    {
      "constant": true,
      "inputs": [
        {
          "name": "account",
          "type": "address"
        }
      ],
      "name": "isConsumer",
      "outputs": [
        {
          "name": "",
          "type": "bool"
        }
      ],
      "payable": false,
      "stateMutability": "view",
      "type": "function"
    },
    {
      "constant": true,
      "inputs": [],
      "name": "owner",
      "outputs": [
        {
          "name": "",
          "type": "address"
        }
      ],
      "payable": false,
      "stateMutability": "view",
      "type": "function"
    },
    {
      "constant": false,
      "inputs": [
        {
          "name": "account",
          "type": "address"
        }
      ],
      "name": "addRetailer",
      "outputs": [],
      "payable": false,
      "stateMutability": "nonpayable",
      "type": "function"
    },
    {
      "constant": true,
      "inputs": [
        {
          "name": "account",
          "type": "address"
        }
      ],
      "name": "isDistributor",
      "outputs": [
        {
          "name": "",
          "type": "bool"
        }
      ],
      "payable": false,
      "stateMutability": "view",
      "type": "function"
    },
    {
      "constant": false,
      "inputs": [
        {
          "name": "_upc",
          "type": "uint256"
        },
        {
          "name": "_amount",
          "type": "uint256"
        }
      ],
      "name": "shipItem",
      "outputs": [],
      "payable": false,
      "stateMutability": "nonpayable",
      "type": "function"
    },
    {
      "constant": true,
      "inputs": [],
      "name": "upc",
      "outputs": [
        {
          "name": "",
          "type": "uint256"
        }
      ],
      "payable": false,
      "stateMutability": "view",
      "type": "function"
    },
    {
      "constant": true,
      "inputs": [
        {
          "name": "_upc",
          "type": "uint256"
        }
      ],
      "name": "fetchItemBufferThree",
      "outputs": [
        {
          "name": "itemSKU",
          "type": "uint256"
        },
        {
          "name": "itemUPC",
          "type": "uint256"
        },
        {
          "name": "harvestedHash",
          "type": "bytes32"
        },
        {
          "name": "processedHash",
          "type": "bytes32"
        },
        {
          "name": "packagedHash",
          "type": "bytes32"
        },
        {
          "name": "sellToDistHash",
          "type": "bytes32"
        },
        {
          "name": "buyAsDistHash",
          "type": "bytes32"
        },
        {
          "name": "sellToRetailHash",
          "type": "bytes32"
        },
        {
          "name": "buyAsRetailHash",
          "type": "bytes32"
        },
        {
          "name": "sellToConsumerHash",
          "type": "bytes32"
        },
        {
          "name": "buyAsConsumerHash",
          "type": "bytes32"
        }
      ],
      "payable": false,
      "stateMutability": "view",
      "type": "function"
    },
    {
      "constant": true,
      "inputs": [
        {
          "name": "account",
          "type": "address"
        }
      ],
      "name": "isFarmer",
      "outputs": [
        {
          "name": "",
          "type": "bool"
        }
      ],
      "payable": false,
      "stateMutability": "view",
      "type": "function"
    },
    {
      "constant": false,
      "inputs": [],
      "name": "renounceRetailer",
      "outputs": [],
      "payable": false,
      "stateMutability": "nonpayable",
      "type": "function"
    },
    {
      "constant": false,
      "inputs": [
        {
          "name": "_originFarmName",
          "type": "string"
        },
        {
          "name": "_originFarmMetadata",
          "type": "string"
        },
        {
          "name": "_originFarmLatitude",
          "type": "string"
        },
        {
          "name": "_originFarmLongitude",
          "type": "string"
        },
        {
          "name": "_productMetadata",
          "type": "string"
        },
        {
          "name": "_productPrice",
          "type": "uint256"
        }
      ],
      "name": "harvestItem",
      "outputs": [],
      "payable": false,
      "stateMutability": "nonpayable",
      "type": "function"
    },
    {
      "constant": false,
      "inputs": [
        {
          "name": "_upc",
          "type": "uint256"
        }
      ],
      "name": "buyAsConsumer",
      "outputs": [],
      "payable": true,
      "stateMutability": "payable",
      "type": "function"
    },
    {
      "inputs": [],
      "payable": false,
      "stateMutability": "nonpayable",
      "type": "constructor"
    },
    {
      "anonymous": false,
      "inputs": [
        {
          "indexed": false,
          "name": "upc",
          "type": "uint256"
        }
      ],
      "name": "Harvested",
      "type": "event"
    },
    {
      "anonymous": false,
      "inputs": [
        {
          "indexed": false,
          "name": "upc",
          "type": "uint256"
        }
      ],
      "name": "Processed",
      "type": "event"
    },
    {
      "anonymous": false,
      "inputs": [
        {
          "indexed": false,
          "name": "upc",
          "type": "uint256"
        }
      ],
      "name": "Packaged",
      "type": "event"
    },
    {
      "anonymous": false,
      "inputs": [
        {
          "indexed": false,
          "name": "upc",
          "type": "uint256"
        }
      ],
      "name": "ForSale",
      "type": "event"
    },
    {
      "anonymous": false,
      "inputs": [
        {
          "indexed": false,
          "name": "upc",
          "type": "uint256"
        }
      ],
      "name": "SoldToDist",
      "type": "event"
    },
    {
      "anonymous": false,
      "inputs": [
        {
          "indexed": false,
          "name": "upc",
          "type": "uint256"
        }
      ],
      "name": "SoldToRetail",
      "type": "event"
    },
    {
      "anonymous": false,
      "inputs": [
        {
          "indexed": false,
          "name": "upc",
          "type": "uint256"
        }
      ],
      "name": "SoldToConsumer",
      "type": "event"
    },
    {
      "anonymous": false,
      "inputs": [
        {
          "indexed": false,
          "name": "upc",
          "type": "uint256"
        }
      ],
      "name": "Shipped",
      "type": "event"
    },
    {
      "anonymous": false,
      "inputs": [
        {
          "indexed": false,
          "name": "upc",
          "type": "uint256"
        }
      ],
      "name": "Received",
      "type": "event"
    },
    {
      "anonymous": false,
      "inputs": [
        {
          "indexed": false,
          "name": "upc",
          "type": "uint256"
        }
      ],
      "name": "Purchased",
      "type": "event"
    },
    {
      "anonymous": false,
      "inputs": [
        {
          "indexed": true,
          "name": "account",
          "type": "address"
        }
      ],
      "name": "ConsumerAdded",
      "type": "event"
    },
    {
      "anonymous": false,
      "inputs": [
        {
          "indexed": true,
          "name": "account",
          "type": "address"
        }
      ],
      "name": "ConsumerRemoved",
      "type": "event"
    },
    {
      "anonymous": false,
      "inputs": [
        {
          "indexed": true,
          "name": "account",
          "type": "address"
        }
      ],
      "name": "RetailerAdded",
      "type": "event"
    },
    {
      "anonymous": false,
      "inputs": [
        {
          "indexed": true,
          "name": "account",
          "type": "address"
        }
      ],
      "name": "RetailerRemoved",
      "type": "event"
    },
    {
      "anonymous": false,
      "inputs": [
        {
          "indexed": true,
          "name": "account",
          "type": "address"
        }
      ],
      "name": "DistributorAdded",
      "type": "event"
    },
    {
      "anonymous": false,
      "inputs": [
        {
          "indexed": true,
          "name": "account",
          "type": "address"
        }
      ],
      "name": "DistributorRemoved",
      "type": "event"
    },
    {
      "anonymous": false,
      "inputs": [
        {
          "indexed": true,
          "name": "account",
          "type": "address"
        }
      ],
      "name": "FarmerAdded",
      "type": "event"
    },
    {
      "anonymous": false,
      "inputs": [
        {
          "indexed": true,
          "name": "account",
          "type": "address"
        }
      ],
      "name": "FarmerRemoved",
      "type": "event"
    }
  ],
  "bytecode": "0x60806040523480156200001157600080fd5b50620000263364010000000062000084810204565b6200003a33640100000000620000d6810204565b6200004e3364010000000062000128810204565b62000062336401000000006200017a810204565b60048054600160a060020a03191633179055600060068190556005556200037f565b6200009f60008264010000000062002c36620001cc82021704565b604051600160a060020a038216907f2e0ded4123377a3c2bc9a26f1717655a129e2f20752924d42e730ec89c83dbd090600090a250565b620000f160018264010000000062002c36620001cc82021704565b604051600160a060020a038216907fddbf200aa634dc3fb81cfd68583dd1040d1c751d335e1d86b631bde3e977fea890600090a250565b6200014360028264010000000062002c36620001cc82021704565b604051600160a060020a038216907f71ae26cad02663e3d92efd6ec56031a80d74a20c0ab4183faa8bf262261c9baa90600090a250565b6200019560038264010000000062002c36620001cc82021704565b604051600160a060020a038216907f28b26e7a3d20aedbc5f8f2ebf7da671c0491723a2b78f47a097b0e46dee0714290600090a250565b600160a060020a03811615156200021a576040517f08c379a0000000000000000000000000000000000000000000000000000000008152600401620002119062000355565b60405180910390fd5b6200022f82826401000000006200028e810204565b1562000269576040517f08c379a000000000000000000000000000000000000000000000000000000000815260040162000211906200036d565b600160a060020a0316600090815260209190915260409020805460ff19166001179055565b6000600160a060020a0382161515620002d5576040517f08c379a0000000000000000000000000000000000000000000000000000000008152600401620002119062000355565b50600160a060020a03166000908152602091909152604090205460ff1690565b601581527f494e56414c49443a204445414420416464726573730000000000000000000000602082015260400190565b601a81527f494e56414c49443a204163636f756e74204861766520526f6c65000000000000602082015260400190565b602080825281016200036781620002f5565b92915050565b60208082528101620003678162000325565b613af3806200038f6000396000f30060806040526004361061015e5763ffffffff7c01000000000000000000000000000000000000000000000000000000006000350416630dd157a98114610163578063112940f91461017857806315758be51461019857806315c9ae10146101ab57806341c0e1b5146101d65780634462f40c146101eb5780635da09b881461020d57806361e6982d1461023a578063644241db1461024f57806366225ff914610264578063721c8560146102995780637250e224146102bb57806377c45913146102db5780637c0b4ab11461030f57806380c3f96d1461032f57806380fc0ce41461034f578063834ff739146103645780638da5cb5b146103845780638ec4f505146103a65780638f0c86fa146103c65780639a5aec9b146103e6578063ac2db09d14610406578063acd5fba61461041b578063b942906914610452578063db0e6a2f14610472578063df8627f514610487578063f3b1cde8146104a7575b600080fd5b61017661017136600461317e565b6104ba565b005b34801561018457600080fd5b5061017661019336600461305a565b61066d565b6101766101a636600461317e565b610679565b3480156101b757600080fd5b506101c06107e8565b6040516101cd9190613702565b60405180910390f35b3480156101e257600080fd5b50610176610c43565b3480156101f757600080fd5b50610200610c7e565b6040516101cd919061382f565b34801561021957600080fd5b5061022d61022836600461305a565b610c84565b6040516101cd9190613713565b34801561024657600080fd5b50610176610c9d565b34801561025b57600080fd5b50610176610cd2565b34801561027057600080fd5b5061028461027f36600461317e565b610d05565b6040516101cd99989796959493929190613973565b3480156102a557600080fd5b506102ae611120565b6040516101cd9190613721565b3480156102c757600080fd5b506101766102d636600461305a565b611125565b3480156102e757600080fd5b506102fb6102f636600461317e565b61112e565b6040516101cd98979695949392919061383d565b34801561031b57600080fd5b5061020061032a36600461317e565b611597565b34801561033b57600080fd5b5061017661034a36600461305a565b611959565b34801561035b57600080fd5b50610176611962565b34801561037057600080fd5b5061022d61037f36600461305a565b611995565b34801561039057600080fd5b506103996119a8565b6040516101cd91906136f4565b3480156103b257600080fd5b506101766103c136600461305a565b6119b7565b3480156103d257600080fd5b5061022d6103e136600461305a565b6119c0565b3480156103f257600080fd5b5061017661040136600461319c565b6119d3565b34801561041257600080fd5b50610200611ae3565b34801561042757600080fd5b5061043b61043636600461317e565b611ae9565b6040516101cd9b9a999897969594939291906138cf565b34801561045e57600080fd5b5061022d61046d36600461305a565b612047565b34801561047e57600080fd5b50610176612059565b34801561049357600080fd5b506101766104a2366004613080565b61208c565b6101766104b536600461317e565b61243d565b8060036000828152600760205260409020600b015460ff1660098111156104dd57fe5b146105065760405160e560020a62461bcd0281526004016104fd906137ef565b60405180910390fd5b6000828152600760205260409020600a01543481111561053b5760405160e560020a62461bcd0281526004016104fd9061379f565b600083815260086020908152604080832043406006909101556007909152808220600281018054600160a060020a03191633179055600b81018054600560ff199091161790819055600a90910154915186939283926101009004600160a060020a0316916108fc821502919084818181858888f193505050501580156105c5573d6000803e3d6000fd5b506105cf33610c84565b15156105de576105de336119b7565b6105e78661258b565b7f54dafe9ea34c9448f0b09cec86e7ede9744e44adedf54b15e3ad40a0942f2fb986604051610616919061382f565b60405180910390a15050600081815260076020526040808220600a0154905190913483900391339183156108fc02918491818181858888f19350505050158015610664573d6000803e3d6000fd5b50505050505050565b6106768161265e565b50565b8060036000828152600760205260409020600b015460ff16600981111561069c57fe5b146106bc5760405160e560020a62461bcd0281526004016104fd906137ef565b6000828152600760205260409020600a0154348111156106f15760405160e560020a62461bcd0281526004016104fd9061379f565b60008381526008602090815260408083204340600491820155600790925280832060028101805433600160a060020a03199091168117909155600b8201805474ffffffffffffffffffffffffffffffffffffffff0019166101009092029190911760ff19169093179092556003820154600a9092015490518693928392600160a060020a039091169181156108fc02919084818181858888f193505050501580156107a0573d6000803e3d6000fd5b506107aa336119c0565b15156107b9576107b933611125565b7f2900f7f2d701a69acf040421bf8d1b8ac9b76d9c3aa0eb50dd78ec1e8d70e22e86604051610616919061382f565b6060600080606060008060006006549550600094508560405190808252806020026020018201604052801561083757816020015b610824612e73565b81526020019060019003908161081c5790505b509350600092505b858311610c3857600083815260076020526040902060020154600160a060020a0316331415610c2d575050600181810160008181526007602090815260409182902082516101e081018452815481528186015481840152600280830154600160a060020a0390811683870152600384015416606083015260048301805486516101009982161599909902600019011691909104601f8101859004850288018501909552848752949591949093859360808601939291908301828280156109465780601f1061091b57610100808354040283529160200191610946565b820191906000526020600020905b81548152906001019060200180831161092957829003601f168201915b505050918352505060058201805460408051602060026001851615610100026000190190941693909304601f81018490048402820184019092528181529382019392918301828280156109da5780601f106109af576101008083540402835291602001916109da565b820191906000526020600020905b8154815290600101906020018083116109bd57829003601f168201915b505050918352505060068201805460408051602060026001851615610100026000190190941693909304601f8101849004840282018401909252818152938201939291830182828015610a6e5780601f10610a4357610100808354040283529160200191610a6e565b820191906000526020600020905b815481529060010190602001808311610a5157829003601f168201915b505050918352505060078201805460408051602060026001851615610100026000190190941693909304601f8101849004840282018401909252818152938201939291830182828015610b025780601f10610ad757610100808354040283529160200191610b02565b820191906000526020600020905b815481529060010190602001808311610ae557829003601f168201915b5050509183525050600882015460208083019190915260098301805460408051601f60026000196101006001871615020190941693909304928301859004850281018501825282815294019392830182828015610ba05780601f10610b7557610100808354040283529160200191610ba0565b820191906000526020600020905b815481529060010190602001808311610b8357829003601f168201915b5050509183525050600a8201546020820152600b82015460409091019060ff166009811115610bcb57fe5b6009811115610bd657fe5b8152600b820154600160a060020a0361010090910481166020830152600c83015481166040830152600d909201549091166060909101528451859087908110610c1b57fe5b60209081029091010152600194909401935b60019092019161083f565b509195945050505050565b600454600160a060020a03163314610c705760405160e560020a62461bcd0281526004016104fd9061372f565b600454600160a060020a0316ff5b60065481565b6000610c9760028363ffffffff6126a616565b92915050565b610ca633611995565b1515610cc75760405160e560020a62461bcd0281526004016104fd9061374f565b610cd0336126f3565b565b610cdb336119c0565b1515610cfc5760405160e560020a62461bcd0281526004016104fd906137bf565b610cd03361273b565b600080600060606000806000806000610d1c612e73565b60008b81526007602090815260409182902082516101e0810184528154815260018083015482850152600280840154600160a060020a0390811684880152600385015416606084015260048401805487516101009482161594909402600019011691909104601f810186900486028301860190965285825291949293608086019391929190830182828015610df25780601f10610dc757610100808354040283529160200191610df2565b820191906000526020600020905b815481529060010190602001808311610dd557829003601f168201915b505050918352505060058201805460408051602060026001851615610100026000190190941693909304601f8101849004840282018401909252818152938201939291830182828015610e865780601f10610e5b57610100808354040283529160200191610e86565b820191906000526020600020905b815481529060010190602001808311610e6957829003601f168201915b505050918352505060068201805460408051602060026001851615610100026000190190941693909304601f8101849004840282018401909252818152938201939291830182828015610f1a5780601f10610eef57610100808354040283529160200191610f1a565b820191906000526020600020905b815481529060010190602001808311610efd57829003601f168201915b505050918352505060078201805460408051602060026001851615610100026000190190941693909304601f8101849004840282018401909252818152938201939291830182828015610fae5780601f10610f8357610100808354040283529160200191610fae565b820191906000526020600020905b815481529060010190602001808311610f9157829003601f168201915b5050509183525050600882015460208083019190915260098301805460408051601f6002600019610100600187161502019094169390930492830185900485028101850182528281529401939283018282801561104c5780601f106110215761010080835404028352916020019161104c565b820191906000526020600020905b81548152906001019060200180831161102f57829003601f168201915b5050509183525050600a8201546020820152600b82015460409091019060ff16600981111561107757fe5b600981111561108257fe5b8152600b820154600160a060020a03610100918290048116602080850191909152600c85015482166040850152600d909401541660609092019190915282519183015190830151610120840151610140850151610160860151949f50929d50909b509950975090915060098111156110f657fe5b6101808201516101a08301516101c084015192975090955093509150509193959799909294969850565b600081565b61067681612783565b600080600080606080606080611142612e73565b60008a81526007602090815260409182902082516101e0810184528154815260018083015482850152600280840154600160a060020a0390811684880152600385015416606084015260048401805487516101009482161594909402600019011691909104601f8101869004860283018601909652858252919492936080860193919291908301828280156112185780601f106111ed57610100808354040283529160200191611218565b820191906000526020600020905b8154815290600101906020018083116111fb57829003601f168201915b505050918352505060058201805460408051602060026001851615610100026000190190941693909304601f81018490048402820184019092528181529382019392918301828280156112ac5780601f10611281576101008083540402835291602001916112ac565b820191906000526020600020905b81548152906001019060200180831161128f57829003601f168201915b505050918352505060068201805460408051602060026001851615610100026000190190941693909304601f81018490048402820184019092528181529382019392918301828280156113405780601f1061131557610100808354040283529160200191611340565b820191906000526020600020905b81548152906001019060200180831161132357829003601f168201915b505050918352505060078201805460408051602060026001851615610100026000190190941693909304601f81018490048402820184019092528181529382019392918301828280156113d45780601f106113a9576101008083540402835291602001916113d4565b820191906000526020600020905b8154815290600101906020018083116113b757829003601f168201915b5050509183525050600882015460208083019190915260098301805460408051601f600260001961010060018716150201909416939093049283018590048502810185018252828152940193928301828280156114725780601f1061144757610100808354040283529160200191611472565b820191906000526020600020905b81548152906001019060200180831161145557829003601f168201915b5050509183525050600a8201546020820152600b82015460409091019060ff16600981111561149d57fe5b60098111156114a857fe5b8152602001600b820160019054906101000a9004600160a060020a0316600160a060020a0316600160a060020a03168152602001600c820160009054906101000a9004600160a060020a0316600160a060020a0316600160a060020a03168152602001600d820160009054906101000a9004600160a060020a0316600160a060020a0316600160a060020a031681525050905080600001519850806020015197508060400151965080606001519550806080015194508060a0015193508060c0015192508060e00151915088888888888888889850985098509850985098509850985050919395975091939597565b60006115a1612e73565b60008381526007602090815260409182902082516101e0810184528154815260018083015482850152600280840154600160a060020a0390811684880152600385015416606084015260048401805487516101009482161594909402600019011691909104601f8101869004860283018601909652858252919492936080860193919291908301828280156116775780601f1061164c57610100808354040283529160200191611677565b820191906000526020600020905b81548152906001019060200180831161165a57829003601f168201915b505050918352505060058201805460408051602060026001851615610100026000190190941693909304601f810184900484028201840190925281815293820193929183018282801561170b5780601f106116e05761010080835404028352916020019161170b565b820191906000526020600020905b8154815290600101906020018083116116ee57829003601f168201915b505050918352505060068201805460408051602060026001851615610100026000190190941693909304601f810184900484028201840190925281815293820193929183018282801561179f5780601f106117745761010080835404028352916020019161179f565b820191906000526020600020905b81548152906001019060200180831161178257829003601f168201915b505050918352505060078201805460408051602060026001851615610100026000190190941693909304601f81018490048402820184019092528181529382019392918301828280156118335780601f1061180857610100808354040283529160200191611833565b820191906000526020600020905b81548152906001019060200180831161181657829003601f168201915b5050509183525050600882015460208083019190915260098301805460408051601f600260001961010060018716150201909416939093049283018590048502810185018252828152940193928301828280156118d15780601f106118a6576101008083540402835291602001916118d1565b820191906000526020600020905b8154815290600101906020018083116118b457829003601f168201915b5050509183525050600a8201546020820152600b82015460409091019060ff1660098111156118fc57fe5b600981111561190757fe5b8152600b820154600160a060020a0361010090910481166020830152600c83015481166040830152600d90920154909116606090910152610160810151909150600981111561195257fe5b9392505050565b610676816127cb565b61196b33612047565b151561198c5760405160e560020a62461bcd0281526004016104fd9061378f565b610cd033612813565b6000610c9760038363ffffffff6126a616565b600454600160a060020a031681565b6106768161285b565b6000610c9760018363ffffffff6126a616565b8160046000828152600760205260409020600b015460ff1660098111156119f657fe5b14611a165760405160e560020a62461bcd0281526004016104fd9061375f565b611a1f336119c0565b1515611a405760405160e560020a62461bcd0281526004016104fd906137bf565b600083815260076020526040902060030154600160a060020a0316338114611a7d5760405160e560020a62461bcd0281526004016104fd9061377f565b6000848152600760208190526040909120600b01805460ff19169091179055611aa684846128a3565b7ff00b9a5725b80c54016f42114f6ed7792d22eecb116011c4afac29c57bef6c9584604051611ad5919061382f565b60405180910390a150505050565b60055481565b6000806000806000806000806000806000611b02612e73565b611b0a612f07565b60008e81526007602090815260409182902082516101e0810184528154815260018083015482850152600280840154600160a060020a0390811684880152600385015416606084015260048401805487516101009482161594909402600019011691909104601f810186900486028301860190965285825291949293608086019391929190830182828015611be05780601f10611bb557610100808354040283529160200191611be0565b820191906000526020600020905b815481529060010190602001808311611bc357829003601f168201915b505050918352505060058201805460408051602060026001851615610100026000190190941693909304601f8101849004840282018401909252818152938201939291830182828015611c745780601f10611c4957610100808354040283529160200191611c74565b820191906000526020600020905b815481529060010190602001808311611c5757829003601f168201915b505050918352505060068201805460408051602060026001851615610100026000190190941693909304601f8101849004840282018401909252818152938201939291830182828015611d085780601f10611cdd57610100808354040283529160200191611d08565b820191906000526020600020905b815481529060010190602001808311611ceb57829003601f168201915b505050918352505060078201805460408051602060026001851615610100026000190190941693909304601f8101849004840282018401909252818152938201939291830182828015611d9c5780601f10611d7157610100808354040283529160200191611d9c565b820191906000526020600020905b815481529060010190602001808311611d7f57829003601f168201915b5050509183525050600882015460208083019190915260098301805460408051601f60026000196101006001871615020190941693909304928301859004850281018501825282815294019392830182828015611e3a5780601f10611e0f57610100808354040283529160200191611e3a565b820191906000526020600020905b815481529060010190602001808311611e1d57829003601f168201915b5050509183525050600a8201546020820152600b82015460409091019060ff166009811115611e6557fe5b6009811115611e7057fe5b8152602001600b820160019054906101000a9004600160a060020a0316600160a060020a0316600160a060020a03168152602001600c820160009054906101000a9004600160a060020a0316600160a060020a0316600160a060020a03168152602001600d820160009054906101000a9004600160a060020a0316600160a060020a0316600160a060020a031681525050915081600001519c5081602001519b50600860008f815260200190815260200160002061012060405190810160405290816000820154600019166000191681526020016001820154600019166000191681526020016002820154600019166000191681526020016003820154600019166000191681526020016004820154600019166000191681526020016005820154600019166000191681526020016006820154600019166000191681526020016007820154600019166000191681526020016008820154600019166000191681525050905080600001519a50806020015199508060400151985080606001519750806080015196508060c0015195508060c0015194508060e00151935080610100015192508c8c8c8c8c8c8c8c8c8c8c9c509c509c509c509c509c509c509c509c509c509c50505091939597999b90929496989a50565b6000610c97818363ffffffff6126a616565b61206233610c84565b15156120835760405160e560020a62461bcd0281526004016104fd9061373f565b610cd033612982565b6000600654600554016040516020016120a5919061382f565b6040516020818303038152906040526040518082805190602001908083835b602083106120e35780518252601f1990920191602091820191016120c4565b6001836020036101000a03801982511681845116808217855250505050505090500191505060405180910390206001900490506101e0604051908101604052806006548152602001600554815260200133600160a060020a0316815260200133600160a060020a031681526020018881526020018781526020018681526020018581526020018281526020018481526020018381526020016000600981111561218857fe5b81526000602080830182905260408084018390526060938401839052600554835260078252918290208451815584820151600182015591840151600283018054600160a060020a0319908116600160a060020a03938416179091559385015160038401805490951691161790925560808301518051919261221192600485019290910190612f53565b5060a0820151805161222d916005840191602090910190612f53565b5060c08201518051612249916006840191602090910190612f53565b5060e08201518051612265916007840191602090910190612f53565b506101008201516008820155610120820151805161228d916009840191602090910190612f53565b50610140820151600a820155610160820151600b8201805460ff191660018360098111156122b757fe5b0217905550610180820151600b82018054600160a060020a0392831661010090810274ffffffffffffffffffffffffffffffffffffffff0019909216919091179091556101a0840151600c84018054918416600160a060020a03199283161790556101c090940151600d9093018054939092169290931691909117905560408051610120810182524340815260006020808301828152838501838152606085018481526080860185815260a0870186815260c0880187815260e089018881529a8901888152600580548a526008988990529a9098209851895594516001890155925160028801559051600387015551600486015551848601555160068401559351600783015551920191909155546123ce906129ca565b6006805460019081019091556005805490910190556123ec33612047565b15156123fb576123fb33611959565b7f8e55ccfc9778ff8eba1646d765cf1982537ce0f9257054a17b48aad74525018360055460405161242c919061382f565b60405180910390a150505050505050565b8060036000828152600760205260409020600b015460ff16600981111561246057fe5b146124805760405160e560020a62461bcd0281526004016104fd906137ef565b6000828152600760205260409020600a0154348111156124b55760405160e560020a62461bcd0281526004016104fd9061379f565b6000838152600860208181526040808420434093019290925560079052808220600281018054600160a060020a03191633179055600b8101805460ff19166006179055600c810154600a9091015491518693928392600160a060020a03169181156108fc02919084818181858888f1935050505015801561253a573d6000803e3d6000fd5b5061254433611995565b1515612553576125533361066d565b61255c86612a72565b7ff8d4d18c02478c21f38cf4aa60c47b8baf0215ad5d0b0ad565ef8580e03c7ef186604051610616919061382f565b8060036000828152600760205260409020600b015460ff1660098111156125ae57fe5b146125ce5760405160e560020a62461bcd0281526004016104fd906137ef565b6125d7336119b7565b6000828152600760205260409020600281018054600160a060020a031990811633908117909255600c830180549091169091179055600b01805460ff1916600817905561262382612b31565b7fa8142743f8f70a4c26f3691cf4ed59718381fb2f18070ec52be1f1022d85555782604051612652919061382f565b60405180910390a15050565b61266f60038263ffffffff612c3616565b604051600160a060020a038216907f28b26e7a3d20aedbc5f8f2ebf7da671c0491723a2b78f47a097b0e46dee0714290600090a250565b6000600160a060020a03821615156126d35760405160e560020a62461bcd0281526004016104fd906137df565b50600160a060020a03166000908152602091909152604090205460ff1690565b61270460038263ffffffff612cb016565b604051600160a060020a038216907fe3f5ed5f263f1f01764a96edfc7d025f511ec5f7d180e8816908b78bcf74f09890600090a250565b61274c60018263ffffffff612cb016565b604051600160a060020a038216907f126174f6cf49c81cdb4a9214c6b8f037bef55b4ec31e4fc776cea2a1c8a88d5990600090a250565b61279460018263ffffffff612c3616565b604051600160a060020a038216907fddbf200aa634dc3fb81cfd68583dd1040d1c751d335e1d86b631bde3e977fea890600090a250565b6127dc60008263ffffffff612c3616565b604051600160a060020a038216907f2e0ded4123377a3c2bc9a26f1717655a129e2f20752924d42e730ec89c83dbd090600090a250565b61282460008263ffffffff612cb016565b604051600160a060020a038216907fa5e0f060af304ab17dd418c7927e3da3ae7868189bf387aee09ab179ccc572f290600090a250565b61286c60028263ffffffff612c3616565b604051600160a060020a038216907f71ae26cad02663e3d92efd6ec56031a80d74a20c0ab4183faa8bf262261c9baa90600090a250565b8160086000828152600760205260409020600b015460ff1660098111156128c657fe5b146128e65760405160e560020a62461bcd0281526004016104fd906137af565b6128ef336119c0565b15156129105760405160e560020a62461bcd0281526004016104fd906137bf565b6000838152600760209081526040808320600b8101805460ff19166003179055600a018590556008909152908190204340600590910155517fa96ae0fc3224ebd79eebfe54bd130cc9cb94416cddd1f2386115e00b725324689061297590859061382f565b60405180910390a1505050565b61299360028263ffffffff612cb016565b604051600160a060020a038216907fdb7176e79cffef81cb01767dd0447a0b24bb72ca9778d4b245581086b2a7e6db90600090a250565b80600080828152600760205260409020600b015460ff1660098111156129ec57fe5b14612a0c5760405160e560020a62461bcd0281526004016104fd906137ff565b6000828152600760209081526040808320600b01805460ff19166001179055600890915290204340600290910155612a4382612d28565b7f5afe3b1bf87069693c075da5c22a98d63d1aef98a30dbbe538d0781a98b77ee582604051612652919061382f565b8060036000828152600760205260409020600b015460ff166009811115612a9557fe5b14612ab55760405160e560020a62461bcd0281526004016104fd906137ef565b612abe3361066d565b60008281526007602052604090819020600281018054600160a060020a031990811633908117909255600d830180549091169091179055600b01805460ff19166008179055517fa8142743f8f70a4c26f3691cf4ed59718381fb2f18070ec52be1f1022d8555579061265290849061382f565b8060086000828152600760205260409020600b015460ff166009811115612b5457fe5b14612b745760405160e560020a62461bcd0281526004016104fd906137af565b612b7d33610c84565b1515612b9e5760405160e560020a62461bcd0281526004016104fd9061373f565b600082815260076020526040902060030154600160a060020a0316338114612bdb5760405160e560020a62461bcd0281526004016104fd9061377f565b6000838152600760208181526040808420600b01805460ff191660031790556008909152918290204340910155517fa96ae0fc3224ebd79eebfe54bd130cc9cb94416cddd1f2386115e00b725324689061297590859061382f565b600160a060020a0381161515612c615760405160e560020a62461bcd0281526004016104fd906137df565b612c6b82826126a6565b15612c8b5760405160e560020a62461bcd0281526004016104fd9061380f565b600160a060020a0316600090815260209190915260409020805460ff19166001179055565b600160a060020a0381161515612cdb5760405160e560020a62461bcd0281526004016104fd906137df565b612ce582826126a6565b1515612d065760405160e560020a62461bcd0281526004016104fd9061376f565b600160a060020a0316600090815260209190915260409020805460ff19169055565b8060016000828152600760205260409020600b015460ff166009811115612d4b57fe5b14612d6b5760405160e560020a62461bcd0281526004016104fd906137cf565b6000828152600760209081526040808320600b01805460ff1916600290811790915560089092529091204340910155612da382612dd2565b7f0c70d89b176b3792b9ff1a750105ae23454802a52d42ea9c264300e29fd8a3e182604051612652919061382f565b8060026000828152600760205260409020600b015460ff166009811115612df557fe5b14612e155760405160e560020a62461bcd0281526004016104fd9061381f565b6000828152600760209081526040808320600b01805460ff191660039081179091556008909252918290204340910155517fa96ae0fc3224ebd79eebfe54bd130cc9cb94416cddd1f2386115e00b725324689061265290849061382f565b6101e06040519081016040528060008152602001600081526020016000600160a060020a031681526020016000600160a060020a031681526020016060815260200160608152602001606081526020016060815260200160008152602001606081526020016000815260200160006009811115612eec57fe5b81526000602082018190526040820181905260609091015290565b6040805161012081018252600080825260208201819052918101829052606081018290526080810182905260a0810182905260c0810182905260e0810182905261010081019190915290565b828054600181600116156101000203166002900490600052602060002090601f016020900481019282601f10612f9457805160ff1916838001178555612fc1565b82800160010185558215612fc1579182015b82811115612fc1578251825591602001919060010190612fa6565b50612fcd929150612fd1565b5090565b612feb91905b80821115612fcd5760008155600101612fd7565b90565b60006119528235613a4b565b6000601f8201831361300b57600080fd5b813561301e61301982613a19565b6139f2565b9150808252602083016020830185838301111561303a57600080fd5b613045838284613a73565b50505092915050565b60006119528235612feb565b60006020828403121561306c57600080fd5b60006130788484612fee565b949350505050565b60008060008060008060c0878903121561309957600080fd5b863567ffffffffffffffff8111156130b057600080fd5b6130bc89828a01612ffa565b965050602087013567ffffffffffffffff8111156130d957600080fd5b6130e589828a01612ffa565b955050604087013567ffffffffffffffff81111561310257600080fd5b61310e89828a01612ffa565b945050606087013567ffffffffffffffff81111561312b57600080fd5b61313789828a01612ffa565b935050608087013567ffffffffffffffff81111561315457600080fd5b61316089828a01612ffa565b92505060a061317189828a0161304e565b9150509295509295509295565b60006020828403121561319057600080fd5b6000613078848461304e565b600080604083850312156131af57600080fd5b60006131bb858561304e565b92505060206131cc8582860161304e565b9150509250929050565b6131df81613a4b565b82525050565b60006131f082613a47565b8084526020840193508360208202850161320985613a41565b60005b8481101561324057838303885261322483835161359c565b925061322f82613a41565b60209890980197915060010161320c565b50909695505050505050565b6131df81613a57565b6131df81612feb565b6131df81613a68565b600061327282613a47565b808452613286816020860160208601613a7f565b61328f81613aaf565b9093016020019392505050565b601581527f494e56414c49443a20556e617574686f72697a65640000000000000000000000602082015260400190565b601781527f494e56414c49443a204e6f7420612052657461696c6572000000000000000000602082015260400190565b601781527f494e56414c49443a204e6f74206120436f6e73756d6572000000000000000000602082015260400190565b60208082527f494e56414c49443a204e6f7420536f6c6420546f204469737472696275746f729082015260400190565b601d81527f494e56414c49443a204163636f756e742048617665204e6f20526f6c65000000602082015260400190565b601581527f494e56414c49443a204e6f742056657269666965640000000000000000000000602082015260400190565b601581527f494e56414c49443a204e6f742061204661726d65720000000000000000000000602082015260400190565b601c81527f494e56414c49443a20496e73756666696369656e7420416d6f756e7400000000602082015260400190565b601a81527f494e56414c49443a204974656d204e6f74205265636569766564000000000000602082015260400190565b601a81527f494e56414c49443a204e6f742061204469737472696275746f72000000000000602082015260400190565b601b81527f494e56414c49443a204974656d204e6f742050726f6365737365640000000000602082015260400190565b601581527f494e56414c49443a204445414420416464726573730000000000000000000000602082015260400190565b601a81527f494e56414c49443a204974656d204e6f7420466f722053616c65000000000000602082015260400190565b601b81527f494e56414c49443a204974656d204e6f74204861727665737465640000000000602082015260400190565b601a81527f494e56414c49443a204163636f756e74204861766520526f6c65000000000000602082015260400190565b601a81527f494e56414c49443a204974656d204e6f74205061636b61676564000000000000602082015260400190565b80516000906101e08401906135b18582613255565b5060208301516135c46020860182613255565b5060408301516135d760408601826131d6565b5060608301516135ea60608601826131d6565b50608083015184820360808601526136028282613267565b91505060a083015184820360a086015261361c8282613267565b91505060c083015184820360c08601526136368282613267565b91505060e083015184820360e08601526136508282613267565b915050610100830151613667610100860182613255565b506101208301518482036101208601526136818282613267565b915050610140830151613698610140860182613255565b506101608301516136ad61016086018261325e565b506101808301516136c26101808601826131d6565b506101a08301516136d76101a08601826131d6565b506101c08301516136ec6101c08601826131d6565b509392505050565b60208101610c9782846131d6565b6020808252810161195281846131e5565b60208101610c97828461324c565b60208101610c97828461325e565b60208082528101610c978161329c565b60208082528101610c97816132cc565b60208082528101610c97816132fc565b60208082528101610c978161332c565b60208082528101610c978161335c565b60208082528101610c978161338c565b60208082528101610c97816133bc565b60208082528101610c97816133ec565b60208082528101610c978161341c565b60208082528101610c978161344c565b60208082528101610c978161347c565b60208082528101610c97816134ac565b60208082528101610c97816134dc565b60208082528101610c978161350c565b60208082528101610c978161353c565b60208082528101610c978161356c565b60208101610c978284613255565b610100810161384c828b613255565b613859602083018a613255565b61386660408301896131d6565b61387360608301886131d6565b81810360808301526138858187613267565b905081810360a08301526138998186613267565b905081810360c08301526138ad8185613267565b905081810360e08301526138c18184613267565b9a9950505050505050505050565b61016081016138de828e613255565b6138eb602083018d613255565b6138f8604083018c613255565b613905606083018b613255565b613912608083018a613255565b61391f60a0830189613255565b61392c60c0830188613255565b61393960e0830187613255565b613947610100830186613255565b613955610120830185613255565b613963610140830184613255565b9c9b505050505050505050505050565b6101208101613982828c613255565b61398f602083018b613255565b61399c604083018a613255565b81810360608301526139ae8189613267565b90506139bd6080830188613255565b6139ca60a0830187613255565b6139d760c08301866131d6565b6139e460e08301856131d6565b6138c16101008301846131d6565b60405181810167ffffffffffffffff81118282101715613a1157600080fd5b604052919050565b600067ffffffffffffffff821115613a3057600080fd5b506020601f91909101601f19160190565b60200190565b5190565b600160a060020a031690565b151590565b6000600a8210612fcd57fe5b6000610c9782613a5c565b82818337506000910152565b60005b83811015613a9a578181015183820152602001613a82565b83811115613aa9576000848401525b50505050565b601f01601f1916905600a265627a7a7230582024920709ff936d73a26a1b21ec5ba37db6a102ff428f005986111ac7c28a869f6c6578706572696d656e74616cf50037",
  "linkReferences": {},
  "deployedLinkReferences": {}
}