{
  "_format": "hh-sol-artifact-1",
  "contractName": "SupplyChain",
  "sourceName": "contracts/base/SupplyChain.sol",
  "abi": [
    {
      "inputs": [],
      "stateMutability": "nonpayable",
      "type": "constructor"
    },
    {
      "anonymous": false,
      "inputs": [
        {
          "indexed": true,
          "internalType": "address",
          "name": "account",
          "type": "address"
        }
      ],
      "name": "ConsumerAdded",
      "type": "event"
    },
    {
      "anonymous": false,
      "inputs": [
        {
          "indexed": true,
          "internalType": "address",
          "name": "account",
          "type": "address"
        }
      ],
      "name": "ConsumerRemoved",
      "type": "event"
    },
    {
      "anonymous": false,
      "inputs": [
        {
          "indexed": true,
          "internalType": "address",
          "name": "account",
          "type": "address"
        }
      ],
      "name": "DistributorAdded",
      "type": "event"
    },
    {
      "anonymous": false,
      "inputs": [
        {
          "indexed": true,
          "internalType": "address",
          "name": "account",
          "type": "address"
        }
      ],
      "name": "DistributorRemoved",
      "type": "event"
    },
    {
      "anonymous": false,
      "inputs": [
        {
          "indexed": true,
          "internalType": "address",
          "name": "account",
          "type": "address"
        }
      ],
      "name": "FarmerAdded",
      "type": "event"
    },
    {
      "anonymous": false,
      "inputs": [
        {
          "indexed": true,
          "internalType": "address",
          "name": "account",
          "type": "address"
        }
      ],
      "name": "FarmerRemoved",
      "type": "event"
    },
    {
      "anonymous": false,
      "inputs": [
        {
          "indexed": false,
          "internalType": "uint256",
          "name": "upc",
          "type": "uint256"
        }
      ],
      "name": "ForSale",
      "type": "event"
    },
    {
      "anonymous": false,
      "inputs": [
        {
          "indexed": false,
          "internalType": "uint256",
          "name": "upc",
          "type": "uint256"
        }
      ],
      "name": "Harvested",
      "type": "event"
    },
    {
      "anonymous": false,
      "inputs": [
        {
          "indexed": false,
          "internalType": "uint256",
          "name": "upc",
          "type": "uint256"
        }
      ],
      "name": "ReceivedByCustomer",
      "type": "event"
    },
    {
      "anonymous": false,
      "inputs": [
        {
          "indexed": false,
          "internalType": "uint256",
          "name": "upc",
          "type": "uint256"
        }
      ],
      "name": "ReceivedByRetail",
      "type": "event"
    },
    {
      "anonymous": false,
      "inputs": [
        {
          "indexed": true,
          "internalType": "address",
          "name": "account",
          "type": "address"
        }
      ],
      "name": "RetailerAdded",
      "type": "event"
    },
    {
      "anonymous": false,
      "inputs": [
        {
          "indexed": true,
          "internalType": "address",
          "name": "account",
          "type": "address"
        }
      ],
      "name": "RetailerRemoved",
      "type": "event"
    },
    {
      "anonymous": false,
      "inputs": [
        {
          "indexed": false,
          "internalType": "uint256",
          "name": "upc",
          "type": "uint256"
        }
      ],
      "name": "ShippedToRetail",
      "type": "event"
    },
    {
      "anonymous": false,
      "inputs": [
        {
          "indexed": false,
          "internalType": "uint256",
          "name": "upc",
          "type": "uint256"
        }
      ],
      "name": "SoldToConsumer",
      "type": "event"
    },
    {
      "anonymous": false,
      "inputs": [
        {
          "indexed": false,
          "internalType": "uint256",
          "name": "upc",
          "type": "uint256"
        },
        {
          "indexed": false,
          "internalType": "uint256",
          "name": "amount",
          "type": "uint256"
        }
      ],
      "name": "SoldToDist",
      "type": "event"
    },
    {
      "anonymous": false,
      "inputs": [
        {
          "indexed": false,
          "internalType": "uint256",
          "name": "upc",
          "type": "uint256"
        }
      ],
      "name": "SoldToRetail",
      "type": "event"
    },
    {
      "inputs": [
        {
          "internalType": "address",
          "name": "account",
          "type": "address"
        }
      ],
      "name": "addConsumer",
      "outputs": [],
      "stateMutability": "nonpayable",
      "type": "function"
    },
    {
      "inputs": [
        {
          "internalType": "address",
          "name": "account",
          "type": "address"
        }
      ],
      "name": "addDistributor",
      "outputs": [],
      "stateMutability": "nonpayable",
      "type": "function"
    },
    {
      "inputs": [
        {
          "internalType": "address",
          "name": "account",
          "type": "address"
        }
      ],
      "name": "addFarmer",
      "outputs": [],
      "stateMutability": "nonpayable",
      "type": "function"
    },
    {
      "inputs": [
        {
          "internalType": "address",
          "name": "account",
          "type": "address"
        }
      ],
      "name": "addRetailer",
      "outputs": [],
      "stateMutability": "nonpayable",
      "type": "function"
    },
    {
      "inputs": [
        {
          "internalType": "uint256",
          "name": "_upc",
          "type": "uint256"
        }
      ],
      "name": "buyAsConsumer",
      "outputs": [],
      "stateMutability": "payable",
      "type": "function"
    },
    {
      "inputs": [
        {
          "internalType": "uint256",
          "name": "_upc",
          "type": "uint256"
        },
        {
          "internalType": "uint256",
          "name": "_newPrice",
          "type": "uint256"
        }
      ],
      "name": "buyAsDist",
      "outputs": [],
      "stateMutability": "payable",
      "type": "function"
    },
    {
      "inputs": [
        {
          "internalType": "uint256",
          "name": "_upc",
          "type": "uint256"
        },
        {
          "internalType": "uint256",
          "name": "_newPrice",
          "type": "uint256"
        }
      ],
      "name": "buyAsRetail",
      "outputs": [],
      "stateMutability": "payable",
      "type": "function"
    },
    {
      "inputs": [],
      "name": "fetchConsumerItems",
      "outputs": [
        {
          "components": [
            {
              "internalType": "uint256",
              "name": "sku",
              "type": "uint256"
            },
            {
              "internalType": "uint256",
              "name": "upc",
              "type": "uint256"
            },
            {
              "internalType": "uint256",
              "name": "productID",
              "type": "uint256"
            },
            {
              "internalType": "uint256",
              "name": "productPrice",
              "type": "uint256"
            },
            {
              "internalType": "string",
              "name": "productMetadata",
              "type": "string"
            },
            {
              "internalType": "address payable",
              "name": "ownerID",
              "type": "address"
            },
            {
              "internalType": "address payable",
              "name": "originFarmerID",
              "type": "address"
            },
            {
              "internalType": "address payable",
              "name": "distributorID",
              "type": "address"
            },
            {
              "internalType": "address payable",
              "name": "retailerID",
              "type": "address"
            },
            {
              "internalType": "address payable",
              "name": "consumerID",
              "type": "address"
            },
            {
              "internalType": "string",
              "name": "originFarmName",
              "type": "string"
            },
            {
              "internalType": "string",
              "name": "originFarmMetadata",
              "type": "string"
            },
            {
              "internalType": "string",
              "name": "originFarmLatitude",
              "type": "string"
            },
            {
              "internalType": "string",
              "name": "originFarmLongitude",
              "type": "string"
            },
            {
              "internalType": "enum SupplyChain.State",
              "name": "itemState",
              "type": "uint8"
            }
          ],
          "internalType": "struct SupplyChain.Item[]",
          "name": "",
          "type": "tuple[]"
        }
      ],
      "stateMutability": "view",
      "type": "function"
    },
    {
      "inputs": [
        {
          "internalType": "uint256",
          "name": "_upc",
          "type": "uint256"
        }
      ],
      "name": "fetchCurrentPrice",
      "outputs": [
        {
          "internalType": "uint256",
          "name": "price",
          "type": "uint256"
        }
      ],
      "stateMutability": "view",
      "type": "function"
    },
    {
      "inputs": [
        {
          "internalType": "uint256",
          "name": "_upc",
          "type": "uint256"
        }
      ],
      "name": "fetchCurrentState",
      "outputs": [
        {
          "internalType": "uint256",
          "name": "itemState",
          "type": "uint256"
        }
      ],
      "stateMutability": "view",
      "type": "function"
    },
    {
      "inputs": [],
      "name": "fetchDistroItems",
      "outputs": [
        {
          "components": [
            {
              "internalType": "uint256",
              "name": "sku",
              "type": "uint256"
            },
            {
              "internalType": "uint256",
              "name": "upc",
              "type": "uint256"
            },
            {
              "internalType": "uint256",
              "name": "productID",
              "type": "uint256"
            },
            {
              "internalType": "uint256",
              "name": "productPrice",
              "type": "uint256"
            },
            {
              "internalType": "string",
              "name": "productMetadata",
              "type": "string"
            },
            {
              "internalType": "address payable",
              "name": "ownerID",
              "type": "address"
            },
            {
              "internalType": "address payable",
              "name": "originFarmerID",
              "type": "address"
            },
            {
              "internalType": "address payable",
              "name": "distributorID",
              "type": "address"
            },
            {
              "internalType": "address payable",
              "name": "retailerID",
              "type": "address"
            },
            {
              "internalType": "address payable",
              "name": "consumerID",
              "type": "address"
            },
            {
              "internalType": "string",
              "name": "originFarmName",
              "type": "string"
            },
            {
              "internalType": "string",
              "name": "originFarmMetadata",
              "type": "string"
            },
            {
              "internalType": "string",
              "name": "originFarmLatitude",
              "type": "string"
            },
            {
              "internalType": "string",
              "name": "originFarmLongitude",
              "type": "string"
            },
            {
              "internalType": "enum SupplyChain.State",
              "name": "itemState",
              "type": "uint8"
            }
          ],
          "internalType": "struct SupplyChain.Item[]",
          "name": "",
          "type": "tuple[]"
        }
      ],
      "stateMutability": "view",
      "type": "function"
    },
    {
      "inputs": [],
      "name": "fetchFarmerItems",
      "outputs": [
        {
          "components": [
            {
              "internalType": "uint256",
              "name": "sku",
              "type": "uint256"
            },
            {
              "internalType": "uint256",
              "name": "upc",
              "type": "uint256"
            },
            {
              "internalType": "uint256",
              "name": "productID",
              "type": "uint256"
            },
            {
              "internalType": "uint256",
              "name": "productPrice",
              "type": "uint256"
            },
            {
              "internalType": "string",
              "name": "productMetadata",
              "type": "string"
            },
            {
              "internalType": "address payable",
              "name": "ownerID",
              "type": "address"
            },
            {
              "internalType": "address payable",
              "name": "originFarmerID",
              "type": "address"
            },
            {
              "internalType": "address payable",
              "name": "distributorID",
              "type": "address"
            },
            {
              "internalType": "address payable",
              "name": "retailerID",
              "type": "address"
            },
            {
              "internalType": "address payable",
              "name": "consumerID",
              "type": "address"
            },
            {
              "internalType": "string",
              "name": "originFarmName",
              "type": "string"
            },
            {
              "internalType": "string",
              "name": "originFarmMetadata",
              "type": "string"
            },
            {
              "internalType": "string",
              "name": "originFarmLatitude",
              "type": "string"
            },
            {
              "internalType": "string",
              "name": "originFarmLongitude",
              "type": "string"
            },
            {
              "internalType": "enum SupplyChain.State",
              "name": "itemState",
              "type": "uint8"
            }
          ],
          "internalType": "struct SupplyChain.Item[]",
          "name": "",
          "type": "tuple[]"
        }
      ],
      "stateMutability": "view",
      "type": "function"
    },
    {
      "inputs": [],
      "name": "fetchItems",
      "outputs": [
        {
          "components": [
            {
              "internalType": "uint256",
              "name": "sku",
              "type": "uint256"
            },
            {
              "internalType": "uint256",
              "name": "upc",
              "type": "uint256"
            },
            {
              "internalType": "uint256",
              "name": "productID",
              "type": "uint256"
            },
            {
              "internalType": "uint256",
              "name": "productPrice",
              "type": "uint256"
            },
            {
              "internalType": "string",
              "name": "productMetadata",
              "type": "string"
            },
            {
              "internalType": "address payable",
              "name": "ownerID",
              "type": "address"
            },
            {
              "internalType": "address payable",
              "name": "originFarmerID",
              "type": "address"
            },
            {
              "internalType": "address payable",
              "name": "distributorID",
              "type": "address"
            },
            {
              "internalType": "address payable",
              "name": "retailerID",
              "type": "address"
            },
            {
              "internalType": "address payable",
              "name": "consumerID",
              "type": "address"
            },
            {
              "internalType": "string",
              "name": "originFarmName",
              "type": "string"
            },
            {
              "internalType": "string",
              "name": "originFarmMetadata",
              "type": "string"
            },
            {
              "internalType": "string",
              "name": "originFarmLatitude",
              "type": "string"
            },
            {
              "internalType": "string",
              "name": "originFarmLongitude",
              "type": "string"
            },
            {
              "internalType": "enum SupplyChain.State",
              "name": "itemState",
              "type": "uint8"
            }
          ],
          "internalType": "struct SupplyChain.Item[]",
          "name": "",
          "type": "tuple[]"
        }
      ],
      "stateMutability": "view",
      "type": "function"
    },
    {
      "inputs": [],
      "name": "fetchMyItems",
      "outputs": [
        {
          "components": [
            {
              "internalType": "uint256",
              "name": "sku",
              "type": "uint256"
            },
            {
              "internalType": "uint256",
              "name": "upc",
              "type": "uint256"
            },
            {
              "internalType": "uint256",
              "name": "productID",
              "type": "uint256"
            },
            {
              "internalType": "uint256",
              "name": "productPrice",
              "type": "uint256"
            },
            {
              "internalType": "string",
              "name": "productMetadata",
              "type": "string"
            },
            {
              "internalType": "address payable",
              "name": "ownerID",
              "type": "address"
            },
            {
              "internalType": "address payable",
              "name": "originFarmerID",
              "type": "address"
            },
            {
              "internalType": "address payable",
              "name": "distributorID",
              "type": "address"
            },
            {
              "internalType": "address payable",
              "name": "retailerID",
              "type": "address"
            },
            {
              "internalType": "address payable",
              "name": "consumerID",
              "type": "address"
            },
            {
              "internalType": "string",
              "name": "originFarmName",
              "type": "string"
            },
            {
              "internalType": "string",
              "name": "originFarmMetadata",
              "type": "string"
            },
            {
              "internalType": "string",
              "name": "originFarmLatitude",
              "type": "string"
            },
            {
              "internalType": "string",
              "name": "originFarmLongitude",
              "type": "string"
            },
            {
              "internalType": "enum SupplyChain.State",
              "name": "itemState",
              "type": "uint8"
            }
          ],
          "internalType": "struct SupplyChain.Item[]",
          "name": "",
          "type": "tuple[]"
        }
      ],
      "stateMutability": "view",
      "type": "function"
    },
    {
      "inputs": [],
      "name": "fetchRetailerItems",
      "outputs": [
        {
          "components": [
            {
              "internalType": "uint256",
              "name": "sku",
              "type": "uint256"
            },
            {
              "internalType": "uint256",
              "name": "upc",
              "type": "uint256"
            },
            {
              "internalType": "uint256",
              "name": "productID",
              "type": "uint256"
            },
            {
              "internalType": "uint256",
              "name": "productPrice",
              "type": "uint256"
            },
            {
              "internalType": "string",
              "name": "productMetadata",
              "type": "string"
            },
            {
              "internalType": "address payable",
              "name": "ownerID",
              "type": "address"
            },
            {
              "internalType": "address payable",
              "name": "originFarmerID",
              "type": "address"
            },
            {
              "internalType": "address payable",
              "name": "distributorID",
              "type": "address"
            },
            {
              "internalType": "address payable",
              "name": "retailerID",
              "type": "address"
            },
            {
              "internalType": "address payable",
              "name": "consumerID",
              "type": "address"
            },
            {
              "internalType": "string",
              "name": "originFarmName",
              "type": "string"
            },
            {
              "internalType": "string",
              "name": "originFarmMetadata",
              "type": "string"
            },
            {
              "internalType": "string",
              "name": "originFarmLatitude",
              "type": "string"
            },
            {
              "internalType": "string",
              "name": "originFarmLongitude",
              "type": "string"
            },
            {
              "internalType": "enum SupplyChain.State",
              "name": "itemState",
              "type": "uint8"
            }
          ],
          "internalType": "struct SupplyChain.Item[]",
          "name": "",
          "type": "tuple[]"
        }
      ],
      "stateMutability": "view",
      "type": "function"
    },
    {
      "inputs": [
        {
          "internalType": "string",
          "name": "_originFarmName",
          "type": "string"
        },
        {
          "internalType": "string",
          "name": "_originFarmMetadata",
          "type": "string"
        },
        {
          "internalType": "string",
          "name": "_originFarmLatitude",
          "type": "string"
        },
        {
          "internalType": "string",
          "name": "_originFarmLongitude",
          "type": "string"
        },
        {
          "internalType": "string",
          "name": "_productMetadata",
          "type": "string"
        },
        {
          "internalType": "uint256",
          "name": "_productPrice",
          "type": "uint256"
        }
      ],
      "name": "harvestItem",
      "outputs": [],
      "stateMutability": "nonpayable",
      "type": "function"
    },
    {
      "inputs": [
        {
          "internalType": "address",
          "name": "account",
          "type": "address"
        }
      ],
      "name": "isConsumer",
      "outputs": [
        {
          "internalType": "bool",
          "name": "",
          "type": "bool"
        }
      ],
      "stateMutability": "view",
      "type": "function"
    },
    {
      "inputs": [
        {
          "internalType": "address",
          "name": "account",
          "type": "address"
        }
      ],
      "name": "isDistributor",
      "outputs": [
        {
          "internalType": "bool",
          "name": "",
          "type": "bool"
        }
      ],
      "stateMutability": "view",
      "type": "function"
    },
    {
      "inputs": [
        {
          "internalType": "address",
          "name": "account",
          "type": "address"
        }
      ],
      "name": "isFarmer",
      "outputs": [
        {
          "internalType": "bool",
          "name": "",
          "type": "bool"
        }
      ],
      "stateMutability": "view",
      "type": "function"
    },
    {
      "inputs": [
        {
          "internalType": "address",
          "name": "account",
          "type": "address"
        }
      ],
      "name": "isRetailer",
      "outputs": [
        {
          "internalType": "bool",
          "name": "",
          "type": "bool"
        }
      ],
      "stateMutability": "view",
      "type": "function"
    },
    {
      "inputs": [],
      "name": "kill",
      "outputs": [],
      "stateMutability": "nonpayable",
      "type": "function"
    },
    {
      "inputs": [],
      "name": "owner",
      "outputs": [
        {
          "internalType": "address payable",
          "name": "",
          "type": "address"
        }
      ],
      "stateMutability": "view",
      "type": "function"
    },
    {
      "inputs": [],
      "name": "renounceConsumer",
      "outputs": [],
      "stateMutability": "nonpayable",
      "type": "function"
    },
    {
      "inputs": [],
      "name": "renounceDistributor",
      "outputs": [],
      "stateMutability": "nonpayable",
      "type": "function"
    },
    {
      "inputs": [],
      "name": "renounceFarmer",
      "outputs": [],
      "stateMutability": "nonpayable",
      "type": "function"
    },
    {
      "inputs": [],
      "name": "renounceRetailer",
      "outputs": [],
      "stateMutability": "nonpayable",
      "type": "function"
    },
    {
      "inputs": [],
      "name": "sku",
      "outputs": [
        {
          "internalType": "uint256",
          "name": "_value",
          "type": "uint256"
        }
      ],
      "stateMutability": "view",
      "type": "function"
    },
    {
      "inputs": [],
      "name": "upc",
      "outputs": [
        {
          "internalType": "uint256",
          "name": "_value",
          "type": "uint256"
        }
      ],
      "stateMutability": "view",
      "type": "function"
    }
  ],
  "bytecode": "0x60806040523480156200001157600080fd5b506200001d3362000056565b6200002833620000a8565b6200003333620000fa565b6200003e336200014c565b600480546001600160a01b03191633179055620002f4565b620000718160006200019e60201b620034671790919060201c565b6040516001600160a01b038216907f2e0ded4123377a3c2bc9a26f1717655a129e2f20752924d42e730ec89c83dbd090600090a250565b620000c38160016200019e60201b620034671790919060201c565b6040516001600160a01b038216907fddbf200aa634dc3fb81cfd68583dd1040d1c751d335e1d86b631bde3e977fea890600090a250565b620001158160026200019e60201b620034671790919060201c565b6040516001600160a01b038216907f71ae26cad02663e3d92efd6ec56031a80d74a20c0ab4183faa8bf262261c9baa90600090a250565b620001678160036200019e60201b620034671790919060201c565b6040516001600160a01b038216907f28b26e7a3d20aedbc5f8f2ebf7da671c0491723a2b78f47a097b0e46dee0714290600090a250565b6001600160a01b038116620001fa5760405162461bcd60e51b815260206004820152601560248201527f494e56414c49443a20444541442041646472657373000000000000000000000060448201526064015b60405180910390fd5b6200020682826200027a565b15620002555760405162461bcd60e51b815260206004820152601a60248201527f494e56414c49443a204163636f756e74204861766520526f6c650000000000006044820152606401620001f1565b6001600160a01b0316600090815260209190915260409020805460ff19166001179055565b60006001600160a01b038216620002d45760405162461bcd60e51b815260206004820152601560248201527f494e56414c49443a2044454144204164647265737300000000000000000000006044820152606401620001f1565b506001600160a01b03166000908152602091909152604090205460ff1690565b61429980620003046000396000f3fe6080604052600436106101b75760003560e01c806380fc0ce4116100ec578063ac2db09d1161008a578063b942906911610064578063b942906914610470578063db0e6a2f14610490578063df8627f5146104a5578063f3b1cde8146104c557600080fd5b8063ac2db09d14610424578063ad78ba7b1461043b578063b0689d701461045057600080fd5b80638da5cb5b116100c65780638da5cb5b146103975780638ec4f505146103cf5780638f0c86fa146103ef578063930aff2f1461040f57600080fd5b806380fc0ce41461034d578063834ff739146103625780638588d0261461038257600080fd5b80635da09b88116101595780637250e224116101335780637250e224146102d857806378db2f7a146102f85780637c0b4ab11461030d57806380c3f96d1461032d57600080fd5b80635da09b881461027e57806361e6982d146102ae578063644241db146102c357600080fd5b806343baca1e1161019557806343baca1e1461021e5780634462f40c146102315780634671e7fb146102565780634fde17911461026b57600080fd5b8063112940f9146101bc57806315c9ae10146101de57806341c0e1b514610209575b600080fd5b3480156101c857600080fd5b506101dc6101d7366004613ddc565b6104d8565b005b3480156101ea57600080fd5b506101f36104e4565b6040516102009190613f89565b60405180910390f35b34801561021557600080fd5b506101dc61096f565b6101dc61022c366004613ef8565b6109d4565b34801561023d57600080fd5b506006546102489081565b604051908152602001610200565b34801561026257600080fd5b506101f3610b8e565b6101dc610279366004613ef8565b61108b565b34801561028a57600080fd5b5061029e610299366004613ddc565b611231565b6040519015158152602001610200565b3480156102ba57600080fd5b506101dc611244565b3480156102cf57600080fd5b506101dc6112a4565b3480156102e457600080fd5b506101dc6102f3366004613ddc565b611302565b34801561030457600080fd5b506101f361130b565b34801561031957600080fd5b50610248610328366004613edf565b6117ff565b34801561033957600080fd5b506101dc610348366004613ddc565b611bbe565b34801561035957600080fd5b506101dc611bc7565b34801561036e57600080fd5b5061029e61037d366004613ddc565b611c1d565b34801561038e57600080fd5b506101f3611c2a565b3480156103a357600080fd5b506004546103b7906001600160a01b031681565b6040516001600160a01b039091168152602001610200565b3480156103db57600080fd5b506101dc6103ea366004613ddc565b61211e565b3480156103fb57600080fd5b5061029e61040a366004613ddc565b612127565b34801561041b57600080fd5b506101f3612134565b34801561043057600080fd5b506005546102489081565b34801561044757600080fd5b506101f3612628565b34801561045c57600080fd5b5061024861046b366004613edf565b612aba565b34801561047c57600080fd5b5061029e61048b366004613ddc565b612e63565b34801561049c57600080fd5b506101dc612e6f565b3480156104b157600080fd5b506101dc6104c0366004613e05565b612ecd565b6101dc6104d3366004613edf565b61326e565b6104e181613509565b50565b606060006104f160065490565b9050600160008267ffffffffffffffff8111156105105761051061424d565b60405190808252806020026020018201604052801561054957816020015b610536613c03565b81526020019060019003908161052e5790505b50905060015b838111610967576000818152600760205260409020600501546001600160a01b031633141561095557600061058582600161419d565b9050600060076000838152602001908152602001600020905080604051806101e0016040529081600082015481526020016001820154815260200160028201548152602001600382015481526020016004820180546105e3906141b5565b80601f016020809104026020016040519081016040528092919081815260200182805461060f906141b5565b801561065c5780601f106106315761010080835404028352916020019161065c565b820191906000526020600020905b81548152906001019060200180831161063f57829003601f168201915b505050918352505060058201546001600160a01b03908116602083015260068301548116604083015260078301548116606083015260088301548116608083015260098301541660a0820152600a8201805460c0909201916106bd906141b5565b80601f01602080910402602001604051908101604052809291908181526020018280546106e9906141b5565b80156107365780601f1061070b57610100808354040283529160200191610736565b820191906000526020600020905b81548152906001019060200180831161071957829003601f168201915b50505050508152602001600b8201805461074f906141b5565b80601f016020809104026020016040519081016040528092919081815260200182805461077b906141b5565b80156107c85780601f1061079d576101008083540402835291602001916107c8565b820191906000526020600020905b8154815290600101906020018083116107ab57829003601f168201915b50505050508152602001600c820180546107e1906141b5565b80601f016020809104026020016040519081016040528092919081815260200182805461080d906141b5565b801561085a5780601f1061082f5761010080835404028352916020019161085a565b820191906000526020600020905b81548152906001019060200180831161083d57829003601f168201915b50505050508152602001600d82018054610873906141b5565b80601f016020809104026020016040519081016040528092919081815260200182805461089f906141b5565b80156108ec5780601f106108c1576101008083540402835291602001916108ec565b820191906000526020600020905b8154815290600101906020018083116108cf57829003601f168201915b5050509183525050600e82015460209091019060ff16600781111561091357610913614221565b600781111561092457610924614221565b8152505084868151811061093a5761093a614237565b602090810291909101015261095060018661419d565b945050505b8061095f816141f0565b91505061054f565b509392505050565b6004546001600160a01b031633146109c65760405162461bcd60e51b8152602060048201526015602482015274125395905312510e88155b985d5d1a1bdc9a5e9959605a1b60448201526064015b60405180910390fd5b6004546001600160a01b0316ff5b8160026000828152600760208190526040909120600e015460ff16908111156109ff576109ff614221565b14610a1c5760405162461bcd60e51b81526004016109bd90614102565b6000838152600760205260409020600601546001600160a01b0316331415610a865760405162461bcd60e51b815260206004820152601d60248201527f52657461696c657249442063616e6e6f742062652044697374726f494400000060448201526064016109bd565b6000838152600760205260409020600301543414610ab65760405162461bcd60e51b81526004016109bd90614137565b6000838152600760208181526040808420600880820180546001600160a01b0319163317905583528185204340600590910155918390529181015460039091015491516001600160a01b03919091169282156108fc02929190818181858888f19350505050158015610b2c573d6000803e3d6000fd5b50610b37838361354b565b610b4033611231565b610b4d57610b4d3361211e565b610b56836135bf565b6040518381527f54dafe9ea34c9448f0b09cec86e7ede9744e44adedf54b15e3ad40a0942f2fb99060200160405180910390a1505050565b60606000610b9b60065490565b905060008060005b83811015610bfe573360076000610bbb84600161419d565b81526020810191909152604001600020600701546001600160a01b03161415610bec57610be960018461419d565b92505b80610bf6816141f0565b915050610ba3565b5060008267ffffffffffffffff811115610c1a57610c1a61424d565b604051908082528060200260200182016040528015610c5357816020015b610c40613c03565b815260200190600190039081610c385790505b50905060005b838111611082573360076000610c7084600161419d565b81526020810191909152604001600020600701546001600160a01b03161415611070576000610ca082600161419d565b9050600060076000838152602001908152602001600020905080604051806101e001604052908160008201548152602001600182015481526020016002820154815260200160038201548152602001600482018054610cfe906141b5565b80601f0160208091040260200160405190810160405280929190818152602001828054610d2a906141b5565b8015610d775780601f10610d4c57610100808354040283529160200191610d77565b820191906000526020600020905b815481529060010190602001808311610d5a57829003601f168201915b505050918352505060058201546001600160a01b03908116602083015260068301548116604083015260078301548116606083015260088301548116608083015260098301541660a0820152600a8201805460c090920191610dd8906141b5565b80601f0160208091040260200160405190810160405280929190818152602001828054610e04906141b5565b8015610e515780601f10610e2657610100808354040283529160200191610e51565b820191906000526020600020905b815481529060010190602001808311610e3457829003601f168201915b50505050508152602001600b82018054610e6a906141b5565b80601f0160208091040260200160405190810160405280929190818152602001828054610e96906141b5565b8015610ee35780601f10610eb857610100808354040283529160200191610ee3565b820191906000526020600020905b815481529060010190602001808311610ec657829003601f168201915b50505050508152602001600c82018054610efc906141b5565b80601f0160208091040260200160405190810160405280929190818152602001828054610f28906141b5565b8015610f755780601f10610f4a57610100808354040283529160200191610f75565b820191906000526020600020905b815481529060010190602001808311610f5857829003601f168201915b50505050508152602001600d82018054610f8e906141b5565b80601f0160208091040260200160405190810160405280929190818152602001828054610fba906141b5565b80156110075780601f10610fdc57610100808354040283529160200191611007565b820191906000526020600020905b815481529060010190602001808311610fea57829003601f168201915b5050509183525050600e82015460209091019060ff16600781111561102e5761102e614221565b600781111561103f5761103f614221565b8152505084868151811061105557611055614237565b602090810291909101015261106b60018661419d565b945050505b8061107a816141f0565b915050610c59565b50949350505050565b6000828152600760205260409020600601546001600160a01b03163314156110f55760405162461bcd60e51b815260206004820181905260248201527f4469737472696275746f7249442063616e6e6f74206265206661726d6572494460448201526064016109bd565b60008281526007602052604090206003015434146111255760405162461bcd60e51b81526004016109bd90614137565b60008281526007602081815260408084206005810180546001600160a01b03199081163390811790925594820180549095168117909455600e8101805460ff1916600217905560039081018690556008909252909220434092019190915561118c90612127565b6111995761119933611302565b6000828152600760205260408082206006015490516001600160a01b03909116913480156108fc02929091818181858888f193505050501580156111e1573d6000803e3d6000fd5b50600082815260076020908152604091829020600301548251858152918201527f4800dc7afcf4dcadc2087f50ea552fbba15fa8eb54795438666c4062dd23e42191015b60405180910390a15050565b600061123e60028361369a565b92915050565b61124d33611c1d565b6112995760405162461bcd60e51b815260206004820152601760248201527f494e56414c49443a204e6f74206120436f6e73756d657200000000000000000060448201526064016109bd565b6112a2336136e2565b565b6112ad33612127565b6112f95760405162461bcd60e51b815260206004820152601a60248201527f494e56414c49443a204e6f742061204469737472696275746f7200000000000060448201526064016109bd565b6112a233613724565b6104e181613766565b6060600061131860065490565b905060008060005b8381101561137b57336007600061133884600161419d565b81526020810191909152604001600020600601546001600160a01b031614156113695761136660018461419d565b92505b80611373816141f0565b915050611320565b5060008267ffffffffffffffff8111156113975761139761424d565b6040519080825280602002602001820160405280156113d057816020015b6113bd613c03565b8152602001906001900390816113b55790505b50905060005b8381116110825733600760006113ed84600161419d565b81526020810191909152604001600020600601546001600160a01b031614156117ed57600061141d82600161419d565b9050600060076000838152602001908152602001600020905080604051806101e00160405290816000820154815260200160018201548152602001600282015481526020016003820154815260200160048201805461147b906141b5565b80601f01602080910402602001604051908101604052809291908181526020018280546114a7906141b5565b80156114f45780601f106114c9576101008083540402835291602001916114f4565b820191906000526020600020905b8154815290600101906020018083116114d757829003601f168201915b505050918352505060058201546001600160a01b03908116602083015260068301548116604083015260078301548116606083015260088301548116608083015260098301541660a0820152600a8201805460c090920191611555906141b5565b80601f0160208091040260200160405190810160405280929190818152602001828054611581906141b5565b80156115ce5780601f106115a3576101008083540402835291602001916115ce565b820191906000526020600020905b8154815290600101906020018083116115b157829003601f168201915b50505050508152602001600b820180546115e7906141b5565b80601f0160208091040260200160405190810160405280929190818152602001828054611613906141b5565b80156116605780601f1061163557610100808354040283529160200191611660565b820191906000526020600020905b81548152906001019060200180831161164357829003601f168201915b50505050508152602001600c82018054611679906141b5565b80601f01602080910402602001604051908101604052809291908181526020018280546116a5906141b5565b80156116f25780601f106116c7576101008083540402835291602001916116f2565b820191906000526020600020905b8154815290600101906020018083116116d557829003601f168201915b50505050508152602001600d8201805461170b906141b5565b80601f0160208091040260200160405190810160405280929190818152602001828054611737906141b5565b80156117845780601f1061175957610100808354040283529160200191611784565b820191906000526020600020905b81548152906001019060200180831161176757829003601f168201915b5050509183525050600e82015460209091019060ff1660078111156117ab576117ab614221565b60078111156117bc576117bc614221565b815250508486815181106117d2576117d2614237565b60209081029190910101526117e860018661419d565b945050505b806117f7816141f0565b9150506113d6565b60008060076000848152602001908152602001600020604051806101e001604052908160008201548152602001600182015481526020016002820154815260200160038201548152602001600482018054611859906141b5565b80601f0160208091040260200160405190810160405280929190818152602001828054611885906141b5565b80156118d25780601f106118a7576101008083540402835291602001916118d2565b820191906000526020600020905b8154815290600101906020018083116118b557829003601f168201915b505050918352505060058201546001600160a01b03908116602083015260068301548116604083015260078301548116606083015260088301548116608083015260098301541660a0820152600a8201805460c090920191611933906141b5565b80601f016020809104026020016040519081016040528092919081815260200182805461195f906141b5565b80156119ac5780601f10611981576101008083540402835291602001916119ac565b820191906000526020600020905b81548152906001019060200180831161198f57829003601f168201915b50505050508152602001600b820180546119c5906141b5565b80601f01602080910402602001604051908101604052809291908181526020018280546119f1906141b5565b8015611a3e5780601f10611a1357610100808354040283529160200191611a3e565b820191906000526020600020905b815481529060010190602001808311611a2157829003601f168201915b50505050508152602001600c82018054611a57906141b5565b80601f0160208091040260200160405190810160405280929190818152602001828054611a83906141b5565b8015611ad05780601f10611aa557610100808354040283529160200191611ad0565b820191906000526020600020905b815481529060010190602001808311611ab357829003601f168201915b50505050508152602001600d82018054611ae9906141b5565b80601f0160208091040260200160405190810160405280929190818152602001828054611b15906141b5565b8015611b625780601f10611b3757610100808354040283529160200191611b62565b820191906000526020600020905b815481529060010190602001808311611b4557829003601f168201915b5050509183525050600e82015460209091019060ff166007811115611b8957611b89614221565b6007811115611b9a57611b9a614221565b815250509050806101c001516007811115611bb757611bb7614221565b9392505050565b6104e1816137a8565b611bd033612e63565b611c145760405162461bcd60e51b815260206004820152601560248201527424a72b20a624a21d102737ba1030902330b936b2b960591b60448201526064016109bd565b6112a2336137ea565b600061123e60038361369a565b60606000611c3760065490565b905060008060005b83811015611c9a573360076000611c5784600161419d565b81526020810191909152604001600020600801546001600160a01b03161415611c8857611c8560018461419d565b92505b80611c92816141f0565b915050611c3f565b5060008267ffffffffffffffff811115611cb657611cb661424d565b604051908082528060200260200182016040528015611cef57816020015b611cdc613c03565b815260200190600190039081611cd45790505b50905060005b838111611082573360076000611d0c84600161419d565b81526020810191909152604001600020600801546001600160a01b0316141561210c576000611d3c82600161419d565b9050600060076000838152602001908152602001600020905080604051806101e001604052908160008201548152602001600182015481526020016002820154815260200160038201548152602001600482018054611d9a906141b5565b80601f0160208091040260200160405190810160405280929190818152602001828054611dc6906141b5565b8015611e135780601f10611de857610100808354040283529160200191611e13565b820191906000526020600020905b815481529060010190602001808311611df657829003601f168201915b505050918352505060058201546001600160a01b03908116602083015260068301548116604083015260078301548116606083015260088301548116608083015260098301541660a0820152600a8201805460c090920191611e74906141b5565b80601f0160208091040260200160405190810160405280929190818152602001828054611ea0906141b5565b8015611eed5780601f10611ec257610100808354040283529160200191611eed565b820191906000526020600020905b815481529060010190602001808311611ed057829003601f168201915b50505050508152602001600b82018054611f06906141b5565b80601f0160208091040260200160405190810160405280929190818152602001828054611f32906141b5565b8015611f7f5780601f10611f5457610100808354040283529160200191611f7f565b820191906000526020600020905b815481529060010190602001808311611f6257829003601f168201915b50505050508152602001600c82018054611f98906141b5565b80601f0160208091040260200160405190810160405280929190818152602001828054611fc4906141b5565b80156120115780601f10611fe657610100808354040283529160200191612011565b820191906000526020600020905b815481529060010190602001808311611ff457829003601f168201915b50505050508152602001600d8201805461202a906141b5565b80601f0160208091040260200160405190810160405280929190818152602001828054612056906141b5565b80156120a35780601f10612078576101008083540402835291602001916120a3565b820191906000526020600020905b81548152906001019060200180831161208657829003601f168201915b5050509183525050600e82015460209091019060ff1660078111156120ca576120ca614221565b60078111156120db576120db614221565b815250508486815181106120f1576120f1614237565b602090810291909101015261210760018661419d565b945050505b80612116816141f0565b915050611cf5565b6104e18161382c565b600061123e60018361369a565b6060600061214160065490565b905060008060005b838110156121a457336007600061216184600161419d565b81526020810191909152604001600020600901546001600160a01b031614156121925761218f60018461419d565b92505b8061219c816141f0565b915050612149565b5060008267ffffffffffffffff8111156121c0576121c061424d565b6040519080825280602002602001820160405280156121f957816020015b6121e6613c03565b8152602001906001900390816121de5790505b50905060005b83811161108257336007600061221684600161419d565b81526020810191909152604001600020600901546001600160a01b0316141561261657600061224682600161419d565b9050600060076000838152602001908152602001600020905080604051806101e0016040529081600082015481526020016001820154815260200160028201548152602001600382015481526020016004820180546122a4906141b5565b80601f01602080910402602001604051908101604052809291908181526020018280546122d0906141b5565b801561231d5780601f106122f25761010080835404028352916020019161231d565b820191906000526020600020905b81548152906001019060200180831161230057829003601f168201915b505050918352505060058201546001600160a01b03908116602083015260068301548116604083015260078301548116606083015260088301548116608083015260098301541660a0820152600a8201805460c09092019161237e906141b5565b80601f01602080910402602001604051908101604052809291908181526020018280546123aa906141b5565b80156123f75780601f106123cc576101008083540402835291602001916123f7565b820191906000526020600020905b8154815290600101906020018083116123da57829003601f168201915b50505050508152602001600b82018054612410906141b5565b80601f016020809104026020016040519081016040528092919081815260200182805461243c906141b5565b80156124895780601f1061245e57610100808354040283529160200191612489565b820191906000526020600020905b81548152906001019060200180831161246c57829003601f168201915b50505050508152602001600c820180546124a2906141b5565b80601f01602080910402602001604051908101604052809291908181526020018280546124ce906141b5565b801561251b5780601f106124f05761010080835404028352916020019161251b565b820191906000526020600020905b8154815290600101906020018083116124fe57829003601f168201915b50505050508152602001600d82018054612534906141b5565b80601f0160208091040260200160405190810160405280929190818152602001828054612560906141b5565b80156125ad5780601f10612582576101008083540402835291602001916125ad565b820191906000526020600020905b81548152906001019060200180831161259057829003601f168201915b5050509183525050600e82015460209091019060ff1660078111156125d4576125d4614221565b60078111156125e5576125e5614221565b815250508486815181106125fb576125fb614237565b602090810291909101015261261160018661419d565b945050505b80612620816141f0565b9150506121ff565b6060600061263560065490565b90506000808267ffffffffffffffff8111156126535761265361424d565b60405190808252806020026020018201604052801561268c57816020015b612679613c03565b8152602001906001900390816126715790505b50905060005b8381116109675760006007816126a984600161419d565b81526020810191909152604001600020600501546001600160a01b031614612aa85760006126d882600161419d565b9050600060076000838152602001908152602001600020905080604051806101e001604052908160008201548152602001600182015481526020016002820154815260200160038201548152602001600482018054612736906141b5565b80601f0160208091040260200160405190810160405280929190818152602001828054612762906141b5565b80156127af5780601f10612784576101008083540402835291602001916127af565b820191906000526020600020905b81548152906001019060200180831161279257829003601f168201915b505050918352505060058201546001600160a01b03908116602083015260068301548116604083015260078301548116606083015260088301548116608083015260098301541660a0820152600a8201805460c090920191612810906141b5565b80601f016020809104026020016040519081016040528092919081815260200182805461283c906141b5565b80156128895780601f1061285e57610100808354040283529160200191612889565b820191906000526020600020905b81548152906001019060200180831161286c57829003601f168201915b50505050508152602001600b820180546128a2906141b5565b80601f01602080910402602001604051908101604052809291908181526020018280546128ce906141b5565b801561291b5780601f106128f05761010080835404028352916020019161291b565b820191906000526020600020905b8154815290600101906020018083116128fe57829003601f168201915b50505050508152602001600c82018054612934906141b5565b80601f0160208091040260200160405190810160405280929190818152602001828054612960906141b5565b80156129ad5780601f10612982576101008083540402835291602001916129ad565b820191906000526020600020905b81548152906001019060200180831161299057829003601f168201915b50505050508152602001600d820180546129c6906141b5565b80601f01602080910402602001604051908101604052809291908181526020018280546129f2906141b5565b8015612a3f5780601f10612a1457610100808354040283529160200191612a3f565b820191906000526020600020905b815481529060010190602001808311612a2257829003601f168201915b5050509183525050600e82015460209091019060ff166007811115612a6657612a66614221565b6007811115612a7757612a77614221565b81525050848681518110612a8d57612a8d614237565b6020908102919091010152612aa360018661419d565b945050505b80612ab2816141f0565b915050612692565b60008060076000848152602001908152602001600020604051806101e001604052908160008201548152602001600182015481526020016002820154815260200160038201548152602001600482018054612b14906141b5565b80601f0160208091040260200160405190810160405280929190818152602001828054612b40906141b5565b8015612b8d5780601f10612b6257610100808354040283529160200191612b8d565b820191906000526020600020905b815481529060010190602001808311612b7057829003601f168201915b505050918352505060058201546001600160a01b03908116602083015260068301548116604083015260078301548116606083015260088301548116608083015260098301541660a0820152600a8201805460c090920191612bee906141b5565b80601f0160208091040260200160405190810160405280929190818152602001828054612c1a906141b5565b8015612c675780601f10612c3c57610100808354040283529160200191612c67565b820191906000526020600020905b815481529060010190602001808311612c4a57829003601f168201915b50505050508152602001600b82018054612c80906141b5565b80601f0160208091040260200160405190810160405280929190818152602001828054612cac906141b5565b8015612cf95780601f10612cce57610100808354040283529160200191612cf9565b820191906000526020600020905b815481529060010190602001808311612cdc57829003601f168201915b50505050508152602001600c82018054612d12906141b5565b80601f0160208091040260200160405190810160405280929190818152602001828054612d3e906141b5565b8015612d8b5780601f10612d6057610100808354040283529160200191612d8b565b820191906000526020600020905b815481529060010190602001808311612d6e57829003601f168201915b50505050508152602001600d82018054612da4906141b5565b80601f0160208091040260200160405190810160405280929190818152602001828054612dd0906141b5565b8015612e1d5780601f10612df257610100808354040283529160200191612e1d565b820191906000526020600020905b815481529060010190602001808311612e0057829003601f168201915b5050509183525050600e82015460209091019060ff166007811115612e4457612e44614221565b6007811115612e5557612e55614221565b905250606001519392505050565b600061123e818361369a565b612e7833611231565b612ec45760405162461bcd60e51b815260206004820152601760248201527f494e56414c49443a204e6f7420612052657461696c657200000000000000000060448201526064016109bd565b6112a23361386e565b612edb600580546001019055565b612ee9600680546001019055565b6000612ef460055490565b60065460408051602081019390935282015260600160408051601f1981840301815282825280516020909101206101e08301909152915080612f3560065490565b8152602001612f4360055490565b8152602001828152602001838152602001848152602001336001600160a01b03168152602001336001600160a01b0316815260200160006001600160a01b0316815260200160006001600160a01b0316815260200160006001600160a01b0316815260200188815260200187815260200186815260200185815260200160006007811115612fd357612fd3614221565b905260076000612fe260055490565b8152602001908152602001600020600082015181600001556020820151816001015560408201518160020155606082015181600301556080820151816004019080519060200190613034929190613cb6565b5060a08201516005820180546001600160a01b03199081166001600160a01b039384161790915560c0840151600684018054831691841691909117905560e084015160078401805483169184169190911790556101008401516008840180548316918416919091179055610120840151600984018054909216921691909117905561014082015180516130d191600a840191602090910190613cb6565b5061016082015180516130ee91600b840191602090910190613cb6565b50610180820151805161310b91600c840191602090910190613cb6565b506101a0820151805161312891600d840191602090910190613cb6565b506101c0820151600e8201805460ff1916600183600781111561314d5761314d614221565b021790555050604080516101008101825243408152600060208201819052918101829052606081018290526080810182905260a0810182905260c0810182905260e0810182905291506008906131a260055490565b8152602001908152602001600020600082015181600001556020820151816001015560408201518160020155606082015181600301556080820151816004015560a0820151816005015560c0820151816006015560e0820151816007015590505061321461320f60055490565b6138b0565b61321d33612e63565b61322a5761322a33611bbe565b7f8e55ccfc9778ff8eba1646d765cf1982537ce0f9257054a17b48aad74525018361325460055490565b60405190815260200160405180910390a150505050505050565b8060056000828152600760208190526040909120600e015460ff169081111561329957613299614221565b146132e65760405162461bcd60e51b815260206004820152601a60248201527f494e56414c49443a204974656d204e6f7420526563656976656400000000000060448201526064016109bd565b6000828152600760205260409020600601546001600160a01b03163314156133505760405162461bcd60e51b815260206004820152601f60248201527f436f6e73756d657249442063616e6e6f742062652052657461696c657249440060448201526064016109bd565b60008281526007602052604090206003015434146133805760405162461bcd60e51b81526004016109bd90614137565b60008281526007602081815260408084206009810180546001600160a01b03191633179055600e01805460ff19166001179055600890915290912043409101556133c982613912565b6133d233611c1d565b6133df576133df336104d8565b6133e8826139e6565b600082815260076020526040808220600881015460039091015491516001600160a01b039091169282156108fc02929190818181858888f19350505050158015613436573d6000803e3d6000fd5b506040518281527ff8d4d18c02478c21f38cf4aa60c47b8baf0215ad5d0b0ad565ef8580e03c7ef190602001611225565b6001600160a01b03811661348d5760405162461bcd60e51b81526004016109bd9061416e565b613497828261369a565b156134e45760405162461bcd60e51b815260206004820152601a60248201527f494e56414c49443a204163636f756e74204861766520526f6c6500000000000060448201526064016109bd565b6001600160a01b0316600090815260209190915260409020805460ff19166001179055565b613514600382613467565b6040516001600160a01b038216907f28b26e7a3d20aedbc5f8f2ebf7da671c0491723a2b78f47a097b0e46dee0714290600090a250565b6000828152600760209081526040808320600e8101805460ff19166003908117909155018490556008825291829020434060049091015590518381527f54dafe9ea34c9448f0b09cec86e7ede9744e44adedf54b15e3ad40a0942f2fb9910160405180910390a16135bb82613aa6565b5050565b8060016000828152600760208190526040909120600e015460ff16908111156135ea576135ea614221565b146136375760405162461bcd60e51b815260206004820152601a60248201527f494e56414c49443a204974656d204e6f7420466f722053616c6500000000000060448201526064016109bd565b61364033611231565b61364d5761364d3361211e565b600082815260076020908152604091829020600e01805460ff1916600517905590518381527f37f3711bfa8ff1e2bebc5e7a9afdc0de750e97f83f26f0b6d62d7a4130f99d2d9101611225565b60006001600160a01b0382166136c25760405162461bcd60e51b81526004016109bd9061416e565b506001600160a01b03166000908152602091909152604090205460ff1690565b6136ed600382613b65565b6040516001600160a01b038216907fe3f5ed5f263f1f01764a96edfc7d025f511ec5f7d180e8816908b78bcf74f09890600090a250565b61372f600182613b65565b6040516001600160a01b038216907f126174f6cf49c81cdb4a9214c6b8f037bef55b4ec31e4fc776cea2a1c8a88d5990600090a250565b613771600182613467565b6040516001600160a01b038216907fddbf200aa634dc3fb81cfd68583dd1040d1c751d335e1d86b631bde3e977fea890600090a250565b6137b3600082613467565b6040516001600160a01b038216907f2e0ded4123377a3c2bc9a26f1717655a129e2f20752924d42e730ec89c83dbd090600090a250565b6137f5600082613b65565b6040516001600160a01b038216907fa5e0f060af304ab17dd418c7927e3da3ae7868189bf387aee09ab179ccc572f290600090a250565b613837600282613467565b6040516001600160a01b038216907f71ae26cad02663e3d92efd6ec56031a80d74a20c0ab4183faa8bf262261c9baa90600090a250565b613879600282613b65565b6040516001600160a01b038216907fdb7176e79cffef81cb01767dd0447a0b24bb72ca9778d4b245581086b2a7e6db90600090a250565b6000818152600760209081526040808320600e01805460ff191660011790556008825291829020434060029091015590518281527fa96ae0fc3224ebd79eebfe54bd130cc9cb94416cddd1f2386115e00b72532468910160405180910390a150565b8060016000828152600760208190526040909120600e015460ff169081111561393d5761393d614221565b1461398a5760405162461bcd60e51b815260206004820152601a60248201527f494e56414c49443a204974656d204e6f7420466f722053616c6500000000000060448201526064016109bd565b506000908152600760208181526040808420600e81018054600660ff19909116811790915560088452919094204340910155526009810154600590910180546001600160a01b0319166001600160a01b03909216919091179055565b8060066000828152600760208190526040909120600e015460ff1690811115613a1157613a11614221565b14613a2e5760405162461bcd60e51b81526004016109bd90614102565b6000828152600760208190526040909120600581018054336001600160a01b031991821681179092556009830180549091169091179055600e01805460ff191660018302179055506040518281527f8a746d5b91a9a334d1abbeee7d031aac6d5c59ea6e982ac06aef4346cce5749e90602001611225565b8060036000828152600760208190526040909120600e015460ff1690811115613ad157613ad1614221565b14613aee5760405162461bcd60e51b81526004016109bd90614102565b600082815260076020908152604091829020600e8101805460ff191660011790556008810154600590910180546001600160a01b039092166001600160a01b031990921691909117905590518381527f710cdb674ad272ba75647b6f54d9dfd1b8fe19dba2528b54c7c20972b273c9ef9101611225565b6001600160a01b038116613b8b5760405162461bcd60e51b81526004016109bd9061416e565b613b95828261369a565b613be15760405162461bcd60e51b815260206004820152601d60248201527f494e56414c49443a204163636f756e742048617665204e6f20526f6c6500000060448201526064016109bd565b6001600160a01b0316600090815260209190915260409020805460ff19169055565b604051806101e00160405280600081526020016000815260200160008152602001600081526020016060815260200160006001600160a01b0316815260200160006001600160a01b0316815260200160006001600160a01b0316815260200160006001600160a01b0316815260200160006001600160a01b031681526020016060815260200160608152602001606081526020016060815260200160006007811115613cb157613cb1614221565b905290565b828054613cc2906141b5565b90600052602060002090601f016020900481019282613ce45760008555613d2a565b82601f10613cfd57805160ff1916838001178555613d2a565b82800160010185558215613d2a579182015b82811115613d2a578251825591602001919060010190613d0f565b50613d36929150613d3a565b5090565b5b80821115613d365760008155600101613d3b565b600082601f830112613d6057600080fd5b813567ffffffffffffffff80821115613d7b57613d7b61424d565b604051601f8301601f19908116603f01168101908282118183101715613da357613da361424d565b81604052838152866020858801011115613dbc57600080fd5b836020870160208301376000602085830101528094505050505092915050565b600060208284031215613dee57600080fd5b81356001600160a01b0381168114611bb757600080fd5b60008060008060008060c08789031215613e1e57600080fd5b863567ffffffffffffffff80821115613e3657600080fd5b613e428a838b01613d4f565b97506020890135915080821115613e5857600080fd5b613e648a838b01613d4f565b96506040890135915080821115613e7a57600080fd5b613e868a838b01613d4f565b95506060890135915080821115613e9c57600080fd5b613ea88a838b01613d4f565b94506080890135915080821115613ebe57600080fd5b50613ecb89828a01613d4f565b92505060a087013590509295509295509295565b600060208284031215613ef157600080fd5b5035919050565b60008060408385031215613f0b57600080fd5b50508035926020909101359150565b60088110613f3857634e487b7160e01b600052602160045260246000fd5b9052565b6000815180845260005b81811015613f6257602081850181015186830182015201613f46565b81811115613f74576000602083870101525b50601f01601f19169290920160200192915050565b60006020808301818452808551808352604092508286019150828160051b87010184880160005b838110156140f457603f1989840301855281516101e0815185528882015189860152878201518886015260608083015181870152506080808301518282880152613ffc83880182613f3c565b9250505060a08083015161401a828801826001600160a01b03169052565b505060c0828101516001600160a01b039081169187019190915260e08084015182169087015261010080840151821690870152610120808401519091169086015261014080830151868303828801526140738382613f3c565b92505050610160808301518683038288015261408f8382613f3c565b9250505061018080830151868303828801526140ab8382613f3c565b925050506101a080830151868303828801526140c78382613f3c565b925050506101c08083015192506140e081870184613f1a565b509588019593505090860190600101613fb0565b509098975050505050505050565b6020808252818101527f494e56414c49443a204e6f7420536f6c6420546f204469737472696275746f72604082015260600190565b6020808252601e908201527f496e73756666696369656e7420416d6f756e74207472616e7366657265640000604082015260600190565b602080825260159082015274494e56414c49443a2044454144204164647265737360581b604082015260600190565b600082198211156141b0576141b061420b565b500190565b600181811c908216806141c957607f821691505b602082108114156141ea57634e487b7160e01b600052602260045260246000fd5b50919050565b60006000198214156142045761420461420b565b5060010190565b634e487b7160e01b600052601160045260246000fd5b634e487b7160e01b600052602160045260246000fd5b634e487b7160e01b600052603260045260246000fd5b634e487b7160e01b600052604160045260246000fdfea2646970667358221220e6695a6f6409c02dd8595b56f0a81812b03e78134ba6801bae07eaaa195988cf64736f6c63430008060033",
  "linkReferences": {},
  "deployedLinkReferences": {}
}