{
  "_format": "hh-sol-artifact-1",
  "contractName": "SupplyChain",
  "sourceName": "contracts/base/SupplyChain.sol",
  "abi": [
    {
      "inputs": [],
      "stateMutability": "nonpayable",
      "type": "constructor"
    },
    {
      "anonymous": false,
      "inputs": [
        {
          "indexed": true,
          "internalType": "address",
          "name": "account",
          "type": "address"
        }
      ],
      "name": "ConsumerAdded",
      "type": "event"
    },
    {
      "anonymous": false,
      "inputs": [
        {
          "indexed": true,
          "internalType": "address",
          "name": "account",
          "type": "address"
        }
      ],
      "name": "ConsumerRemoved",
      "type": "event"
    },
    {
      "anonymous": false,
      "inputs": [
        {
          "indexed": true,
          "internalType": "address",
          "name": "account",
          "type": "address"
        }
      ],
      "name": "DistributorAdded",
      "type": "event"
    },
    {
      "anonymous": false,
      "inputs": [
        {
          "indexed": true,
          "internalType": "address",
          "name": "account",
          "type": "address"
        }
      ],
      "name": "DistributorRemoved",
      "type": "event"
    },
    {
      "anonymous": false,
      "inputs": [
        {
          "indexed": true,
          "internalType": "address",
          "name": "account",
          "type": "address"
        }
      ],
      "name": "FarmerAdded",
      "type": "event"
    },
    {
      "anonymous": false,
      "inputs": [
        {
          "indexed": true,
          "internalType": "address",
          "name": "account",
          "type": "address"
        }
      ],
      "name": "FarmerRemoved",
      "type": "event"
    },
    {
      "anonymous": false,
      "inputs": [
        {
          "indexed": false,
          "internalType": "uint256",
          "name": "upc",
          "type": "uint256"
        }
      ],
      "name": "ForSale",
      "type": "event"
    },
    {
      "anonymous": false,
      "inputs": [
        {
          "indexed": false,
          "internalType": "uint256",
          "name": "upc",
          "type": "uint256"
        }
      ],
      "name": "Harvested",
      "type": "event"
    },
    {
      "anonymous": false,
      "inputs": [
        {
          "indexed": false,
          "internalType": "uint256",
          "name": "upc",
          "type": "uint256"
        }
      ],
      "name": "Packaged",
      "type": "event"
    },
    {
      "anonymous": false,
      "inputs": [
        {
          "indexed": false,
          "internalType": "uint256",
          "name": "upc",
          "type": "uint256"
        }
      ],
      "name": "Processed",
      "type": "event"
    },
    {
      "anonymous": false,
      "inputs": [
        {
          "indexed": false,
          "internalType": "uint256",
          "name": "upc",
          "type": "uint256"
        }
      ],
      "name": "Purchased",
      "type": "event"
    },
    {
      "anonymous": false,
      "inputs": [
        {
          "indexed": false,
          "internalType": "uint256",
          "name": "upc",
          "type": "uint256"
        }
      ],
      "name": "Received",
      "type": "event"
    },
    {
      "anonymous": false,
      "inputs": [
        {
          "indexed": true,
          "internalType": "address",
          "name": "account",
          "type": "address"
        }
      ],
      "name": "RetailerAdded",
      "type": "event"
    },
    {
      "anonymous": false,
      "inputs": [
        {
          "indexed": true,
          "internalType": "address",
          "name": "account",
          "type": "address"
        }
      ],
      "name": "RetailerRemoved",
      "type": "event"
    },
    {
      "anonymous": false,
      "inputs": [
        {
          "indexed": false,
          "internalType": "uint256",
          "name": "upc",
          "type": "uint256"
        }
      ],
      "name": "Shipped",
      "type": "event"
    },
    {
      "anonymous": false,
      "inputs": [
        {
          "indexed": false,
          "internalType": "uint256",
          "name": "upc",
          "type": "uint256"
        }
      ],
      "name": "SoldToConsumer",
      "type": "event"
    },
    {
      "anonymous": false,
      "inputs": [
        {
          "indexed": false,
          "internalType": "uint256",
          "name": "upc",
          "type": "uint256"
        }
      ],
      "name": "SoldToDist",
      "type": "event"
    },
    {
      "anonymous": false,
      "inputs": [
        {
          "indexed": false,
          "internalType": "uint256",
          "name": "upc",
          "type": "uint256"
        }
      ],
      "name": "SoldToRetail",
      "type": "event"
    },
    {
      "inputs": [],
      "name": "DEFAULT_STATE",
      "outputs": [
        {
          "internalType": "enum SupplyChain.State",
          "name": "",
          "type": "uint8"
        }
      ],
      "stateMutability": "view",
      "type": "function"
    },
    {
      "inputs": [
        {
          "internalType": "address",
          "name": "account",
          "type": "address"
        }
      ],
      "name": "addConsumer",
      "outputs": [],
      "stateMutability": "nonpayable",
      "type": "function"
    },
    {
      "inputs": [
        {
          "internalType": "address",
          "name": "account",
          "type": "address"
        }
      ],
      "name": "addDistributor",
      "outputs": [],
      "stateMutability": "nonpayable",
      "type": "function"
    },
    {
      "inputs": [
        {
          "internalType": "address",
          "name": "account",
          "type": "address"
        }
      ],
      "name": "addFarmer",
      "outputs": [],
      "stateMutability": "nonpayable",
      "type": "function"
    },
    {
      "inputs": [
        {
          "internalType": "address",
          "name": "account",
          "type": "address"
        }
      ],
      "name": "addRetailer",
      "outputs": [],
      "stateMutability": "nonpayable",
      "type": "function"
    },
    {
      "inputs": [
        {
          "internalType": "uint256",
          "name": "_upc",
          "type": "uint256"
        },
        {
          "internalType": "uint256",
          "name": "_newPrice",
          "type": "uint256"
        }
      ],
      "name": "buy",
      "outputs": [],
      "stateMutability": "payable",
      "type": "function"
    },
    {
      "inputs": [
        {
          "internalType": "uint256",
          "name": "_upc",
          "type": "uint256"
        }
      ],
      "name": "buyAsConsumer",
      "outputs": [],
      "stateMutability": "payable",
      "type": "function"
    },
    {
      "inputs": [
        {
          "internalType": "uint256",
          "name": "_upc",
          "type": "uint256"
        },
        {
          "internalType": "uint256",
          "name": "_newPrice",
          "type": "uint256"
        }
      ],
      "name": "buyAsDist",
      "outputs": [],
      "stateMutability": "payable",
      "type": "function"
    },
    {
      "inputs": [
        {
          "internalType": "uint256",
          "name": "_upc",
          "type": "uint256"
        },
        {
          "internalType": "uint256",
          "name": "_newPrice",
          "type": "uint256"
        }
      ],
      "name": "buyAsRetail",
      "outputs": [],
      "stateMutability": "payable",
      "type": "function"
    },
    {
      "inputs": [],
      "name": "fetchConsumerItems",
      "outputs": [
        {
          "components": [
            {
              "internalType": "uint256",
              "name": "sku",
              "type": "uint256"
            },
            {
              "internalType": "uint256",
              "name": "upc",
              "type": "uint256"
            },
            {
              "internalType": "address",
              "name": "ownerID",
              "type": "address"
            },
            {
              "internalType": "address",
              "name": "originFarmerID",
              "type": "address"
            },
            {
              "internalType": "string",
              "name": "originFarmName",
              "type": "string"
            },
            {
              "internalType": "string",
              "name": "originFarmMetadata",
              "type": "string"
            },
            {
              "internalType": "string",
              "name": "originFarmLatitude",
              "type": "string"
            },
            {
              "internalType": "string",
              "name": "originFarmLongitude",
              "type": "string"
            },
            {
              "internalType": "uint256",
              "name": "productID",
              "type": "uint256"
            },
            {
              "internalType": "string",
              "name": "productMetadata",
              "type": "string"
            },
            {
              "internalType": "uint256",
              "name": "productPrice",
              "type": "uint256"
            },
            {
              "internalType": "enum SupplyChain.State",
              "name": "itemState",
              "type": "uint8"
            },
            {
              "internalType": "address",
              "name": "distributorID",
              "type": "address"
            },
            {
              "internalType": "address",
              "name": "retailerID",
              "type": "address"
            },
            {
              "internalType": "address",
              "name": "consumerID",
              "type": "address"
            }
          ],
          "internalType": "struct SupplyChain.Item[]",
          "name": "",
          "type": "tuple[]"
        }
      ],
      "stateMutability": "view",
      "type": "function"
    },
    {
      "inputs": [
        {
          "internalType": "uint256",
          "name": "_upc",
          "type": "uint256"
        }
      ],
      "name": "fetchCurrentState",
      "outputs": [
        {
          "internalType": "uint256",
          "name": "itemState",
          "type": "uint256"
        }
      ],
      "stateMutability": "view",
      "type": "function"
    },
    {
      "inputs": [],
      "name": "fetchDistributorItems",
      "outputs": [
        {
          "components": [
            {
              "internalType": "uint256",
              "name": "sku",
              "type": "uint256"
            },
            {
              "internalType": "uint256",
              "name": "upc",
              "type": "uint256"
            },
            {
              "internalType": "address",
              "name": "ownerID",
              "type": "address"
            },
            {
              "internalType": "address",
              "name": "originFarmerID",
              "type": "address"
            },
            {
              "internalType": "string",
              "name": "originFarmName",
              "type": "string"
            },
            {
              "internalType": "string",
              "name": "originFarmMetadata",
              "type": "string"
            },
            {
              "internalType": "string",
              "name": "originFarmLatitude",
              "type": "string"
            },
            {
              "internalType": "string",
              "name": "originFarmLongitude",
              "type": "string"
            },
            {
              "internalType": "uint256",
              "name": "productID",
              "type": "uint256"
            },
            {
              "internalType": "string",
              "name": "productMetadata",
              "type": "string"
            },
            {
              "internalType": "uint256",
              "name": "productPrice",
              "type": "uint256"
            },
            {
              "internalType": "enum SupplyChain.State",
              "name": "itemState",
              "type": "uint8"
            },
            {
              "internalType": "address",
              "name": "distributorID",
              "type": "address"
            },
            {
              "internalType": "address",
              "name": "retailerID",
              "type": "address"
            },
            {
              "internalType": "address",
              "name": "consumerID",
              "type": "address"
            }
          ],
          "internalType": "struct SupplyChain.Item[]",
          "name": "",
          "type": "tuple[]"
        }
      ],
      "stateMutability": "view",
      "type": "function"
    },
    {
      "inputs": [],
      "name": "fetchFarmerItems",
      "outputs": [
        {
          "components": [
            {
              "internalType": "uint256",
              "name": "sku",
              "type": "uint256"
            },
            {
              "internalType": "uint256",
              "name": "upc",
              "type": "uint256"
            },
            {
              "internalType": "address",
              "name": "ownerID",
              "type": "address"
            },
            {
              "internalType": "address",
              "name": "originFarmerID",
              "type": "address"
            },
            {
              "internalType": "string",
              "name": "originFarmName",
              "type": "string"
            },
            {
              "internalType": "string",
              "name": "originFarmMetadata",
              "type": "string"
            },
            {
              "internalType": "string",
              "name": "originFarmLatitude",
              "type": "string"
            },
            {
              "internalType": "string",
              "name": "originFarmLongitude",
              "type": "string"
            },
            {
              "internalType": "uint256",
              "name": "productID",
              "type": "uint256"
            },
            {
              "internalType": "string",
              "name": "productMetadata",
              "type": "string"
            },
            {
              "internalType": "uint256",
              "name": "productPrice",
              "type": "uint256"
            },
            {
              "internalType": "enum SupplyChain.State",
              "name": "itemState",
              "type": "uint8"
            },
            {
              "internalType": "address",
              "name": "distributorID",
              "type": "address"
            },
            {
              "internalType": "address",
              "name": "retailerID",
              "type": "address"
            },
            {
              "internalType": "address",
              "name": "consumerID",
              "type": "address"
            }
          ],
          "internalType": "struct SupplyChain.Item[]",
          "name": "",
          "type": "tuple[]"
        }
      ],
      "stateMutability": "view",
      "type": "function"
    },
    {
      "inputs": [
        {
          "internalType": "uint256",
          "name": "_upc",
          "type": "uint256"
        }
      ],
      "name": "fetchItemTraceHashes",
      "outputs": [
        {
          "components": [
            {
              "internalType": "bytes32",
              "name": "harvestedHash",
              "type": "bytes32"
            },
            {
              "internalType": "bytes32",
              "name": "processedHash",
              "type": "bytes32"
            },
            {
              "internalType": "bytes32",
              "name": "packagedHash",
              "type": "bytes32"
            },
            {
              "internalType": "bytes32",
              "name": "sellToDistHash",
              "type": "bytes32"
            },
            {
              "internalType": "bytes32",
              "name": "buyAsDistHash",
              "type": "bytes32"
            },
            {
              "internalType": "bytes32",
              "name": "sellToRetailHash",
              "type": "bytes32"
            },
            {
              "internalType": "bytes32",
              "name": "buyAsRetailHash",
              "type": "bytes32"
            },
            {
              "internalType": "bytes32",
              "name": "sellToConsumerHash",
              "type": "bytes32"
            },
            {
              "internalType": "bytes32",
              "name": "buyAsConsumerHash",
              "type": "bytes32"
            }
          ],
          "internalType": "struct SupplyChain.TraceHash[]",
          "name": "",
          "type": "tuple[]"
        }
      ],
      "stateMutability": "view",
      "type": "function"
    },
    {
      "inputs": [],
      "name": "fetchMyItems",
      "outputs": [
        {
          "components": [
            {
              "internalType": "uint256",
              "name": "sku",
              "type": "uint256"
            },
            {
              "internalType": "uint256",
              "name": "upc",
              "type": "uint256"
            },
            {
              "internalType": "address",
              "name": "ownerID",
              "type": "address"
            },
            {
              "internalType": "address",
              "name": "originFarmerID",
              "type": "address"
            },
            {
              "internalType": "string",
              "name": "originFarmName",
              "type": "string"
            },
            {
              "internalType": "string",
              "name": "originFarmMetadata",
              "type": "string"
            },
            {
              "internalType": "string",
              "name": "originFarmLatitude",
              "type": "string"
            },
            {
              "internalType": "string",
              "name": "originFarmLongitude",
              "type": "string"
            },
            {
              "internalType": "uint256",
              "name": "productID",
              "type": "uint256"
            },
            {
              "internalType": "string",
              "name": "productMetadata",
              "type": "string"
            },
            {
              "internalType": "uint256",
              "name": "productPrice",
              "type": "uint256"
            },
            {
              "internalType": "enum SupplyChain.State",
              "name": "itemState",
              "type": "uint8"
            },
            {
              "internalType": "address",
              "name": "distributorID",
              "type": "address"
            },
            {
              "internalType": "address",
              "name": "retailerID",
              "type": "address"
            },
            {
              "internalType": "address",
              "name": "consumerID",
              "type": "address"
            }
          ],
          "internalType": "struct SupplyChain.Item[]",
          "name": "",
          "type": "tuple[]"
        }
      ],
      "stateMutability": "view",
      "type": "function"
    },
    {
      "inputs": [],
      "name": "fetchRetailerItems",
      "outputs": [
        {
          "components": [
            {
              "internalType": "uint256",
              "name": "sku",
              "type": "uint256"
            },
            {
              "internalType": "uint256",
              "name": "upc",
              "type": "uint256"
            },
            {
              "internalType": "address",
              "name": "ownerID",
              "type": "address"
            },
            {
              "internalType": "address",
              "name": "originFarmerID",
              "type": "address"
            },
            {
              "internalType": "string",
              "name": "originFarmName",
              "type": "string"
            },
            {
              "internalType": "string",
              "name": "originFarmMetadata",
              "type": "string"
            },
            {
              "internalType": "string",
              "name": "originFarmLatitude",
              "type": "string"
            },
            {
              "internalType": "string",
              "name": "originFarmLongitude",
              "type": "string"
            },
            {
              "internalType": "uint256",
              "name": "productID",
              "type": "uint256"
            },
            {
              "internalType": "string",
              "name": "productMetadata",
              "type": "string"
            },
            {
              "internalType": "uint256",
              "name": "productPrice",
              "type": "uint256"
            },
            {
              "internalType": "enum SupplyChain.State",
              "name": "itemState",
              "type": "uint8"
            },
            {
              "internalType": "address",
              "name": "distributorID",
              "type": "address"
            },
            {
              "internalType": "address",
              "name": "retailerID",
              "type": "address"
            },
            {
              "internalType": "address",
              "name": "consumerID",
              "type": "address"
            }
          ],
          "internalType": "struct SupplyChain.Item[]",
          "name": "",
          "type": "tuple[]"
        }
      ],
      "stateMutability": "view",
      "type": "function"
    },
    {
      "inputs": [
        {
          "internalType": "string",
          "name": "_originFarmName",
          "type": "string"
        },
        {
          "internalType": "string",
          "name": "_originFarmMetadata",
          "type": "string"
        },
        {
          "internalType": "string",
          "name": "_originFarmLatitude",
          "type": "string"
        },
        {
          "internalType": "string",
          "name": "_originFarmLongitude",
          "type": "string"
        },
        {
          "internalType": "string",
          "name": "_productMetadata",
          "type": "string"
        },
        {
          "internalType": "uint256",
          "name": "_productPrice",
          "type": "uint256"
        }
      ],
      "name": "harvestItem",
      "outputs": [],
      "stateMutability": "nonpayable",
      "type": "function"
    },
    {
      "inputs": [
        {
          "internalType": "address",
          "name": "account",
          "type": "address"
        }
      ],
      "name": "isConsumer",
      "outputs": [
        {
          "internalType": "bool",
          "name": "",
          "type": "bool"
        }
      ],
      "stateMutability": "view",
      "type": "function"
    },
    {
      "inputs": [
        {
          "internalType": "address",
          "name": "account",
          "type": "address"
        }
      ],
      "name": "isDistributor",
      "outputs": [
        {
          "internalType": "bool",
          "name": "",
          "type": "bool"
        }
      ],
      "stateMutability": "view",
      "type": "function"
    },
    {
      "inputs": [
        {
          "internalType": "address",
          "name": "account",
          "type": "address"
        }
      ],
      "name": "isFarmer",
      "outputs": [
        {
          "internalType": "bool",
          "name": "",
          "type": "bool"
        }
      ],
      "stateMutability": "view",
      "type": "function"
    },
    {
      "inputs": [
        {
          "internalType": "address",
          "name": "account",
          "type": "address"
        }
      ],
      "name": "isRetailer",
      "outputs": [
        {
          "internalType": "bool",
          "name": "",
          "type": "bool"
        }
      ],
      "stateMutability": "view",
      "type": "function"
    },
    {
      "inputs": [],
      "name": "kill",
      "outputs": [],
      "stateMutability": "nonpayable",
      "type": "function"
    },
    {
      "inputs": [],
      "name": "owner",
      "outputs": [
        {
          "internalType": "address",
          "name": "",
          "type": "address"
        }
      ],
      "stateMutability": "view",
      "type": "function"
    },
    {
      "inputs": [],
      "name": "renounceConsumer",
      "outputs": [],
      "stateMutability": "nonpayable",
      "type": "function"
    },
    {
      "inputs": [],
      "name": "renounceDistributor",
      "outputs": [],
      "stateMutability": "nonpayable",
      "type": "function"
    },
    {
      "inputs": [],
      "name": "renounceFarmer",
      "outputs": [],
      "stateMutability": "nonpayable",
      "type": "function"
    },
    {
      "inputs": [],
      "name": "renounceRetailer",
      "outputs": [],
      "stateMutability": "nonpayable",
      "type": "function"
    },
    {
      "inputs": [],
      "name": "sku",
      "outputs": [
        {
          "internalType": "uint256",
          "name": "",
          "type": "uint256"
        }
      ],
      "stateMutability": "view",
      "type": "function"
    },
    {
      "inputs": [],
      "name": "upc",
      "outputs": [
        {
          "internalType": "uint256",
          "name": "",
          "type": "uint256"
        }
      ],
      "stateMutability": "view",
      "type": "function"
    }
  ],
  "bytecode": "0x6080604052600060055560006006553480156200001b57600080fd5b50620000273362000060565b6200003233620000b2565b6200003d3362000104565b620000483362000156565b600480546001600160a01b03191633179055620002fe565b6200007b816000620001a860201b62002b241790919060201c565b6040516001600160a01b038216907f2e0ded4123377a3c2bc9a26f1717655a129e2f20752924d42e730ec89c83dbd090600090a250565b620000cd816001620001a860201b62002b241790919060201c565b6040516001600160a01b038216907fddbf200aa634dc3fb81cfd68583dd1040d1c751d335e1d86b631bde3e977fea890600090a250565b6200011f816002620001a860201b62002b241790919060201c565b6040516001600160a01b038216907f71ae26cad02663e3d92efd6ec56031a80d74a20c0ab4183faa8bf262261c9baa90600090a250565b62000171816003620001a860201b62002b241790919060201c565b6040516001600160a01b038216907f28b26e7a3d20aedbc5f8f2ebf7da671c0491723a2b78f47a097b0e46dee0714290600090a250565b6001600160a01b038116620002045760405162461bcd60e51b815260206004820152601560248201527f494e56414c49443a20444541442041646472657373000000000000000000000060448201526064015b60405180910390fd5b62000210828262000284565b156200025f5760405162461bcd60e51b815260206004820152601a60248201527f494e56414c49443a204163636f756e74204861766520526f6c650000000000006044820152606401620001fb565b6001600160a01b0316600090815260209190915260409020805460ff19166001179055565b60006001600160a01b038216620002de5760405162461bcd60e51b815260206004820152601560248201527f494e56414c49443a2044454144204164647265737300000000000000000000006044820152606401620001fb565b506001600160a01b03166000908152602091909152604090205460ff1690565b613cf6806200030e6000396000f3fe6080604052600436106101c25760003560e01c806380c3f96d116100f7578063930aff2f11610095578063d6febde811610064578063d6febde8146104bb578063db0e6a2f146104ce578063df8627f5146104e3578063f3b1cde81461050357600080fd5b8063930aff2f1461045b57806397ebe36514610470578063ac2db09d14610485578063b94290691461049b57600080fd5b80638588d026116100d15780638588d026146103ce5780638da5cb5b146103e35780638ec4f5051461041b5780638f0c86fa1461043b57600080fd5b806380c3f96d1461037957806380fc0ce414610399578063834ff739146103ae57600080fd5b80635da09b8811610164578063721c85601161013e578063721c8560146103025780637250e2241461032457806378db2f7a146103445780637c0b4ab11461035957600080fd5b80635da09b88146102a857806361e6982d146102d8578063644241db146102ed57600080fd5b806341c0e1b5116101a057806341c0e1b51461024957806343baca1e1461025e5780634462f40c146102715780634fde17911461029557600080fd5b806310f54f9c146101c7578063112940f91461020557806315c9ae1014610227575b600080fd5b3480156101d357600080fd5b506101ef6101e2366004613902565b6000526008602052606090565b6040516101fc9190613b25565b60405180910390f35b34801561021157600080fd5b506102256102203660046137ff565b610516565b005b34801561023357600080fd5b5061023c610522565b6040516101fc91906139ac565b34801561025557600080fd5b506102256109b3565b61022561026c36600461391b565b610a18565b34801561027d57600080fd5b5061028760065481565b6040519081526020016101fc565b6102256102a336600461391b565b610c2c565b3480156102b457600080fd5b506102c86102c33660046137ff565b610dcc565b60405190151581526020016101fc565b3480156102e457600080fd5b50610225610ddf565b3480156102f957600080fd5b50610225610e3f565b34801561030e57600080fd5b50610317600081565b6040516101fc9190613bbd565b34801561033057600080fd5b5061022561033f3660046137ff565b610e9d565b34801561035057600080fd5b5061023c610ea6565b34801561036557600080fd5b50610287610374366004613902565b611354565b34801561038557600080fd5b506102256103943660046137ff565b61171f565b3480156103a557600080fd5b50610225611728565b3480156103ba57600080fd5b506102c86103c93660046137ff565b61177e565b3480156103da57600080fd5b5061023c61178b565b3480156103ef57600080fd5b50600454610403906001600160a01b031681565b6040516001600160a01b0390911681526020016101fc565b34801561042757600080fd5b506102256104363660046137ff565b611c39565b34801561044757600080fd5b506102c86104563660046137ff565b611c42565b34801561046757600080fd5b5061023c611c4f565b34801561047c57600080fd5b5061023c6120fd565b34801561049157600080fd5b5061028760055481565b3480156104a757600080fd5b506102c86104b63660046137ff565b6125b0565b6102256104c936600461391b565b6125bc565b3480156104da57600080fd5b50610225612620565b3480156104ef57600080fd5b506102256104fe366004613828565b61267e565b610225610511366004613902565b6129cd565b61051f81612bc6565b50565b6006546060906000808267ffffffffffffffff81111561054457610544613caa565b60405190808252806020026020018201604052801561057d57816020015b61056a613640565b8152602001906001900390816105625790505b50905060005b8381116109ab576000818152600760205260409020600201546001600160a01b03163314156109995760006105b9826001613bfa565b60008181526007602090815260409182902082516101e0810184528154815260018201549281019290925260028101546001600160a01b03908116938301939093526003810154909216606082015260048201805493945091929091839160808401919061062690613c12565b80601f016020809104026020016040519081016040528092919081815260200182805461065290613c12565b801561069f5780601f106106745761010080835404028352916020019161069f565b820191906000526020600020905b81548152906001019060200180831161068257829003601f168201915b505050505081526020016005820180546106b890613c12565b80601f01602080910402602001604051908101604052809291908181526020018280546106e490613c12565b80156107315780601f1061070657610100808354040283529160200191610731565b820191906000526020600020905b81548152906001019060200180831161071457829003601f168201915b5050505050815260200160068201805461074a90613c12565b80601f016020809104026020016040519081016040528092919081815260200182805461077690613c12565b80156107c35780601f10610798576101008083540402835291602001916107c3565b820191906000526020600020905b8154815290600101906020018083116107a657829003601f168201915b505050505081526020016007820180546107dc90613c12565b80601f016020809104026020016040519081016040528092919081815260200182805461080890613c12565b80156108555780601f1061082a57610100808354040283529160200191610855565b820191906000526020600020905b81548152906001019060200180831161083857829003601f168201915b505050505081526020016008820154815260200160098201805461087890613c12565b80601f01602080910402602001604051908101604052809291908181526020018280546108a490613c12565b80156108f15780601f106108c6576101008083540402835291602001916108f1565b820191906000526020600020905b8154815290600101906020018083116108d457829003601f168201915b5050509183525050600a8201546020820152600b82015460409091019060ff16600981111561092257610922613c7e565b600981111561093357610933613c7e565b8152600b8201546001600160a01b0361010090910481166020830152600c83015481166040830152600d90920154909116606090910152845185908790811061097e5761097e613c94565b6020908102919091010152610994600186613bfa565b945050505b806109a381613c4d565b915050610583565b509392505050565b6004546001600160a01b03163314610a0a5760405162461bcd60e51b8152602060048201526015602482015274125395905312510e88155b985d5d1a1bdc9a5e9959605a1b60448201526064015b60405180910390fd5b6004546001600160a01b0316ff5b8160046000828152600760205260409020600b015460ff166009811115610a4157610a41613c7e565b14610a8e5760405162461bcd60e51b815260206004820181905260248201527f494e56414c49443a204e6f7420536f6c6420546f204469737472696275746f726044820152606401610a01565b6000838152600760205260409020600a8101546003909101546001600160a01b0316331415610aff5760405162461bcd60e51b815260206004820152601d60248201527f52657461696c657249442063616e6e6f742062652044697374726f49440000006044820152606401610a01565b803414610b4e5760405162461bcd60e51b815260206004820152601e60248201527f496e73756666696369656e7420416d6f756e74207472616e73666572656400006044820152606401610a01565b6000848152600760208181526040808420600c810180546001600160a01b0319163317905560088352818520434060069091015592909152600b820154600a9092015490516101009092046001600160a01b03169281156108fc029290818181858888f19350505050158015610bc8573d6000803e3d6000fd5b50610bd38484612c08565b610bdc33610dcc565b610be957610be933611c39565b610bf284612c7c565b6040518481527f54dafe9ea34c9448f0b09cec86e7ede9744e44adedf54b15e3ad40a0942f2fb9906020015b60405180910390a150505050565b6000828152600760205260409020600a8101546003909101546001600160a01b031633811415610c9e5760405162461bcd60e51b815260206004820181905260248201527f4469737472696275746f7249442063616e6e6f74206265206661726d657249446044820152606401610a01565b813414610ced5760405162461bcd60e51b815260206004820152601e60248201527f496e73756666696369656e7420416d6f756e74207472616e73666572656400006044820152606401610a01565b6000848152600760209081526040808320600281018054336001600160a01b03199091168117909155600b820180546001600160a81b03191660ff19610100840216176004908117909155600a909201889055600890935292204340920191909155610d5890611c42565b610d6557610d6533610e9d565b6040516001600160a01b0382169083156108fc029084906000818181858888f19350505050158015610d9b573d6000803e3d6000fd5b506040518481527f2900f7f2d701a69acf040421bf8d1b8ac9b76d9c3aa0eb50dd78ec1e8d70e22e90602001610c1e565b6000610dd9600283612d4f565b92915050565b610de83361177e565b610e345760405162461bcd60e51b815260206004820152601760248201527f494e56414c49443a204e6f74206120436f6e73756d65720000000000000000006044820152606401610a01565b610e3d33612d97565b565b610e4833611c42565b610e945760405162461bcd60e51b815260206004820152601a60248201527f494e56414c49443a204e6f742061204469737472696275746f720000000000006044820152606401610a01565b610e3d33612dd9565b61051f81612e1b565b6006546060906000808267ffffffffffffffff811115610ec857610ec8613caa565b604051908082528060200260200182016040528015610f0157816020015b610eee613640565b815260200190600190039081610ee65790505b50905060005b8381116109ab576000818152600760205260409020600201546001600160a01b031633148015610f5057506000818152600760205260409020600301546001600160a01b031633145b15611342576000610f62826001613bfa565b60008181526007602090815260409182902082516101e0810184528154815260018201549281019290925260028101546001600160a01b039081169383019390935260038101549092166060820152600482018054939450919290918391608084019190610fcf90613c12565b80601f0160208091040260200160405190810160405280929190818152602001828054610ffb90613c12565b80156110485780601f1061101d57610100808354040283529160200191611048565b820191906000526020600020905b81548152906001019060200180831161102b57829003601f168201915b5050505050815260200160058201805461106190613c12565b80601f016020809104026020016040519081016040528092919081815260200182805461108d90613c12565b80156110da5780601f106110af576101008083540402835291602001916110da565b820191906000526020600020905b8154815290600101906020018083116110bd57829003601f168201915b505050505081526020016006820180546110f390613c12565b80601f016020809104026020016040519081016040528092919081815260200182805461111f90613c12565b801561116c5780601f106111415761010080835404028352916020019161116c565b820191906000526020600020905b81548152906001019060200180831161114f57829003601f168201915b5050505050815260200160078201805461118590613c12565b80601f01602080910402602001604051908101604052809291908181526020018280546111b190613c12565b80156111fe5780601f106111d3576101008083540402835291602001916111fe565b820191906000526020600020905b8154815290600101906020018083116111e157829003601f168201915b505050505081526020016008820154815260200160098201805461122190613c12565b80601f016020809104026020016040519081016040528092919081815260200182805461124d90613c12565b801561129a5780601f1061126f5761010080835404028352916020019161129a565b820191906000526020600020905b81548152906001019060200180831161127d57829003601f168201915b5050509183525050600a8201546020820152600b82015460409091019060ff1660098111156112cb576112cb613c7e565b60098111156112dc576112dc613c7e565b8152600b8201546001600160a01b0361010090910481166020830152600c83015481166040830152600d90920154909116606090910152845185908790811061132757611327613c94565b602090810291909101015261133d600186613bfa565b945050505b8061134c81613c4d565b915050610f07565b600081815260076020908152604080832081516101e0810183528154815260018201549381019390935260028101546001600160a01b0390811692840192909252600381015490911660608301526004810180548493929160808401916113ba90613c12565b80601f01602080910402602001604051908101604052809291908181526020018280546113e690613c12565b80156114335780601f1061140857610100808354040283529160200191611433565b820191906000526020600020905b81548152906001019060200180831161141657829003601f168201915b5050505050815260200160058201805461144c90613c12565b80601f016020809104026020016040519081016040528092919081815260200182805461147890613c12565b80156114c55780601f1061149a576101008083540402835291602001916114c5565b820191906000526020600020905b8154815290600101906020018083116114a857829003601f168201915b505050505081526020016006820180546114de90613c12565b80601f016020809104026020016040519081016040528092919081815260200182805461150a90613c12565b80156115575780601f1061152c57610100808354040283529160200191611557565b820191906000526020600020905b81548152906001019060200180831161153a57829003601f168201915b5050505050815260200160078201805461157090613c12565b80601f016020809104026020016040519081016040528092919081815260200182805461159c90613c12565b80156115e95780601f106115be576101008083540402835291602001916115e9565b820191906000526020600020905b8154815290600101906020018083116115cc57829003601f168201915b505050505081526020016008820154815260200160098201805461160c90613c12565b80601f016020809104026020016040519081016040528092919081815260200182805461163890613c12565b80156116855780601f1061165a57610100808354040283529160200191611685565b820191906000526020600020905b81548152906001019060200180831161166857829003601f168201915b5050509183525050600a8201546020820152600b82015460409091019060ff1660098111156116b6576116b6613c7e565b60098111156116c7576116c7613c7e565b8152600b8201546001600160a01b0361010090910481166020830152600c83015481166040830152600d90920154909116606090910152610160810151909150600981111561171857611718613c7e565b9392505050565b61051f81612e5d565b611731336125b0565b6117755760405162461bcd60e51b815260206004820152601560248201527424a72b20a624a21d102737ba1030902330b936b2b960591b6044820152606401610a01565b610e3d33612e9f565b6000610dd9600383612d4f565b6006546060906000808267ffffffffffffffff8111156117ad576117ad613caa565b6040519080825280602002602001820160405280156117e657816020015b6117d3613640565b8152602001906001900390816117cb5790505b50905060005b8381116109ab576000818152600760205260409020600201546001600160a01b03163314801561183557506000818152600760205260409020600c01546001600160a01b031633145b15611c27576000611847826001613bfa565b60008181526007602090815260409182902082516101e0810184528154815260018201549281019290925260028101546001600160a01b0390811693830193909352600381015490921660608201526004820180549394509192909183916080840191906118b490613c12565b80601f01602080910402602001604051908101604052809291908181526020018280546118e090613c12565b801561192d5780601f106119025761010080835404028352916020019161192d565b820191906000526020600020905b81548152906001019060200180831161191057829003601f168201915b5050505050815260200160058201805461194690613c12565b80601f016020809104026020016040519081016040528092919081815260200182805461197290613c12565b80156119bf5780601f10611994576101008083540402835291602001916119bf565b820191906000526020600020905b8154815290600101906020018083116119a257829003601f168201915b505050505081526020016006820180546119d890613c12565b80601f0160208091040260200160405190810160405280929190818152602001828054611a0490613c12565b8015611a515780601f10611a2657610100808354040283529160200191611a51565b820191906000526020600020905b815481529060010190602001808311611a3457829003601f168201915b50505050508152602001600782018054611a6a90613c12565b80601f0160208091040260200160405190810160405280929190818152602001828054611a9690613c12565b8015611ae35780601f10611ab857610100808354040283529160200191611ae3565b820191906000526020600020905b815481529060010190602001808311611ac657829003601f168201915b5050505050815260200160088201548152602001600982018054611b0690613c12565b80601f0160208091040260200160405190810160405280929190818152602001828054611b3290613c12565b8015611b7f5780601f10611b5457610100808354040283529160200191611b7f565b820191906000526020600020905b815481529060010190602001808311611b6257829003601f168201915b5050509183525050600a8201546020820152600b82015460409091019060ff166009811115611bb057611bb0613c7e565b6009811115611bc157611bc1613c7e565b8152600b8201546001600160a01b0361010090910481166020830152600c83015481166040830152600d909201549091166060909101528451859087908110611c0c57611c0c613c94565b6020908102919091010152611c22600186613bfa565b945050505b80611c3181613c4d565b9150506117ec565b61051f81612ee1565b6000610dd9600183612d4f565b6006546060906000808267ffffffffffffffff811115611c7157611c71613caa565b604051908082528060200260200182016040528015611caa57816020015b611c97613640565b815260200190600190039081611c8f5790505b50905060005b8381116109ab576000818152600760205260409020600201546001600160a01b031633148015611cf957506000818152600760205260409020600d01546001600160a01b031633145b156120eb576000611d0b826001613bfa565b60008181526007602090815260409182902082516101e0810184528154815260018201549281019290925260028101546001600160a01b039081169383019390935260038101549092166060820152600482018054939450919290918391608084019190611d7890613c12565b80601f0160208091040260200160405190810160405280929190818152602001828054611da490613c12565b8015611df15780601f10611dc657610100808354040283529160200191611df1565b820191906000526020600020905b815481529060010190602001808311611dd457829003601f168201915b50505050508152602001600582018054611e0a90613c12565b80601f0160208091040260200160405190810160405280929190818152602001828054611e3690613c12565b8015611e835780601f10611e5857610100808354040283529160200191611e83565b820191906000526020600020905b815481529060010190602001808311611e6657829003601f168201915b50505050508152602001600682018054611e9c90613c12565b80601f0160208091040260200160405190810160405280929190818152602001828054611ec890613c12565b8015611f155780601f10611eea57610100808354040283529160200191611f15565b820191906000526020600020905b815481529060010190602001808311611ef857829003601f168201915b50505050508152602001600782018054611f2e90613c12565b80601f0160208091040260200160405190810160405280929190818152602001828054611f5a90613c12565b8015611fa75780601f10611f7c57610100808354040283529160200191611fa7565b820191906000526020600020905b815481529060010190602001808311611f8a57829003601f168201915b5050505050815260200160088201548152602001600982018054611fca90613c12565b80601f0160208091040260200160405190810160405280929190818152602001828054611ff690613c12565b80156120435780601f1061201857610100808354040283529160200191612043565b820191906000526020600020905b81548152906001019060200180831161202657829003601f168201915b5050509183525050600a8201546020820152600b82015460409091019060ff16600981111561207457612074613c7e565b600981111561208557612085613c7e565b8152600b8201546001600160a01b0361010090910481166020830152600c83015481166040830152600d9092015490911660609091015284518590879081106120d0576120d0613c94565b60209081029190910101526120e6600186613bfa565b945050505b806120f581613c4d565b915050611cb0565b6006546060906000808267ffffffffffffffff81111561211f5761211f613caa565b60405190808252806020026020018201604052801561215857816020015b612145613640565b81526020019060019003908161213d5790505b50905060005b8381116109ab576000818152600760205260409020600201546001600160a01b0316331480156121ac57506000818152600760205260409020600b015461010090046001600160a01b031633145b1561259e5760006121be826001613bfa565b60008181526007602090815260409182902082516101e0810184528154815260018201549281019290925260028101546001600160a01b03908116938301939093526003810154909216606082015260048201805493945091929091839160808401919061222b90613c12565b80601f016020809104026020016040519081016040528092919081815260200182805461225790613c12565b80156122a45780601f10612279576101008083540402835291602001916122a4565b820191906000526020600020905b81548152906001019060200180831161228757829003601f168201915b505050505081526020016005820180546122bd90613c12565b80601f01602080910402602001604051908101604052809291908181526020018280546122e990613c12565b80156123365780601f1061230b57610100808354040283529160200191612336565b820191906000526020600020905b81548152906001019060200180831161231957829003601f168201915b5050505050815260200160068201805461234f90613c12565b80601f016020809104026020016040519081016040528092919081815260200182805461237b90613c12565b80156123c85780601f1061239d576101008083540402835291602001916123c8565b820191906000526020600020905b8154815290600101906020018083116123ab57829003601f168201915b505050505081526020016007820180546123e190613c12565b80601f016020809104026020016040519081016040528092919081815260200182805461240d90613c12565b801561245a5780601f1061242f5761010080835404028352916020019161245a565b820191906000526020600020905b81548152906001019060200180831161243d57829003601f168201915b505050505081526020016008820154815260200160098201805461247d90613c12565b80601f01602080910402602001604051908101604052809291908181526020018280546124a990613c12565b80156124f65780601f106124cb576101008083540402835291602001916124f6565b820191906000526020600020905b8154815290600101906020018083116124d957829003601f168201915b5050509183525050600a8201546020820152600b82015460409091019060ff16600981111561252757612527613c7e565b600981111561253857612538613c7e565b8152600b8201546001600160a01b0361010090910481166020830152600c83015481166040830152600d90920154909116606090910152845185908790811061258357612583613c94565b6020908102919091010152612599600186613bfa565b945050505b806125a881613c4d565b91505061215e565b6000610dd98183612d4f565b6000828152600760205260409020600b015461010090046001600160a01b03166125ea576125ea8282610c2c565b6000828152600760205260409020600c01546001600160a01b0316612617576126138282610a18565b5050565b612613826129cd565b61262933610dcc565b6126755760405162461bcd60e51b815260206004820152601760248201527f494e56414c49443a204e6f7420612052657461696c65720000000000000000006044820152606401610a01565b610e3d33612f23565b60006006546005546126909190613bfa565b6040516020016126a291815260200190565b6040516020818303038152906040528051906020012060001c9050604051806101e0016040528060065481526020016005548152602001336001600160a01b03168152602001336001600160a01b031681526020018881526020018781526020018681526020018581526020018281526020018481526020018381526020016000600981111561273457612734613c7e565b815260006020808301829052604080840183905260609384018390526005548352600782529182902084518155848201516001820155918401516002830180546001600160a01b03199081166001600160a01b0393841617909155938501516003840180549095169116179092556080830151805191926127bd926004850192909101906136d9565b5060a082015180516127d99160058401916020909101906136d9565b5060c082015180516127f59160068401916020909101906136d9565b5060e082015180516128119160078401916020909101906136d9565b50610100820151600882015561012082015180516128399160098401916020909101906136d9565b50610140820151600a820155610160820151600b8201805460ff1916600183600981111561286957612869613c7e565b0217905550610180820151600b820180546001600160a01b03928316610100908102610100600160a81b0319909216919091179091556101a0840151600c840180549184166001600160a01b03199283161790556101c090940151600d9093018054939092169290931691909117905560408051610120810182524340815260006020808301828152838501838152606085018481526080860185815260a0870186815260c0880187815260e089018881529a8901888152600580548a526008988990529a90982098518955945160018901559251600288015590516003870155516004860155518486015551600684015593516007830155519201919091555461297390612f65565b61297c336125b0565b612989576129893361171f565b7f8e55ccfc9778ff8eba1646d765cf1982537ce0f9257054a17b48aad7452501836005546040516129bc91815260200190565b60405180910390a150505050505050565b8060086000828152600760205260409020600b015460ff1660098111156129f6576129f6613c7e565b14612a435760405162461bcd60e51b815260206004820152601a60248201527f494e56414c49443a204974656d204e6f742052656365697665640000000000006044820152606401610a01565b60008281526008602081815260408084204340930192909255600790529020600d0180546001600160a01b03191633179055612a7e82613041565b612a873361177e565b612a9457612a9433610516565b612a9d826131a7565b600082815260076020526040808220600c810154600a9091015491516001600160a01b039091169282156108fc02929190818181858888f19350505050158015612aeb573d6000803e3d6000fd5b506040518281527ff8d4d18c02478c21f38cf4aa60c47b8baf0215ad5d0b0ad565ef8580e03c7ef1906020015b60405180910390a15050565b6001600160a01b038116612b4a5760405162461bcd60e51b8152600401610a0190613bcb565b612b548282612d4f565b15612ba15760405162461bcd60e51b815260206004820152601a60248201527f494e56414c49443a204163636f756e74204861766520526f6c650000000000006044820152606401610a01565b6001600160a01b0316600090815260209190915260409020805460ff19166001179055565b612bd1600382612b24565b6040516001600160a01b038216907f28b26e7a3d20aedbc5f8f2ebf7da671c0491723a2b78f47a097b0e46dee0714290600090a250565b6000828152600760209081526040808320600b8101805460ff19166005908117909155600a9091018590556008835292819020434093019290925590518381527f54dafe9ea34c9448f0b09cec86e7ede9744e44adedf54b15e3ad40a0942f2fb9910160405180910390a16126138261326f565b8060036000828152600760205260409020600b015460ff166009811115612ca557612ca5613c7e565b14612cf25760405162461bcd60e51b815260206004820152601a60248201527f494e56414c49443a204974656d204e6f7420466f722053616c650000000000006044820152606401610a01565b612cfb33611c39565b6000828152600760205260409020600b0180546008919060ff19166001835b02179055506040518281527fa8142743f8f70a4c26f3691cf4ed59718381fb2f18070ec52be1f1022d85555790602001612b18565b60006001600160a01b038216612d775760405162461bcd60e51b8152600401610a0190613bcb565b506001600160a01b03166000908152602091909152604090205460ff1690565b612da26003826133be565b6040516001600160a01b038216907fe3f5ed5f263f1f01764a96edfc7d025f511ec5f7d180e8816908b78bcf74f09890600090a250565b612de46001826133be565b6040516001600160a01b038216907f126174f6cf49c81cdb4a9214c6b8f037bef55b4ec31e4fc776cea2a1c8a88d5990600090a250565b612e26600182612b24565b6040516001600160a01b038216907fddbf200aa634dc3fb81cfd68583dd1040d1c751d335e1d86b631bde3e977fea890600090a250565b612e68600082612b24565b6040516001600160a01b038216907f2e0ded4123377a3c2bc9a26f1717655a129e2f20752924d42e730ec89c83dbd090600090a250565b612eaa6000826133be565b6040516001600160a01b038216907fa5e0f060af304ab17dd418c7927e3da3ae7868189bf387aee09ab179ccc572f290600090a250565b612eec600282612b24565b6040516001600160a01b038216907f71ae26cad02663e3d92efd6ec56031a80d74a20c0ab4183faa8bf262261c9baa90600090a250565b612f2e6002826133be565b6040516001600160a01b038216907fdb7176e79cffef81cb01767dd0447a0b24bb72ca9778d4b245581086b2a7e6db90600090a250565b80600080828152600760205260409020600b015460ff166009811115612f8d57612f8d613c7e565b14612fda5760405162461bcd60e51b815260206004820152601b60248201527f494e56414c49443a204974656d204e6f742048617276657374656400000000006044820152606401610a01565b6000828152600760209081526040808320600b01805460ff191660011790556008909152902043406002909101556130118261345c565b6040518281527f5afe3b1bf87069693c075da5c22a98d63d1aef98a30dbbe538d0781a98b77ee590602001612b18565b8060086000828152600760205260409020600b015460ff16600981111561306a5761306a613c7e565b146130b75760405162461bcd60e51b815260206004820152601a60248201527f494e56414c49443a204974656d204e6f742052656365697665640000000000006044820152606401610a01565b6000828152600760205260409020600301546001600160a01b03163381146131195760405162461bcd60e51b8152602060048201526015602482015274125395905312510e88139bdd0815995c9a599a5959605a1b6044820152606401610a01565b6000838152600760208181526040808420600b8101805460ff191660061790556008835293819020434090840155918152600d830154600290930180546001600160a01b0319166001600160a01b0390941693909317909255518481527fa96ae0fc3224ebd79eebfe54bd130cc9cb94416cddd1f2386115e00b7253246891015b60405180910390a1505050565b8060036000828152600760205260409020600b015460ff1660098111156131d0576131d0613c7e565b1461321d5760405162461bcd60e51b815260206004820152601a60248201527f494e56414c49443a204974656d204e6f7420466f722053616c650000000000006044820152606401610a01565b61322633610516565b6000828152600760205260409020600281018054336001600160a01b03199182168117909255600d830180549091169091179055600b0180546008919060ff1916600183612d1a565b8060056000828152600760205260409020600b015460ff16600981111561329857613298613c7e565b146132e55760405162461bcd60e51b815260206004820181905260248201527f494e56414c49443a204e6f7420536f6c6420546f204469737472696275746f726044820152606401610a01565b6000828152600760205260409020600301546001600160a01b03163381146133475760405162461bcd60e51b8152602060048201526015602482015274125395905312510e88139bdd0815995c9a599a5959605a1b6044820152606401610a01565b600083815260076020908152604091829020600b8101805460ff19166003179055600c810154600290910180546001600160a01b039092166001600160a01b031990921691909117905590518481527ff00b9a5725b80c54016f42114f6ed7792d22eecb116011c4afac29c57bef6c95910161319a565b6001600160a01b0381166133e45760405162461bcd60e51b8152600401610a0190613bcb565b6133ee8282612d4f565b61343a5760405162461bcd60e51b815260206004820152601d60248201527f494e56414c49443a204163636f756e742048617665204e6f20526f6c650000006044820152606401610a01565b6001600160a01b0316600090815260209190915260409020805460ff19169055565b8060016000828152600760205260409020600b015460ff16600981111561348557613485613c7e565b146134d25760405162461bcd60e51b815260206004820152601b60248201527f494e56414c49443a204974656d204e6f742050726f63657373656400000000006044820152606401610a01565b6000828152600760209081526040808320600b01805460ff191660029081179091556008909252909120434091015561350a8261353a565b6040518281527f0c70d89b176b3792b9ff1a750105ae23454802a52d42ea9c264300e29fd8a3e190602001612b18565b8060026000828152600760205260409020600b015460ff16600981111561356357613563613c7e565b146135b05760405162461bcd60e51b815260206004820152601a60248201527f494e56414c49443a204974656d204e6f74205061636b616765640000000000006044820152606401610a01565b6000828152600760209081526040808320600b01805460ff1916600390811790915560089092528220434091015560068054600192906135f1908490613bfa565b9250508190555060016005600082825461360b9190613bfa565b90915550506040518281527fa96ae0fc3224ebd79eebfe54bd130cc9cb94416cddd1f2386115e00b7253246890602001612b18565b604051806101e00160405280600081526020016000815260200160006001600160a01b0316815260200160006001600160a01b0316815260200160608152602001606081526020016060815260200160608152602001600081526020016060815260200160008152602001600060098111156136be576136be613c7e565b81526000602082018190526040820181905260609091015290565b8280546136e590613c12565b90600052602060002090601f016020900481019282613707576000855561374d565b82601f1061372057805160ff191683800117855561374d565b8280016001018555821561374d579182015b8281111561374d578251825591602001919060010190613732565b5061375992915061375d565b5090565b5b80821115613759576000815560010161375e565b600082601f83011261378357600080fd5b813567ffffffffffffffff8082111561379e5761379e613caa565b604051601f8301601f19908116603f011681019082821181831017156137c6576137c6613caa565b816040528381528660208588010111156137df57600080fd5b836020870160208301376000602085830101528094505050505092915050565b60006020828403121561381157600080fd5b81356001600160a01b038116811461171857600080fd5b60008060008060008060c0878903121561384157600080fd5b863567ffffffffffffffff8082111561385957600080fd5b6138658a838b01613772565b9750602089013591508082111561387b57600080fd5b6138878a838b01613772565b9650604089013591508082111561389d57600080fd5b6138a98a838b01613772565b955060608901359150808211156138bf57600080fd5b6138cb8a838b01613772565b945060808901359150808211156138e157600080fd5b506138ee89828a01613772565b92505060a087013590509295509295509295565b60006020828403121561391457600080fd5b5035919050565b6000806040838503121561392e57600080fd5b50508035926020909101359150565b600a811061395b57634e487b7160e01b600052602160045260246000fd5b9052565b6000815180845260005b8181101561398557602081850181015186830182015201613969565b81811115613997576000602083870101525b50601f01601f19169290920160200192915050565b60006020808301818452808551808352604092508286019150828160051b87010184880160005b83811015613b1757888303603f190185528151805184528781015188850152868101516001600160a01b038116888601526101e090506060828101516001600160a01b0381168783015250506080808301518282880152613a368388018261395f565b9250505060a08083015186830382880152613a51838261395f565b9250505060c08083015186830382880152613a6c838261395f565b9250505060e08083015186830382880152613a87838261395f565b925050506101008083015181870152506101208083015186830382880152613aaf838261395f565b9250505061014080830151818701525061016080830151613ad28288018261393d565b5050610180828101516001600160a01b03908116918701919091526101a0808401518216908701526101c09283015116919094015293860193908601906001016139d3565b509098975050505050505050565b602080825282518282018190526000919060409081850190868401855b82811015613bb05781518051855286810151878601528581015186860152606080820151908601526080808201519086015260a0808201519086015260c0808201519086015260e0808201519086015261010090810151908501526101209093019290850190600101613b42565b5091979650505050505050565b60208101610dd9828461393d565b602080825260159082015274494e56414c49443a2044454144204164647265737360581b604082015260600190565b60008219821115613c0d57613c0d613c68565b500190565b600181811c90821680613c2657607f821691505b60208210811415613c4757634e487b7160e01b600052602260045260246000fd5b50919050565b6000600019821415613c6157613c61613c68565b5060010190565b634e487b7160e01b600052601160045260246000fd5b634e487b7160e01b600052602160045260246000fd5b634e487b7160e01b600052603260045260246000fd5b634e487b7160e01b600052604160045260246000fdfea264697066735822122028d5c03ebae2968362a3cacbcf79374cd5bc556b995cca48b9b1d97ef343557564736f6c63430008060033",
  "linkReferences": {},
  "deployedLinkReferences": {}
}