{
  "_format": "hh-sol-artifact-1",
  "contractName": "SupplyChain",
  "sourceName": "contracts/base/SupplyChain.sol",
  "abi": [
    {
      "inputs": [],
      "stateMutability": "nonpayable",
      "type": "constructor"
    },
    {
      "anonymous": false,
      "inputs": [
        {
          "indexed": true,
          "internalType": "address",
          "name": "account",
          "type": "address"
        }
      ],
      "name": "ConsumerAdded",
      "type": "event"
    },
    {
      "anonymous": false,
      "inputs": [
        {
          "indexed": true,
          "internalType": "address",
          "name": "account",
          "type": "address"
        }
      ],
      "name": "ConsumerRemoved",
      "type": "event"
    },
    {
      "anonymous": false,
      "inputs": [
        {
          "indexed": true,
          "internalType": "address",
          "name": "account",
          "type": "address"
        }
      ],
      "name": "DistributorAdded",
      "type": "event"
    },
    {
      "anonymous": false,
      "inputs": [
        {
          "indexed": true,
          "internalType": "address",
          "name": "account",
          "type": "address"
        }
      ],
      "name": "DistributorRemoved",
      "type": "event"
    },
    {
      "anonymous": false,
      "inputs": [
        {
          "indexed": true,
          "internalType": "address",
          "name": "account",
          "type": "address"
        }
      ],
      "name": "FarmerAdded",
      "type": "event"
    },
    {
      "anonymous": false,
      "inputs": [
        {
          "indexed": true,
          "internalType": "address",
          "name": "account",
          "type": "address"
        }
      ],
      "name": "FarmerRemoved",
      "type": "event"
    },
    {
      "anonymous": false,
      "inputs": [
        {
          "indexed": false,
          "internalType": "uint256",
          "name": "upc",
          "type": "uint256"
        }
      ],
      "name": "ForSale",
      "type": "event"
    },
    {
      "anonymous": false,
      "inputs": [
        {
          "indexed": false,
          "internalType": "uint256",
          "name": "upc",
          "type": "uint256"
        }
      ],
      "name": "Harvested",
      "type": "event"
    },
    {
      "anonymous": false,
      "inputs": [
        {
          "indexed": false,
          "internalType": "uint256",
          "name": "upc",
          "type": "uint256"
        }
      ],
      "name": "Packaged",
      "type": "event"
    },
    {
      "anonymous": false,
      "inputs": [
        {
          "indexed": false,
          "internalType": "uint256",
          "name": "upc",
          "type": "uint256"
        }
      ],
      "name": "Processed",
      "type": "event"
    },
    {
      "anonymous": false,
      "inputs": [
        {
          "indexed": false,
          "internalType": "uint256",
          "name": "upc",
          "type": "uint256"
        }
      ],
      "name": "Purchased",
      "type": "event"
    },
    {
      "anonymous": false,
      "inputs": [
        {
          "indexed": false,
          "internalType": "uint256",
          "name": "upc",
          "type": "uint256"
        }
      ],
      "name": "Received",
      "type": "event"
    },
    {
      "anonymous": false,
      "inputs": [
        {
          "indexed": false,
          "internalType": "uint256",
          "name": "upc",
          "type": "uint256"
        }
      ],
      "name": "ReceivedByCustomer",
      "type": "event"
    },
    {
      "anonymous": false,
      "inputs": [
        {
          "indexed": false,
          "internalType": "uint256",
          "name": "upc",
          "type": "uint256"
        }
      ],
      "name": "ReceivedByDist",
      "type": "event"
    },
    {
      "anonymous": false,
      "inputs": [
        {
          "indexed": false,
          "internalType": "uint256",
          "name": "upc",
          "type": "uint256"
        }
      ],
      "name": "ReceivedByRetail",
      "type": "event"
    },
    {
      "anonymous": false,
      "inputs": [
        {
          "indexed": true,
          "internalType": "address",
          "name": "account",
          "type": "address"
        }
      ],
      "name": "RetailerAdded",
      "type": "event"
    },
    {
      "anonymous": false,
      "inputs": [
        {
          "indexed": true,
          "internalType": "address",
          "name": "account",
          "type": "address"
        }
      ],
      "name": "RetailerRemoved",
      "type": "event"
    },
    {
      "anonymous": false,
      "inputs": [
        {
          "indexed": false,
          "internalType": "uint256",
          "name": "upc",
          "type": "uint256"
        }
      ],
      "name": "Shipped",
      "type": "event"
    },
    {
      "anonymous": false,
      "inputs": [
        {
          "indexed": false,
          "internalType": "uint256",
          "name": "upc",
          "type": "uint256"
        }
      ],
      "name": "ShippedToCustomer",
      "type": "event"
    },
    {
      "anonymous": false,
      "inputs": [
        {
          "indexed": false,
          "internalType": "uint256",
          "name": "upc",
          "type": "uint256"
        }
      ],
      "name": "ShippedToDist",
      "type": "event"
    },
    {
      "anonymous": false,
      "inputs": [
        {
          "indexed": false,
          "internalType": "uint256",
          "name": "upc",
          "type": "uint256"
        }
      ],
      "name": "ShippedToRetail",
      "type": "event"
    },
    {
      "anonymous": false,
      "inputs": [
        {
          "indexed": false,
          "internalType": "uint256",
          "name": "upc",
          "type": "uint256"
        }
      ],
      "name": "SoldToConsumer",
      "type": "event"
    },
    {
      "anonymous": false,
      "inputs": [
        {
          "indexed": false,
          "internalType": "uint256",
          "name": "upc",
          "type": "uint256"
        }
      ],
      "name": "SoldToDist",
      "type": "event"
    },
    {
      "anonymous": false,
      "inputs": [
        {
          "indexed": false,
          "internalType": "uint256",
          "name": "upc",
          "type": "uint256"
        }
      ],
      "name": "SoldToRetail",
      "type": "event"
    },
    {
      "inputs": [],
      "name": "DEFAULT_STATE",
      "outputs": [
        {
          "internalType": "enum SupplyChain.State",
          "name": "",
          "type": "uint8"
        }
      ],
      "stateMutability": "view",
      "type": "function"
    },
    {
      "inputs": [
        {
          "internalType": "address",
          "name": "account",
          "type": "address"
        }
      ],
      "name": "addConsumer",
      "outputs": [],
      "stateMutability": "nonpayable",
      "type": "function"
    },
    {
      "inputs": [
        {
          "internalType": "address",
          "name": "account",
          "type": "address"
        }
      ],
      "name": "addDistributor",
      "outputs": [],
      "stateMutability": "nonpayable",
      "type": "function"
    },
    {
      "inputs": [
        {
          "internalType": "address",
          "name": "account",
          "type": "address"
        }
      ],
      "name": "addFarmer",
      "outputs": [],
      "stateMutability": "nonpayable",
      "type": "function"
    },
    {
      "inputs": [
        {
          "internalType": "address",
          "name": "account",
          "type": "address"
        }
      ],
      "name": "addRetailer",
      "outputs": [],
      "stateMutability": "nonpayable",
      "type": "function"
    },
    {
      "inputs": [
        {
          "internalType": "uint256",
          "name": "_upc",
          "type": "uint256"
        },
        {
          "internalType": "uint256",
          "name": "_newPrice",
          "type": "uint256"
        }
      ],
      "name": "buy",
      "outputs": [],
      "stateMutability": "payable",
      "type": "function"
    },
    {
      "inputs": [
        {
          "internalType": "uint256",
          "name": "_upc",
          "type": "uint256"
        }
      ],
      "name": "buyAsConsumer",
      "outputs": [],
      "stateMutability": "payable",
      "type": "function"
    },
    {
      "inputs": [
        {
          "internalType": "uint256",
          "name": "_upc",
          "type": "uint256"
        },
        {
          "internalType": "uint256",
          "name": "_newPrice",
          "type": "uint256"
        }
      ],
      "name": "buyAsDist",
      "outputs": [],
      "stateMutability": "payable",
      "type": "function"
    },
    {
      "inputs": [
        {
          "internalType": "uint256",
          "name": "_upc",
          "type": "uint256"
        },
        {
          "internalType": "uint256",
          "name": "_newPrice",
          "type": "uint256"
        }
      ],
      "name": "buyAsRetail",
      "outputs": [],
      "stateMutability": "payable",
      "type": "function"
    },
    {
      "inputs": [],
      "name": "fetchConsumerItems",
      "outputs": [
        {
          "components": [
            {
              "internalType": "uint256",
              "name": "sku",
              "type": "uint256"
            },
            {
              "internalType": "uint256",
              "name": "upc",
              "type": "uint256"
            },
            {
              "internalType": "uint256",
              "name": "productID",
              "type": "uint256"
            },
            {
              "internalType": "uint256",
              "name": "productPrice",
              "type": "uint256"
            },
            {
              "internalType": "string",
              "name": "productMetadata",
              "type": "string"
            },
            {
              "internalType": "address",
              "name": "ownerID",
              "type": "address"
            },
            {
              "internalType": "address",
              "name": "originFarmerID",
              "type": "address"
            },
            {
              "internalType": "address",
              "name": "distributorID",
              "type": "address"
            },
            {
              "internalType": "address",
              "name": "retailerID",
              "type": "address"
            },
            {
              "internalType": "address",
              "name": "consumerID",
              "type": "address"
            },
            {
              "internalType": "string",
              "name": "originFarmName",
              "type": "string"
            },
            {
              "internalType": "string",
              "name": "originFarmMetadata",
              "type": "string"
            },
            {
              "internalType": "string",
              "name": "originFarmLatitude",
              "type": "string"
            },
            {
              "internalType": "string",
              "name": "originFarmLongitude",
              "type": "string"
            },
            {
              "internalType": "enum SupplyChain.State",
              "name": "itemState",
              "type": "uint8"
            }
          ],
          "internalType": "struct SupplyChain.Item[]",
          "name": "",
          "type": "tuple[]"
        }
      ],
      "stateMutability": "view",
      "type": "function"
    },
    {
      "inputs": [
        {
          "internalType": "uint256",
          "name": "_upc",
          "type": "uint256"
        }
      ],
      "name": "fetchCurrentState",
      "outputs": [
        {
          "internalType": "uint256",
          "name": "itemState",
          "type": "uint256"
        }
      ],
      "stateMutability": "view",
      "type": "function"
    },
    {
      "inputs": [],
      "name": "fetchDistributorItems",
      "outputs": [
        {
          "components": [
            {
              "internalType": "uint256",
              "name": "sku",
              "type": "uint256"
            },
            {
              "internalType": "uint256",
              "name": "upc",
              "type": "uint256"
            },
            {
              "internalType": "uint256",
              "name": "productID",
              "type": "uint256"
            },
            {
              "internalType": "uint256",
              "name": "productPrice",
              "type": "uint256"
            },
            {
              "internalType": "string",
              "name": "productMetadata",
              "type": "string"
            },
            {
              "internalType": "address",
              "name": "ownerID",
              "type": "address"
            },
            {
              "internalType": "address",
              "name": "originFarmerID",
              "type": "address"
            },
            {
              "internalType": "address",
              "name": "distributorID",
              "type": "address"
            },
            {
              "internalType": "address",
              "name": "retailerID",
              "type": "address"
            },
            {
              "internalType": "address",
              "name": "consumerID",
              "type": "address"
            },
            {
              "internalType": "string",
              "name": "originFarmName",
              "type": "string"
            },
            {
              "internalType": "string",
              "name": "originFarmMetadata",
              "type": "string"
            },
            {
              "internalType": "string",
              "name": "originFarmLatitude",
              "type": "string"
            },
            {
              "internalType": "string",
              "name": "originFarmLongitude",
              "type": "string"
            },
            {
              "internalType": "enum SupplyChain.State",
              "name": "itemState",
              "type": "uint8"
            }
          ],
          "internalType": "struct SupplyChain.Item[]",
          "name": "",
          "type": "tuple[]"
        }
      ],
      "stateMutability": "view",
      "type": "function"
    },
    {
      "inputs": [],
      "name": "fetchFarmerItems",
      "outputs": [
        {
          "components": [
            {
              "internalType": "uint256",
              "name": "sku",
              "type": "uint256"
            },
            {
              "internalType": "uint256",
              "name": "upc",
              "type": "uint256"
            },
            {
              "internalType": "uint256",
              "name": "productID",
              "type": "uint256"
            },
            {
              "internalType": "uint256",
              "name": "productPrice",
              "type": "uint256"
            },
            {
              "internalType": "string",
              "name": "productMetadata",
              "type": "string"
            },
            {
              "internalType": "address",
              "name": "ownerID",
              "type": "address"
            },
            {
              "internalType": "address",
              "name": "originFarmerID",
              "type": "address"
            },
            {
              "internalType": "address",
              "name": "distributorID",
              "type": "address"
            },
            {
              "internalType": "address",
              "name": "retailerID",
              "type": "address"
            },
            {
              "internalType": "address",
              "name": "consumerID",
              "type": "address"
            },
            {
              "internalType": "string",
              "name": "originFarmName",
              "type": "string"
            },
            {
              "internalType": "string",
              "name": "originFarmMetadata",
              "type": "string"
            },
            {
              "internalType": "string",
              "name": "originFarmLatitude",
              "type": "string"
            },
            {
              "internalType": "string",
              "name": "originFarmLongitude",
              "type": "string"
            },
            {
              "internalType": "enum SupplyChain.State",
              "name": "itemState",
              "type": "uint8"
            }
          ],
          "internalType": "struct SupplyChain.Item[]",
          "name": "",
          "type": "tuple[]"
        }
      ],
      "stateMutability": "view",
      "type": "function"
    },
    {
      "inputs": [
        {
          "internalType": "uint256",
          "name": "_upc",
          "type": "uint256"
        }
      ],
      "name": "fetchItemTraceHashes",
      "outputs": [
        {
          "components": [
            {
              "internalType": "bytes32",
              "name": "harvestedHash",
              "type": "bytes32"
            },
            {
              "internalType": "bytes32",
              "name": "packagedHash",
              "type": "bytes32"
            },
            {
              "internalType": "bytes32",
              "name": "sellToDistHash",
              "type": "bytes32"
            },
            {
              "internalType": "bytes32",
              "name": "buyAsDistHash",
              "type": "bytes32"
            },
            {
              "internalType": "bytes32",
              "name": "sellToRetailHash",
              "type": "bytes32"
            },
            {
              "internalType": "bytes32",
              "name": "buyAsRetailHash",
              "type": "bytes32"
            },
            {
              "internalType": "bytes32",
              "name": "sellToConsumerHash",
              "type": "bytes32"
            },
            {
              "internalType": "bytes32",
              "name": "buyAsConsumerHash",
              "type": "bytes32"
            }
          ],
          "internalType": "struct SupplyChain.TraceHash[]",
          "name": "",
          "type": "tuple[]"
        }
      ],
      "stateMutability": "view",
      "type": "function"
    },
    {
      "inputs": [],
      "name": "fetchMyItems",
      "outputs": [
        {
          "components": [
            {
              "internalType": "uint256",
              "name": "sku",
              "type": "uint256"
            },
            {
              "internalType": "uint256",
              "name": "upc",
              "type": "uint256"
            },
            {
              "internalType": "uint256",
              "name": "productID",
              "type": "uint256"
            },
            {
              "internalType": "uint256",
              "name": "productPrice",
              "type": "uint256"
            },
            {
              "internalType": "string",
              "name": "productMetadata",
              "type": "string"
            },
            {
              "internalType": "address",
              "name": "ownerID",
              "type": "address"
            },
            {
              "internalType": "address",
              "name": "originFarmerID",
              "type": "address"
            },
            {
              "internalType": "address",
              "name": "distributorID",
              "type": "address"
            },
            {
              "internalType": "address",
              "name": "retailerID",
              "type": "address"
            },
            {
              "internalType": "address",
              "name": "consumerID",
              "type": "address"
            },
            {
              "internalType": "string",
              "name": "originFarmName",
              "type": "string"
            },
            {
              "internalType": "string",
              "name": "originFarmMetadata",
              "type": "string"
            },
            {
              "internalType": "string",
              "name": "originFarmLatitude",
              "type": "string"
            },
            {
              "internalType": "string",
              "name": "originFarmLongitude",
              "type": "string"
            },
            {
              "internalType": "enum SupplyChain.State",
              "name": "itemState",
              "type": "uint8"
            }
          ],
          "internalType": "struct SupplyChain.Item[]",
          "name": "",
          "type": "tuple[]"
        }
      ],
      "stateMutability": "view",
      "type": "function"
    },
    {
      "inputs": [],
      "name": "fetchRetailerItems",
      "outputs": [
        {
          "components": [
            {
              "internalType": "uint256",
              "name": "sku",
              "type": "uint256"
            },
            {
              "internalType": "uint256",
              "name": "upc",
              "type": "uint256"
            },
            {
              "internalType": "uint256",
              "name": "productID",
              "type": "uint256"
            },
            {
              "internalType": "uint256",
              "name": "productPrice",
              "type": "uint256"
            },
            {
              "internalType": "string",
              "name": "productMetadata",
              "type": "string"
            },
            {
              "internalType": "address",
              "name": "ownerID",
              "type": "address"
            },
            {
              "internalType": "address",
              "name": "originFarmerID",
              "type": "address"
            },
            {
              "internalType": "address",
              "name": "distributorID",
              "type": "address"
            },
            {
              "internalType": "address",
              "name": "retailerID",
              "type": "address"
            },
            {
              "internalType": "address",
              "name": "consumerID",
              "type": "address"
            },
            {
              "internalType": "string",
              "name": "originFarmName",
              "type": "string"
            },
            {
              "internalType": "string",
              "name": "originFarmMetadata",
              "type": "string"
            },
            {
              "internalType": "string",
              "name": "originFarmLatitude",
              "type": "string"
            },
            {
              "internalType": "string",
              "name": "originFarmLongitude",
              "type": "string"
            },
            {
              "internalType": "enum SupplyChain.State",
              "name": "itemState",
              "type": "uint8"
            }
          ],
          "internalType": "struct SupplyChain.Item[]",
          "name": "",
          "type": "tuple[]"
        }
      ],
      "stateMutability": "view",
      "type": "function"
    },
    {
      "inputs": [
        {
          "internalType": "string",
          "name": "_originFarmName",
          "type": "string"
        },
        {
          "internalType": "string",
          "name": "_originFarmMetadata",
          "type": "string"
        },
        {
          "internalType": "string",
          "name": "_originFarmLatitude",
          "type": "string"
        },
        {
          "internalType": "string",
          "name": "_originFarmLongitude",
          "type": "string"
        },
        {
          "internalType": "string",
          "name": "_productMetadata",
          "type": "string"
        },
        {
          "internalType": "uint256",
          "name": "_productPrice",
          "type": "uint256"
        }
      ],
      "name": "harvestItem",
      "outputs": [],
      "stateMutability": "nonpayable",
      "type": "function"
    },
    {
      "inputs": [
        {
          "internalType": "address",
          "name": "account",
          "type": "address"
        }
      ],
      "name": "isConsumer",
      "outputs": [
        {
          "internalType": "bool",
          "name": "",
          "type": "bool"
        }
      ],
      "stateMutability": "view",
      "type": "function"
    },
    {
      "inputs": [
        {
          "internalType": "address",
          "name": "account",
          "type": "address"
        }
      ],
      "name": "isDistributor",
      "outputs": [
        {
          "internalType": "bool",
          "name": "",
          "type": "bool"
        }
      ],
      "stateMutability": "view",
      "type": "function"
    },
    {
      "inputs": [
        {
          "internalType": "address",
          "name": "account",
          "type": "address"
        }
      ],
      "name": "isFarmer",
      "outputs": [
        {
          "internalType": "bool",
          "name": "",
          "type": "bool"
        }
      ],
      "stateMutability": "view",
      "type": "function"
    },
    {
      "inputs": [
        {
          "internalType": "address",
          "name": "account",
          "type": "address"
        }
      ],
      "name": "isRetailer",
      "outputs": [
        {
          "internalType": "bool",
          "name": "",
          "type": "bool"
        }
      ],
      "stateMutability": "view",
      "type": "function"
    },
    {
      "inputs": [],
      "name": "kill",
      "outputs": [],
      "stateMutability": "nonpayable",
      "type": "function"
    },
    {
      "inputs": [],
      "name": "owner",
      "outputs": [
        {
          "internalType": "address",
          "name": "",
          "type": "address"
        }
      ],
      "stateMutability": "view",
      "type": "function"
    },
    {
      "inputs": [],
      "name": "renounceConsumer",
      "outputs": [],
      "stateMutability": "nonpayable",
      "type": "function"
    },
    {
      "inputs": [],
      "name": "renounceDistributor",
      "outputs": [],
      "stateMutability": "nonpayable",
      "type": "function"
    },
    {
      "inputs": [],
      "name": "renounceFarmer",
      "outputs": [],
      "stateMutability": "nonpayable",
      "type": "function"
    },
    {
      "inputs": [],
      "name": "renounceRetailer",
      "outputs": [],
      "stateMutability": "nonpayable",
      "type": "function"
    },
    {
      "inputs": [],
      "name": "sku",
      "outputs": [
        {
          "internalType": "uint256",
          "name": "_value",
          "type": "uint256"
        }
      ],
      "stateMutability": "view",
      "type": "function"
    },
    {
      "inputs": [],
      "name": "upc",
      "outputs": [
        {
          "internalType": "uint256",
          "name": "_value",
          "type": "uint256"
        }
      ],
      "stateMutability": "view",
      "type": "function"
    }
  ],
  "bytecode": "0x60806040523480156200001157600080fd5b506200001d3362000056565b6200002833620000a8565b6200003333620000fa565b6200003e336200014c565b600480546001600160a01b03191633179055620002f4565b620000718160006200019e60201b62002b131790919060201c565b6040516001600160a01b038216907f2e0ded4123377a3c2bc9a26f1717655a129e2f20752924d42e730ec89c83dbd090600090a250565b620000c38160016200019e60201b62002b131790919060201c565b6040516001600160a01b038216907fddbf200aa634dc3fb81cfd68583dd1040d1c751d335e1d86b631bde3e977fea890600090a250565b620001158160026200019e60201b62002b131790919060201c565b6040516001600160a01b038216907f71ae26cad02663e3d92efd6ec56031a80d74a20c0ab4183faa8bf262261c9baa90600090a250565b620001678160036200019e60201b62002b131790919060201c565b6040516001600160a01b038216907f28b26e7a3d20aedbc5f8f2ebf7da671c0491723a2b78f47a097b0e46dee0714290600090a250565b6001600160a01b038116620001fa5760405162461bcd60e51b815260206004820152601560248201527f494e56414c49443a20444541442041646472657373000000000000000000000060448201526064015b60405180910390fd5b6200020682826200027a565b15620002555760405162461bcd60e51b815260206004820152601a60248201527f494e56414c49443a204163636f756e74204861766520526f6c650000000000006044820152606401620001f1565b6001600160a01b0316600090815260209190915260409020805460ff19166001179055565b60006001600160a01b038216620002d45760405162461bcd60e51b815260206004820152601560248201527f494e56414c49443a2044454144204164647265737300000000000000000000006044820152606401620001f1565b506001600160a01b03166000908152602091909152604090205460ff1690565b613cbc80620003046000396000f3fe6080604052600436106101c25760003560e01c806380c3f96d116100f7578063930aff2f11610095578063d6febde811610064578063d6febde8146104bd578063db0e6a2f146104d0578063df8627f5146104e5578063f3b1cde81461050557600080fd5b8063930aff2f1461045c57806397ebe36514610471578063ac2db09d14610486578063b94290691461049d57600080fd5b80638588d026116100d15780638588d026146103cf5780638da5cb5b146103e45780638ec4f5051461041c5780638f0c86fa1461043c57600080fd5b806380c3f96d1461037a57806380fc0ce41461039a578063834ff739146103af57600080fd5b80635da09b8811610164578063721c85601161013e578063721c8560146103035780637250e2241461032557806378db2f7a146103455780637c0b4ab11461035a57600080fd5b80635da09b88146102a957806361e6982d146102d9578063644241db146102ee57600080fd5b806341c0e1b5116101a057806341c0e1b51461024957806343baca1e1461025e5780634462f40c146102715780634fde17911461029657600080fd5b806310f54f9c146101c7578063112940f91461020557806315c9ae1014610227575b600080fd5b3480156101d357600080fd5b506101ef6101e23660046138d3565b6000526008602052606090565b6040516101fc9190613af6565b60405180910390f35b34801561021157600080fd5b506102256102203660046137d0565b610518565b005b34801561023357600080fd5b5061023c610524565b6040516101fc919061397d565b34801561025557600080fd5b506102256109ae565b61022561026c3660046138ec565b610a13565b34801561027d57600080fd5b506006546102889081565b6040519081526020016101fc565b6102256102a43660046138ec565b610c23565b3480156102b557600080fd5b506102c96102c43660046137d0565b610dbf565b60405190151581526020016101fc565b3480156102e557600080fd5b50610225610dd2565b3480156102fa57600080fd5b50610225610e32565b34801561030f57600080fd5b50610318600081565b6040516101fc9190613b83565b34801561033157600080fd5b506102256103403660046137d0565b610e90565b34801561035157600080fd5b5061023c610e99565b34801561036657600080fd5b506102886103753660046138d3565b61131b565b34801561038657600080fd5b506102256103953660046137d0565b6116da565b3480156103a657600080fd5b506102256116e3565b3480156103bb57600080fd5b506102c96103ca3660046137d0565b611739565b3480156103db57600080fd5b5061023c611746565b3480156103f057600080fd5b50600454610404906001600160a01b031681565b6040516001600160a01b0390911681526020016101fc565b34801561042857600080fd5b506102256104373660046137d0565b611bed565b34801561044857600080fd5b506102c96104573660046137d0565b611bf6565b34801561046857600080fd5b5061023c611c03565b34801561047d57600080fd5b5061023c6120aa565b34801561049257600080fd5b506005546102889081565b3480156104a957600080fd5b506102c96104b83660046137d0565b612552565b6102256104cb3660046138ec565b61255e565b3480156104dc57600080fd5b506102256125be565b3480156104f157600080fd5b506102256105003660046137f9565b61261c565b6102256105133660046138d3565b6129bd565b61052181612bb5565b50565b6060600061053160065490565b90506000808267ffffffffffffffff81111561054f5761054f613c70565b60405190808252806020026020018201604052801561058857816020015b6105756135f7565b81526020019060019003908161056d5790505b50905060005b8381116109a6576000818152600760205260409020600501546001600160a01b03163314156109945760006105c4826001613bc0565b9050600060076000838152602001908152602001600020905080604051806101e00160405290816000820154815260200160018201548152602001600282015481526020016003820154815260200160048201805461062290613bd8565b80601f016020809104026020016040519081016040528092919081815260200182805461064e90613bd8565b801561069b5780601f106106705761010080835404028352916020019161069b565b820191906000526020600020905b81548152906001019060200180831161067e57829003601f168201915b505050918352505060058201546001600160a01b03908116602083015260068301548116604083015260078301548116606083015260088301548116608083015260098301541660a0820152600a8201805460c0909201916106fc90613bd8565b80601f016020809104026020016040519081016040528092919081815260200182805461072890613bd8565b80156107755780601f1061074a57610100808354040283529160200191610775565b820191906000526020600020905b81548152906001019060200180831161075857829003601f168201915b50505050508152602001600b8201805461078e90613bd8565b80601f01602080910402602001604051908101604052809291908181526020018280546107ba90613bd8565b80156108075780601f106107dc57610100808354040283529160200191610807565b820191906000526020600020905b8154815290600101906020018083116107ea57829003601f168201915b50505050508152602001600c8201805461082090613bd8565b80601f016020809104026020016040519081016040528092919081815260200182805461084c90613bd8565b80156108995780601f1061086e57610100808354040283529160200191610899565b820191906000526020600020905b81548152906001019060200180831161087c57829003601f168201915b50505050508152602001600d820180546108b290613bd8565b80601f01602080910402602001604051908101604052809291908181526020018280546108de90613bd8565b801561092b5780601f106109005761010080835404028352916020019161092b565b820191906000526020600020905b81548152906001019060200180831161090e57829003601f168201915b5050509183525050600e82015460209091019060ff16600f81111561095257610952613c44565b600f81111561096357610963613c44565b8152505084868151811061097957610979613c5a565b602090810291909101015261098f600186613bc0565b945050505b8061099e81613c13565b91505061058e565b509392505050565b6004546001600160a01b03163314610a055760405162461bcd60e51b8152602060048201526015602482015274125395905312510e88155b985d5d1a1bdc9a5e9959605a1b60448201526064015b60405180910390fd5b6004546001600160a01b0316ff5b8160046000828152600760205260409020600e015460ff16600f811115610a3c57610a3c613c44565b14610a895760405162461bcd60e51b815260206004820181905260248201527f494e56414c49443a204e6f7420536f6c6420546f204469737472696275746f7260448201526064016109fc565b600083815260076020526040902060038101546006909101546001600160a01b0316331415610afa5760405162461bcd60e51b815260206004820152601d60248201527f52657461696c657249442063616e6e6f742062652044697374726f494400000060448201526064016109fc565b803414610b495760405162461bcd60e51b815260206004820152601e60248201527f496e73756666696369656e7420416d6f756e74207472616e736665726564000060448201526064016109fc565b6000848152600760208181526040808420600880820180546001600160a01b0319163317905583528185204340600590910155918390529181015460039091015491516001600160a01b03919091169282156108fc02929190818181858888f19350505050158015610bbf573d6000803e3d6000fd5b50610bca8484612bf7565b610bd333610dbf565b610be057610be033611bed565b610be984612c68565b6040518481527f54dafe9ea34c9448f0b09cec86e7ede9744e44adedf54b15e3ad40a0942f2fb9906020015b60405180910390a150505050565b600082815260076020526040902060038101546006909101546001600160a01b031633811415610c955760405162461bcd60e51b815260206004820181905260248201527f4469737472696275746f7249442063616e6e6f74206265206661726d6572494460448201526064016109fc565b813414610ce45760405162461bcd60e51b815260206004820152601e60248201527f496e73756666696369656e7420416d6f756e74207472616e736665726564000060448201526064016109fc565b60008481526007602081815260408084206005810180546001600160a01b03199081163390811790925594820180549095168117909455600e8101805460ff19166004179055600390810188905560089092529092204340920191909155610d4b90611bf6565b610d5857610d5833610e90565b6040516001600160a01b0382169083156108fc029084906000818181858888f19350505050158015610d8e573d6000803e3d6000fd5b506040518481527f2900f7f2d701a69acf040421bf8d1b8ac9b76d9c3aa0eb50dd78ec1e8d70e22e90602001610c15565b6000610dcc600283612d39565b92915050565b610ddb33611739565b610e275760405162461bcd60e51b815260206004820152601760248201527f494e56414c49443a204e6f74206120436f6e73756d657200000000000000000060448201526064016109fc565b610e3033612d81565b565b610e3b33611bf6565b610e875760405162461bcd60e51b815260206004820152601a60248201527f494e56414c49443a204e6f742061204469737472696275746f7200000000000060448201526064016109fc565b610e3033612dc3565b61052181612e05565b60606000610ea660065490565b90506000808267ffffffffffffffff811115610ec457610ec4613c70565b604051908082528060200260200182016040528015610efd57816020015b610eea6135f7565b815260200190600190039081610ee25790505b50905060005b8381116109a6576000818152600760205260409020600601546001600160a01b0316331415611309576000610f39826001613bc0565b9050600060076000838152602001908152602001600020905080604051806101e001604052908160008201548152602001600182015481526020016002820154815260200160038201548152602001600482018054610f9790613bd8565b80601f0160208091040260200160405190810160405280929190818152602001828054610fc390613bd8565b80156110105780601f10610fe557610100808354040283529160200191611010565b820191906000526020600020905b815481529060010190602001808311610ff357829003601f168201915b505050918352505060058201546001600160a01b03908116602083015260068301548116604083015260078301548116606083015260088301548116608083015260098301541660a0820152600a8201805460c09092019161107190613bd8565b80601f016020809104026020016040519081016040528092919081815260200182805461109d90613bd8565b80156110ea5780601f106110bf576101008083540402835291602001916110ea565b820191906000526020600020905b8154815290600101906020018083116110cd57829003601f168201915b50505050508152602001600b8201805461110390613bd8565b80601f016020809104026020016040519081016040528092919081815260200182805461112f90613bd8565b801561117c5780601f106111515761010080835404028352916020019161117c565b820191906000526020600020905b81548152906001019060200180831161115f57829003601f168201915b50505050508152602001600c8201805461119590613bd8565b80601f01602080910402602001604051908101604052809291908181526020018280546111c190613bd8565b801561120e5780601f106111e35761010080835404028352916020019161120e565b820191906000526020600020905b8154815290600101906020018083116111f157829003601f168201915b50505050508152602001600d8201805461122790613bd8565b80601f016020809104026020016040519081016040528092919081815260200182805461125390613bd8565b80156112a05780601f10611275576101008083540402835291602001916112a0565b820191906000526020600020905b81548152906001019060200180831161128357829003601f168201915b5050509183525050600e82015460209091019060ff16600f8111156112c7576112c7613c44565b600f8111156112d8576112d8613c44565b815250508486815181106112ee576112ee613c5a565b6020908102919091010152611304600186613bc0565b945050505b8061131381613c13565b915050610f03565b60008060076000848152602001908152602001600020604051806101e00160405290816000820154815260200160018201548152602001600282015481526020016003820154815260200160048201805461137590613bd8565b80601f01602080910402602001604051908101604052809291908181526020018280546113a190613bd8565b80156113ee5780601f106113c3576101008083540402835291602001916113ee565b820191906000526020600020905b8154815290600101906020018083116113d157829003601f168201915b505050918352505060058201546001600160a01b03908116602083015260068301548116604083015260078301548116606083015260088301548116608083015260098301541660a0820152600a8201805460c09092019161144f90613bd8565b80601f016020809104026020016040519081016040528092919081815260200182805461147b90613bd8565b80156114c85780601f1061149d576101008083540402835291602001916114c8565b820191906000526020600020905b8154815290600101906020018083116114ab57829003601f168201915b50505050508152602001600b820180546114e190613bd8565b80601f016020809104026020016040519081016040528092919081815260200182805461150d90613bd8565b801561155a5780601f1061152f5761010080835404028352916020019161155a565b820191906000526020600020905b81548152906001019060200180831161153d57829003601f168201915b50505050508152602001600c8201805461157390613bd8565b80601f016020809104026020016040519081016040528092919081815260200182805461159f90613bd8565b80156115ec5780601f106115c1576101008083540402835291602001916115ec565b820191906000526020600020905b8154815290600101906020018083116115cf57829003601f168201915b50505050508152602001600d8201805461160590613bd8565b80601f016020809104026020016040519081016040528092919081815260200182805461163190613bd8565b801561167e5780601f106116535761010080835404028352916020019161167e565b820191906000526020600020905b81548152906001019060200180831161166157829003601f168201915b5050509183525050600e82015460209091019060ff16600f8111156116a5576116a5613c44565b600f8111156116b6576116b6613c44565b815250509050806101c00151600f8111156116d3576116d3613c44565b9392505050565b61052181612e47565b6116ec33612552565b6117305760405162461bcd60e51b815260206004820152601560248201527424a72b20a624a21d102737ba1030902330b936b2b960591b60448201526064016109fc565b610e3033612e89565b6000610dcc600383612d39565b6060600061175360065490565b90506000808267ffffffffffffffff81111561177157611771613c70565b6040519080825280602002602001820160405280156117aa57816020015b6117976135f7565b81526020019060019003908161178f5790505b50905060005b8381116109a6576000818152600760205260409020600501546001600160a01b0316331480156117f957506000818152600760205260409020600801546001600160a01b031633145b15611bdb57600061180b826001613bc0565b9050600060076000838152602001908152602001600020905080604051806101e00160405290816000820154815260200160018201548152602001600282015481526020016003820154815260200160048201805461186990613bd8565b80601f016020809104026020016040519081016040528092919081815260200182805461189590613bd8565b80156118e25780601f106118b7576101008083540402835291602001916118e2565b820191906000526020600020905b8154815290600101906020018083116118c557829003601f168201915b505050918352505060058201546001600160a01b03908116602083015260068301548116604083015260078301548116606083015260088301548116608083015260098301541660a0820152600a8201805460c09092019161194390613bd8565b80601f016020809104026020016040519081016040528092919081815260200182805461196f90613bd8565b80156119bc5780601f10611991576101008083540402835291602001916119bc565b820191906000526020600020905b81548152906001019060200180831161199f57829003601f168201915b50505050508152602001600b820180546119d590613bd8565b80601f0160208091040260200160405190810160405280929190818152602001828054611a0190613bd8565b8015611a4e5780601f10611a2357610100808354040283529160200191611a4e565b820191906000526020600020905b815481529060010190602001808311611a3157829003601f168201915b50505050508152602001600c82018054611a6790613bd8565b80601f0160208091040260200160405190810160405280929190818152602001828054611a9390613bd8565b8015611ae05780601f10611ab557610100808354040283529160200191611ae0565b820191906000526020600020905b815481529060010190602001808311611ac357829003601f168201915b50505050508152602001600d82018054611af990613bd8565b80601f0160208091040260200160405190810160405280929190818152602001828054611b2590613bd8565b8015611b725780601f10611b4757610100808354040283529160200191611b72565b820191906000526020600020905b815481529060010190602001808311611b5557829003601f168201915b5050509183525050600e82015460209091019060ff16600f811115611b9957611b99613c44565b600f811115611baa57611baa613c44565b81525050848681518110611bc057611bc0613c5a565b6020908102919091010152611bd6600186613bc0565b945050505b80611be581613c13565b9150506117b0565b61052181612ecb565b6000610dcc600183612d39565b60606000611c1060065490565b90506000808267ffffffffffffffff811115611c2e57611c2e613c70565b604051908082528060200260200182016040528015611c6757816020015b611c546135f7565b815260200190600190039081611c4c5790505b50905060005b8381116109a6576000818152600760205260409020600501546001600160a01b031633148015611cb657506000818152600760205260409020600901546001600160a01b031633145b15612098576000611cc8826001613bc0565b9050600060076000838152602001908152602001600020905080604051806101e001604052908160008201548152602001600182015481526020016002820154815260200160038201548152602001600482018054611d2690613bd8565b80601f0160208091040260200160405190810160405280929190818152602001828054611d5290613bd8565b8015611d9f5780601f10611d7457610100808354040283529160200191611d9f565b820191906000526020600020905b815481529060010190602001808311611d8257829003601f168201915b505050918352505060058201546001600160a01b03908116602083015260068301548116604083015260078301548116606083015260088301548116608083015260098301541660a0820152600a8201805460c090920191611e0090613bd8565b80601f0160208091040260200160405190810160405280929190818152602001828054611e2c90613bd8565b8015611e795780601f10611e4e57610100808354040283529160200191611e79565b820191906000526020600020905b815481529060010190602001808311611e5c57829003601f168201915b50505050508152602001600b82018054611e9290613bd8565b80601f0160208091040260200160405190810160405280929190818152602001828054611ebe90613bd8565b8015611f0b5780601f10611ee057610100808354040283529160200191611f0b565b820191906000526020600020905b815481529060010190602001808311611eee57829003601f168201915b50505050508152602001600c82018054611f2490613bd8565b80601f0160208091040260200160405190810160405280929190818152602001828054611f5090613bd8565b8015611f9d5780601f10611f7257610100808354040283529160200191611f9d565b820191906000526020600020905b815481529060010190602001808311611f8057829003601f168201915b50505050508152602001600d82018054611fb690613bd8565b80601f0160208091040260200160405190810160405280929190818152602001828054611fe290613bd8565b801561202f5780601f106120045761010080835404028352916020019161202f565b820191906000526020600020905b81548152906001019060200180831161201257829003601f168201915b5050509183525050600e82015460209091019060ff16600f81111561205657612056613c44565b600f81111561206757612067613c44565b8152505084868151811061207d5761207d613c5a565b6020908102919091010152612093600186613bc0565b945050505b806120a281613c13565b915050611c6d565b606060006120b760065490565b90506000808267ffffffffffffffff8111156120d5576120d5613c70565b60405190808252806020026020018201604052801561210e57816020015b6120fb6135f7565b8152602001906001900390816120f35790505b50905060005b8381116109a6576000818152600760205260409020600501546001600160a01b03163314801561215e5750600081815260076020819052604090912001546001600160a01b031633145b15612540576000612170826001613bc0565b9050600060076000838152602001908152602001600020905080604051806101e0016040529081600082015481526020016001820154815260200160028201548152602001600382015481526020016004820180546121ce90613bd8565b80601f01602080910402602001604051908101604052809291908181526020018280546121fa90613bd8565b80156122475780601f1061221c57610100808354040283529160200191612247565b820191906000526020600020905b81548152906001019060200180831161222a57829003601f168201915b505050918352505060058201546001600160a01b03908116602083015260068301548116604083015260078301548116606083015260088301548116608083015260098301541660a0820152600a8201805460c0909201916122a890613bd8565b80601f01602080910402602001604051908101604052809291908181526020018280546122d490613bd8565b80156123215780601f106122f657610100808354040283529160200191612321565b820191906000526020600020905b81548152906001019060200180831161230457829003601f168201915b50505050508152602001600b8201805461233a90613bd8565b80601f016020809104026020016040519081016040528092919081815260200182805461236690613bd8565b80156123b35780601f10612388576101008083540402835291602001916123b3565b820191906000526020600020905b81548152906001019060200180831161239657829003601f168201915b50505050508152602001600c820180546123cc90613bd8565b80601f01602080910402602001604051908101604052809291908181526020018280546123f890613bd8565b80156124455780601f1061241a57610100808354040283529160200191612445565b820191906000526020600020905b81548152906001019060200180831161242857829003601f168201915b50505050508152602001600d8201805461245e90613bd8565b80601f016020809104026020016040519081016040528092919081815260200182805461248a90613bd8565b80156124d75780601f106124ac576101008083540402835291602001916124d7565b820191906000526020600020905b8154815290600101906020018083116124ba57829003601f168201915b5050509183525050600e82015460209091019060ff16600f8111156124fe576124fe613c44565b600f81111561250f5761250f613c44565b8152505084868151811061252557612525613c5a565b602090810291909101015261253b600186613bc0565b945050505b8061254a81613c13565b915050612114565b6000610dcc8183612d39565b600082815260076020819052604090912001546001600160a01b0316612588576125888282610c23565b6000828152600760205260409020600801546001600160a01b03166125b5576125b18282610a13565b5050565b6125b1826129bd565b6125c733610dbf565b6126135760405162461bcd60e51b815260206004820152601760248201527f494e56414c49443a204e6f7420612052657461696c657200000000000000000060448201526064016109fc565b610e3033612f0d565b61262a600580546001019055565b612638600680546001019055565b600061264360055490565b60065460408051602081019390935282015260600160408051601f1981840301815282825280516020909101206101e0830190915291508061268460065490565b815260200161269260055490565b8152602001828152602001838152602001848152602001336001600160a01b03168152602001336001600160a01b0316815260200160006001600160a01b0316815260200160006001600160a01b0316815260200160006001600160a01b031681526020018881526020018781526020018681526020018581526020016000600f81111561272257612722613c44565b90526007600061273160055490565b81526020019081526020016000206000820151816000015560208201518160010155604082015181600201556060820151816003015560808201518160040190805190602001906127839291906136aa565b5060a08201516005820180546001600160a01b03199081166001600160a01b039384161790915560c0840151600684018054831691841691909117905560e0840151600784018054831691841691909117905561010084015160088401805483169184169190911790556101208401516009840180549092169216919091179055610140820151805161282091600a8401916020909101906136aa565b50610160820151805161283d91600b8401916020909101906136aa565b50610180820151805161285a91600c8401916020909101906136aa565b506101a0820151805161287791600d8401916020909101906136aa565b506101c0820151600e8201805460ff1916600183600f81111561289c5761289c613c44565b021790555050604080516101008101825243408152600060208201819052918101829052606081018290526080810182905260a0810182905260c0810182905260e0810182905291506008906128f160055490565b8152602001908152602001600020600082015181600001556020820151816001015560408201518160020155606082015181600301556080820151816004015560a0820151816005015560c0820151816006015560e0820151816007015590505061296361295e60055490565b612f4f565b61296c33612552565b61297957612979336116da565b7f8e55ccfc9778ff8eba1646d765cf1982537ce0f9257054a17b48aad7452501836129a360055490565b60405190815260200160405180910390a150505050505050565b80600e6000828152600760205260409020600e015460ff16600f8111156129e6576129e6613c44565b14612a335760405162461bcd60e51b815260206004820152601a60248201527f494e56414c49443a204974656d204e6f7420526563656976656400000000000060448201526064016109fc565b60008281526008602090815260408083204340600791820155909152902060090180546001600160a01b03191633179055612a6d8261302c565b612a7633611739565b612a8357612a8333610518565b612a8c82613194565b600082815260076020526040808220600881015460039091015491516001600160a01b039091169282156108fc02929190818181858888f19350505050158015612ada573d6000803e3d6000fd5b506040518281527ff8d4d18c02478c21f38cf4aa60c47b8baf0215ad5d0b0ad565ef8580e03c7ef1906020015b60405180910390a15050565b6001600160a01b038116612b395760405162461bcd60e51b81526004016109fc90613b91565b612b438282612d39565b15612b905760405162461bcd60e51b815260206004820152601a60248201527f494e56414c49443a204163636f756e74204861766520526f6c6500000000000060448201526064016109fc565b6001600160a01b0316600090815260209190915260409020805460ff19166001179055565b612bc0600382612b13565b6040516001600160a01b038216907f28b26e7a3d20aedbc5f8f2ebf7da671c0491723a2b78f47a097b0e46dee0714290600090a250565b6000828152600760208181526040808420600e8101805460ff1916909417909355600390920184905560088152918190204340600490910155518381527f54dafe9ea34c9448f0b09cec86e7ede9744e44adedf54b15e3ad40a0942f2fb9910160405180910390a16125b18261325a565b8060036000828152600760205260409020600e015460ff16600f811115612c9157612c91613c44565b14612cde5760405162461bcd60e51b815260206004820152601a60248201527f494e56414c49443a204974656d204e6f7420466f722053616c6500000000000060448201526064016109fc565b612ce733611bed565b6000828152600760205260409020600e908101805460ff19166001835b02179055506040518281527fa8142743f8f70a4c26f3691cf4ed59718381fb2f18070ec52be1f1022d85555790602001612b07565b60006001600160a01b038216612d615760405162461bcd60e51b81526004016109fc90613b91565b506001600160a01b03166000908152602091909152604090205460ff1690565b612d8c6003826133a9565b6040516001600160a01b038216907fe3f5ed5f263f1f01764a96edfc7d025f511ec5f7d180e8816908b78bcf74f09890600090a250565b612dce6001826133a9565b6040516001600160a01b038216907f126174f6cf49c81cdb4a9214c6b8f037bef55b4ec31e4fc776cea2a1c8a88d5990600090a250565b612e10600182612b13565b6040516001600160a01b038216907fddbf200aa634dc3fb81cfd68583dd1040d1c751d335e1d86b631bde3e977fea890600090a250565b612e52600082612b13565b6040516001600160a01b038216907f2e0ded4123377a3c2bc9a26f1717655a129e2f20752924d42e730ec89c83dbd090600090a250565b612e946000826133a9565b6040516001600160a01b038216907fa5e0f060af304ab17dd418c7927e3da3ae7868189bf387aee09ab179ccc572f290600090a250565b612ed6600282612b13565b6040516001600160a01b038216907f71ae26cad02663e3d92efd6ec56031a80d74a20c0ab4183faa8bf262261c9baa90600090a250565b612f186002826133a9565b6040516001600160a01b038216907fdb7176e79cffef81cb01767dd0447a0b24bb72ca9778d4b245581086b2a7e6db90600090a250565b80600080828152600760205260409020600e015460ff16600f811115612f7757612f77613c44565b14612fc45760405162461bcd60e51b815260206004820152601b60248201527f494e56414c49443a204974656d204e6f7420486172766573746564000000000060448201526064016109fc565b6000828152600760209081526040808320600e01805460ff1916600190811790915560089092529091204340910155612ffc82613447565b6040518281527f5afe3b1bf87069693c075da5c22a98d63d1aef98a30dbbe538d0781a98b77ee590602001612b07565b80600e6000828152600760205260409020600e015460ff16600f81111561305557613055613c44565b146130a25760405162461bcd60e51b815260206004820152601a60248201527f494e56414c49443a204974656d204e6f7420526563656976656400000000000060448201526064016109fc565b6000828152600760205260409020600601546001600160a01b03163381146131045760405162461bcd60e51b8152602060048201526015602482015274125395905312510e88139bdd0815995c9a599a5959605a1b60448201526064016109fc565b6000838152600760208181526040808420600e8101805460ff1916600a179055600883529381902043406006909101559181526009830154600590930180546001600160a01b0319166001600160a01b0390941693909317909255518481527fa96ae0fc3224ebd79eebfe54bd130cc9cb94416cddd1f2386115e00b7253246891015b60405180910390a1505050565b8060036000828152600760205260409020600e015460ff16600f8111156131bd576131bd613c44565b1461320a5760405162461bcd60e51b815260206004820152601a60248201527f494e56414c49443a204974656d204e6f7420466f722053616c6500000000000060448201526064016109fc565b61321333610518565b6000828152600760205260409020600581018054336001600160a01b031991821681179092556009830180549091169091179055600e908101805460ff1916600183612d04565b8060076000828152600760205260409020600e015460ff16600f81111561328357613283613c44565b146132d05760405162461bcd60e51b815260206004820181905260248201527f494e56414c49443a204e6f7420536f6c6420546f204469737472696275746f7260448201526064016109fc565b6000828152600760205260409020600601546001600160a01b03163381146133325760405162461bcd60e51b8152602060048201526015602482015274125395905312510e88139bdd0815995c9a599a5959605a1b60448201526064016109fc565b600083815260076020908152604091829020600e8101805460ff191660031790556008810154600590910180546001600160a01b039092166001600160a01b031990921691909117905590518481527ff00b9a5725b80c54016f42114f6ed7792d22eecb116011c4afac29c57bef6c959101613187565b6001600160a01b0381166133cf5760405162461bcd60e51b81526004016109fc90613b91565b6133d98282612d39565b6134255760405162461bcd60e51b815260206004820152601d60248201527f494e56414c49443a204163636f756e742048617665204e6f20526f6c6500000060448201526064016109fc565b6001600160a01b0316600090815260209190915260409020805460ff19169055565b8060016000828152600760205260409020600e015460ff16600f81111561347057613470613c44565b146134bd5760405162461bcd60e51b815260206004820152601b60248201527f494e56414c49443a204974656d204e6f742050726f636573736564000000000060448201526064016109fc565b6000828152600760209081526040808320600e01805460ff19166002179055600890915290204340600191909101556134f582613525565b6040518281527f0c70d89b176b3792b9ff1a750105ae23454802a52d42ea9c264300e29fd8a3e190602001612b07565b8060026000828152600760205260409020600e015460ff16600f81111561354e5761354e613c44565b1461359b5760405162461bcd60e51b815260206004820152601a60248201527f494e56414c49443a204974656d204e6f74205061636b6167656400000000000060448201526064016109fc565b6000828152600760209081526040808320600e01805460ff191660031790556008825291829020434060029091015590518381527fa96ae0fc3224ebd79eebfe54bd130cc9cb94416cddd1f2386115e00b725324689101612b07565b604051806101e00160405280600081526020016000815260200160008152602001600081526020016060815260200160006001600160a01b0316815260200160006001600160a01b0316815260200160006001600160a01b0316815260200160006001600160a01b0316815260200160006001600160a01b03168152602001606081526020016060815260200160608152602001606081526020016000600f8111156136a5576136a5613c44565b905290565b8280546136b690613bd8565b90600052602060002090601f0160209004810192826136d8576000855561371e565b82601f106136f157805160ff191683800117855561371e565b8280016001018555821561371e579182015b8281111561371e578251825591602001919060010190613703565b5061372a92915061372e565b5090565b5b8082111561372a576000815560010161372f565b600082601f83011261375457600080fd5b813567ffffffffffffffff8082111561376f5761376f613c70565b604051601f8301601f19908116603f0116810190828211818310171561379757613797613c70565b816040528381528660208588010111156137b057600080fd5b836020870160208301376000602085830101528094505050505092915050565b6000602082840312156137e257600080fd5b81356001600160a01b03811681146116d357600080fd5b60008060008060008060c0878903121561381257600080fd5b863567ffffffffffffffff8082111561382a57600080fd5b6138368a838b01613743565b9750602089013591508082111561384c57600080fd5b6138588a838b01613743565b9650604089013591508082111561386e57600080fd5b61387a8a838b01613743565b9550606089013591508082111561389057600080fd5b61389c8a838b01613743565b945060808901359150808211156138b257600080fd5b506138bf89828a01613743565b92505060a087013590509295509295509295565b6000602082840312156138e557600080fd5b5035919050565b600080604083850312156138ff57600080fd5b50508035926020909101359150565b6010811061392c57634e487b7160e01b600052602160045260246000fd5b9052565b6000815180845260005b818110156139565760208185018101518683018201520161393a565b81811115613968576000602083870101525b50601f01601f19169290920160200192915050565b60006020808301818452808551808352604092508286019150828160051b87010184880160005b83811015613ae857603f1989840301855281516101e08151855288820151898601528782015188860152606080830151818701525060808083015182828801526139f083880182613930565b9250505060a080830151613a0e828801826001600160a01b03169052565b505060c0828101516001600160a01b039081169187019190915260e0808401518216908701526101008084015182169087015261012080840151909116908601526101408083015186830382880152613a678382613930565b925050506101608083015186830382880152613a838382613930565b925050506101808083015186830382880152613a9f8382613930565b925050506101a08083015186830382880152613abb8382613930565b925050506101c0808301519250613ad48187018461390e565b5095880195935050908601906001016139a4565b509098975050505050505050565b602080825282518282018190526000919060409081850190868401855b82811015613b765781518051855286810151878601528581015186860152606080820151908601526080808201519086015260a0808201519086015260c0808201519086015260e090810151908501526101009093019290850190600101613b13565b5091979650505050505050565b60208101610dcc828461390e565b602080825260159082015274494e56414c49443a2044454144204164647265737360581b604082015260600190565b60008219821115613bd357613bd3613c2e565b500190565b600181811c90821680613bec57607f821691505b60208210811415613c0d57634e487b7160e01b600052602260045260246000fd5b50919050565b6000600019821415613c2757613c27613c2e565b5060010190565b634e487b7160e01b600052601160045260246000fd5b634e487b7160e01b600052602160045260246000fd5b634e487b7160e01b600052603260045260246000fd5b634e487b7160e01b600052604160045260246000fdfea26469706673582212203f9c8e176b54e6e544ba2db8749482632e71b2d4315df87a1b42ba70bb16101b64736f6c63430008060033",
  "linkReferences": {},
  "deployedLinkReferences": {}
}