{
  "_format": "hh-sol-artifact-1",
  "contractName": "SupplyChain",
  "sourceName": "contracts/base/SupplyChain.sol",
  "abi": [
    {
      "inputs": [],
      "stateMutability": "nonpayable",
      "type": "constructor"
    },
    {
      "anonymous": false,
      "inputs": [
        {
          "indexed": true,
          "internalType": "address",
          "name": "account",
          "type": "address"
        }
      ],
      "name": "ConsumerAdded",
      "type": "event"
    },
    {
      "anonymous": false,
      "inputs": [
        {
          "indexed": true,
          "internalType": "address",
          "name": "account",
          "type": "address"
        }
      ],
      "name": "ConsumerRemoved",
      "type": "event"
    },
    {
      "anonymous": false,
      "inputs": [
        {
          "indexed": true,
          "internalType": "address",
          "name": "account",
          "type": "address"
        }
      ],
      "name": "DistributorAdded",
      "type": "event"
    },
    {
      "anonymous": false,
      "inputs": [
        {
          "indexed": true,
          "internalType": "address",
          "name": "account",
          "type": "address"
        }
      ],
      "name": "DistributorRemoved",
      "type": "event"
    },
    {
      "anonymous": false,
      "inputs": [
        {
          "indexed": true,
          "internalType": "address",
          "name": "account",
          "type": "address"
        }
      ],
      "name": "FarmerAdded",
      "type": "event"
    },
    {
      "anonymous": false,
      "inputs": [
        {
          "indexed": true,
          "internalType": "address",
          "name": "account",
          "type": "address"
        }
      ],
      "name": "FarmerRemoved",
      "type": "event"
    },
    {
      "anonymous": false,
      "inputs": [
        {
          "indexed": false,
          "internalType": "uint256",
          "name": "upc",
          "type": "uint256"
        }
      ],
      "name": "ForSale",
      "type": "event"
    },
    {
      "anonymous": false,
      "inputs": [
        {
          "indexed": false,
          "internalType": "uint256",
          "name": "upc",
          "type": "uint256"
        }
      ],
      "name": "Harvested",
      "type": "event"
    },
    {
      "anonymous": false,
      "inputs": [
        {
          "indexed": false,
          "internalType": "uint256",
          "name": "upc",
          "type": "uint256"
        }
      ],
      "name": "ReceivedByCustomer",
      "type": "event"
    },
    {
      "anonymous": false,
      "inputs": [
        {
          "indexed": false,
          "internalType": "uint256",
          "name": "upc",
          "type": "uint256"
        }
      ],
      "name": "ReceivedByRetail",
      "type": "event"
    },
    {
      "anonymous": false,
      "inputs": [
        {
          "indexed": true,
          "internalType": "address",
          "name": "account",
          "type": "address"
        }
      ],
      "name": "RetailerAdded",
      "type": "event"
    },
    {
      "anonymous": false,
      "inputs": [
        {
          "indexed": true,
          "internalType": "address",
          "name": "account",
          "type": "address"
        }
      ],
      "name": "RetailerRemoved",
      "type": "event"
    },
    {
      "anonymous": false,
      "inputs": [
        {
          "indexed": false,
          "internalType": "uint256",
          "name": "upc",
          "type": "uint256"
        }
      ],
      "name": "ShippedToRetail",
      "type": "event"
    },
    {
      "anonymous": false,
      "inputs": [
        {
          "indexed": false,
          "internalType": "uint256",
          "name": "upc",
          "type": "uint256"
        }
      ],
      "name": "SoldToConsumer",
      "type": "event"
    },
    {
      "anonymous": false,
      "inputs": [
        {
          "indexed": false,
          "internalType": "uint256",
          "name": "upc",
          "type": "uint256"
        },
        {
          "indexed": false,
          "internalType": "uint256",
          "name": "amount",
          "type": "uint256"
        }
      ],
      "name": "SoldToDist",
      "type": "event"
    },
    {
      "anonymous": false,
      "inputs": [
        {
          "indexed": false,
          "internalType": "uint256",
          "name": "upc",
          "type": "uint256"
        }
      ],
      "name": "SoldToRetail",
      "type": "event"
    },
    {
      "inputs": [
        {
          "internalType": "address",
          "name": "account",
          "type": "address"
        }
      ],
      "name": "addConsumer",
      "outputs": [],
      "stateMutability": "nonpayable",
      "type": "function"
    },
    {
      "inputs": [
        {
          "internalType": "address",
          "name": "account",
          "type": "address"
        }
      ],
      "name": "addDistributor",
      "outputs": [],
      "stateMutability": "nonpayable",
      "type": "function"
    },
    {
      "inputs": [
        {
          "internalType": "address",
          "name": "account",
          "type": "address"
        }
      ],
      "name": "addFarmer",
      "outputs": [],
      "stateMutability": "nonpayable",
      "type": "function"
    },
    {
      "inputs": [
        {
          "internalType": "address",
          "name": "account",
          "type": "address"
        }
      ],
      "name": "addRetailer",
      "outputs": [],
      "stateMutability": "nonpayable",
      "type": "function"
    },
    {
      "inputs": [
        {
          "internalType": "uint256",
          "name": "_upc",
          "type": "uint256"
        }
      ],
      "name": "buyAsConsumer",
      "outputs": [],
      "stateMutability": "payable",
      "type": "function"
    },
    {
      "inputs": [
        {
          "internalType": "uint256",
          "name": "_upc",
          "type": "uint256"
        },
        {
          "internalType": "uint256",
          "name": "_newPrice",
          "type": "uint256"
        }
      ],
      "name": "buyAsDist",
      "outputs": [],
      "stateMutability": "payable",
      "type": "function"
    },
    {
      "inputs": [
        {
          "internalType": "uint256",
          "name": "_upc",
          "type": "uint256"
        },
        {
          "internalType": "uint256",
          "name": "_newPrice",
          "type": "uint256"
        }
      ],
      "name": "buyAsRetail",
      "outputs": [],
      "stateMutability": "payable",
      "type": "function"
    },
    {
      "inputs": [],
      "name": "fetchAvailableItemsForConsumer",
      "outputs": [
        {
          "components": [
            {
              "internalType": "uint256",
              "name": "sku",
              "type": "uint256"
            },
            {
              "internalType": "uint256",
              "name": "upc",
              "type": "uint256"
            },
            {
              "internalType": "uint256",
              "name": "productID",
              "type": "uint256"
            },
            {
              "internalType": "uint256",
              "name": "productPrice",
              "type": "uint256"
            },
            {
              "internalType": "string",
              "name": "productMetadata",
              "type": "string"
            },
            {
              "internalType": "address payable",
              "name": "ownerID",
              "type": "address"
            },
            {
              "internalType": "address payable",
              "name": "originFarmerID",
              "type": "address"
            },
            {
              "internalType": "address payable",
              "name": "distributorID",
              "type": "address"
            },
            {
              "internalType": "address payable",
              "name": "retailerID",
              "type": "address"
            },
            {
              "internalType": "address payable",
              "name": "consumerID",
              "type": "address"
            },
            {
              "internalType": "string",
              "name": "originFarmName",
              "type": "string"
            },
            {
              "internalType": "string",
              "name": "originFarmMetadata",
              "type": "string"
            },
            {
              "internalType": "string",
              "name": "originFarmLatitude",
              "type": "string"
            },
            {
              "internalType": "string",
              "name": "originFarmLongitude",
              "type": "string"
            },
            {
              "internalType": "enum SupplyChain.State",
              "name": "itemState",
              "type": "uint8"
            }
          ],
          "internalType": "struct SupplyChain.Item[]",
          "name": "",
          "type": "tuple[]"
        }
      ],
      "stateMutability": "view",
      "type": "function"
    },
    {
      "inputs": [],
      "name": "fetchAvailableItemsForDistro",
      "outputs": [
        {
          "components": [
            {
              "internalType": "uint256",
              "name": "sku",
              "type": "uint256"
            },
            {
              "internalType": "uint256",
              "name": "upc",
              "type": "uint256"
            },
            {
              "internalType": "uint256",
              "name": "productID",
              "type": "uint256"
            },
            {
              "internalType": "uint256",
              "name": "productPrice",
              "type": "uint256"
            },
            {
              "internalType": "string",
              "name": "productMetadata",
              "type": "string"
            },
            {
              "internalType": "address payable",
              "name": "ownerID",
              "type": "address"
            },
            {
              "internalType": "address payable",
              "name": "originFarmerID",
              "type": "address"
            },
            {
              "internalType": "address payable",
              "name": "distributorID",
              "type": "address"
            },
            {
              "internalType": "address payable",
              "name": "retailerID",
              "type": "address"
            },
            {
              "internalType": "address payable",
              "name": "consumerID",
              "type": "address"
            },
            {
              "internalType": "string",
              "name": "originFarmName",
              "type": "string"
            },
            {
              "internalType": "string",
              "name": "originFarmMetadata",
              "type": "string"
            },
            {
              "internalType": "string",
              "name": "originFarmLatitude",
              "type": "string"
            },
            {
              "internalType": "string",
              "name": "originFarmLongitude",
              "type": "string"
            },
            {
              "internalType": "enum SupplyChain.State",
              "name": "itemState",
              "type": "uint8"
            }
          ],
          "internalType": "struct SupplyChain.Item[]",
          "name": "",
          "type": "tuple[]"
        }
      ],
      "stateMutability": "view",
      "type": "function"
    },
    {
      "inputs": [],
      "name": "fetchAvailableItemsForRetailer",
      "outputs": [
        {
          "components": [
            {
              "internalType": "uint256",
              "name": "sku",
              "type": "uint256"
            },
            {
              "internalType": "uint256",
              "name": "upc",
              "type": "uint256"
            },
            {
              "internalType": "uint256",
              "name": "productID",
              "type": "uint256"
            },
            {
              "internalType": "uint256",
              "name": "productPrice",
              "type": "uint256"
            },
            {
              "internalType": "string",
              "name": "productMetadata",
              "type": "string"
            },
            {
              "internalType": "address payable",
              "name": "ownerID",
              "type": "address"
            },
            {
              "internalType": "address payable",
              "name": "originFarmerID",
              "type": "address"
            },
            {
              "internalType": "address payable",
              "name": "distributorID",
              "type": "address"
            },
            {
              "internalType": "address payable",
              "name": "retailerID",
              "type": "address"
            },
            {
              "internalType": "address payable",
              "name": "consumerID",
              "type": "address"
            },
            {
              "internalType": "string",
              "name": "originFarmName",
              "type": "string"
            },
            {
              "internalType": "string",
              "name": "originFarmMetadata",
              "type": "string"
            },
            {
              "internalType": "string",
              "name": "originFarmLatitude",
              "type": "string"
            },
            {
              "internalType": "string",
              "name": "originFarmLongitude",
              "type": "string"
            },
            {
              "internalType": "enum SupplyChain.State",
              "name": "itemState",
              "type": "uint8"
            }
          ],
          "internalType": "struct SupplyChain.Item[]",
          "name": "",
          "type": "tuple[]"
        }
      ],
      "stateMutability": "view",
      "type": "function"
    },
    {
      "inputs": [],
      "name": "fetchConsumerItems",
      "outputs": [
        {
          "components": [
            {
              "internalType": "uint256",
              "name": "sku",
              "type": "uint256"
            },
            {
              "internalType": "uint256",
              "name": "upc",
              "type": "uint256"
            },
            {
              "internalType": "uint256",
              "name": "productID",
              "type": "uint256"
            },
            {
              "internalType": "uint256",
              "name": "productPrice",
              "type": "uint256"
            },
            {
              "internalType": "string",
              "name": "productMetadata",
              "type": "string"
            },
            {
              "internalType": "address payable",
              "name": "ownerID",
              "type": "address"
            },
            {
              "internalType": "address payable",
              "name": "originFarmerID",
              "type": "address"
            },
            {
              "internalType": "address payable",
              "name": "distributorID",
              "type": "address"
            },
            {
              "internalType": "address payable",
              "name": "retailerID",
              "type": "address"
            },
            {
              "internalType": "address payable",
              "name": "consumerID",
              "type": "address"
            },
            {
              "internalType": "string",
              "name": "originFarmName",
              "type": "string"
            },
            {
              "internalType": "string",
              "name": "originFarmMetadata",
              "type": "string"
            },
            {
              "internalType": "string",
              "name": "originFarmLatitude",
              "type": "string"
            },
            {
              "internalType": "string",
              "name": "originFarmLongitude",
              "type": "string"
            },
            {
              "internalType": "enum SupplyChain.State",
              "name": "itemState",
              "type": "uint8"
            }
          ],
          "internalType": "struct SupplyChain.Item[]",
          "name": "",
          "type": "tuple[]"
        }
      ],
      "stateMutability": "view",
      "type": "function"
    },
    {
      "inputs": [
        {
          "internalType": "uint256",
          "name": "_upc",
          "type": "uint256"
        }
      ],
      "name": "fetchCurrentPrice",
      "outputs": [
        {
          "internalType": "uint256",
          "name": "price",
          "type": "uint256"
        }
      ],
      "stateMutability": "view",
      "type": "function"
    },
    {
      "inputs": [
        {
          "internalType": "uint256",
          "name": "_upc",
          "type": "uint256"
        }
      ],
      "name": "fetchCurrentState",
      "outputs": [
        {
          "internalType": "uint256",
          "name": "itemState",
          "type": "uint256"
        }
      ],
      "stateMutability": "view",
      "type": "function"
    },
    {
      "inputs": [],
      "name": "fetchDistroItems",
      "outputs": [
        {
          "components": [
            {
              "internalType": "uint256",
              "name": "sku",
              "type": "uint256"
            },
            {
              "internalType": "uint256",
              "name": "upc",
              "type": "uint256"
            },
            {
              "internalType": "uint256",
              "name": "productID",
              "type": "uint256"
            },
            {
              "internalType": "uint256",
              "name": "productPrice",
              "type": "uint256"
            },
            {
              "internalType": "string",
              "name": "productMetadata",
              "type": "string"
            },
            {
              "internalType": "address payable",
              "name": "ownerID",
              "type": "address"
            },
            {
              "internalType": "address payable",
              "name": "originFarmerID",
              "type": "address"
            },
            {
              "internalType": "address payable",
              "name": "distributorID",
              "type": "address"
            },
            {
              "internalType": "address payable",
              "name": "retailerID",
              "type": "address"
            },
            {
              "internalType": "address payable",
              "name": "consumerID",
              "type": "address"
            },
            {
              "internalType": "string",
              "name": "originFarmName",
              "type": "string"
            },
            {
              "internalType": "string",
              "name": "originFarmMetadata",
              "type": "string"
            },
            {
              "internalType": "string",
              "name": "originFarmLatitude",
              "type": "string"
            },
            {
              "internalType": "string",
              "name": "originFarmLongitude",
              "type": "string"
            },
            {
              "internalType": "enum SupplyChain.State",
              "name": "itemState",
              "type": "uint8"
            }
          ],
          "internalType": "struct SupplyChain.Item[]",
          "name": "",
          "type": "tuple[]"
        }
      ],
      "stateMutability": "view",
      "type": "function"
    },
    {
      "inputs": [],
      "name": "fetchFarmerItems",
      "outputs": [
        {
          "components": [
            {
              "internalType": "uint256",
              "name": "sku",
              "type": "uint256"
            },
            {
              "internalType": "uint256",
              "name": "upc",
              "type": "uint256"
            },
            {
              "internalType": "uint256",
              "name": "productID",
              "type": "uint256"
            },
            {
              "internalType": "uint256",
              "name": "productPrice",
              "type": "uint256"
            },
            {
              "internalType": "string",
              "name": "productMetadata",
              "type": "string"
            },
            {
              "internalType": "address payable",
              "name": "ownerID",
              "type": "address"
            },
            {
              "internalType": "address payable",
              "name": "originFarmerID",
              "type": "address"
            },
            {
              "internalType": "address payable",
              "name": "distributorID",
              "type": "address"
            },
            {
              "internalType": "address payable",
              "name": "retailerID",
              "type": "address"
            },
            {
              "internalType": "address payable",
              "name": "consumerID",
              "type": "address"
            },
            {
              "internalType": "string",
              "name": "originFarmName",
              "type": "string"
            },
            {
              "internalType": "string",
              "name": "originFarmMetadata",
              "type": "string"
            },
            {
              "internalType": "string",
              "name": "originFarmLatitude",
              "type": "string"
            },
            {
              "internalType": "string",
              "name": "originFarmLongitude",
              "type": "string"
            },
            {
              "internalType": "enum SupplyChain.State",
              "name": "itemState",
              "type": "uint8"
            }
          ],
          "internalType": "struct SupplyChain.Item[]",
          "name": "",
          "type": "tuple[]"
        }
      ],
      "stateMutability": "view",
      "type": "function"
    },
    {
      "inputs": [
        {
          "internalType": "uint256",
          "name": "_upc",
          "type": "uint256"
        }
      ],
      "name": "fetchItemHashes",
      "outputs": [
        {
          "components": [
            {
              "internalType": "uint256",
              "name": "upc",
              "type": "uint256"
            },
            {
              "internalType": "bytes32",
              "name": "harvestedHash",
              "type": "bytes32"
            },
            {
              "internalType": "bytes32",
              "name": "sellToDistHash",
              "type": "bytes32"
            },
            {
              "internalType": "bytes32",
              "name": "buyAsDistHash",
              "type": "bytes32"
            },
            {
              "internalType": "bytes32",
              "name": "sellToRetailHash",
              "type": "bytes32"
            },
            {
              "internalType": "bytes32",
              "name": "buyAsRetailHash",
              "type": "bytes32"
            },
            {
              "internalType": "bytes32",
              "name": "sellToConsumerHash",
              "type": "bytes32"
            },
            {
              "internalType": "bytes32",
              "name": "buyAsConsumerHash",
              "type": "bytes32"
            }
          ],
          "internalType": "struct SupplyChain.TraceHash[]",
          "name": "",
          "type": "tuple[]"
        }
      ],
      "stateMutability": "view",
      "type": "function"
    },
    {
      "inputs": [],
      "name": "fetchItems",
      "outputs": [
        {
          "components": [
            {
              "internalType": "uint256",
              "name": "sku",
              "type": "uint256"
            },
            {
              "internalType": "uint256",
              "name": "upc",
              "type": "uint256"
            },
            {
              "internalType": "uint256",
              "name": "productID",
              "type": "uint256"
            },
            {
              "internalType": "uint256",
              "name": "productPrice",
              "type": "uint256"
            },
            {
              "internalType": "string",
              "name": "productMetadata",
              "type": "string"
            },
            {
              "internalType": "address payable",
              "name": "ownerID",
              "type": "address"
            },
            {
              "internalType": "address payable",
              "name": "originFarmerID",
              "type": "address"
            },
            {
              "internalType": "address payable",
              "name": "distributorID",
              "type": "address"
            },
            {
              "internalType": "address payable",
              "name": "retailerID",
              "type": "address"
            },
            {
              "internalType": "address payable",
              "name": "consumerID",
              "type": "address"
            },
            {
              "internalType": "string",
              "name": "originFarmName",
              "type": "string"
            },
            {
              "internalType": "string",
              "name": "originFarmMetadata",
              "type": "string"
            },
            {
              "internalType": "string",
              "name": "originFarmLatitude",
              "type": "string"
            },
            {
              "internalType": "string",
              "name": "originFarmLongitude",
              "type": "string"
            },
            {
              "internalType": "enum SupplyChain.State",
              "name": "itemState",
              "type": "uint8"
            }
          ],
          "internalType": "struct SupplyChain.Item[]",
          "name": "",
          "type": "tuple[]"
        }
      ],
      "stateMutability": "view",
      "type": "function"
    },
    {
      "inputs": [],
      "name": "fetchRetailerItems",
      "outputs": [
        {
          "components": [
            {
              "internalType": "uint256",
              "name": "sku",
              "type": "uint256"
            },
            {
              "internalType": "uint256",
              "name": "upc",
              "type": "uint256"
            },
            {
              "internalType": "uint256",
              "name": "productID",
              "type": "uint256"
            },
            {
              "internalType": "uint256",
              "name": "productPrice",
              "type": "uint256"
            },
            {
              "internalType": "string",
              "name": "productMetadata",
              "type": "string"
            },
            {
              "internalType": "address payable",
              "name": "ownerID",
              "type": "address"
            },
            {
              "internalType": "address payable",
              "name": "originFarmerID",
              "type": "address"
            },
            {
              "internalType": "address payable",
              "name": "distributorID",
              "type": "address"
            },
            {
              "internalType": "address payable",
              "name": "retailerID",
              "type": "address"
            },
            {
              "internalType": "address payable",
              "name": "consumerID",
              "type": "address"
            },
            {
              "internalType": "string",
              "name": "originFarmName",
              "type": "string"
            },
            {
              "internalType": "string",
              "name": "originFarmMetadata",
              "type": "string"
            },
            {
              "internalType": "string",
              "name": "originFarmLatitude",
              "type": "string"
            },
            {
              "internalType": "string",
              "name": "originFarmLongitude",
              "type": "string"
            },
            {
              "internalType": "enum SupplyChain.State",
              "name": "itemState",
              "type": "uint8"
            }
          ],
          "internalType": "struct SupplyChain.Item[]",
          "name": "",
          "type": "tuple[]"
        }
      ],
      "stateMutability": "view",
      "type": "function"
    },
    {
      "inputs": [
        {
          "internalType": "string",
          "name": "_originFarmName",
          "type": "string"
        },
        {
          "internalType": "string",
          "name": "_originFarmMetadata",
          "type": "string"
        },
        {
          "internalType": "string",
          "name": "_originFarmLatitude",
          "type": "string"
        },
        {
          "internalType": "string",
          "name": "_originFarmLongitude",
          "type": "string"
        },
        {
          "internalType": "string",
          "name": "_productMetadata",
          "type": "string"
        },
        {
          "internalType": "uint256",
          "name": "_productPrice",
          "type": "uint256"
        }
      ],
      "name": "harvestItem",
      "outputs": [],
      "stateMutability": "nonpayable",
      "type": "function"
    },
    {
      "inputs": [
        {
          "internalType": "address",
          "name": "account",
          "type": "address"
        }
      ],
      "name": "isConsumer",
      "outputs": [
        {
          "internalType": "bool",
          "name": "",
          "type": "bool"
        }
      ],
      "stateMutability": "view",
      "type": "function"
    },
    {
      "inputs": [
        {
          "internalType": "address",
          "name": "account",
          "type": "address"
        }
      ],
      "name": "isDistributor",
      "outputs": [
        {
          "internalType": "bool",
          "name": "",
          "type": "bool"
        }
      ],
      "stateMutability": "view",
      "type": "function"
    },
    {
      "inputs": [
        {
          "internalType": "address",
          "name": "account",
          "type": "address"
        }
      ],
      "name": "isFarmer",
      "outputs": [
        {
          "internalType": "bool",
          "name": "",
          "type": "bool"
        }
      ],
      "stateMutability": "view",
      "type": "function"
    },
    {
      "inputs": [
        {
          "internalType": "address",
          "name": "account",
          "type": "address"
        }
      ],
      "name": "isRetailer",
      "outputs": [
        {
          "internalType": "bool",
          "name": "",
          "type": "bool"
        }
      ],
      "stateMutability": "view",
      "type": "function"
    },
    {
      "inputs": [],
      "name": "kill",
      "outputs": [],
      "stateMutability": "nonpayable",
      "type": "function"
    },
    {
      "inputs": [],
      "name": "owner",
      "outputs": [
        {
          "internalType": "address payable",
          "name": "",
          "type": "address"
        }
      ],
      "stateMutability": "view",
      "type": "function"
    },
    {
      "inputs": [],
      "name": "renounceConsumer",
      "outputs": [],
      "stateMutability": "nonpayable",
      "type": "function"
    },
    {
      "inputs": [],
      "name": "renounceDistributor",
      "outputs": [],
      "stateMutability": "nonpayable",
      "type": "function"
    },
    {
      "inputs": [],
      "name": "renounceFarmer",
      "outputs": [],
      "stateMutability": "nonpayable",
      "type": "function"
    },
    {
      "inputs": [],
      "name": "renounceRetailer",
      "outputs": [],
      "stateMutability": "nonpayable",
      "type": "function"
    },
    {
      "inputs": [],
      "name": "sku",
      "outputs": [
        {
          "internalType": "uint256",
          "name": "_value",
          "type": "uint256"
        }
      ],
      "stateMutability": "view",
      "type": "function"
    },
    {
      "inputs": [],
      "name": "upc",
      "outputs": [
        {
          "internalType": "uint256",
          "name": "_value",
          "type": "uint256"
        }
      ],
      "stateMutability": "view",
      "type": "function"
    }
  ],
  "bytecode": "0x60806040523480156200001157600080fd5b506200001d3362000056565b6200002833620000a8565b6200003333620000fa565b6200003e336200014c565b600480546001600160a01b03191633179055620002f4565b620000718160006200019e60201b620043361790919060201c565b6040516001600160a01b038216907f2e0ded4123377a3c2bc9a26f1717655a129e2f20752924d42e730ec89c83dbd090600090a250565b620000c38160016200019e60201b620043361790919060201c565b6040516001600160a01b038216907fddbf200aa634dc3fb81cfd68583dd1040d1c751d335e1d86b631bde3e977fea890600090a250565b620001158160026200019e60201b620043361790919060201c565b6040516001600160a01b038216907f71ae26cad02663e3d92efd6ec56031a80d74a20c0ab4183faa8bf262261c9baa90600090a250565b620001678160036200019e60201b620043361790919060201c565b6040516001600160a01b038216907f28b26e7a3d20aedbc5f8f2ebf7da671c0491723a2b78f47a097b0e46dee0714290600090a250565b6001600160a01b038116620001fa5760405162461bcd60e51b815260206004820152601560248201527f494e56414c49443a20444541442041646472657373000000000000000000000060448201526064015b60405180910390fd5b6200020682826200027a565b15620002555760405162461bcd60e51b815260206004820152601a60248201527f494e56414c49443a204163636f756e74204861766520526f6c650000000000006044820152606401620001f1565b6001600160a01b0316600090815260209190915260409020805460ff19166001179055565b60006001600160a01b038216620002d45760405162461bcd60e51b815260206004820152601560248201527f494e56414c49443a2044454144204164647265737300000000000000000000006044820152606401620001f1565b506001600160a01b03166000908152602091909152604090205460ff1690565b61525e80620003046000396000f3fe6080604052600436106101d85760003560e01c806380fc0ce411610102578063a3f9b03811610095578063b942906911610064578063b9429069146104e8578063db0e6a2f14610508578063df8627f51461051d578063f3b1cde81461053d57600080fd5b8063a3f9b03814610487578063ac2db09d1461049c578063ad78ba7b146104b3578063b0689d70146104c857600080fd5b80638ec4f505116100d15780638ec4f505146104055780638f0c86fa14610425578063930aff2f14610445578063a3887f9e1461045a57600080fd5b806380fc0ce414610383578063834ff739146103985780638588d026146103b85780638da5cb5b146103cd57600080fd5b80634fde17911161017a5780637250e224116101495780637250e2241461030e57806378db2f7a1461032e5780637c0b4ab11461034357806380c3f96d1461036357600080fd5b80634fde1791146102a15780635da09b88146102b457806361e6982d146102e4578063644241db146102f957600080fd5b806343baca1e116101b657806343baca1e1461023f5780634462f40c146102525780634671e7fb146102775780634a72a3641461028c57600080fd5b806301a390b1146101dd578063112940f91461020857806341c0e1b51461022a575b600080fd5b3480156101e957600080fd5b506101f2610550565b6040516101ff9190614eaa565b60405180910390f35b34801561021457600080fd5b50610228610223366004614cfd565b610abb565b005b34801561023657600080fd5b50610228610ac7565b61022861024d366004614e19565b610b2c565b34801561025e57600080fd5b506006546102699081565b6040519081526020016101ff565b34801561028357600080fd5b506101f2610d00565b34801561029857600080fd5b506101f2611229565b6102286102af366004614e19565b61178b565b3480156102c057600080fd5b506102d46102cf366004614cfd565b61193f565b60405190151581526020016101ff565b3480156102f057600080fd5b50610228611952565b34801561030557600080fd5b506102286119b2565b34801561031a57600080fd5b50610228610329366004614cfd565b611a10565b34801561033a57600080fd5b506101f2611a19565b34801561034f57600080fd5b5061026961035e366004614e00565b611f42565b34801561036f57600080fd5b5061022861037e366004614cfd565b612301565b34801561038f57600080fd5b5061022861230a565b3480156103a457600080fd5b506102d46103b3366004614cfd565b612360565b3480156103c457600080fd5b506101f261236d565b3480156103d957600080fd5b506004546103ed906001600160a01b031681565b6040516001600160a01b0390911681526020016101ff565b34801561041157600080fd5b50610228610420366004614cfd565b612896565b34801561043157600080fd5b506102d4610440366004614cfd565b61289f565b34801561045157600080fd5b506101f26128ac565b34801561046657600080fd5b5061047a610475366004614e00565b612dd5565b6040516101ff9190615023565b34801561049357600080fd5b506101f2612f66565b3480156104a857600080fd5b506005546102699081565b3480156104bf57600080fd5b506101f26134c8565b3480156104d457600080fd5b506102696104e3366004614e00565b613962565b3480156104f457600080fd5b506102d4610503366004614cfd565b613d0b565b34801561051457600080fd5b50610228613d17565b34801561052957600080fd5b50610228610538366004614d26565b613d75565b61022861054b366004614e00565b61412a565b6060600061055d60065490565b905060008060005b838110156105f757600060078161057d84600161514b565b81526020810191909152604001600020600601546001600160a01b0316148015906105d2575060006007816105b384600161514b565b81526020810191909152604001600020600701546001600160a01b0316145b156105e5576105e260018461514b565b92505b806105ef816151b5565b915050610565565b5060008267ffffffffffffffff81111561061357610613615212565b60405190808252806020026020018201604052801561064c57816020015b610639614b24565b8152602001906001900390816106315790505b50905060005b838111610ab257600060078161066984600161514b565b81526020810191909152604001600020600601546001600160a01b0316148015906106be5750600060078161069f84600161514b565b81526020810191909152604001600020600701546001600160a01b0316145b15610aa05760006106d082600161514b565b9050600060076000838152602001908152602001600020905080604051806101e00160405290816000820154815260200160018201548152602001600282015481526020016003820154815260200160048201805461072e9061517a565b80601f016020809104026020016040519081016040528092919081815260200182805461075a9061517a565b80156107a75780601f1061077c576101008083540402835291602001916107a7565b820191906000526020600020905b81548152906001019060200180831161078a57829003601f168201915b505050918352505060058201546001600160a01b03908116602083015260068301548116604083015260078301548116606083015260088301548116608083015260098301541660a0820152600a8201805460c0909201916108089061517a565b80601f01602080910402602001604051908101604052809291908181526020018280546108349061517a565b80156108815780601f1061085657610100808354040283529160200191610881565b820191906000526020600020905b81548152906001019060200180831161086457829003601f168201915b50505050508152602001600b8201805461089a9061517a565b80601f01602080910402602001604051908101604052809291908181526020018280546108c69061517a565b80156109135780601f106108e857610100808354040283529160200191610913565b820191906000526020600020905b8154815290600101906020018083116108f657829003601f168201915b50505050508152602001600c8201805461092c9061517a565b80601f01602080910402602001604051908101604052809291908181526020018280546109589061517a565b80156109a55780601f1061097a576101008083540402835291602001916109a5565b820191906000526020600020905b81548152906001019060200180831161098857829003601f168201915b50505050508152602001600d820180546109be9061517a565b80601f01602080910402602001604051908101604052809291908181526020018280546109ea9061517a565b8015610a375780601f10610a0c57610100808354040283529160200191610a37565b820191906000526020600020905b815481529060010190602001808311610a1a57829003601f168201915b5050509183525050600e82015460209091019060ff166007811115610a5e57610a5e6151e6565b6007811115610a6f57610a6f6151e6565b81525050848681518110610a8557610a856151fc565b6020908102919091010152610a9b60018661514b565b945050505b80610aaa816151b5565b915050610652565b50949350505050565b610ac4816143d8565b50565b6004546001600160a01b03163314610b1e5760405162461bcd60e51b8152602060048201526015602482015274125395905312510e88155b985d5d1a1bdc9a5e9959605a1b60448201526064015b60405180910390fd5b6004546001600160a01b0316ff5b8160026000828152600760208190526040909120600e015460ff1690811115610b5757610b576151e6565b14610b745760405162461bcd60e51b8152600401610b15906150b0565b6000838152600760205260409020600601546001600160a01b0316331415610bde5760405162461bcd60e51b815260206004820152601d60248201527f52657461696c657249442063616e6e6f742062652044697374726f49440000006044820152606401610b15565b6000838152600760205260409020600301543414610c0e5760405162461bcd60e51b8152600401610b15906150e5565b600083815260076020526040902060080180546001600160a01b03191633179055610c3a600143615163565b600084815260086020908152604080832093406005909401939093556007908190528282209081015460039091015492516001600160a01b039091169280156108fc0292909190818181858888f19350505050158015610c9e573d6000803e3d6000fd5b50610ca9838361441a565b610cb23361193f565b610cbf57610cbf33612896565b610cc8836144aa565b6040518381527f54dafe9ea34c9448f0b09cec86e7ede9744e44adedf54b15e3ad40a0942f2fb99060200160405180910390a1505050565b60606000610d0d60065490565b905060008060005b83811015610d70573360076000610d2d84600161514b565b81526020810191909152604001600020600701546001600160a01b03161415610d5e57610d5b60018461514b565b92505b80610d68816151b5565b915050610d15565b5060008267ffffffffffffffff811115610d8c57610d8c615212565b604051908082528060200260200182016040528015610dc557816020015b610db2614b24565b815260200190600190039081610daa5790505b50905060005b838111610ab2573360076000610de284600161514b565b81526020810191909152604001600020600701546001600160a01b03161480610e3557503360076000610e1684600161514b565b81526020810191909152604001600020600501546001600160a01b0316145b15611217576000610e4782600161514b565b9050600060076000838152602001908152602001600020905080604051806101e001604052908160008201548152602001600182015481526020016002820154815260200160038201548152602001600482018054610ea59061517a565b80601f0160208091040260200160405190810160405280929190818152602001828054610ed19061517a565b8015610f1e5780601f10610ef357610100808354040283529160200191610f1e565b820191906000526020600020905b815481529060010190602001808311610f0157829003601f168201915b505050918352505060058201546001600160a01b03908116602083015260068301548116604083015260078301548116606083015260088301548116608083015260098301541660a0820152600a8201805460c090920191610f7f9061517a565b80601f0160208091040260200160405190810160405280929190818152602001828054610fab9061517a565b8015610ff85780601f10610fcd57610100808354040283529160200191610ff8565b820191906000526020600020905b815481529060010190602001808311610fdb57829003601f168201915b50505050508152602001600b820180546110119061517a565b80601f016020809104026020016040519081016040528092919081815260200182805461103d9061517a565b801561108a5780601f1061105f5761010080835404028352916020019161108a565b820191906000526020600020905b81548152906001019060200180831161106d57829003601f168201915b50505050508152602001600c820180546110a39061517a565b80601f01602080910402602001604051908101604052809291908181526020018280546110cf9061517a565b801561111c5780601f106110f15761010080835404028352916020019161111c565b820191906000526020600020905b8154815290600101906020018083116110ff57829003601f168201915b50505050508152602001600d820180546111359061517a565b80601f01602080910402602001604051908101604052809291908181526020018280546111619061517a565b80156111ae5780601f10611183576101008083540402835291602001916111ae565b820191906000526020600020905b81548152906001019060200180831161119157829003601f168201915b5050509183525050600e82015460209091019060ff1660078111156111d5576111d56151e6565b60078111156111e6576111e66151e6565b815250508486815181106111fc576111fc6151fc565b602090810291909101015261121260018661514b565b945050505b80611221816151b5565b915050610dcb565b6060600061123660065490565b905060008060005b838110156112d057600060078161125684600161514b565b81526020810191909152604001600020600701546001600160a01b0316148015906112ab5750600060078161128c84600161514b565b81526020810191909152604001600020600801546001600160a01b0316145b156112be576112bb60018461514b565b92505b806112c8816151b5565b91505061123e565b5060008267ffffffffffffffff8111156112ec576112ec615212565b60405190808252806020026020018201604052801561132557816020015b611312614b24565b81526020019060019003908161130a5790505b50905060005b838111610ab257600060078161134284600161514b565b81526020810191909152604001600020600701546001600160a01b0316148015906113975750600060078161137884600161514b565b81526020810191909152604001600020600801546001600160a01b0316145b156117795760006113a982600161514b565b9050600060076000838152602001908152602001600020905080604051806101e0016040529081600082015481526020016001820154815260200160028201548152602001600382015481526020016004820180546114079061517a565b80601f01602080910402602001604051908101604052809291908181526020018280546114339061517a565b80156114805780601f1061145557610100808354040283529160200191611480565b820191906000526020600020905b81548152906001019060200180831161146357829003601f168201915b505050918352505060058201546001600160a01b03908116602083015260068301548116604083015260078301548116606083015260088301548116608083015260098301541660a0820152600a8201805460c0909201916114e19061517a565b80601f016020809104026020016040519081016040528092919081815260200182805461150d9061517a565b801561155a5780601f1061152f5761010080835404028352916020019161155a565b820191906000526020600020905b81548152906001019060200180831161153d57829003601f168201915b50505050508152602001600b820180546115739061517a565b80601f016020809104026020016040519081016040528092919081815260200182805461159f9061517a565b80156115ec5780601f106115c1576101008083540402835291602001916115ec565b820191906000526020600020905b8154815290600101906020018083116115cf57829003601f168201915b50505050508152602001600c820180546116059061517a565b80601f01602080910402602001604051908101604052809291908181526020018280546116319061517a565b801561167e5780601f106116535761010080835404028352916020019161167e565b820191906000526020600020905b81548152906001019060200180831161166157829003601f168201915b50505050508152602001600d820180546116979061517a565b80601f01602080910402602001604051908101604052809291908181526020018280546116c39061517a565b80156117105780601f106116e557610100808354040283529160200191611710565b820191906000526020600020905b8154815290600101906020018083116116f357829003601f168201915b5050509183525050600e82015460209091019060ff166007811115611737576117376151e6565b6007811115611748576117486151e6565b8152505084868151811061175e5761175e6151fc565b602090810291909101015261177460018661514b565b945050505b80611783816151b5565b91505061132b565b6000828152600760205260409020600601546001600160a01b03163314156117f55760405162461bcd60e51b815260206004820181905260248201527f4469737472696275746f7249442063616e6e6f74206265206661726d657249446044820152606401610b15565b60008281526007602052604090206003015434146118255760405162461bcd60e51b8152600401610b15906150e5565b60008281526007602081905260409091206005810180546001600160a01b031990811633908117909255928201805490931617909155600e8101805460ff1916600217905560030181905561187b600143615163565b6000838152600860205260409020904060039091015561189a3361289f565b6118a7576118a733611a10565b6000828152600760205260408082206006015490516001600160a01b03909116913480156108fc02929091818181858888f193505050501580156118ef573d6000803e3d6000fd5b50600082815260076020908152604091829020600301548251858152918201527f4800dc7afcf4dcadc2087f50ea552fbba15fa8eb54795438666c4062dd23e42191015b60405180910390a15050565b600061194c600283614585565b92915050565b61195b33612360565b6119a75760405162461bcd60e51b815260206004820152601760248201527f494e56414c49443a204e6f74206120436f6e73756d65720000000000000000006044820152606401610b15565b6119b0336145cd565b565b6119bb3361289f565b611a075760405162461bcd60e51b815260206004820152601a60248201527f494e56414c49443a204e6f742061204469737472696275746f720000000000006044820152606401610b15565b6119b03361460f565b610ac481614651565b60606000611a2660065490565b905060008060005b83811015611a89573360076000611a4684600161514b565b81526020810191909152604001600020600601546001600160a01b03161415611a7757611a7460018461514b565b92505b80611a81816151b5565b915050611a2e565b5060008267ffffffffffffffff811115611aa557611aa5615212565b604051908082528060200260200182016040528015611ade57816020015b611acb614b24565b815260200190600190039081611ac35790505b50905060005b838111610ab2573360076000611afb84600161514b565b81526020810191909152604001600020600601546001600160a01b03161480611b4e57503360076000611b2f84600161514b565b81526020810191909152604001600020600501546001600160a01b0316145b15611f30576000611b6082600161514b565b9050600060076000838152602001908152602001600020905080604051806101e001604052908160008201548152602001600182015481526020016002820154815260200160038201548152602001600482018054611bbe9061517a565b80601f0160208091040260200160405190810160405280929190818152602001828054611bea9061517a565b8015611c375780601f10611c0c57610100808354040283529160200191611c37565b820191906000526020600020905b815481529060010190602001808311611c1a57829003601f168201915b505050918352505060058201546001600160a01b03908116602083015260068301548116604083015260078301548116606083015260088301548116608083015260098301541660a0820152600a8201805460c090920191611c989061517a565b80601f0160208091040260200160405190810160405280929190818152602001828054611cc49061517a565b8015611d115780601f10611ce657610100808354040283529160200191611d11565b820191906000526020600020905b815481529060010190602001808311611cf457829003601f168201915b50505050508152602001600b82018054611d2a9061517a565b80601f0160208091040260200160405190810160405280929190818152602001828054611d569061517a565b8015611da35780601f10611d7857610100808354040283529160200191611da3565b820191906000526020600020905b815481529060010190602001808311611d8657829003601f168201915b50505050508152602001600c82018054611dbc9061517a565b80601f0160208091040260200160405190810160405280929190818152602001828054611de89061517a565b8015611e355780601f10611e0a57610100808354040283529160200191611e35565b820191906000526020600020905b815481529060010190602001808311611e1857829003601f168201915b50505050508152602001600d82018054611e4e9061517a565b80601f0160208091040260200160405190810160405280929190818152602001828054611e7a9061517a565b8015611ec75780601f10611e9c57610100808354040283529160200191611ec7565b820191906000526020600020905b815481529060010190602001808311611eaa57829003601f168201915b5050509183525050600e82015460209091019060ff166007811115611eee57611eee6151e6565b6007811115611eff57611eff6151e6565b81525050848681518110611f1557611f156151fc565b6020908102919091010152611f2b60018661514b565b945050505b80611f3a816151b5565b915050611ae4565b60008060076000848152602001908152602001600020604051806101e001604052908160008201548152602001600182015481526020016002820154815260200160038201548152602001600482018054611f9c9061517a565b80601f0160208091040260200160405190810160405280929190818152602001828054611fc89061517a565b80156120155780601f10611fea57610100808354040283529160200191612015565b820191906000526020600020905b815481529060010190602001808311611ff857829003601f168201915b505050918352505060058201546001600160a01b03908116602083015260068301548116604083015260078301548116606083015260088301548116608083015260098301541660a0820152600a8201805460c0909201916120769061517a565b80601f01602080910402602001604051908101604052809291908181526020018280546120a29061517a565b80156120ef5780601f106120c4576101008083540402835291602001916120ef565b820191906000526020600020905b8154815290600101906020018083116120d257829003601f168201915b50505050508152602001600b820180546121089061517a565b80601f01602080910402602001604051908101604052809291908181526020018280546121349061517a565b80156121815780601f1061215657610100808354040283529160200191612181565b820191906000526020600020905b81548152906001019060200180831161216457829003601f168201915b50505050508152602001600c8201805461219a9061517a565b80601f01602080910402602001604051908101604052809291908181526020018280546121c69061517a565b80156122135780601f106121e857610100808354040283529160200191612213565b820191906000526020600020905b8154815290600101906020018083116121f657829003601f168201915b50505050508152602001600d8201805461222c9061517a565b80601f01602080910402602001604051908101604052809291908181526020018280546122589061517a565b80156122a55780601f1061227a576101008083540402835291602001916122a5565b820191906000526020600020905b81548152906001019060200180831161228857829003601f168201915b5050509183525050600e82015460209091019060ff1660078111156122cc576122cc6151e6565b60078111156122dd576122dd6151e6565b815250509050806101c0015160078111156122fa576122fa6151e6565b9392505050565b610ac481614693565b61231333613d0b565b6123575760405162461bcd60e51b815260206004820152601560248201527424a72b20a624a21d102737ba1030902330b936b2b960591b6044820152606401610b15565b6119b0336146d5565b600061194c600383614585565b6060600061237a60065490565b905060008060005b838110156123dd57336007600061239a84600161514b565b81526020810191909152604001600020600801546001600160a01b031614156123cb576123c860018461514b565b92505b806123d5816151b5565b915050612382565b5060008267ffffffffffffffff8111156123f9576123f9615212565b60405190808252806020026020018201604052801561243257816020015b61241f614b24565b8152602001906001900390816124175790505b50905060005b838111610ab257336007600061244f84600161514b565b81526020810191909152604001600020600801546001600160a01b031614806124a25750336007600061248384600161514b565b81526020810191909152604001600020600501546001600160a01b0316145b156128845760006124b482600161514b565b9050600060076000838152602001908152602001600020905080604051806101e0016040529081600082015481526020016001820154815260200160028201548152602001600382015481526020016004820180546125129061517a565b80601f016020809104026020016040519081016040528092919081815260200182805461253e9061517a565b801561258b5780601f106125605761010080835404028352916020019161258b565b820191906000526020600020905b81548152906001019060200180831161256e57829003601f168201915b505050918352505060058201546001600160a01b03908116602083015260068301548116604083015260078301548116606083015260088301548116608083015260098301541660a0820152600a8201805460c0909201916125ec9061517a565b80601f01602080910402602001604051908101604052809291908181526020018280546126189061517a565b80156126655780601f1061263a57610100808354040283529160200191612665565b820191906000526020600020905b81548152906001019060200180831161264857829003601f168201915b50505050508152602001600b8201805461267e9061517a565b80601f01602080910402602001604051908101604052809291908181526020018280546126aa9061517a565b80156126f75780601f106126cc576101008083540402835291602001916126f7565b820191906000526020600020905b8154815290600101906020018083116126da57829003601f168201915b50505050508152602001600c820180546127109061517a565b80601f016020809104026020016040519081016040528092919081815260200182805461273c9061517a565b80156127895780601f1061275e57610100808354040283529160200191612789565b820191906000526020600020905b81548152906001019060200180831161276c57829003601f168201915b50505050508152602001600d820180546127a29061517a565b80601f01602080910402602001604051908101604052809291908181526020018280546127ce9061517a565b801561281b5780601f106127f05761010080835404028352916020019161281b565b820191906000526020600020905b8154815290600101906020018083116127fe57829003601f168201915b5050509183525050600e82015460209091019060ff166007811115612842576128426151e6565b6007811115612853576128536151e6565b81525050848681518110612869576128696151fc565b602090810291909101015261287f60018661514b565b945050505b8061288e816151b5565b915050612438565b610ac481614717565b600061194c600183614585565b606060006128b960065490565b905060008060005b8381101561291c5733600760006128d984600161514b565b81526020810191909152604001600020600901546001600160a01b0316141561290a5761290760018461514b565b92505b80612914816151b5565b9150506128c1565b5060008267ffffffffffffffff81111561293857612938615212565b60405190808252806020026020018201604052801561297157816020015b61295e614b24565b8152602001906001900390816129565790505b50905060005b838111610ab257336007600061298e84600161514b565b81526020810191909152604001600020600901546001600160a01b031614806129e1575033600760006129c284600161514b565b81526020810191909152604001600020600501546001600160a01b0316145b15612dc35760006129f382600161514b565b9050600060076000838152602001908152602001600020905080604051806101e001604052908160008201548152602001600182015481526020016002820154815260200160038201548152602001600482018054612a519061517a565b80601f0160208091040260200160405190810160405280929190818152602001828054612a7d9061517a565b8015612aca5780601f10612a9f57610100808354040283529160200191612aca565b820191906000526020600020905b815481529060010190602001808311612aad57829003601f168201915b505050918352505060058201546001600160a01b03908116602083015260068301548116604083015260078301548116606083015260088301548116608083015260098301541660a0820152600a8201805460c090920191612b2b9061517a565b80601f0160208091040260200160405190810160405280929190818152602001828054612b579061517a565b8015612ba45780601f10612b7957610100808354040283529160200191612ba4565b820191906000526020600020905b815481529060010190602001808311612b8757829003601f168201915b50505050508152602001600b82018054612bbd9061517a565b80601f0160208091040260200160405190810160405280929190818152602001828054612be99061517a565b8015612c365780601f10612c0b57610100808354040283529160200191612c36565b820191906000526020600020905b815481529060010190602001808311612c1957829003601f168201915b50505050508152602001600c82018054612c4f9061517a565b80601f0160208091040260200160405190810160405280929190818152602001828054612c7b9061517a565b8015612cc85780601f10612c9d57610100808354040283529160200191612cc8565b820191906000526020600020905b815481529060010190602001808311612cab57829003601f168201915b50505050508152602001600d82018054612ce19061517a565b80601f0160208091040260200160405190810160405280929190818152602001828054612d0d9061517a565b8015612d5a5780601f10612d2f57610100808354040283529160200191612d5a565b820191906000526020600020905b815481529060010190602001808311612d3d57829003601f168201915b5050509183525050600e82015460209091019060ff166007811115612d8157612d816151e6565b6007811115612d9257612d926151e6565b81525050848681518110612da857612da86151fc565b6020908102919091010152612dbe60018661514b565b945050505b80612dcd816151b5565b915050612977565b60606000612de260065490565b90506000808267ffffffffffffffff811115612e0057612e00615212565b604051908082528060200260200182016040528015612e6f57816020015b604080516101008101825260008082526020808301829052928201819052606082018190526080820181905260a0820181905260c0820181905260e08201528252600019909201910181612e1e5790505b50905060005b838111610ab2578560086000612e8c84600161514b565b8152602001908152602001600020600001541415612f54576000612eb182600161514b565b90506000600860008381526020019081526020016000209050806040518061010001604052908160008201548152602001600182015481526020016002820154815260200160038201548152602001600482015481526020016005820154815260200160068201548152602001600782015481525050848681518110612f3957612f396151fc565b6020908102919091010152612f4f60018661514b565b945050505b80612f5e816151b5565b915050612e75565b60606000612f7360065490565b905060008060005b8381101561300d576000600781612f9384600161514b565b81526020810191909152604001600020600801546001600160a01b031614801590612fe857506000600781612fc984600161514b565b81526020810191909152604001600020600901546001600160a01b0316145b15612ffb57612ff860018461514b565b92505b80613005816151b5565b915050612f7b565b5060008267ffffffffffffffff81111561302957613029615212565b60405190808252806020026020018201604052801561306257816020015b61304f614b24565b8152602001906001900390816130475790505b50905060005b838111610ab257600060078161307f84600161514b565b81526020810191909152604001600020600801546001600160a01b0316148015906130d4575060006007816130b584600161514b565b81526020810191909152604001600020600901546001600160a01b0316145b156134b65760006130e682600161514b565b9050600060076000838152602001908152602001600020905080604051806101e0016040529081600082015481526020016001820154815260200160028201548152602001600382015481526020016004820180546131449061517a565b80601f01602080910402602001604051908101604052809291908181526020018280546131709061517a565b80156131bd5780601f10613192576101008083540402835291602001916131bd565b820191906000526020600020905b8154815290600101906020018083116131a057829003601f168201915b505050918352505060058201546001600160a01b03908116602083015260068301548116604083015260078301548116606083015260088301548116608083015260098301541660a0820152600a8201805460c09092019161321e9061517a565b80601f016020809104026020016040519081016040528092919081815260200182805461324a9061517a565b80156132975780601f1061326c57610100808354040283529160200191613297565b820191906000526020600020905b81548152906001019060200180831161327a57829003601f168201915b50505050508152602001600b820180546132b09061517a565b80601f01602080910402602001604051908101604052809291908181526020018280546132dc9061517a565b80156133295780601f106132fe57610100808354040283529160200191613329565b820191906000526020600020905b81548152906001019060200180831161330c57829003601f168201915b50505050508152602001600c820180546133429061517a565b80601f016020809104026020016040519081016040528092919081815260200182805461336e9061517a565b80156133bb5780601f10613390576101008083540402835291602001916133bb565b820191906000526020600020905b81548152906001019060200180831161339e57829003601f168201915b50505050508152602001600d820180546133d49061517a565b80601f01602080910402602001604051908101604052809291908181526020018280546134009061517a565b801561344d5780601f106134225761010080835404028352916020019161344d565b820191906000526020600020905b81548152906001019060200180831161343057829003601f168201915b5050509183525050600e82015460209091019060ff166007811115613474576134746151e6565b6007811115613485576134856151e6565b8152505084868151811061349b5761349b6151fc565b60209081029190910101526134b160018661514b565b945050505b806134c0816151b5565b915050613068565b606060006134d560065490565b90506000808267ffffffffffffffff8111156134f3576134f3615212565b60405190808252806020026020018201604052801561352c57816020015b613519614b24565b8152602001906001900390816135115790505b50905060005b83811161395a57600060078161354984600161514b565b81526020810191909152604001600020600501546001600160a01b03161461394857600061357882600161514b565b9050600060076000838152602001908152602001600020905080604051806101e0016040529081600082015481526020016001820154815260200160028201548152602001600382015481526020016004820180546135d69061517a565b80601f01602080910402602001604051908101604052809291908181526020018280546136029061517a565b801561364f5780601f106136245761010080835404028352916020019161364f565b820191906000526020600020905b81548152906001019060200180831161363257829003601f168201915b505050918352505060058201546001600160a01b03908116602083015260068301548116604083015260078301548116606083015260088301548116608083015260098301541660a0820152600a8201805460c0909201916136b09061517a565b80601f01602080910402602001604051908101604052809291908181526020018280546136dc9061517a565b80156137295780601f106136fe57610100808354040283529160200191613729565b820191906000526020600020905b81548152906001019060200180831161370c57829003601f168201915b50505050508152602001600b820180546137429061517a565b80601f016020809104026020016040519081016040528092919081815260200182805461376e9061517a565b80156137bb5780601f10613790576101008083540402835291602001916137bb565b820191906000526020600020905b81548152906001019060200180831161379e57829003601f168201915b50505050508152602001600c820180546137d49061517a565b80601f01602080910402602001604051908101604052809291908181526020018280546138009061517a565b801561384d5780601f106138225761010080835404028352916020019161384d565b820191906000526020600020905b81548152906001019060200180831161383057829003601f168201915b50505050508152602001600d820180546138669061517a565b80601f01602080910402602001604051908101604052809291908181526020018280546138929061517a565b80156138df5780601f106138b4576101008083540402835291602001916138df565b820191906000526020600020905b8154815290600101906020018083116138c257829003601f168201915b5050509183525050600e82015460209091019060ff166007811115613906576139066151e6565b6007811115613917576139176151e6565b8152505084868151811061392d5761392d6151fc565b602090810291909101015261394360018661514b565b945050505b80613952816151b5565b915050613532565b509392505050565b60008060076000848152602001908152602001600020604051806101e0016040529081600082015481526020016001820154815260200160028201548152602001600382015481526020016004820180546139bc9061517a565b80601f01602080910402602001604051908101604052809291908181526020018280546139e89061517a565b8015613a355780601f10613a0a57610100808354040283529160200191613a35565b820191906000526020600020905b815481529060010190602001808311613a1857829003601f168201915b505050918352505060058201546001600160a01b03908116602083015260068301548116604083015260078301548116606083015260088301548116608083015260098301541660a0820152600a8201805460c090920191613a969061517a565b80601f0160208091040260200160405190810160405280929190818152602001828054613ac29061517a565b8015613b0f5780601f10613ae457610100808354040283529160200191613b0f565b820191906000526020600020905b815481529060010190602001808311613af257829003601f168201915b50505050508152602001600b82018054613b289061517a565b80601f0160208091040260200160405190810160405280929190818152602001828054613b549061517a565b8015613ba15780601f10613b7657610100808354040283529160200191613ba1565b820191906000526020600020905b815481529060010190602001808311613b8457829003601f168201915b50505050508152602001600c82018054613bba9061517a565b80601f0160208091040260200160405190810160405280929190818152602001828054613be69061517a565b8015613c335780601f10613c0857610100808354040283529160200191613c33565b820191906000526020600020905b815481529060010190602001808311613c1657829003601f168201915b50505050508152602001600d82018054613c4c9061517a565b80601f0160208091040260200160405190810160405280929190818152602001828054613c789061517a565b8015613cc55780601f10613c9a57610100808354040283529160200191613cc5565b820191906000526020600020905b815481529060010190602001808311613ca857829003601f168201915b5050509183525050600e82015460209091019060ff166007811115613cec57613cec6151e6565b6007811115613cfd57613cfd6151e6565b905250606001519392505050565b600061194c8183614585565b613d203361193f565b613d6c5760405162461bcd60e51b815260206004820152601760248201527f494e56414c49443a204e6f7420612052657461696c65720000000000000000006044820152606401610b15565b6119b033614759565b613d83600580546001019055565b613d91600680546001019055565b6000613d9c60055490565b60065460408051602081019390935282015260600160408051601f1981840301815282825280516020909101206101e08301909152915080613ddd60065490565b8152602001613deb60055490565b8152602001828152602001838152602001848152602001336001600160a01b03168152602001336001600160a01b0316815260200160006001600160a01b0316815260200160006001600160a01b0316815260200160006001600160a01b0316815260200188815260200187815260200186815260200185815260200160006007811115613e7b57613e7b6151e6565b905260076000613e8a60055490565b8152602001908152602001600020600082015181600001556020820151816001015560408201518160020155606082015181600301556080820151816004019080519060200190613edc929190614bd7565b5060a08201516005820180546001600160a01b03199081166001600160a01b039384161790915560c0840151600684018054831691841691909117905560e08401516007840180548316918416919091179055610100840151600884018054831691841691909117905561012084015160098401805490921692169190911790556101408201518051613f7991600a840191602090910190614bd7565b506101608201518051613f9691600b840191602090910190614bd7565b506101808201518051613fb391600c840191602090910190614bd7565b506101a08201518051613fd091600d840191602090910190614bd7565b506101c0820151600e8201805460ff19166001836007811115613ff557613ff56151e6565b021790555090505060405180610100016040528061401260055490565b8152602001614022600143615163565b40815260006020820181905260408201819052606082018190526080820181905260a0820181905260c090910181905260089061405e60055490565b8152602001908152602001600020600082015181600001556020820151816001015560408201518160020155606082015181600301556080820151816004015560a0820151816005015560c0820151816006015560e082015181600701559050506140d06140cb60055490565b61479b565b6140d933613d0b565b6140e6576140e633612301565b7f8e55ccfc9778ff8eba1646d765cf1982537ce0f9257054a17b48aad74525018361411060055490565b60405190815260200160405180910390a150505050505050565b8060056000828152600760208190526040909120600e015460ff1690811115614155576141556151e6565b146141a25760405162461bcd60e51b815260206004820152601a60248201527f494e56414c49443a204974656d204e6f742052656365697665640000000000006044820152606401610b15565b6000828152600760205260409020600601546001600160a01b031633141561420c5760405162461bcd60e51b815260206004820152601f60248201527f436f6e73756d657249442063616e6e6f742062652052657461696c65724944006044820152606401610b15565b600082815260076020526040902060030154341461423c5760405162461bcd60e51b8152600401610b15906150e5565b60008281526007602052604090206009810180546001600160a01b03191633179055600e01805460ff191660019081179091556142799043615163565b600083815260086020526040902090406007909101556142988261481b565b6142a133612360565b6142ae576142ae33610abb565b6142b782614907565b600082815260076020526040808220600881015460039091015491516001600160a01b039091169282156108fc02929190818181858888f19350505050158015614305573d6000803e3d6000fd5b506040518281527ff8d4d18c02478c21f38cf4aa60c47b8baf0215ad5d0b0ad565ef8580e03c7ef190602001611933565b6001600160a01b03811661435c5760405162461bcd60e51b8152600401610b159061511c565b6143668282614585565b156143b35760405162461bcd60e51b815260206004820152601a60248201527f494e56414c49443a204163636f756e74204861766520526f6c650000000000006044820152606401610b15565b6001600160a01b0316600090815260209190915260409020805460ff19166001179055565b6143e3600382614336565b6040516001600160a01b038216907f28b26e7a3d20aedbc5f8f2ebf7da671c0491723a2b78f47a097b0e46dee0714290600090a250565b6000828152600760205260409020600e8101805460ff1916600390811790915501819055614449600143615163565b4060086000848152602001908152602001600020600401819055507f54dafe9ea34c9448f0b09cec86e7ede9744e44adedf54b15e3ad40a0942f2fb98260405161449591815260200190565b60405180910390a16144a6826149c7565b5050565b8060016000828152600760208190526040909120600e015460ff16908111156144d5576144d56151e6565b146145225760405162461bcd60e51b815260206004820152601a60248201527f494e56414c49443a204974656d204e6f7420466f722053616c650000000000006044820152606401610b15565b61452b3361193f565b6145385761453833612896565b600082815260076020908152604091829020600e01805460ff1916600517905590518381527f37f3711bfa8ff1e2bebc5e7a9afdc0de750e97f83f26f0b6d62d7a4130f99d2d9101611933565b60006001600160a01b0382166145ad5760405162461bcd60e51b8152600401610b159061511c565b506001600160a01b03166000908152602091909152604090205460ff1690565b6145d8600382614a86565b6040516001600160a01b038216907fe3f5ed5f263f1f01764a96edfc7d025f511ec5f7d180e8816908b78bcf74f09890600090a250565b61461a600182614a86565b6040516001600160a01b038216907f126174f6cf49c81cdb4a9214c6b8f037bef55b4ec31e4fc776cea2a1c8a88d5990600090a250565b61465c600182614336565b6040516001600160a01b038216907fddbf200aa634dc3fb81cfd68583dd1040d1c751d335e1d86b631bde3e977fea890600090a250565b61469e600082614336565b6040516001600160a01b038216907f2e0ded4123377a3c2bc9a26f1717655a129e2f20752924d42e730ec89c83dbd090600090a250565b6146e0600082614a86565b6040516001600160a01b038216907fa5e0f060af304ab17dd418c7927e3da3ae7868189bf387aee09ab179ccc572f290600090a250565b614722600282614336565b6040516001600160a01b038216907f71ae26cad02663e3d92efd6ec56031a80d74a20c0ab4183faa8bf262261c9baa90600090a250565b614764600282614a86565b6040516001600160a01b038216907fdb7176e79cffef81cb01767dd0447a0b24bb72ca9778d4b245581086b2a7e6db90600090a250565b6000818152600760205260409020600e01805460ff191660019081179091556147c49043615163565b4060086000838152602001908152602001600020600201819055507fa96ae0fc3224ebd79eebfe54bd130cc9cb94416cddd1f2386115e00b725324688160405161481091815260200190565b60405180910390a150565b8060016000828152600760208190526040909120600e015460ff1690811115614846576148466151e6565b146148935760405162461bcd60e51b815260206004820152601a60248201527f494e56414c49443a204974656d204e6f7420466f722053616c650000000000006044820152606401610b15565b6000828152600760205260409020600e01805460ff191660061790556148ba600143615163565b60009283526008602090815260408085209240600690930192909255600790529091206009810154600590910180546001600160a01b0319166001600160a01b0390921691909117905550565b8060066000828152600760208190526040909120600e015460ff1690811115614932576149326151e6565b1461494f5760405162461bcd60e51b8152600401610b15906150b0565b6000828152600760208190526040909120600581018054336001600160a01b031991821681179092556009830180549091169091179055600e01805460ff191660018302179055506040518281527f8a746d5b91a9a334d1abbeee7d031aac6d5c59ea6e982ac06aef4346cce5749e90602001611933565b8060036000828152600760208190526040909120600e015460ff16908111156149f2576149f26151e6565b14614a0f5760405162461bcd60e51b8152600401610b15906150b0565b600082815260076020908152604091829020600e8101805460ff191660011790556008810154600590910180546001600160a01b039092166001600160a01b031990921691909117905590518381527f710cdb674ad272ba75647b6f54d9dfd1b8fe19dba2528b54c7c20972b273c9ef9101611933565b6001600160a01b038116614aac5760405162461bcd60e51b8152600401610b159061511c565b614ab68282614585565b614b025760405162461bcd60e51b815260206004820152601d60248201527f494e56414c49443a204163636f756e742048617665204e6f20526f6c650000006044820152606401610b15565b6001600160a01b0316600090815260209190915260409020805460ff19169055565b604051806101e00160405280600081526020016000815260200160008152602001600081526020016060815260200160006001600160a01b0316815260200160006001600160a01b0316815260200160006001600160a01b0316815260200160006001600160a01b0316815260200160006001600160a01b031681526020016060815260200160608152602001606081526020016060815260200160006007811115614bd257614bd26151e6565b905290565b828054614be39061517a565b90600052602060002090601f016020900481019282614c055760008555614c4b565b82601f10614c1e57805160ff1916838001178555614c4b565b82800160010185558215614c4b579182015b82811115614c4b578251825591602001919060010190614c30565b50614c57929150614c5b565b5090565b5b80821115614c575760008155600101614c5c565b600082601f830112614c8157600080fd5b813567ffffffffffffffff80821115614c9c57614c9c615212565b604051601f8301601f19908116603f01168101908282118183101715614cc457614cc4615212565b81604052838152866020858801011115614cdd57600080fd5b836020870160208301376000602085830101528094505050505092915050565b600060208284031215614d0f57600080fd5b81356001600160a01b03811681146122fa57600080fd5b60008060008060008060c08789031215614d3f57600080fd5b863567ffffffffffffffff80821115614d5757600080fd5b614d638a838b01614c70565b97506020890135915080821115614d7957600080fd5b614d858a838b01614c70565b96506040890135915080821115614d9b57600080fd5b614da78a838b01614c70565b95506060890135915080821115614dbd57600080fd5b614dc98a838b01614c70565b94506080890135915080821115614ddf57600080fd5b50614dec89828a01614c70565b92505060a087013590509295509295509295565b600060208284031215614e1257600080fd5b5035919050565b60008060408385031215614e2c57600080fd5b50508035926020909101359150565b60088110614e5957634e487b7160e01b600052602160045260246000fd5b9052565b6000815180845260005b81811015614e8357602081850181015186830182015201614e67565b81811115614e95576000602083870101525b50601f01601f19169290920160200192915050565b60006020808301818452808551808352604092508286019150828160051b87010184880160005b8381101561501557603f1989840301855281516101e0815185528882015189860152878201518886015260608083015181870152506080808301518282880152614f1d83880182614e5d565b9250505060a080830151614f3b828801826001600160a01b03169052565b505060c0828101516001600160a01b039081169187019190915260e0808401518216908701526101008084015182169087015261012080840151909116908601526101408083015186830382880152614f948382614e5d565b925050506101608083015186830382880152614fb08382614e5d565b925050506101808083015186830382880152614fcc8382614e5d565b925050506101a08083015186830382880152614fe88382614e5d565b925050506101c080830151925061500181870184614e3b565b509588019593505090860190600101614ed1565b509098975050505050505050565b602080825282518282018190526000919060409081850190868401855b828110156150a35781518051855286810151878601528581015186860152606080820151908601526080808201519086015260a0808201519086015260c0808201519086015260e090810151908501526101009093019290850190600101615040565b5091979650505050505050565b6020808252818101527f494e56414c49443a204e6f7420536f6c6420546f204469737472696275746f72604082015260600190565b6020808252601e908201527f496e73756666696369656e7420416d6f756e74207472616e7366657265640000604082015260600190565b602080825260159082015274494e56414c49443a2044454144204164647265737360581b604082015260600190565b6000821982111561515e5761515e6151d0565b500190565b600082821015615175576151756151d0565b500390565b600181811c9082168061518e57607f821691505b602082108114156151af57634e487b7160e01b600052602260045260246000fd5b50919050565b60006000198214156151c9576151c96151d0565b5060010190565b634e487b7160e01b600052601160045260246000fd5b634e487b7160e01b600052602160045260246000fd5b634e487b7160e01b600052603260045260246000fd5b634e487b7160e01b600052604160045260246000fdfea26469706673582212206b5dc75e5dce60956aae0bb20f3ae15f1844cb0125183a0091afb1e4b863969664736f6c63430008060033",
  "linkReferences": {},
  "deployedLinkReferences": {}
}