{
  "_format": "hh-sol-artifact-1",
  "contractName": "SupplyChain",
  "sourceName": "contracts/base/SupplyChain.sol",
  "abi": [
    {
      "inputs": [],
      "stateMutability": "nonpayable",
      "type": "constructor"
    },
    {
      "anonymous": false,
      "inputs": [
        {
          "indexed": true,
          "internalType": "address",
          "name": "account",
          "type": "address"
        }
      ],
      "name": "ConsumerAdded",
      "type": "event"
    },
    {
      "anonymous": false,
      "inputs": [
        {
          "indexed": true,
          "internalType": "address",
          "name": "account",
          "type": "address"
        }
      ],
      "name": "ConsumerRemoved",
      "type": "event"
    },
    {
      "anonymous": false,
      "inputs": [
        {
          "indexed": true,
          "internalType": "address",
          "name": "account",
          "type": "address"
        }
      ],
      "name": "DistributorAdded",
      "type": "event"
    },
    {
      "anonymous": false,
      "inputs": [
        {
          "indexed": true,
          "internalType": "address",
          "name": "account",
          "type": "address"
        }
      ],
      "name": "DistributorRemoved",
      "type": "event"
    },
    {
      "anonymous": false,
      "inputs": [
        {
          "indexed": true,
          "internalType": "address",
          "name": "account",
          "type": "address"
        }
      ],
      "name": "FarmerAdded",
      "type": "event"
    },
    {
      "anonymous": false,
      "inputs": [
        {
          "indexed": true,
          "internalType": "address",
          "name": "account",
          "type": "address"
        }
      ],
      "name": "FarmerRemoved",
      "type": "event"
    },
    {
      "anonymous": false,
      "inputs": [
        {
          "indexed": false,
          "internalType": "uint256",
          "name": "upc",
          "type": "uint256"
        }
      ],
      "name": "ForSale",
      "type": "event"
    },
    {
      "anonymous": false,
      "inputs": [
        {
          "indexed": false,
          "internalType": "uint256",
          "name": "upc",
          "type": "uint256"
        }
      ],
      "name": "Harvested",
      "type": "event"
    },
    {
      "anonymous": false,
      "inputs": [
        {
          "indexed": false,
          "internalType": "uint256",
          "name": "upc",
          "type": "uint256"
        }
      ],
      "name": "ReceivedByCustomer",
      "type": "event"
    },
    {
      "anonymous": false,
      "inputs": [
        {
          "indexed": false,
          "internalType": "uint256",
          "name": "upc",
          "type": "uint256"
        }
      ],
      "name": "ReceivedByRetail",
      "type": "event"
    },
    {
      "anonymous": false,
      "inputs": [
        {
          "indexed": true,
          "internalType": "address",
          "name": "account",
          "type": "address"
        }
      ],
      "name": "RetailerAdded",
      "type": "event"
    },
    {
      "anonymous": false,
      "inputs": [
        {
          "indexed": true,
          "internalType": "address",
          "name": "account",
          "type": "address"
        }
      ],
      "name": "RetailerRemoved",
      "type": "event"
    },
    {
      "anonymous": false,
      "inputs": [
        {
          "indexed": false,
          "internalType": "uint256",
          "name": "upc",
          "type": "uint256"
        }
      ],
      "name": "ShippedToRetail",
      "type": "event"
    },
    {
      "anonymous": false,
      "inputs": [
        {
          "indexed": false,
          "internalType": "uint256",
          "name": "upc",
          "type": "uint256"
        }
      ],
      "name": "SoldToConsumer",
      "type": "event"
    },
    {
      "anonymous": false,
      "inputs": [
        {
          "indexed": false,
          "internalType": "uint256",
          "name": "upc",
          "type": "uint256"
        },
        {
          "indexed": false,
          "internalType": "uint256",
          "name": "amount",
          "type": "uint256"
        }
      ],
      "name": "SoldToDist",
      "type": "event"
    },
    {
      "anonymous": false,
      "inputs": [
        {
          "indexed": false,
          "internalType": "uint256",
          "name": "upc",
          "type": "uint256"
        }
      ],
      "name": "SoldToRetail",
      "type": "event"
    },
    {
      "inputs": [
        {
          "internalType": "address",
          "name": "account",
          "type": "address"
        }
      ],
      "name": "addConsumer",
      "outputs": [],
      "stateMutability": "nonpayable",
      "type": "function"
    },
    {
      "inputs": [
        {
          "internalType": "address",
          "name": "account",
          "type": "address"
        }
      ],
      "name": "addDistributor",
      "outputs": [],
      "stateMutability": "nonpayable",
      "type": "function"
    },
    {
      "inputs": [
        {
          "internalType": "address",
          "name": "account",
          "type": "address"
        }
      ],
      "name": "addFarmer",
      "outputs": [],
      "stateMutability": "nonpayable",
      "type": "function"
    },
    {
      "inputs": [
        {
          "internalType": "address",
          "name": "account",
          "type": "address"
        }
      ],
      "name": "addRetailer",
      "outputs": [],
      "stateMutability": "nonpayable",
      "type": "function"
    },
    {
      "inputs": [
        {
          "internalType": "uint256",
          "name": "_upc",
          "type": "uint256"
        },
        {
          "internalType": "uint256",
          "name": "_newPrice",
          "type": "uint256"
        }
      ],
      "name": "buy",
      "outputs": [],
      "stateMutability": "payable",
      "type": "function"
    },
    {
      "inputs": [
        {
          "internalType": "uint256",
          "name": "_upc",
          "type": "uint256"
        }
      ],
      "name": "buyAsConsumer",
      "outputs": [],
      "stateMutability": "payable",
      "type": "function"
    },
    {
      "inputs": [
        {
          "internalType": "uint256",
          "name": "_upc",
          "type": "uint256"
        },
        {
          "internalType": "uint256",
          "name": "_newPrice",
          "type": "uint256"
        }
      ],
      "name": "buyAsDist",
      "outputs": [],
      "stateMutability": "payable",
      "type": "function"
    },
    {
      "inputs": [
        {
          "internalType": "uint256",
          "name": "_upc",
          "type": "uint256"
        },
        {
          "internalType": "uint256",
          "name": "_newPrice",
          "type": "uint256"
        }
      ],
      "name": "buyAsRetail",
      "outputs": [],
      "stateMutability": "payable",
      "type": "function"
    },
    {
      "inputs": [],
      "name": "fetchAvailableItemsForConsumer",
      "outputs": [
        {
          "components": [
            {
              "internalType": "uint256",
              "name": "sku",
              "type": "uint256"
            },
            {
              "internalType": "uint256",
              "name": "upc",
              "type": "uint256"
            },
            {
              "internalType": "uint256",
              "name": "productID",
              "type": "uint256"
            },
            {
              "internalType": "uint256",
              "name": "productPrice",
              "type": "uint256"
            },
            {
              "internalType": "string",
              "name": "productMetadata",
              "type": "string"
            },
            {
              "internalType": "address payable",
              "name": "ownerID",
              "type": "address"
            },
            {
              "internalType": "address payable",
              "name": "originFarmerID",
              "type": "address"
            },
            {
              "internalType": "address payable",
              "name": "distributorID",
              "type": "address"
            },
            {
              "internalType": "address payable",
              "name": "retailerID",
              "type": "address"
            },
            {
              "internalType": "address payable",
              "name": "consumerID",
              "type": "address"
            },
            {
              "internalType": "string",
              "name": "originFarmName",
              "type": "string"
            },
            {
              "internalType": "string",
              "name": "originFarmMetadata",
              "type": "string"
            },
            {
              "internalType": "string",
              "name": "originFarmLatitude",
              "type": "string"
            },
            {
              "internalType": "string",
              "name": "originFarmLongitude",
              "type": "string"
            },
            {
              "internalType": "enum SupplyChain.State",
              "name": "itemState",
              "type": "uint8"
            }
          ],
          "internalType": "struct SupplyChain.Item[]",
          "name": "",
          "type": "tuple[]"
        }
      ],
      "stateMutability": "view",
      "type": "function"
    },
    {
      "inputs": [],
      "name": "fetchAvailableItemsForDistro",
      "outputs": [
        {
          "components": [
            {
              "internalType": "uint256",
              "name": "sku",
              "type": "uint256"
            },
            {
              "internalType": "uint256",
              "name": "upc",
              "type": "uint256"
            },
            {
              "internalType": "uint256",
              "name": "productID",
              "type": "uint256"
            },
            {
              "internalType": "uint256",
              "name": "productPrice",
              "type": "uint256"
            },
            {
              "internalType": "string",
              "name": "productMetadata",
              "type": "string"
            },
            {
              "internalType": "address payable",
              "name": "ownerID",
              "type": "address"
            },
            {
              "internalType": "address payable",
              "name": "originFarmerID",
              "type": "address"
            },
            {
              "internalType": "address payable",
              "name": "distributorID",
              "type": "address"
            },
            {
              "internalType": "address payable",
              "name": "retailerID",
              "type": "address"
            },
            {
              "internalType": "address payable",
              "name": "consumerID",
              "type": "address"
            },
            {
              "internalType": "string",
              "name": "originFarmName",
              "type": "string"
            },
            {
              "internalType": "string",
              "name": "originFarmMetadata",
              "type": "string"
            },
            {
              "internalType": "string",
              "name": "originFarmLatitude",
              "type": "string"
            },
            {
              "internalType": "string",
              "name": "originFarmLongitude",
              "type": "string"
            },
            {
              "internalType": "enum SupplyChain.State",
              "name": "itemState",
              "type": "uint8"
            }
          ],
          "internalType": "struct SupplyChain.Item[]",
          "name": "",
          "type": "tuple[]"
        }
      ],
      "stateMutability": "view",
      "type": "function"
    },
    {
      "inputs": [],
      "name": "fetchAvailableItemsForRetailer",
      "outputs": [
        {
          "components": [
            {
              "internalType": "uint256",
              "name": "sku",
              "type": "uint256"
            },
            {
              "internalType": "uint256",
              "name": "upc",
              "type": "uint256"
            },
            {
              "internalType": "uint256",
              "name": "productID",
              "type": "uint256"
            },
            {
              "internalType": "uint256",
              "name": "productPrice",
              "type": "uint256"
            },
            {
              "internalType": "string",
              "name": "productMetadata",
              "type": "string"
            },
            {
              "internalType": "address payable",
              "name": "ownerID",
              "type": "address"
            },
            {
              "internalType": "address payable",
              "name": "originFarmerID",
              "type": "address"
            },
            {
              "internalType": "address payable",
              "name": "distributorID",
              "type": "address"
            },
            {
              "internalType": "address payable",
              "name": "retailerID",
              "type": "address"
            },
            {
              "internalType": "address payable",
              "name": "consumerID",
              "type": "address"
            },
            {
              "internalType": "string",
              "name": "originFarmName",
              "type": "string"
            },
            {
              "internalType": "string",
              "name": "originFarmMetadata",
              "type": "string"
            },
            {
              "internalType": "string",
              "name": "originFarmLatitude",
              "type": "string"
            },
            {
              "internalType": "string",
              "name": "originFarmLongitude",
              "type": "string"
            },
            {
              "internalType": "enum SupplyChain.State",
              "name": "itemState",
              "type": "uint8"
            }
          ],
          "internalType": "struct SupplyChain.Item[]",
          "name": "",
          "type": "tuple[]"
        }
      ],
      "stateMutability": "view",
      "type": "function"
    },
    {
      "inputs": [],
      "name": "fetchConsumerItems",
      "outputs": [
        {
          "components": [
            {
              "internalType": "uint256",
              "name": "sku",
              "type": "uint256"
            },
            {
              "internalType": "uint256",
              "name": "upc",
              "type": "uint256"
            },
            {
              "internalType": "uint256",
              "name": "productID",
              "type": "uint256"
            },
            {
              "internalType": "uint256",
              "name": "productPrice",
              "type": "uint256"
            },
            {
              "internalType": "string",
              "name": "productMetadata",
              "type": "string"
            },
            {
              "internalType": "address payable",
              "name": "ownerID",
              "type": "address"
            },
            {
              "internalType": "address payable",
              "name": "originFarmerID",
              "type": "address"
            },
            {
              "internalType": "address payable",
              "name": "distributorID",
              "type": "address"
            },
            {
              "internalType": "address payable",
              "name": "retailerID",
              "type": "address"
            },
            {
              "internalType": "address payable",
              "name": "consumerID",
              "type": "address"
            },
            {
              "internalType": "string",
              "name": "originFarmName",
              "type": "string"
            },
            {
              "internalType": "string",
              "name": "originFarmMetadata",
              "type": "string"
            },
            {
              "internalType": "string",
              "name": "originFarmLatitude",
              "type": "string"
            },
            {
              "internalType": "string",
              "name": "originFarmLongitude",
              "type": "string"
            },
            {
              "internalType": "enum SupplyChain.State",
              "name": "itemState",
              "type": "uint8"
            }
          ],
          "internalType": "struct SupplyChain.Item[]",
          "name": "",
          "type": "tuple[]"
        }
      ],
      "stateMutability": "view",
      "type": "function"
    },
    {
      "inputs": [
        {
          "internalType": "uint256",
          "name": "_upc",
          "type": "uint256"
        }
      ],
      "name": "fetchCurrentPrice",
      "outputs": [
        {
          "internalType": "uint256",
          "name": "price",
          "type": "uint256"
        }
      ],
      "stateMutability": "view",
      "type": "function"
    },
    {
      "inputs": [
        {
          "internalType": "uint256",
          "name": "_upc",
          "type": "uint256"
        }
      ],
      "name": "fetchCurrentState",
      "outputs": [
        {
          "internalType": "uint256",
          "name": "itemState",
          "type": "uint256"
        }
      ],
      "stateMutability": "view",
      "type": "function"
    },
    {
      "inputs": [],
      "name": "fetchDistroItems",
      "outputs": [
        {
          "components": [
            {
              "internalType": "uint256",
              "name": "sku",
              "type": "uint256"
            },
            {
              "internalType": "uint256",
              "name": "upc",
              "type": "uint256"
            },
            {
              "internalType": "uint256",
              "name": "productID",
              "type": "uint256"
            },
            {
              "internalType": "uint256",
              "name": "productPrice",
              "type": "uint256"
            },
            {
              "internalType": "string",
              "name": "productMetadata",
              "type": "string"
            },
            {
              "internalType": "address payable",
              "name": "ownerID",
              "type": "address"
            },
            {
              "internalType": "address payable",
              "name": "originFarmerID",
              "type": "address"
            },
            {
              "internalType": "address payable",
              "name": "distributorID",
              "type": "address"
            },
            {
              "internalType": "address payable",
              "name": "retailerID",
              "type": "address"
            },
            {
              "internalType": "address payable",
              "name": "consumerID",
              "type": "address"
            },
            {
              "internalType": "string",
              "name": "originFarmName",
              "type": "string"
            },
            {
              "internalType": "string",
              "name": "originFarmMetadata",
              "type": "string"
            },
            {
              "internalType": "string",
              "name": "originFarmLatitude",
              "type": "string"
            },
            {
              "internalType": "string",
              "name": "originFarmLongitude",
              "type": "string"
            },
            {
              "internalType": "enum SupplyChain.State",
              "name": "itemState",
              "type": "uint8"
            }
          ],
          "internalType": "struct SupplyChain.Item[]",
          "name": "",
          "type": "tuple[]"
        }
      ],
      "stateMutability": "view",
      "type": "function"
    },
    {
      "inputs": [],
      "name": "fetchFarmerItems",
      "outputs": [
        {
          "components": [
            {
              "internalType": "uint256",
              "name": "sku",
              "type": "uint256"
            },
            {
              "internalType": "uint256",
              "name": "upc",
              "type": "uint256"
            },
            {
              "internalType": "uint256",
              "name": "productID",
              "type": "uint256"
            },
            {
              "internalType": "uint256",
              "name": "productPrice",
              "type": "uint256"
            },
            {
              "internalType": "string",
              "name": "productMetadata",
              "type": "string"
            },
            {
              "internalType": "address payable",
              "name": "ownerID",
              "type": "address"
            },
            {
              "internalType": "address payable",
              "name": "originFarmerID",
              "type": "address"
            },
            {
              "internalType": "address payable",
              "name": "distributorID",
              "type": "address"
            },
            {
              "internalType": "address payable",
              "name": "retailerID",
              "type": "address"
            },
            {
              "internalType": "address payable",
              "name": "consumerID",
              "type": "address"
            },
            {
              "internalType": "string",
              "name": "originFarmName",
              "type": "string"
            },
            {
              "internalType": "string",
              "name": "originFarmMetadata",
              "type": "string"
            },
            {
              "internalType": "string",
              "name": "originFarmLatitude",
              "type": "string"
            },
            {
              "internalType": "string",
              "name": "originFarmLongitude",
              "type": "string"
            },
            {
              "internalType": "enum SupplyChain.State",
              "name": "itemState",
              "type": "uint8"
            }
          ],
          "internalType": "struct SupplyChain.Item[]",
          "name": "",
          "type": "tuple[]"
        }
      ],
      "stateMutability": "view",
      "type": "function"
    },
    {
      "inputs": [
        {
          "internalType": "uint256",
          "name": "_upc",
          "type": "uint256"
        }
      ],
      "name": "fetchItemHashes",
      "outputs": [
        {
          "components": [
            {
              "internalType": "uint256",
              "name": "upc",
              "type": "uint256"
            },
            {
              "internalType": "bytes32",
              "name": "harvestedHash",
              "type": "bytes32"
            },
            {
              "internalType": "bytes32",
              "name": "sellToDistHash",
              "type": "bytes32"
            },
            {
              "internalType": "bytes32",
              "name": "buyAsDistHash",
              "type": "bytes32"
            },
            {
              "internalType": "bytes32",
              "name": "sellToRetailHash",
              "type": "bytes32"
            },
            {
              "internalType": "bytes32",
              "name": "buyAsRetailHash",
              "type": "bytes32"
            },
            {
              "internalType": "bytes32",
              "name": "sellToConsumerHash",
              "type": "bytes32"
            },
            {
              "internalType": "bytes32",
              "name": "buyAsConsumerHash",
              "type": "bytes32"
            }
          ],
          "internalType": "struct SupplyChain.TraceHash[]",
          "name": "",
          "type": "tuple[]"
        }
      ],
      "stateMutability": "view",
      "type": "function"
    },
    {
      "inputs": [],
      "name": "fetchItems",
      "outputs": [
        {
          "components": [
            {
              "internalType": "uint256",
              "name": "sku",
              "type": "uint256"
            },
            {
              "internalType": "uint256",
              "name": "upc",
              "type": "uint256"
            },
            {
              "internalType": "uint256",
              "name": "productID",
              "type": "uint256"
            },
            {
              "internalType": "uint256",
              "name": "productPrice",
              "type": "uint256"
            },
            {
              "internalType": "string",
              "name": "productMetadata",
              "type": "string"
            },
            {
              "internalType": "address payable",
              "name": "ownerID",
              "type": "address"
            },
            {
              "internalType": "address payable",
              "name": "originFarmerID",
              "type": "address"
            },
            {
              "internalType": "address payable",
              "name": "distributorID",
              "type": "address"
            },
            {
              "internalType": "address payable",
              "name": "retailerID",
              "type": "address"
            },
            {
              "internalType": "address payable",
              "name": "consumerID",
              "type": "address"
            },
            {
              "internalType": "string",
              "name": "originFarmName",
              "type": "string"
            },
            {
              "internalType": "string",
              "name": "originFarmMetadata",
              "type": "string"
            },
            {
              "internalType": "string",
              "name": "originFarmLatitude",
              "type": "string"
            },
            {
              "internalType": "string",
              "name": "originFarmLongitude",
              "type": "string"
            },
            {
              "internalType": "enum SupplyChain.State",
              "name": "itemState",
              "type": "uint8"
            }
          ],
          "internalType": "struct SupplyChain.Item[]",
          "name": "",
          "type": "tuple[]"
        }
      ],
      "stateMutability": "view",
      "type": "function"
    },
    {
      "inputs": [],
      "name": "fetchRetailerItems",
      "outputs": [
        {
          "components": [
            {
              "internalType": "uint256",
              "name": "sku",
              "type": "uint256"
            },
            {
              "internalType": "uint256",
              "name": "upc",
              "type": "uint256"
            },
            {
              "internalType": "uint256",
              "name": "productID",
              "type": "uint256"
            },
            {
              "internalType": "uint256",
              "name": "productPrice",
              "type": "uint256"
            },
            {
              "internalType": "string",
              "name": "productMetadata",
              "type": "string"
            },
            {
              "internalType": "address payable",
              "name": "ownerID",
              "type": "address"
            },
            {
              "internalType": "address payable",
              "name": "originFarmerID",
              "type": "address"
            },
            {
              "internalType": "address payable",
              "name": "distributorID",
              "type": "address"
            },
            {
              "internalType": "address payable",
              "name": "retailerID",
              "type": "address"
            },
            {
              "internalType": "address payable",
              "name": "consumerID",
              "type": "address"
            },
            {
              "internalType": "string",
              "name": "originFarmName",
              "type": "string"
            },
            {
              "internalType": "string",
              "name": "originFarmMetadata",
              "type": "string"
            },
            {
              "internalType": "string",
              "name": "originFarmLatitude",
              "type": "string"
            },
            {
              "internalType": "string",
              "name": "originFarmLongitude",
              "type": "string"
            },
            {
              "internalType": "enum SupplyChain.State",
              "name": "itemState",
              "type": "uint8"
            }
          ],
          "internalType": "struct SupplyChain.Item[]",
          "name": "",
          "type": "tuple[]"
        }
      ],
      "stateMutability": "view",
      "type": "function"
    },
    {
      "inputs": [
        {
          "internalType": "string",
          "name": "_originFarmName",
          "type": "string"
        },
        {
          "internalType": "string",
          "name": "_originFarmMetadata",
          "type": "string"
        },
        {
          "internalType": "string",
          "name": "_originFarmLatitude",
          "type": "string"
        },
        {
          "internalType": "string",
          "name": "_originFarmLongitude",
          "type": "string"
        },
        {
          "internalType": "string",
          "name": "_productMetadata",
          "type": "string"
        },
        {
          "internalType": "uint256",
          "name": "_productPrice",
          "type": "uint256"
        }
      ],
      "name": "harvestItem",
      "outputs": [],
      "stateMutability": "nonpayable",
      "type": "function"
    },
    {
      "inputs": [
        {
          "internalType": "address",
          "name": "account",
          "type": "address"
        }
      ],
      "name": "isConsumer",
      "outputs": [
        {
          "internalType": "bool",
          "name": "",
          "type": "bool"
        }
      ],
      "stateMutability": "view",
      "type": "function"
    },
    {
      "inputs": [
        {
          "internalType": "address",
          "name": "account",
          "type": "address"
        }
      ],
      "name": "isDistributor",
      "outputs": [
        {
          "internalType": "bool",
          "name": "",
          "type": "bool"
        }
      ],
      "stateMutability": "view",
      "type": "function"
    },
    {
      "inputs": [
        {
          "internalType": "address",
          "name": "account",
          "type": "address"
        }
      ],
      "name": "isFarmer",
      "outputs": [
        {
          "internalType": "bool",
          "name": "",
          "type": "bool"
        }
      ],
      "stateMutability": "view",
      "type": "function"
    },
    {
      "inputs": [
        {
          "internalType": "address",
          "name": "account",
          "type": "address"
        }
      ],
      "name": "isRetailer",
      "outputs": [
        {
          "internalType": "bool",
          "name": "",
          "type": "bool"
        }
      ],
      "stateMutability": "view",
      "type": "function"
    },
    {
      "inputs": [],
      "name": "kill",
      "outputs": [],
      "stateMutability": "nonpayable",
      "type": "function"
    },
    {
      "inputs": [],
      "name": "owner",
      "outputs": [
        {
          "internalType": "address payable",
          "name": "",
          "type": "address"
        }
      ],
      "stateMutability": "view",
      "type": "function"
    },
    {
      "inputs": [],
      "name": "renounceConsumer",
      "outputs": [],
      "stateMutability": "nonpayable",
      "type": "function"
    },
    {
      "inputs": [],
      "name": "renounceDistributor",
      "outputs": [],
      "stateMutability": "nonpayable",
      "type": "function"
    },
    {
      "inputs": [],
      "name": "renounceFarmer",
      "outputs": [],
      "stateMutability": "nonpayable",
      "type": "function"
    },
    {
      "inputs": [],
      "name": "renounceRetailer",
      "outputs": [],
      "stateMutability": "nonpayable",
      "type": "function"
    },
    {
      "inputs": [],
      "name": "sku",
      "outputs": [
        {
          "internalType": "uint256",
          "name": "_value",
          "type": "uint256"
        }
      ],
      "stateMutability": "view",
      "type": "function"
    },
    {
      "inputs": [],
      "name": "upc",
      "outputs": [
        {
          "internalType": "uint256",
          "name": "_value",
          "type": "uint256"
        }
      ],
      "stateMutability": "view",
      "type": "function"
    }
  ],
  "bytecode": "0x60806040523480156200001157600080fd5b506200001d3362000056565b6200002833620000a8565b6200003333620000fa565b6200003e336200014c565b600480546001600160a01b03191633179055620002f4565b620000718160006200019e60201b620045581790919060201c565b6040516001600160a01b038216907f2e0ded4123377a3c2bc9a26f1717655a129e2f20752924d42e730ec89c83dbd090600090a250565b620000c38160016200019e60201b620045581790919060201c565b6040516001600160a01b038216907fddbf200aa634dc3fb81cfd68583dd1040d1c751d335e1d86b631bde3e977fea890600090a250565b620001158160026200019e60201b620045581790919060201c565b6040516001600160a01b038216907f71ae26cad02663e3d92efd6ec56031a80d74a20c0ab4183faa8bf262261c9baa90600090a250565b620001678160036200019e60201b620045581790919060201c565b6040516001600160a01b038216907f28b26e7a3d20aedbc5f8f2ebf7da671c0491723a2b78f47a097b0e46dee0714290600090a250565b6001600160a01b038116620001fa5760405162461bcd60e51b815260206004820152601560248201527f494e56414c49443a20444541442041646472657373000000000000000000000060448201526064015b60405180910390fd5b6200020682826200027a565b15620002555760405162461bcd60e51b815260206004820152601a60248201527f494e56414c49443a204163636f756e74204861766520526f6c650000000000006044820152606401620001f1565b6001600160a01b0316600090815260209190915260409020805460ff19166001179055565b60006001600160a01b038216620002d45760405162461bcd60e51b815260206004820152601560248201527f494e56414c49443a2044454144204164647265737300000000000000000000006044820152606401620001f1565b506001600160a01b03166000908152602091909152604090205460ff1690565b6155e080620003046000396000f3fe6080604052600436106101e35760003560e01c8063834ff73911610102578063ac2db09d11610095578063d6febde811610064578063d6febde814610513578063db0e6a2f14610526578063df8627f51461053b578063f3b1cde81461055b57600080fd5b8063ac2db09d146104a7578063ad78ba7b146104be578063b0689d70146104d3578063b9429069146104f357600080fd5b80638f0c86fa116100d15780638f0c86fa14610430578063930aff2f14610450578063a3887f9e14610465578063a3f9b0381461049257600080fd5b8063834ff739146103a35780638588d026146103c35780638da5cb5b146103d85780638ec4f5051461041057600080fd5b80635da09b881161017a57806378db2f7a1161014957806378db2f7a146103395780637c0b4ab11461034e57806380c3f96d1461036e57806380fc0ce41461038e57600080fd5b80635da09b88146102bf57806361e6982d146102ef578063644241db146103045780637250e2241461031957600080fd5b80634462f40c116101b65780634462f40c1461025d5780634671e7fb146102825780634a72a364146102975780634fde1791146102ac57600080fd5b806301a390b1146101e8578063112940f91461021357806341c0e1b51461023557806343baca1e1461024a575b600080fd5b3480156101f457600080fd5b506101fd61056e565b60405161020a919061522c565b60405180910390f35b34801561021f57600080fd5b5061023361022e36600461507f565b610ad9565b005b34801561024157600080fd5b50610233610ae5565b61023361025836600461519b565b610b4a565b34801561026957600080fd5b506006546102749081565b60405190815260200161020a565b34801561028e57600080fd5b506101fd610d41565b3480156102a357600080fd5b506101fd61126a565b6102336102ba36600461519b565b611834565b3480156102cb57600080fd5b506102df6102da36600461507f565b6119e8565b604051901515815260200161020a565b3480156102fb57600080fd5b506102336119fb565b34801561031057600080fd5b50610233611a5b565b34801561032557600080fd5b5061023361033436600461507f565b611ab9565b34801561034557600080fd5b506101fd611ac2565b34801561035a57600080fd5b50610274610369366004615182565b611feb565b34801561037a57600080fd5b5061023361038936600461507f565b6123aa565b34801561039a57600080fd5b506102336123b3565b3480156103af57600080fd5b506102df6103be36600461507f565b612409565b3480156103cf57600080fd5b506101fd612416565b3480156103e457600080fd5b506004546103f8906001600160a01b031681565b6040516001600160a01b03909116815260200161020a565b34801561041c57600080fd5b5061023361042b36600461507f565b61293f565b34801561043c57600080fd5b506102df61044b36600461507f565b612948565b34801561045c57600080fd5b506101fd612955565b34801561047157600080fd5b50610485610480366004615182565b612e7e565b60405161020a91906153a5565b34801561049e57600080fd5b506101fd61300f565b3480156104b357600080fd5b506005546102749081565b3480156104ca57600080fd5b506101fd613643565b3480156104df57600080fd5b506102746104ee366004615182565b613add565b3480156104ff57600080fd5b506102df61050e36600461507f565b613e86565b61023361052136600461519b565b613e92565b34801561053257600080fd5b50610233613ef2565b34801561054757600080fd5b506102336105563660046150a8565b613f50565b610233610569366004615182565b614305565b6060600061057b60065490565b905060008060005b8381101561061557600060078161059b8460016154cd565b81526020810191909152604001600020600601546001600160a01b0316148015906105f0575060006007816105d18460016154cd565b81526020810191909152604001600020600701546001600160a01b0316145b15610603576106006001846154cd565b92505b8061060d81615537565b915050610583565b5060008267ffffffffffffffff81111561063157610631615594565b60405190808252806020026020018201604052801561066a57816020015b610657614ea6565b81526020019060019003908161064f5790505b50905060005b838111610ad05760006007816106878460016154cd565b81526020810191909152604001600020600601546001600160a01b0316148015906106dc575060006007816106bd8460016154cd565b81526020810191909152604001600020600701546001600160a01b0316145b15610abe5760006106ee8260016154cd565b9050600060076000838152602001908152602001600020905080604051806101e00160405290816000820154815260200160018201548152602001600282015481526020016003820154815260200160048201805461074c906154fc565b80601f0160208091040260200160405190810160405280929190818152602001828054610778906154fc565b80156107c55780601f1061079a576101008083540402835291602001916107c5565b820191906000526020600020905b8154815290600101906020018083116107a857829003601f168201915b505050918352505060058201546001600160a01b03908116602083015260068301548116604083015260078301548116606083015260088301548116608083015260098301541660a0820152600a8201805460c090920191610826906154fc565b80601f0160208091040260200160405190810160405280929190818152602001828054610852906154fc565b801561089f5780601f106108745761010080835404028352916020019161089f565b820191906000526020600020905b81548152906001019060200180831161088257829003601f168201915b50505050508152602001600b820180546108b8906154fc565b80601f01602080910402602001604051908101604052809291908181526020018280546108e4906154fc565b80156109315780601f1061090657610100808354040283529160200191610931565b820191906000526020600020905b81548152906001019060200180831161091457829003601f168201915b50505050508152602001600c8201805461094a906154fc565b80601f0160208091040260200160405190810160405280929190818152602001828054610976906154fc565b80156109c35780601f10610998576101008083540402835291602001916109c3565b820191906000526020600020905b8154815290600101906020018083116109a657829003601f168201915b50505050508152602001600d820180546109dc906154fc565b80601f0160208091040260200160405190810160405280929190818152602001828054610a08906154fc565b8015610a555780601f10610a2a57610100808354040283529160200191610a55565b820191906000526020600020905b815481529060010190602001808311610a3857829003601f168201915b5050509183525050600e82015460209091019060ff166007811115610a7c57610a7c615568565b6007811115610a8d57610a8d615568565b81525050848681518110610aa357610aa361557e565b6020908102919091010152610ab96001866154cd565b945050505b80610ac881615537565b915050610670565b50949350505050565b610ae2816145fa565b50565b6004546001600160a01b03163314610b3c5760405162461bcd60e51b8152602060048201526015602482015274125395905312510e88155b985d5d1a1bdc9a5e9959605a1b60448201526064015b60405180910390fd5b6004546001600160a01b0316ff5b8160026000828152600760208190526040909120600e015460ff1690811115610b7557610b75615568565b14610b925760405162461bcd60e51b8152600401610b3390615432565b6000838152600760205260409020600601546001600160a01b0316331415610bfc5760405162461bcd60e51b815260206004820152601d60248201527f52657461696c657249442063616e6e6f742062652044697374726f49440000006044820152606401610b33565b6000838152600760205260409020600301543414610c2c5760405162461bcd60e51b8152600401610b3390615467565b600083815260076020526040902060080180546001600160a01b03191633179055610c586001436154e5565b6000848152600860209081526040808320934060059485015560079091528082209283015460039093015490516001600160a01b039093169281156108fc0292818181858888f19350505050158015610cb5573d6000803e3d6000fd5b50600083815260076020819052604090912001546001600160a01b0316610ce057610ce0838361463c565b610cea83836146e9565b610cf3336119e8565b610d0057610d003361293f565b610d0983614775565b6040518381527f54dafe9ea34c9448f0b09cec86e7ede9744e44adedf54b15e3ad40a0942f2fb99060200160405180910390a1505050565b60606000610d4e60065490565b905060008060005b83811015610db1573360076000610d6e8460016154cd565b81526020810191909152604001600020600701546001600160a01b03161415610d9f57610d9c6001846154cd565b92505b80610da981615537565b915050610d56565b5060008267ffffffffffffffff811115610dcd57610dcd615594565b604051908082528060200260200182016040528015610e0657816020015b610df3614ea6565b815260200190600190039081610deb5790505b50905060005b838111610ad0573360076000610e238460016154cd565b81526020810191909152604001600020600701546001600160a01b03161480610e7657503360076000610e578460016154cd565b81526020810191909152604001600020600501546001600160a01b0316145b15611258576000610e888260016154cd565b9050600060076000838152602001908152602001600020905080604051806101e001604052908160008201548152602001600182015481526020016002820154815260200160038201548152602001600482018054610ee6906154fc565b80601f0160208091040260200160405190810160405280929190818152602001828054610f12906154fc565b8015610f5f5780601f10610f3457610100808354040283529160200191610f5f565b820191906000526020600020905b815481529060010190602001808311610f4257829003601f168201915b505050918352505060058201546001600160a01b03908116602083015260068301548116604083015260078301548116606083015260088301548116608083015260098301541660a0820152600a8201805460c090920191610fc0906154fc565b80601f0160208091040260200160405190810160405280929190818152602001828054610fec906154fc565b80156110395780601f1061100e57610100808354040283529160200191611039565b820191906000526020600020905b81548152906001019060200180831161101c57829003601f168201915b50505050508152602001600b82018054611052906154fc565b80601f016020809104026020016040519081016040528092919081815260200182805461107e906154fc565b80156110cb5780601f106110a0576101008083540402835291602001916110cb565b820191906000526020600020905b8154815290600101906020018083116110ae57829003601f168201915b50505050508152602001600c820180546110e4906154fc565b80601f0160208091040260200160405190810160405280929190818152602001828054611110906154fc565b801561115d5780601f106111325761010080835404028352916020019161115d565b820191906000526020600020905b81548152906001019060200180831161114057829003601f168201915b50505050508152602001600d82018054611176906154fc565b80601f01602080910402602001604051908101604052809291908181526020018280546111a2906154fc565b80156111ef5780601f106111c4576101008083540402835291602001916111ef565b820191906000526020600020905b8154815290600101906020018083116111d257829003601f168201915b5050509183525050600e82015460209091019060ff16600781111561121657611216615568565b600781111561122757611227615568565b8152505084868151811061123d5761123d61557e565b60209081029190910101526112536001866154cd565b945050505b8061126281615537565b915050610e0c565b6060600061127760065490565b905060008060005b838110156113455760006007816112978460016154cd565b81526020810191909152604001600020600601546001600160a01b031614801590611320575060006007816112cd8460016154cd565b81526020810191909152604001600020600701546001600160a01b03161480611320575060006007816113018460016154cd565b81526020810191909152604001600020600801546001600160a01b0316145b15611333576113306001846154cd565b92505b8061133d81615537565b91505061127f565b5060008267ffffffffffffffff81111561136157611361615594565b60405190808252806020026020018201604052801561139a57816020015b611387614ea6565b81526020019060019003908161137f5790505b50905060005b838111610ad05760006007816113b78460016154cd565b81526020810191909152604001600020600601546001600160a01b031614801590611440575060006007816113ed8460016154cd565b81526020810191909152604001600020600701546001600160a01b03161480611440575060006007816114218460016154cd565b81526020810191909152604001600020600801546001600160a01b0316145b156118225760006114528260016154cd565b9050600060076000838152602001908152602001600020905080604051806101e0016040529081600082015481526020016001820154815260200160028201548152602001600382015481526020016004820180546114b0906154fc565b80601f01602080910402602001604051908101604052809291908181526020018280546114dc906154fc565b80156115295780601f106114fe57610100808354040283529160200191611529565b820191906000526020600020905b81548152906001019060200180831161150c57829003601f168201915b505050918352505060058201546001600160a01b03908116602083015260068301548116604083015260078301548116606083015260088301548116608083015260098301541660a0820152600a8201805460c09092019161158a906154fc565b80601f01602080910402602001604051908101604052809291908181526020018280546115b6906154fc565b80156116035780601f106115d857610100808354040283529160200191611603565b820191906000526020600020905b8154815290600101906020018083116115e657829003601f168201915b50505050508152602001600b8201805461161c906154fc565b80601f0160208091040260200160405190810160405280929190818152602001828054611648906154fc565b80156116955780601f1061166a57610100808354040283529160200191611695565b820191906000526020600020905b81548152906001019060200180831161167857829003601f168201915b50505050508152602001600c820180546116ae906154fc565b80601f01602080910402602001604051908101604052809291908181526020018280546116da906154fc565b80156117275780601f106116fc57610100808354040283529160200191611727565b820191906000526020600020905b81548152906001019060200180831161170a57829003601f168201915b50505050508152602001600d82018054611740906154fc565b80601f016020809104026020016040519081016040528092919081815260200182805461176c906154fc565b80156117b95780601f1061178e576101008083540402835291602001916117b9565b820191906000526020600020905b81548152906001019060200180831161179c57829003601f168201915b5050509183525050600e82015460209091019060ff1660078111156117e0576117e0615568565b60078111156117f1576117f1615568565b815250508486815181106118075761180761557e565b602090810291909101015261181d6001866154cd565b945050505b8061182c81615537565b9150506113a0565b6000828152600760205260409020600601546001600160a01b031633141561189e5760405162461bcd60e51b815260206004820181905260248201527f4469737472696275746f7249442063616e6e6f74206265206661726d657249446044820152606401610b33565b60008281526007602052604090206003015434146118ce5760405162461bcd60e51b8152600401610b3390615467565b60008281526007602081905260409091206005810180546001600160a01b031990811633908117909255928201805490931617909155600e8101805460ff191660021790556003018190556119246001436154e5565b6000838152600860205260409020904060039091015561194333612948565b6119505761195033611ab9565b6000828152600760205260408082206005015490516001600160a01b03909116913480156108fc02929091818181858888f19350505050158015611998573d6000803e3d6000fd5b50600082815260076020908152604091829020600301548251858152918201527f4800dc7afcf4dcadc2087f50ea552fbba15fa8eb54795438666c4062dd23e42191015b60405180910390a15050565b60006119f560028361483a565b92915050565b611a0433612409565b611a505760405162461bcd60e51b815260206004820152601760248201527f494e56414c49443a204e6f74206120436f6e73756d65720000000000000000006044820152606401610b33565b611a5933614882565b565b611a6433612948565b611ab05760405162461bcd60e51b815260206004820152601a60248201527f494e56414c49443a204e6f742061204469737472696275746f720000000000006044820152606401610b33565b611a59336148c4565b610ae281614906565b60606000611acf60065490565b905060008060005b83811015611b32573360076000611aef8460016154cd565b81526020810191909152604001600020600601546001600160a01b03161415611b2057611b1d6001846154cd565b92505b80611b2a81615537565b915050611ad7565b5060008267ffffffffffffffff811115611b4e57611b4e615594565b604051908082528060200260200182016040528015611b8757816020015b611b74614ea6565b815260200190600190039081611b6c5790505b50905060005b838111610ad0573360076000611ba48460016154cd565b81526020810191909152604001600020600601546001600160a01b03161480611bf757503360076000611bd88460016154cd565b81526020810191909152604001600020600501546001600160a01b0316145b15611fd9576000611c098260016154cd565b9050600060076000838152602001908152602001600020905080604051806101e001604052908160008201548152602001600182015481526020016002820154815260200160038201548152602001600482018054611c67906154fc565b80601f0160208091040260200160405190810160405280929190818152602001828054611c93906154fc565b8015611ce05780601f10611cb557610100808354040283529160200191611ce0565b820191906000526020600020905b815481529060010190602001808311611cc357829003601f168201915b505050918352505060058201546001600160a01b03908116602083015260068301548116604083015260078301548116606083015260088301548116608083015260098301541660a0820152600a8201805460c090920191611d41906154fc565b80601f0160208091040260200160405190810160405280929190818152602001828054611d6d906154fc565b8015611dba5780601f10611d8f57610100808354040283529160200191611dba565b820191906000526020600020905b815481529060010190602001808311611d9d57829003601f168201915b50505050508152602001600b82018054611dd3906154fc565b80601f0160208091040260200160405190810160405280929190818152602001828054611dff906154fc565b8015611e4c5780601f10611e2157610100808354040283529160200191611e4c565b820191906000526020600020905b815481529060010190602001808311611e2f57829003601f168201915b50505050508152602001600c82018054611e65906154fc565b80601f0160208091040260200160405190810160405280929190818152602001828054611e91906154fc565b8015611ede5780601f10611eb357610100808354040283529160200191611ede565b820191906000526020600020905b815481529060010190602001808311611ec157829003601f168201915b50505050508152602001600d82018054611ef7906154fc565b80601f0160208091040260200160405190810160405280929190818152602001828054611f23906154fc565b8015611f705780601f10611f4557610100808354040283529160200191611f70565b820191906000526020600020905b815481529060010190602001808311611f5357829003601f168201915b5050509183525050600e82015460209091019060ff166007811115611f9757611f97615568565b6007811115611fa857611fa8615568565b81525050848681518110611fbe57611fbe61557e565b6020908102919091010152611fd46001866154cd565b945050505b80611fe381615537565b915050611b8d565b60008060076000848152602001908152602001600020604051806101e001604052908160008201548152602001600182015481526020016002820154815260200160038201548152602001600482018054612045906154fc565b80601f0160208091040260200160405190810160405280929190818152602001828054612071906154fc565b80156120be5780601f10612093576101008083540402835291602001916120be565b820191906000526020600020905b8154815290600101906020018083116120a157829003601f168201915b505050918352505060058201546001600160a01b03908116602083015260068301548116604083015260078301548116606083015260088301548116608083015260098301541660a0820152600a8201805460c09092019161211f906154fc565b80601f016020809104026020016040519081016040528092919081815260200182805461214b906154fc565b80156121985780601f1061216d57610100808354040283529160200191612198565b820191906000526020600020905b81548152906001019060200180831161217b57829003601f168201915b50505050508152602001600b820180546121b1906154fc565b80601f01602080910402602001604051908101604052809291908181526020018280546121dd906154fc565b801561222a5780601f106121ff5761010080835404028352916020019161222a565b820191906000526020600020905b81548152906001019060200180831161220d57829003601f168201915b50505050508152602001600c82018054612243906154fc565b80601f016020809104026020016040519081016040528092919081815260200182805461226f906154fc565b80156122bc5780601f10612291576101008083540402835291602001916122bc565b820191906000526020600020905b81548152906001019060200180831161229f57829003601f168201915b50505050508152602001600d820180546122d5906154fc565b80601f0160208091040260200160405190810160405280929190818152602001828054612301906154fc565b801561234e5780601f106123235761010080835404028352916020019161234e565b820191906000526020600020905b81548152906001019060200180831161233157829003601f168201915b5050509183525050600e82015460209091019060ff16600781111561237557612375615568565b600781111561238657612386615568565b815250509050806101c0015160078111156123a3576123a3615568565b9392505050565b610ae281614948565b6123bc33613e86565b6124005760405162461bcd60e51b815260206004820152601560248201527424a72b20a624a21d102737ba1030902330b936b2b960591b6044820152606401610b33565b611a593361498a565b60006119f560038361483a565b6060600061242360065490565b905060008060005b838110156124865733600760006124438460016154cd565b81526020810191909152604001600020600801546001600160a01b03161415612474576124716001846154cd565b92505b8061247e81615537565b91505061242b565b5060008267ffffffffffffffff8111156124a2576124a2615594565b6040519080825280602002602001820160405280156124db57816020015b6124c8614ea6565b8152602001906001900390816124c05790505b50905060005b838111610ad05733600760006124f88460016154cd565b81526020810191909152604001600020600801546001600160a01b0316148061254b5750336007600061252c8460016154cd565b81526020810191909152604001600020600501546001600160a01b0316145b1561292d57600061255d8260016154cd565b9050600060076000838152602001908152602001600020905080604051806101e0016040529081600082015481526020016001820154815260200160028201548152602001600382015481526020016004820180546125bb906154fc565b80601f01602080910402602001604051908101604052809291908181526020018280546125e7906154fc565b80156126345780601f1061260957610100808354040283529160200191612634565b820191906000526020600020905b81548152906001019060200180831161261757829003601f168201915b505050918352505060058201546001600160a01b03908116602083015260068301548116604083015260078301548116606083015260088301548116608083015260098301541660a0820152600a8201805460c090920191612695906154fc565b80601f01602080910402602001604051908101604052809291908181526020018280546126c1906154fc565b801561270e5780601f106126e35761010080835404028352916020019161270e565b820191906000526020600020905b8154815290600101906020018083116126f157829003601f168201915b50505050508152602001600b82018054612727906154fc565b80601f0160208091040260200160405190810160405280929190818152602001828054612753906154fc565b80156127a05780601f10612775576101008083540402835291602001916127a0565b820191906000526020600020905b81548152906001019060200180831161278357829003601f168201915b50505050508152602001600c820180546127b9906154fc565b80601f01602080910402602001604051908101604052809291908181526020018280546127e5906154fc565b80156128325780601f1061280757610100808354040283529160200191612832565b820191906000526020600020905b81548152906001019060200180831161281557829003601f168201915b50505050508152602001600d8201805461284b906154fc565b80601f0160208091040260200160405190810160405280929190818152602001828054612877906154fc565b80156128c45780601f10612899576101008083540402835291602001916128c4565b820191906000526020600020905b8154815290600101906020018083116128a757829003601f168201915b5050509183525050600e82015460209091019060ff1660078111156128eb576128eb615568565b60078111156128fc576128fc615568565b815250508486815181106129125761291261557e565b60209081029190910101526129286001866154cd565b945050505b8061293781615537565b9150506124e1565b610ae2816149cc565b60006119f560018361483a565b6060600061296260065490565b905060008060005b838110156129c55733600760006129828460016154cd565b81526020810191909152604001600020600901546001600160a01b031614156129b3576129b06001846154cd565b92505b806129bd81615537565b91505061296a565b5060008267ffffffffffffffff8111156129e1576129e1615594565b604051908082528060200260200182016040528015612a1a57816020015b612a07614ea6565b8152602001906001900390816129ff5790505b50905060005b838111610ad0573360076000612a378460016154cd565b81526020810191909152604001600020600901546001600160a01b03161480612a8a57503360076000612a6b8460016154cd565b81526020810191909152604001600020600501546001600160a01b0316145b15612e6c576000612a9c8260016154cd565b9050600060076000838152602001908152602001600020905080604051806101e001604052908160008201548152602001600182015481526020016002820154815260200160038201548152602001600482018054612afa906154fc565b80601f0160208091040260200160405190810160405280929190818152602001828054612b26906154fc565b8015612b735780601f10612b4857610100808354040283529160200191612b73565b820191906000526020600020905b815481529060010190602001808311612b5657829003601f168201915b505050918352505060058201546001600160a01b03908116602083015260068301548116604083015260078301548116606083015260088301548116608083015260098301541660a0820152600a8201805460c090920191612bd4906154fc565b80601f0160208091040260200160405190810160405280929190818152602001828054612c00906154fc565b8015612c4d5780601f10612c2257610100808354040283529160200191612c4d565b820191906000526020600020905b815481529060010190602001808311612c3057829003601f168201915b50505050508152602001600b82018054612c66906154fc565b80601f0160208091040260200160405190810160405280929190818152602001828054612c92906154fc565b8015612cdf5780601f10612cb457610100808354040283529160200191612cdf565b820191906000526020600020905b815481529060010190602001808311612cc257829003601f168201915b50505050508152602001600c82018054612cf8906154fc565b80601f0160208091040260200160405190810160405280929190818152602001828054612d24906154fc565b8015612d715780601f10612d4657610100808354040283529160200191612d71565b820191906000526020600020905b815481529060010190602001808311612d5457829003601f168201915b50505050508152602001600d82018054612d8a906154fc565b80601f0160208091040260200160405190810160405280929190818152602001828054612db6906154fc565b8015612e035780601f10612dd857610100808354040283529160200191612e03565b820191906000526020600020905b815481529060010190602001808311612de657829003601f168201915b5050509183525050600e82015460209091019060ff166007811115612e2a57612e2a615568565b6007811115612e3b57612e3b615568565b81525050848681518110612e5157612e5161557e565b6020908102919091010152612e676001866154cd565b945050505b80612e7681615537565b915050612a20565b60606000612e8b60065490565b90506000808267ffffffffffffffff811115612ea957612ea9615594565b604051908082528060200260200182016040528015612f1857816020015b604080516101008101825260008082526020808301829052928201819052606082018190526080820181905260a0820181905260c0820181905260e08201528252600019909201910181612ec75790505b50905060005b838111610ad0578560086000612f358460016154cd565b8152602001908152602001600020600001541415612ffd576000612f5a8260016154cd565b90506000600860008381526020019081526020016000209050806040518061010001604052908160008201548152602001600182015481526020016002820154815260200160038201548152602001600482015481526020016005820154815260200160068201548152602001600782015481525050848681518110612fe257612fe261557e565b6020908102919091010152612ff86001866154cd565b945050505b8061300781615537565b915050612f1e565b6060600061301c60065490565b905060008060005b8381101561311f57600060078161303c8460016154cd565b81526020810191909152604001600020600601546001600160a01b0316148015906130fa575060006007816130728460016154cd565b81526020810191909152604001600020600701546001600160a01b031614806130c5575060006007816130a68460016154cd565b81526020810191909152604001600020600801546001600160a01b0316145b806130fa575060006007816130db8460016154cd565b81526020810191909152604001600020600901546001600160a01b0316145b1561310d5761310a6001846154cd565b92505b8061311781615537565b915050613024565b5060008267ffffffffffffffff81111561313b5761313b615594565b60405190808252806020026020018201604052801561317457816020015b613161614ea6565b8152602001906001900390816131595790505b50905060005b838111610ad05760006007816131918460016154cd565b81526020810191909152604001600020600601546001600160a01b03161480159061324f575060006007816131c78460016154cd565b81526020810191909152604001600020600701546001600160a01b0316148061321a575060006007816131fb8460016154cd565b81526020810191909152604001600020600801546001600160a01b0316145b8061324f575060006007816132308460016154cd565b81526020810191909152604001600020600901546001600160a01b0316145b156136315760006132618260016154cd565b9050600060076000838152602001908152602001600020905080604051806101e0016040529081600082015481526020016001820154815260200160028201548152602001600382015481526020016004820180546132bf906154fc565b80601f01602080910402602001604051908101604052809291908181526020018280546132eb906154fc565b80156133385780601f1061330d57610100808354040283529160200191613338565b820191906000526020600020905b81548152906001019060200180831161331b57829003601f168201915b505050918352505060058201546001600160a01b03908116602083015260068301548116604083015260078301548116606083015260088301548116608083015260098301541660a0820152600a8201805460c090920191613399906154fc565b80601f01602080910402602001604051908101604052809291908181526020018280546133c5906154fc565b80156134125780601f106133e757610100808354040283529160200191613412565b820191906000526020600020905b8154815290600101906020018083116133f557829003601f168201915b50505050508152602001600b8201805461342b906154fc565b80601f0160208091040260200160405190810160405280929190818152602001828054613457906154fc565b80156134a45780601f10613479576101008083540402835291602001916134a4565b820191906000526020600020905b81548152906001019060200180831161348757829003601f168201915b50505050508152602001600c820180546134bd906154fc565b80601f01602080910402602001604051908101604052809291908181526020018280546134e9906154fc565b80156135365780601f1061350b57610100808354040283529160200191613536565b820191906000526020600020905b81548152906001019060200180831161351957829003601f168201915b50505050508152602001600d8201805461354f906154fc565b80601f016020809104026020016040519081016040528092919081815260200182805461357b906154fc565b80156135c85780601f1061359d576101008083540402835291602001916135c8565b820191906000526020600020905b8154815290600101906020018083116135ab57829003601f168201915b5050509183525050600e82015460209091019060ff1660078111156135ef576135ef615568565b600781111561360057613600615568565b815250508486815181106136165761361661557e565b602090810291909101015261362c6001866154cd565b945050505b8061363b81615537565b91505061317a565b6060600061365060065490565b90506000808267ffffffffffffffff81111561366e5761366e615594565b6040519080825280602002602001820160405280156136a757816020015b613694614ea6565b81526020019060019003908161368c5790505b50905060005b838111613ad55760006007816136c48460016154cd565b81526020810191909152604001600020600501546001600160a01b031614613ac35760006136f38260016154cd565b9050600060076000838152602001908152602001600020905080604051806101e001604052908160008201548152602001600182015481526020016002820154815260200160038201548152602001600482018054613751906154fc565b80601f016020809104026020016040519081016040528092919081815260200182805461377d906154fc565b80156137ca5780601f1061379f576101008083540402835291602001916137ca565b820191906000526020600020905b8154815290600101906020018083116137ad57829003601f168201915b505050918352505060058201546001600160a01b03908116602083015260068301548116604083015260078301548116606083015260088301548116608083015260098301541660a0820152600a8201805460c09092019161382b906154fc565b80601f0160208091040260200160405190810160405280929190818152602001828054613857906154fc565b80156138a45780601f10613879576101008083540402835291602001916138a4565b820191906000526020600020905b81548152906001019060200180831161388757829003601f168201915b50505050508152602001600b820180546138bd906154fc565b80601f01602080910402602001604051908101604052809291908181526020018280546138e9906154fc565b80156139365780601f1061390b57610100808354040283529160200191613936565b820191906000526020600020905b81548152906001019060200180831161391957829003601f168201915b50505050508152602001600c8201805461394f906154fc565b80601f016020809104026020016040519081016040528092919081815260200182805461397b906154fc565b80156139c85780601f1061399d576101008083540402835291602001916139c8565b820191906000526020600020905b8154815290600101906020018083116139ab57829003601f168201915b50505050508152602001600d820180546139e1906154fc565b80601f0160208091040260200160405190810160405280929190818152602001828054613a0d906154fc565b8015613a5a5780601f10613a2f57610100808354040283529160200191613a5a565b820191906000526020600020905b815481529060010190602001808311613a3d57829003601f168201915b5050509183525050600e82015460209091019060ff166007811115613a8157613a81615568565b6007811115613a9257613a92615568565b81525050848681518110613aa857613aa861557e565b6020908102919091010152613abe6001866154cd565b945050505b80613acd81615537565b9150506136ad565b509392505050565b60008060076000848152602001908152602001600020604051806101e001604052908160008201548152602001600182015481526020016002820154815260200160038201548152602001600482018054613b37906154fc565b80601f0160208091040260200160405190810160405280929190818152602001828054613b63906154fc565b8015613bb05780601f10613b8557610100808354040283529160200191613bb0565b820191906000526020600020905b815481529060010190602001808311613b9357829003601f168201915b505050918352505060058201546001600160a01b03908116602083015260068301548116604083015260078301548116606083015260088301548116608083015260098301541660a0820152600a8201805460c090920191613c11906154fc565b80601f0160208091040260200160405190810160405280929190818152602001828054613c3d906154fc565b8015613c8a5780601f10613c5f57610100808354040283529160200191613c8a565b820191906000526020600020905b815481529060010190602001808311613c6d57829003601f168201915b50505050508152602001600b82018054613ca3906154fc565b80601f0160208091040260200160405190810160405280929190818152602001828054613ccf906154fc565b8015613d1c5780601f10613cf157610100808354040283529160200191613d1c565b820191906000526020600020905b815481529060010190602001808311613cff57829003601f168201915b50505050508152602001600c82018054613d35906154fc565b80601f0160208091040260200160405190810160405280929190818152602001828054613d61906154fc565b8015613dae5780601f10613d8357610100808354040283529160200191613dae565b820191906000526020600020905b815481529060010190602001808311613d9157829003601f168201915b50505050508152602001600d82018054613dc7906154fc565b80601f0160208091040260200160405190810160405280929190818152602001828054613df3906154fc565b8015613e405780601f10613e1557610100808354040283529160200191613e40565b820191906000526020600020905b815481529060010190602001808311613e2357829003601f168201915b5050509183525050600e82015460209091019060ff166007811115613e6757613e67615568565b6007811115613e7857613e78615568565b905250606001519392505050565b60006119f5818361483a565b600082815260076020819052604090912001546001600160a01b0316613ebc57613ebc8282611834565b6000828152600760205260409020600801546001600160a01b0316613ee957613ee58282610b4a565b5050565b613ee582614305565b613efb336119e8565b613f475760405162461bcd60e51b815260206004820152601760248201527f494e56414c49443a204e6f7420612052657461696c65720000000000000000006044820152606401610b33565b611a5933614a0e565b613f5e600580546001019055565b613f6c600680546001019055565b6000613f7760055490565b60065460408051602081019390935282015260600160408051601f1981840301815282825280516020909101206101e08301909152915080613fb860065490565b8152602001613fc660055490565b8152602001828152602001838152602001848152602001336001600160a01b03168152602001336001600160a01b0316815260200160006001600160a01b0316815260200160006001600160a01b0316815260200160006001600160a01b031681526020018881526020018781526020018681526020018581526020016000600781111561405657614056615568565b90526007600061406560055490565b81526020019081526020016000206000820151816000015560208201518160010155604082015181600201556060820151816003015560808201518160040190805190602001906140b7929190614f59565b5060a08201516005820180546001600160a01b03199081166001600160a01b039384161790915560c0840151600684018054831691841691909117905560e0840151600784018054831691841691909117905561010084015160088401805483169184169190911790556101208401516009840180549092169216919091179055610140820151805161415491600a840191602090910190614f59565b50610160820151805161417191600b840191602090910190614f59565b50610180820151805161418e91600c840191602090910190614f59565b506101a082015180516141ab91600d840191602090910190614f59565b506101c0820151600e8201805460ff191660018360078111156141d0576141d0615568565b02179055509050506040518061010001604052806141ed60055490565b81526020016141fd6001436154e5565b40815260006020820181905260408201819052606082018190526080820181905260a0820181905260c090910181905260089061423960055490565b8152602001908152602001600020600082015181600001556020820151816001015560408201518160020155606082015181600301556080820151816004015560a0820151816005015560c0820151816006015560e082015181600701559050506142ab6142a660055490565b614a50565b6142b433613e86565b6142c1576142c1336123aa565b7f8e55ccfc9778ff8eba1646d765cf1982537ce0f9257054a17b48aad7452501836142eb60055490565b60405190815260200160405180910390a150505050505050565b8060056000828152600760208190526040909120600e015460ff169081111561433057614330615568565b1461437d5760405162461bcd60e51b815260206004820152601a60248201527f494e56414c49443a204974656d204e6f742052656365697665640000000000006044820152606401610b33565b6000828152600760205260409020600601546001600160a01b03163314156143e75760405162461bcd60e51b815260206004820152601f60248201527f436f6e73756d657249442063616e6e6f742062652052657461696c65724944006044820152606401610b33565b60008281526007602052604090206003015434146144175760405162461bcd60e51b8152600401610b3390615467565b60008281526007602052604090206009810180546001600160a01b03191633179055600e01805460ff1916600190811790915561445490436154e5565b6000838152600860209081526040808320934060079485015590839052902001546001600160a01b03161580156144a357506000828152600760205260409020600801546001600160a01b0316155b156144b1576144b182614ad0565b6144ba82614bcd565b6144c333612409565b6144d0576144d033610ad9565b6144d982614c89565b600082815260076020526040808220600581015460039091015491516001600160a01b039091169282156108fc02929190818181858888f19350505050158015614527573d6000803e3d6000fd5b506040518281527ff8d4d18c02478c21f38cf4aa60c47b8baf0215ad5d0b0ad565ef8580e03c7ef1906020016119dc565b6001600160a01b03811661457e5760405162461bcd60e51b8152600401610b339061549e565b614588828261483a565b156145d55760405162461bcd60e51b815260206004820152601a60248201527f494e56414c49443a204163636f756e74204861766520526f6c650000000000006044820152606401610b33565b6001600160a01b0316600090815260209190915260409020805460ff19166001179055565b614605600382614558565b6040516001600160a01b038216907f28b26e7a3d20aedbc5f8f2ebf7da671c0491723a2b78f47a097b0e46dee0714290600090a250565b600082815260076020908152604091829020600e8101805460ff1916600390811790915501839055815180820191909152601791810191909152764449524543545f544f5f52455441494c45525f53414c4560481b606082015260800160408051601f198184030181529181528151602092830120600085815260089093529120600201556146cc6001436154e5565b600092835260086020526040909220914060049092019190915550565b6000828152600760205260409020600e8101805460ff19166003908117909155018190556147186001436154e5565b4060086000848152602001908152602001600020600401819055507f54dafe9ea34c9448f0b09cec86e7ede9744e44adedf54b15e3ad40a0942f2fb98260405161476491815260200190565b60405180910390a1613ee582614d49565b8060016000828152600760208190526040909120600e015460ff16908111156147a0576147a0615568565b146147ed5760405162461bcd60e51b815260206004820152601a60248201527f494e56414c49443a204974656d204e6f7420466f722053616c650000000000006044820152606401610b33565b600082815260076020908152604091829020600e01805460ff1916600517905590518381527f37f3711bfa8ff1e2bebc5e7a9afdc0de750e97f83f26f0b6d62d7a4130f99d2d91016119dc565b60006001600160a01b0382166148625760405162461bcd60e51b8152600401610b339061549e565b506001600160a01b03166000908152602091909152604090205460ff1690565b61488d600382614e08565b6040516001600160a01b038216907fe3f5ed5f263f1f01764a96edfc7d025f511ec5f7d180e8816908b78bcf74f09890600090a250565b6148cf600182614e08565b6040516001600160a01b038216907f126174f6cf49c81cdb4a9214c6b8f037bef55b4ec31e4fc776cea2a1c8a88d5990600090a250565b614911600182614558565b6040516001600160a01b038216907fddbf200aa634dc3fb81cfd68583dd1040d1c751d335e1d86b631bde3e977fea890600090a250565b614953600082614558565b6040516001600160a01b038216907f2e0ded4123377a3c2bc9a26f1717655a129e2f20752924d42e730ec89c83dbd090600090a250565b614995600082614e08565b6040516001600160a01b038216907fa5e0f060af304ab17dd418c7927e3da3ae7868189bf387aee09ab179ccc572f290600090a250565b6149d7600282614558565b6040516001600160a01b038216907f71ae26cad02663e3d92efd6ec56031a80d74a20c0ab4183faa8bf262261c9baa90600090a250565b614a19600282614e08565b6040516001600160a01b038216907fdb7176e79cffef81cb01767dd0447a0b24bb72ca9778d4b245581086b2a7e6db90600090a250565b6000818152600760205260409020600e01805460ff19166001908117909155614a7990436154e5565b4060086000838152602001908152602001600020600201819055507fa96ae0fc3224ebd79eebfe54bd130cc9cb94416cddd1f2386115e00b7253246881604051614ac591815260200190565b60405180910390a150565b6000818152600760205260409020600e0180546003919060ff19166001830217905550604051602001614b349060208082526017908201527f4449524543545f544f5f434f4e53554d45525f53414c45000000000000000000604082015260600190565b60408051601f19818403019052818152600083815260086020818152838320818601829052601786860152764449524543545f544f5f52455441494c45525f53414c4560481b6060808801919091528551808803909101815260809096019094528451948101949094209185905290925260020155614bb46001436154e5565b6000918252600860205260409091209040600490910155565b8060016000828152600760208190526040909120600e015460ff1690811115614bf857614bf8615568565b14614c455760405162461bcd60e51b815260206004820152601a60248201527f494e56414c49443a204974656d204e6f7420466f722053616c650000000000006044820152606401610b33565b6000828152600760205260409020600e01805460ff19166006179055614c6c6001436154e5565b600092835260086020526040909220914060069092019190915550565b8060066000828152600760208190526040909120600e015460ff1690811115614cb457614cb4615568565b14614cd15760405162461bcd60e51b8152600401610b3390615432565b600082815260076020819052604090912060098101546005820180546001600160a01b0319166001600160a01b03909216919091179055600e01805460ff191660018302179055506040518281527f8a746d5b91a9a334d1abbeee7d031aac6d5c59ea6e982ac06aef4346cce5749e906020016119dc565b8060036000828152600760208190526040909120600e015460ff1690811115614d7457614d74615568565b14614d915760405162461bcd60e51b8152600401610b3390615432565b600082815260076020908152604091829020600e8101805460ff191660011790556008810154600590910180546001600160a01b039092166001600160a01b031990921691909117905590518381527f710cdb674ad272ba75647b6f54d9dfd1b8fe19dba2528b54c7c20972b273c9ef91016119dc565b6001600160a01b038116614e2e5760405162461bcd60e51b8152600401610b339061549e565b614e38828261483a565b614e845760405162461bcd60e51b815260206004820152601d60248201527f494e56414c49443a204163636f756e742048617665204e6f20526f6c650000006044820152606401610b33565b6001600160a01b0316600090815260209190915260409020805460ff19169055565b604051806101e00160405280600081526020016000815260200160008152602001600081526020016060815260200160006001600160a01b0316815260200160006001600160a01b0316815260200160006001600160a01b0316815260200160006001600160a01b0316815260200160006001600160a01b031681526020016060815260200160608152602001606081526020016060815260200160006007811115614f5457614f54615568565b905290565b828054614f65906154fc565b90600052602060002090601f016020900481019282614f875760008555614fcd565b82601f10614fa057805160ff1916838001178555614fcd565b82800160010185558215614fcd579182015b82811115614fcd578251825591602001919060010190614fb2565b50614fd9929150614fdd565b5090565b5b80821115614fd95760008155600101614fde565b600082601f83011261500357600080fd5b813567ffffffffffffffff8082111561501e5761501e615594565b604051601f8301601f19908116603f0116810190828211818310171561504657615046615594565b8160405283815286602085880101111561505f57600080fd5b836020870160208301376000602085830101528094505050505092915050565b60006020828403121561509157600080fd5b81356001600160a01b03811681146123a357600080fd5b60008060008060008060c087890312156150c157600080fd5b863567ffffffffffffffff808211156150d957600080fd5b6150e58a838b01614ff2565b975060208901359150808211156150fb57600080fd5b6151078a838b01614ff2565b9650604089013591508082111561511d57600080fd5b6151298a838b01614ff2565b9550606089013591508082111561513f57600080fd5b61514b8a838b01614ff2565b9450608089013591508082111561516157600080fd5b5061516e89828a01614ff2565b92505060a087013590509295509295509295565b60006020828403121561519457600080fd5b5035919050565b600080604083850312156151ae57600080fd5b50508035926020909101359150565b600881106151db57634e487b7160e01b600052602160045260246000fd5b9052565b6000815180845260005b81811015615205576020818501810151868301820152016151e9565b81811115615217576000602083870101525b50601f01601f19169290920160200192915050565b60006020808301818452808551808352604092508286019150828160051b87010184880160005b8381101561539757603f1989840301855281516101e081518552888201518986015287820151888601526060808301518187015250608080830151828288015261529f838801826151df565b9250505060a0808301516152bd828801826001600160a01b03169052565b505060c0828101516001600160a01b039081169187019190915260e080840151821690870152610100808401518216908701526101208084015190911690860152610140808301518683038288015261531683826151df565b92505050610160808301518683038288015261533283826151df565b92505050610180808301518683038288015261534e83826151df565b925050506101a0808301518683038288015261536a83826151df565b925050506101c0808301519250615383818701846151bd565b509588019593505090860190600101615253565b509098975050505050505050565b602080825282518282018190526000919060409081850190868401855b828110156154255781518051855286810151878601528581015186860152606080820151908601526080808201519086015260a0808201519086015260c0808201519086015260e0908101519085015261010090930192908501906001016153c2565b5091979650505050505050565b6020808252818101527f494e56414c49443a204e6f7420536f6c6420546f204469737472696275746f72604082015260600190565b6020808252601e908201527f496e73756666696369656e7420416d6f756e74207472616e7366657265640000604082015260600190565b602080825260159082015274494e56414c49443a2044454144204164647265737360581b604082015260600190565b600082198211156154e0576154e0615552565b500190565b6000828210156154f7576154f7615552565b500390565b600181811c9082168061551057607f821691505b6020821081141561553157634e487b7160e01b600052602260045260246000fd5b50919050565b600060001982141561554b5761554b615552565b5060010190565b634e487b7160e01b600052601160045260246000fd5b634e487b7160e01b600052602160045260246000fd5b634e487b7160e01b600052603260045260246000fd5b634e487b7160e01b600052604160045260246000fdfea264697066735822122009e20f9d264a735bac64cebd49bd0e77f4b2b9878aa99b5bd572d4d20c301cde64736f6c63430008060033",
  "linkReferences": {},
  "deployedLinkReferences": {}
}