{
  "_format": "hh-sol-artifact-1",
  "contractName": "SupplyChain",
  "sourceName": "contracts/base/SupplyChain.sol",
  "abi": [
    {
      "inputs": [],
      "stateMutability": "nonpayable",
      "type": "constructor"
    },
    {
      "anonymous": false,
      "inputs": [
        {
          "indexed": true,
          "internalType": "address",
          "name": "account",
          "type": "address"
        }
      ],
      "name": "ConsumerAdded",
      "type": "event"
    },
    {
      "anonymous": false,
      "inputs": [
        {
          "indexed": true,
          "internalType": "address",
          "name": "account",
          "type": "address"
        }
      ],
      "name": "ConsumerRemoved",
      "type": "event"
    },
    {
      "anonymous": false,
      "inputs": [
        {
          "indexed": true,
          "internalType": "address",
          "name": "account",
          "type": "address"
        }
      ],
      "name": "DistributorAdded",
      "type": "event"
    },
    {
      "anonymous": false,
      "inputs": [
        {
          "indexed": true,
          "internalType": "address",
          "name": "account",
          "type": "address"
        }
      ],
      "name": "DistributorRemoved",
      "type": "event"
    },
    {
      "anonymous": false,
      "inputs": [
        {
          "indexed": true,
          "internalType": "address",
          "name": "account",
          "type": "address"
        }
      ],
      "name": "FarmerAdded",
      "type": "event"
    },
    {
      "anonymous": false,
      "inputs": [
        {
          "indexed": true,
          "internalType": "address",
          "name": "account",
          "type": "address"
        }
      ],
      "name": "FarmerRemoved",
      "type": "event"
    },
    {
      "anonymous": false,
      "inputs": [
        {
          "indexed": false,
          "internalType": "uint256",
          "name": "upc",
          "type": "uint256"
        }
      ],
      "name": "ForSale",
      "type": "event"
    },
    {
      "anonymous": false,
      "inputs": [
        {
          "indexed": false,
          "internalType": "uint256",
          "name": "upc",
          "type": "uint256"
        }
      ],
      "name": "Harvested",
      "type": "event"
    },
    {
      "anonymous": false,
      "inputs": [
        {
          "indexed": false,
          "internalType": "uint256",
          "name": "upc",
          "type": "uint256"
        }
      ],
      "name": "ReceivedByCustomer",
      "type": "event"
    },
    {
      "anonymous": false,
      "inputs": [
        {
          "indexed": false,
          "internalType": "uint256",
          "name": "upc",
          "type": "uint256"
        }
      ],
      "name": "ReceivedByRetail",
      "type": "event"
    },
    {
      "anonymous": false,
      "inputs": [
        {
          "indexed": true,
          "internalType": "address",
          "name": "account",
          "type": "address"
        }
      ],
      "name": "RetailerAdded",
      "type": "event"
    },
    {
      "anonymous": false,
      "inputs": [
        {
          "indexed": true,
          "internalType": "address",
          "name": "account",
          "type": "address"
        }
      ],
      "name": "RetailerRemoved",
      "type": "event"
    },
    {
      "anonymous": false,
      "inputs": [
        {
          "indexed": false,
          "internalType": "uint256",
          "name": "upc",
          "type": "uint256"
        }
      ],
      "name": "ShippedToRetail",
      "type": "event"
    },
    {
      "anonymous": false,
      "inputs": [
        {
          "indexed": false,
          "internalType": "uint256",
          "name": "upc",
          "type": "uint256"
        }
      ],
      "name": "SoldToConsumer",
      "type": "event"
    },
    {
      "anonymous": false,
      "inputs": [
        {
          "indexed": false,
          "internalType": "uint256",
          "name": "upc",
          "type": "uint256"
        },
        {
          "indexed": false,
          "internalType": "uint256",
          "name": "amount",
          "type": "uint256"
        }
      ],
      "name": "SoldToDist",
      "type": "event"
    },
    {
      "anonymous": false,
      "inputs": [
        {
          "indexed": false,
          "internalType": "uint256",
          "name": "upc",
          "type": "uint256"
        }
      ],
      "name": "SoldToRetail",
      "type": "event"
    },
    {
      "inputs": [
        {
          "internalType": "address",
          "name": "account",
          "type": "address"
        }
      ],
      "name": "addConsumer",
      "outputs": [],
      "stateMutability": "nonpayable",
      "type": "function"
    },
    {
      "inputs": [
        {
          "internalType": "address",
          "name": "account",
          "type": "address"
        }
      ],
      "name": "addDistributor",
      "outputs": [],
      "stateMutability": "nonpayable",
      "type": "function"
    },
    {
      "inputs": [
        {
          "internalType": "address",
          "name": "account",
          "type": "address"
        }
      ],
      "name": "addFarmer",
      "outputs": [],
      "stateMutability": "nonpayable",
      "type": "function"
    },
    {
      "inputs": [
        {
          "internalType": "address",
          "name": "account",
          "type": "address"
        }
      ],
      "name": "addRetailer",
      "outputs": [],
      "stateMutability": "nonpayable",
      "type": "function"
    },
    {
      "inputs": [
        {
          "internalType": "uint256",
          "name": "_upc",
          "type": "uint256"
        },
        {
          "internalType": "uint256",
          "name": "_newPrice",
          "type": "uint256"
        }
      ],
      "name": "buy",
      "outputs": [],
      "stateMutability": "payable",
      "type": "function"
    },
    {
      "inputs": [
        {
          "internalType": "uint256",
          "name": "_upc",
          "type": "uint256"
        }
      ],
      "name": "buyAsConsumer",
      "outputs": [],
      "stateMutability": "payable",
      "type": "function"
    },
    {
      "inputs": [
        {
          "internalType": "uint256",
          "name": "_upc",
          "type": "uint256"
        },
        {
          "internalType": "uint256",
          "name": "_newPrice",
          "type": "uint256"
        }
      ],
      "name": "buyAsDist",
      "outputs": [],
      "stateMutability": "payable",
      "type": "function"
    },
    {
      "inputs": [
        {
          "internalType": "uint256",
          "name": "_upc",
          "type": "uint256"
        },
        {
          "internalType": "uint256",
          "name": "_newPrice",
          "type": "uint256"
        }
      ],
      "name": "buyAsRetail",
      "outputs": [],
      "stateMutability": "payable",
      "type": "function"
    },
    {
      "inputs": [],
      "name": "fetchAvailableItemsForConsumer",
      "outputs": [
        {
          "components": [
            {
              "internalType": "uint256",
              "name": "sku",
              "type": "uint256"
            },
            {
              "internalType": "uint256",
              "name": "upc",
              "type": "uint256"
            },
            {
              "internalType": "uint256",
              "name": "productID",
              "type": "uint256"
            },
            {
              "internalType": "uint256",
              "name": "productPrice",
              "type": "uint256"
            },
            {
              "internalType": "string",
              "name": "productMetadata",
              "type": "string"
            },
            {
              "internalType": "address payable",
              "name": "ownerID",
              "type": "address"
            },
            {
              "internalType": "address payable",
              "name": "originFarmerID",
              "type": "address"
            },
            {
              "internalType": "address payable",
              "name": "distributorID",
              "type": "address"
            },
            {
              "internalType": "address payable",
              "name": "retailerID",
              "type": "address"
            },
            {
              "internalType": "address payable",
              "name": "consumerID",
              "type": "address"
            },
            {
              "internalType": "string",
              "name": "originFarmName",
              "type": "string"
            },
            {
              "internalType": "string",
              "name": "originFarmMetadata",
              "type": "string"
            },
            {
              "internalType": "string",
              "name": "originFarmLatitude",
              "type": "string"
            },
            {
              "internalType": "string",
              "name": "originFarmLongitude",
              "type": "string"
            },
            {
              "internalType": "enum SupplyChain.State",
              "name": "itemState",
              "type": "uint8"
            }
          ],
          "internalType": "struct SupplyChain.Item[]",
          "name": "",
          "type": "tuple[]"
        }
      ],
      "stateMutability": "view",
      "type": "function"
    },
    {
      "inputs": [],
      "name": "fetchAvailableItemsForDistro",
      "outputs": [
        {
          "components": [
            {
              "internalType": "uint256",
              "name": "sku",
              "type": "uint256"
            },
            {
              "internalType": "uint256",
              "name": "upc",
              "type": "uint256"
            },
            {
              "internalType": "uint256",
              "name": "productID",
              "type": "uint256"
            },
            {
              "internalType": "uint256",
              "name": "productPrice",
              "type": "uint256"
            },
            {
              "internalType": "string",
              "name": "productMetadata",
              "type": "string"
            },
            {
              "internalType": "address payable",
              "name": "ownerID",
              "type": "address"
            },
            {
              "internalType": "address payable",
              "name": "originFarmerID",
              "type": "address"
            },
            {
              "internalType": "address payable",
              "name": "distributorID",
              "type": "address"
            },
            {
              "internalType": "address payable",
              "name": "retailerID",
              "type": "address"
            },
            {
              "internalType": "address payable",
              "name": "consumerID",
              "type": "address"
            },
            {
              "internalType": "string",
              "name": "originFarmName",
              "type": "string"
            },
            {
              "internalType": "string",
              "name": "originFarmMetadata",
              "type": "string"
            },
            {
              "internalType": "string",
              "name": "originFarmLatitude",
              "type": "string"
            },
            {
              "internalType": "string",
              "name": "originFarmLongitude",
              "type": "string"
            },
            {
              "internalType": "enum SupplyChain.State",
              "name": "itemState",
              "type": "uint8"
            }
          ],
          "internalType": "struct SupplyChain.Item[]",
          "name": "",
          "type": "tuple[]"
        }
      ],
      "stateMutability": "view",
      "type": "function"
    },
    {
      "inputs": [],
      "name": "fetchAvailableItemsForRetailer",
      "outputs": [
        {
          "components": [
            {
              "internalType": "uint256",
              "name": "sku",
              "type": "uint256"
            },
            {
              "internalType": "uint256",
              "name": "upc",
              "type": "uint256"
            },
            {
              "internalType": "uint256",
              "name": "productID",
              "type": "uint256"
            },
            {
              "internalType": "uint256",
              "name": "productPrice",
              "type": "uint256"
            },
            {
              "internalType": "string",
              "name": "productMetadata",
              "type": "string"
            },
            {
              "internalType": "address payable",
              "name": "ownerID",
              "type": "address"
            },
            {
              "internalType": "address payable",
              "name": "originFarmerID",
              "type": "address"
            },
            {
              "internalType": "address payable",
              "name": "distributorID",
              "type": "address"
            },
            {
              "internalType": "address payable",
              "name": "retailerID",
              "type": "address"
            },
            {
              "internalType": "address payable",
              "name": "consumerID",
              "type": "address"
            },
            {
              "internalType": "string",
              "name": "originFarmName",
              "type": "string"
            },
            {
              "internalType": "string",
              "name": "originFarmMetadata",
              "type": "string"
            },
            {
              "internalType": "string",
              "name": "originFarmLatitude",
              "type": "string"
            },
            {
              "internalType": "string",
              "name": "originFarmLongitude",
              "type": "string"
            },
            {
              "internalType": "enum SupplyChain.State",
              "name": "itemState",
              "type": "uint8"
            }
          ],
          "internalType": "struct SupplyChain.Item[]",
          "name": "",
          "type": "tuple[]"
        }
      ],
      "stateMutability": "view",
      "type": "function"
    },
    {
      "inputs": [],
      "name": "fetchConsumerItems",
      "outputs": [
        {
          "components": [
            {
              "internalType": "uint256",
              "name": "sku",
              "type": "uint256"
            },
            {
              "internalType": "uint256",
              "name": "upc",
              "type": "uint256"
            },
            {
              "internalType": "uint256",
              "name": "productID",
              "type": "uint256"
            },
            {
              "internalType": "uint256",
              "name": "productPrice",
              "type": "uint256"
            },
            {
              "internalType": "string",
              "name": "productMetadata",
              "type": "string"
            },
            {
              "internalType": "address payable",
              "name": "ownerID",
              "type": "address"
            },
            {
              "internalType": "address payable",
              "name": "originFarmerID",
              "type": "address"
            },
            {
              "internalType": "address payable",
              "name": "distributorID",
              "type": "address"
            },
            {
              "internalType": "address payable",
              "name": "retailerID",
              "type": "address"
            },
            {
              "internalType": "address payable",
              "name": "consumerID",
              "type": "address"
            },
            {
              "internalType": "string",
              "name": "originFarmName",
              "type": "string"
            },
            {
              "internalType": "string",
              "name": "originFarmMetadata",
              "type": "string"
            },
            {
              "internalType": "string",
              "name": "originFarmLatitude",
              "type": "string"
            },
            {
              "internalType": "string",
              "name": "originFarmLongitude",
              "type": "string"
            },
            {
              "internalType": "enum SupplyChain.State",
              "name": "itemState",
              "type": "uint8"
            }
          ],
          "internalType": "struct SupplyChain.Item[]",
          "name": "",
          "type": "tuple[]"
        }
      ],
      "stateMutability": "view",
      "type": "function"
    },
    {
      "inputs": [
        {
          "internalType": "uint256",
          "name": "_upc",
          "type": "uint256"
        }
      ],
      "name": "fetchCurrentPrice",
      "outputs": [
        {
          "internalType": "uint256",
          "name": "price",
          "type": "uint256"
        }
      ],
      "stateMutability": "view",
      "type": "function"
    },
    {
      "inputs": [
        {
          "internalType": "uint256",
          "name": "_upc",
          "type": "uint256"
        }
      ],
      "name": "fetchCurrentState",
      "outputs": [
        {
          "internalType": "uint256",
          "name": "itemState",
          "type": "uint256"
        }
      ],
      "stateMutability": "view",
      "type": "function"
    },
    {
      "inputs": [],
      "name": "fetchDistroItems",
      "outputs": [
        {
          "components": [
            {
              "internalType": "uint256",
              "name": "sku",
              "type": "uint256"
            },
            {
              "internalType": "uint256",
              "name": "upc",
              "type": "uint256"
            },
            {
              "internalType": "uint256",
              "name": "productID",
              "type": "uint256"
            },
            {
              "internalType": "uint256",
              "name": "productPrice",
              "type": "uint256"
            },
            {
              "internalType": "string",
              "name": "productMetadata",
              "type": "string"
            },
            {
              "internalType": "address payable",
              "name": "ownerID",
              "type": "address"
            },
            {
              "internalType": "address payable",
              "name": "originFarmerID",
              "type": "address"
            },
            {
              "internalType": "address payable",
              "name": "distributorID",
              "type": "address"
            },
            {
              "internalType": "address payable",
              "name": "retailerID",
              "type": "address"
            },
            {
              "internalType": "address payable",
              "name": "consumerID",
              "type": "address"
            },
            {
              "internalType": "string",
              "name": "originFarmName",
              "type": "string"
            },
            {
              "internalType": "string",
              "name": "originFarmMetadata",
              "type": "string"
            },
            {
              "internalType": "string",
              "name": "originFarmLatitude",
              "type": "string"
            },
            {
              "internalType": "string",
              "name": "originFarmLongitude",
              "type": "string"
            },
            {
              "internalType": "enum SupplyChain.State",
              "name": "itemState",
              "type": "uint8"
            }
          ],
          "internalType": "struct SupplyChain.Item[]",
          "name": "",
          "type": "tuple[]"
        }
      ],
      "stateMutability": "view",
      "type": "function"
    },
    {
      "inputs": [],
      "name": "fetchFarmerItems",
      "outputs": [
        {
          "components": [
            {
              "internalType": "uint256",
              "name": "sku",
              "type": "uint256"
            },
            {
              "internalType": "uint256",
              "name": "upc",
              "type": "uint256"
            },
            {
              "internalType": "uint256",
              "name": "productID",
              "type": "uint256"
            },
            {
              "internalType": "uint256",
              "name": "productPrice",
              "type": "uint256"
            },
            {
              "internalType": "string",
              "name": "productMetadata",
              "type": "string"
            },
            {
              "internalType": "address payable",
              "name": "ownerID",
              "type": "address"
            },
            {
              "internalType": "address payable",
              "name": "originFarmerID",
              "type": "address"
            },
            {
              "internalType": "address payable",
              "name": "distributorID",
              "type": "address"
            },
            {
              "internalType": "address payable",
              "name": "retailerID",
              "type": "address"
            },
            {
              "internalType": "address payable",
              "name": "consumerID",
              "type": "address"
            },
            {
              "internalType": "string",
              "name": "originFarmName",
              "type": "string"
            },
            {
              "internalType": "string",
              "name": "originFarmMetadata",
              "type": "string"
            },
            {
              "internalType": "string",
              "name": "originFarmLatitude",
              "type": "string"
            },
            {
              "internalType": "string",
              "name": "originFarmLongitude",
              "type": "string"
            },
            {
              "internalType": "enum SupplyChain.State",
              "name": "itemState",
              "type": "uint8"
            }
          ],
          "internalType": "struct SupplyChain.Item[]",
          "name": "",
          "type": "tuple[]"
        }
      ],
      "stateMutability": "view",
      "type": "function"
    },
    {
      "inputs": [
        {
          "internalType": "uint256",
          "name": "_upc",
          "type": "uint256"
        }
      ],
      "name": "fetchItemHashes",
      "outputs": [
        {
          "components": [
            {
              "internalType": "uint256",
              "name": "upc",
              "type": "uint256"
            },
            {
              "internalType": "bytes32",
              "name": "harvestedHash",
              "type": "bytes32"
            },
            {
              "internalType": "bytes32",
              "name": "sellToDistHash",
              "type": "bytes32"
            },
            {
              "internalType": "bytes32",
              "name": "buyAsDistHash",
              "type": "bytes32"
            },
            {
              "internalType": "bytes32",
              "name": "sellToRetailHash",
              "type": "bytes32"
            },
            {
              "internalType": "bytes32",
              "name": "buyAsRetailHash",
              "type": "bytes32"
            },
            {
              "internalType": "bytes32",
              "name": "sellToConsumerHash",
              "type": "bytes32"
            },
            {
              "internalType": "bytes32",
              "name": "buyAsConsumerHash",
              "type": "bytes32"
            }
          ],
          "internalType": "struct SupplyChain.TraceHash[]",
          "name": "",
          "type": "tuple[]"
        }
      ],
      "stateMutability": "view",
      "type": "function"
    },
    {
      "inputs": [],
      "name": "fetchItems",
      "outputs": [
        {
          "components": [
            {
              "internalType": "uint256",
              "name": "sku",
              "type": "uint256"
            },
            {
              "internalType": "uint256",
              "name": "upc",
              "type": "uint256"
            },
            {
              "internalType": "uint256",
              "name": "productID",
              "type": "uint256"
            },
            {
              "internalType": "uint256",
              "name": "productPrice",
              "type": "uint256"
            },
            {
              "internalType": "string",
              "name": "productMetadata",
              "type": "string"
            },
            {
              "internalType": "address payable",
              "name": "ownerID",
              "type": "address"
            },
            {
              "internalType": "address payable",
              "name": "originFarmerID",
              "type": "address"
            },
            {
              "internalType": "address payable",
              "name": "distributorID",
              "type": "address"
            },
            {
              "internalType": "address payable",
              "name": "retailerID",
              "type": "address"
            },
            {
              "internalType": "address payable",
              "name": "consumerID",
              "type": "address"
            },
            {
              "internalType": "string",
              "name": "originFarmName",
              "type": "string"
            },
            {
              "internalType": "string",
              "name": "originFarmMetadata",
              "type": "string"
            },
            {
              "internalType": "string",
              "name": "originFarmLatitude",
              "type": "string"
            },
            {
              "internalType": "string",
              "name": "originFarmLongitude",
              "type": "string"
            },
            {
              "internalType": "enum SupplyChain.State",
              "name": "itemState",
              "type": "uint8"
            }
          ],
          "internalType": "struct SupplyChain.Item[]",
          "name": "",
          "type": "tuple[]"
        }
      ],
      "stateMutability": "view",
      "type": "function"
    },
    {
      "inputs": [],
      "name": "fetchRetailerItems",
      "outputs": [
        {
          "components": [
            {
              "internalType": "uint256",
              "name": "sku",
              "type": "uint256"
            },
            {
              "internalType": "uint256",
              "name": "upc",
              "type": "uint256"
            },
            {
              "internalType": "uint256",
              "name": "productID",
              "type": "uint256"
            },
            {
              "internalType": "uint256",
              "name": "productPrice",
              "type": "uint256"
            },
            {
              "internalType": "string",
              "name": "productMetadata",
              "type": "string"
            },
            {
              "internalType": "address payable",
              "name": "ownerID",
              "type": "address"
            },
            {
              "internalType": "address payable",
              "name": "originFarmerID",
              "type": "address"
            },
            {
              "internalType": "address payable",
              "name": "distributorID",
              "type": "address"
            },
            {
              "internalType": "address payable",
              "name": "retailerID",
              "type": "address"
            },
            {
              "internalType": "address payable",
              "name": "consumerID",
              "type": "address"
            },
            {
              "internalType": "string",
              "name": "originFarmName",
              "type": "string"
            },
            {
              "internalType": "string",
              "name": "originFarmMetadata",
              "type": "string"
            },
            {
              "internalType": "string",
              "name": "originFarmLatitude",
              "type": "string"
            },
            {
              "internalType": "string",
              "name": "originFarmLongitude",
              "type": "string"
            },
            {
              "internalType": "enum SupplyChain.State",
              "name": "itemState",
              "type": "uint8"
            }
          ],
          "internalType": "struct SupplyChain.Item[]",
          "name": "",
          "type": "tuple[]"
        }
      ],
      "stateMutability": "view",
      "type": "function"
    },
    {
      "inputs": [
        {
          "internalType": "string",
          "name": "_originFarmName",
          "type": "string"
        },
        {
          "internalType": "string",
          "name": "_originFarmMetadata",
          "type": "string"
        },
        {
          "internalType": "string",
          "name": "_originFarmLatitude",
          "type": "string"
        },
        {
          "internalType": "string",
          "name": "_originFarmLongitude",
          "type": "string"
        },
        {
          "internalType": "string",
          "name": "_productMetadata",
          "type": "string"
        },
        {
          "internalType": "uint256",
          "name": "_productPrice",
          "type": "uint256"
        }
      ],
      "name": "harvestItem",
      "outputs": [],
      "stateMutability": "nonpayable",
      "type": "function"
    },
    {
      "inputs": [
        {
          "internalType": "address",
          "name": "account",
          "type": "address"
        }
      ],
      "name": "isConsumer",
      "outputs": [
        {
          "internalType": "bool",
          "name": "",
          "type": "bool"
        }
      ],
      "stateMutability": "view",
      "type": "function"
    },
    {
      "inputs": [
        {
          "internalType": "address",
          "name": "account",
          "type": "address"
        }
      ],
      "name": "isDistributor",
      "outputs": [
        {
          "internalType": "bool",
          "name": "",
          "type": "bool"
        }
      ],
      "stateMutability": "view",
      "type": "function"
    },
    {
      "inputs": [
        {
          "internalType": "address",
          "name": "account",
          "type": "address"
        }
      ],
      "name": "isFarmer",
      "outputs": [
        {
          "internalType": "bool",
          "name": "",
          "type": "bool"
        }
      ],
      "stateMutability": "view",
      "type": "function"
    },
    {
      "inputs": [
        {
          "internalType": "address",
          "name": "account",
          "type": "address"
        }
      ],
      "name": "isRetailer",
      "outputs": [
        {
          "internalType": "bool",
          "name": "",
          "type": "bool"
        }
      ],
      "stateMutability": "view",
      "type": "function"
    },
    {
      "inputs": [],
      "name": "kill",
      "outputs": [],
      "stateMutability": "nonpayable",
      "type": "function"
    },
    {
      "inputs": [],
      "name": "owner",
      "outputs": [
        {
          "internalType": "address payable",
          "name": "",
          "type": "address"
        }
      ],
      "stateMutability": "view",
      "type": "function"
    },
    {
      "inputs": [],
      "name": "renounceConsumer",
      "outputs": [],
      "stateMutability": "nonpayable",
      "type": "function"
    },
    {
      "inputs": [],
      "name": "renounceDistributor",
      "outputs": [],
      "stateMutability": "nonpayable",
      "type": "function"
    },
    {
      "inputs": [],
      "name": "renounceFarmer",
      "outputs": [],
      "stateMutability": "nonpayable",
      "type": "function"
    },
    {
      "inputs": [],
      "name": "renounceRetailer",
      "outputs": [],
      "stateMutability": "nonpayable",
      "type": "function"
    },
    {
      "inputs": [],
      "name": "sku",
      "outputs": [
        {
          "internalType": "uint256",
          "name": "_value",
          "type": "uint256"
        }
      ],
      "stateMutability": "view",
      "type": "function"
    },
    {
      "inputs": [],
      "name": "upc",
      "outputs": [
        {
          "internalType": "uint256",
          "name": "_value",
          "type": "uint256"
        }
      ],
      "stateMutability": "view",
      "type": "function"
    }
  ],
  "bytecode": "0x60806040523480156200001157600080fd5b506200001d3362000056565b6200002833620000a8565b6200003333620000fa565b6200003e336200014c565b600480546001600160a01b03191633179055620002f4565b620000718160006200019e60201b6200448e1790919060201c565b6040516001600160a01b038216907f2e0ded4123377a3c2bc9a26f1717655a129e2f20752924d42e730ec89c83dbd090600090a250565b620000c38160016200019e60201b6200448e1790919060201c565b6040516001600160a01b038216907fddbf200aa634dc3fb81cfd68583dd1040d1c751d335e1d86b631bde3e977fea890600090a250565b620001158160026200019e60201b6200448e1790919060201c565b6040516001600160a01b038216907f71ae26cad02663e3d92efd6ec56031a80d74a20c0ab4183faa8bf262261c9baa90600090a250565b620001678160036200019e60201b6200448e1790919060201c565b6040516001600160a01b038216907f28b26e7a3d20aedbc5f8f2ebf7da671c0491723a2b78f47a097b0e46dee0714290600090a250565b6001600160a01b038116620001fa5760405162461bcd60e51b815260206004820152601560248201527f494e56414c49443a20444541442041646472657373000000000000000000000060448201526064015b60405180910390fd5b6200020682826200027a565b15620002555760405162461bcd60e51b815260206004820152601a60248201527f494e56414c49443a204163636f756e74204861766520526f6c650000000000006044820152606401620001f1565b6001600160a01b0316600090815260209190915260409020805460ff19166001179055565b60006001600160a01b038216620002d45760405162461bcd60e51b815260206004820152601560248201527f494e56414c49443a2044454144204164647265737300000000000000000000006044820152606401620001f1565b506001600160a01b03166000908152602091909152604090205460ff1690565b61547180620003046000396000f3fe6080604052600436106101e35760003560e01c8063834ff73911610102578063ac2db09d11610095578063d6febde811610064578063d6febde814610513578063db0e6a2f14610526578063df8627f51461053b578063f3b1cde81461055b57600080fd5b8063ac2db09d146104a7578063ad78ba7b146104be578063b0689d70146104d3578063b9429069146104f357600080fd5b80638f0c86fa116100d15780638f0c86fa14610430578063930aff2f14610450578063a3887f9e14610465578063a3f9b0381461049257600080fd5b8063834ff739146103a35780638588d026146103c35780638da5cb5b146103d85780638ec4f5051461041057600080fd5b80635da09b881161017a57806378db2f7a1161014957806378db2f7a146103395780637c0b4ab11461034e57806380c3f96d1461036e57806380fc0ce41461038e57600080fd5b80635da09b88146102bf57806361e6982d146102ef578063644241db146103045780637250e2241461031957600080fd5b80634462f40c116101b65780634462f40c1461025d5780634671e7fb146102825780634a72a364146102975780634fde1791146102ac57600080fd5b806301a390b1146101e8578063112940f91461021357806341c0e1b51461023557806343baca1e1461024a575b600080fd5b3480156101f457600080fd5b506101fd61056e565b60405161020a91906150bb565b60405180910390f35b34801561021f57600080fd5b5061023361022e366004614f0e565b610ad9565b005b34801561024157600080fd5b50610233610ae5565b61023361025836600461502a565b610b4a565b34801561026957600080fd5b506006546102749081565b60405190815260200161020a565b34801561028e57600080fd5b506101fd610d5d565b3480156102a357600080fd5b506101fd611286565b6102336102ba36600461502a565b6117e8565b3480156102cb57600080fd5b506102df6102da366004614f0e565b6119fd565b604051901515815260200161020a565b3480156102fb57600080fd5b50610233611a10565b34801561031057600080fd5b50610233611a70565b34801561032557600080fd5b50610233610334366004614f0e565b611ace565b34801561034557600080fd5b506101fd611ad7565b34801561035a57600080fd5b50610274610369366004615011565b612000565b34801561037a57600080fd5b50610233610389366004614f0e565b6123bf565b34801561039a57600080fd5b506102336123c8565b3480156103af57600080fd5b506102df6103be366004614f0e565b61241e565b3480156103cf57600080fd5b506101fd61242b565b3480156103e457600080fd5b506004546103f8906001600160a01b031681565b6040516001600160a01b03909116815260200161020a565b34801561041c57600080fd5b5061023361042b366004614f0e565b612954565b34801561043c57600080fd5b506102df61044b366004614f0e565b61295d565b34801561045c57600080fd5b506101fd61296a565b34801561047157600080fd5b50610485610480366004615011565b612e93565b60405161020a9190615234565b34801561049e57600080fd5b506101fd613024565b3480156104b357600080fd5b506005546102749081565b3480156104ca57600080fd5b506101fd613586565b3480156104df57600080fd5b506102746104ee366004615011565b613a20565b3480156104ff57600080fd5b506102df61050e366004614f0e565b613dc9565b61023361052136600461502a565b613dd5565b34801561053257600080fd5b50610233613e35565b34801561054757600080fd5b50610233610556366004614f37565b613e93565b610233610569366004615011565b614248565b6060600061057b60065490565b905060008060005b8381101561061557600060078161059b84600161535e565b81526020810191909152604001600020600501546001600160a01b0316148015906105f0575060006007816105d184600161535e565b81526020810191909152604001600020600701546001600160a01b0316145b156106035761060060018461535e565b92505b8061060d816153c8565b915050610583565b5060008267ffffffffffffffff81111561063157610631615425565b60405190808252806020026020018201604052801561066a57816020015b610657614d35565b81526020019060019003908161064f5790505b50905060005b838111610ad057600060078161068784600161535e565b81526020810191909152604001600020600501546001600160a01b0316148015906106dc575060006007816106bd84600161535e565b81526020810191909152604001600020600701546001600160a01b0316145b15610abe5760006106ee82600161535e565b9050600060076000838152602001908152602001600020905080604051806101e00160405290816000820154815260200160018201548152602001600282015481526020016003820154815260200160048201805461074c9061538d565b80601f01602080910402602001604051908101604052809291908181526020018280546107789061538d565b80156107c55780601f1061079a576101008083540402835291602001916107c5565b820191906000526020600020905b8154815290600101906020018083116107a857829003601f168201915b505050918352505060058201546001600160a01b03908116602083015260068301548116604083015260078301548116606083015260088301548116608083015260098301541660a0820152600a8201805460c0909201916108269061538d565b80601f01602080910402602001604051908101604052809291908181526020018280546108529061538d565b801561089f5780601f106108745761010080835404028352916020019161089f565b820191906000526020600020905b81548152906001019060200180831161088257829003601f168201915b50505050508152602001600b820180546108b89061538d565b80601f01602080910402602001604051908101604052809291908181526020018280546108e49061538d565b80156109315780601f1061090657610100808354040283529160200191610931565b820191906000526020600020905b81548152906001019060200180831161091457829003601f168201915b50505050508152602001600c8201805461094a9061538d565b80601f01602080910402602001604051908101604052809291908181526020018280546109769061538d565b80156109c35780601f10610998576101008083540402835291602001916109c3565b820191906000526020600020905b8154815290600101906020018083116109a657829003601f168201915b50505050508152602001600d820180546109dc9061538d565b80601f0160208091040260200160405190810160405280929190818152602001828054610a089061538d565b8015610a555780601f10610a2a57610100808354040283529160200191610a55565b820191906000526020600020905b815481529060010190602001808311610a3857829003601f168201915b5050509183525050600e82015460209091019060ff166007811115610a7c57610a7c6153f9565b6007811115610a8d57610a8d6153f9565b81525050848681518110610aa357610aa361540f565b6020908102919091010152610ab960018661535e565b945050505b80610ac8816153c8565b915050610670565b50949350505050565b610ae281614530565b50565b6004546001600160a01b03163314610b3c5760405162461bcd60e51b8152602060048201526015602482015274125395905312510e88155b985d5d1a1bdc9a5e9959605a1b60448201526064015b60405180910390fd5b6004546001600160a01b0316ff5b6000828152600760205260409020600501546001600160a01b0316331415610bab5760405162461bcd60e51b815260206004820152601460248201527321b0b73737ba10313abc90333937b69039b2b63360611b6044820152606401610b33565b6000828152600760205260409020600801546001600160a01b031615610c135760405162461bcd60e51b815260206004820152601a60248201527f416c726561647920626f756768742062792072657461696c65720000000000006044820152606401610b33565b6000828152600760205260409020600301543414610c435760405162461bcd60e51b8152600401610b33906152f8565b600082815260076020526040902060080180546001600160a01b03191633179055610c6f600143615376565b6000838152600860209081526040808320934060059485015560079091528082209283015460039093015490516001600160a01b039093169281156108fc0292818181858888f19350505050158015610ccc573d6000803e3d6000fd5b50600082815260076020819052604090912001546001600160a01b0316610cfc57610cf78282614572565b610d06565b610d0682826145f6565b610d0f336119fd565b610d1c57610d1c33612954565b610d2582614644565b6040518281527f54dafe9ea34c9448f0b09cec86e7ede9744e44adedf54b15e3ad40a0942f2fb9906020015b60405180910390a15050565b60606000610d6a60065490565b905060008060005b83811015610dcd573360076000610d8a84600161535e565b81526020810191909152604001600020600701546001600160a01b03161415610dbb57610db860018461535e565b92505b80610dc5816153c8565b915050610d72565b5060008267ffffffffffffffff811115610de957610de9615425565b604051908082528060200260200182016040528015610e2257816020015b610e0f614d35565b815260200190600190039081610e075790505b50905060005b838111610ad0573360076000610e3f84600161535e565b81526020810191909152604001600020600701546001600160a01b03161480610e9257503360076000610e7384600161535e565b81526020810191909152604001600020600501546001600160a01b0316145b15611274576000610ea482600161535e565b9050600060076000838152602001908152602001600020905080604051806101e001604052908160008201548152602001600182015481526020016002820154815260200160038201548152602001600482018054610f029061538d565b80601f0160208091040260200160405190810160405280929190818152602001828054610f2e9061538d565b8015610f7b5780601f10610f5057610100808354040283529160200191610f7b565b820191906000526020600020905b815481529060010190602001808311610f5e57829003601f168201915b505050918352505060058201546001600160a01b03908116602083015260068301548116604083015260078301548116606083015260088301548116608083015260098301541660a0820152600a8201805460c090920191610fdc9061538d565b80601f01602080910402602001604051908101604052809291908181526020018280546110089061538d565b80156110555780601f1061102a57610100808354040283529160200191611055565b820191906000526020600020905b81548152906001019060200180831161103857829003601f168201915b50505050508152602001600b8201805461106e9061538d565b80601f016020809104026020016040519081016040528092919081815260200182805461109a9061538d565b80156110e75780601f106110bc576101008083540402835291602001916110e7565b820191906000526020600020905b8154815290600101906020018083116110ca57829003601f168201915b50505050508152602001600c820180546111009061538d565b80601f016020809104026020016040519081016040528092919081815260200182805461112c9061538d565b80156111795780601f1061114e57610100808354040283529160200191611179565b820191906000526020600020905b81548152906001019060200180831161115c57829003601f168201915b50505050508152602001600d820180546111929061538d565b80601f01602080910402602001604051908101604052809291908181526020018280546111be9061538d565b801561120b5780601f106111e05761010080835404028352916020019161120b565b820191906000526020600020905b8154815290600101906020018083116111ee57829003601f168201915b5050509183525050600e82015460209091019060ff166007811115611232576112326153f9565b6007811115611243576112436153f9565b815250508486815181106112595761125961540f565b602090810291909101015261126f60018661535e565b945050505b8061127e816153c8565b915050610e28565b6060600061129360065490565b905060008060005b8381101561132d5760006007816112b384600161535e565b81526020810191909152604001600020600501546001600160a01b031614801590611308575060006007816112e984600161535e565b81526020810191909152604001600020600801546001600160a01b0316145b1561131b5761131860018461535e565b92505b80611325816153c8565b91505061129b565b5060008267ffffffffffffffff81111561134957611349615425565b60405190808252806020026020018201604052801561138257816020015b61136f614d35565b8152602001906001900390816113675790505b50905060005b838111610ad057600060078161139f84600161535e565b81526020810191909152604001600020600501546001600160a01b0316148015906113f4575060006007816113d584600161535e565b81526020810191909152604001600020600801546001600160a01b0316145b156117d657600061140682600161535e565b9050600060076000838152602001908152602001600020905080604051806101e0016040529081600082015481526020016001820154815260200160028201548152602001600382015481526020016004820180546114649061538d565b80601f01602080910402602001604051908101604052809291908181526020018280546114909061538d565b80156114dd5780601f106114b2576101008083540402835291602001916114dd565b820191906000526020600020905b8154815290600101906020018083116114c057829003601f168201915b505050918352505060058201546001600160a01b03908116602083015260068301548116604083015260078301548116606083015260088301548116608083015260098301541660a0820152600a8201805460c09092019161153e9061538d565b80601f016020809104026020016040519081016040528092919081815260200182805461156a9061538d565b80156115b75780601f1061158c576101008083540402835291602001916115b7565b820191906000526020600020905b81548152906001019060200180831161159a57829003601f168201915b50505050508152602001600b820180546115d09061538d565b80601f01602080910402602001604051908101604052809291908181526020018280546115fc9061538d565b80156116495780601f1061161e57610100808354040283529160200191611649565b820191906000526020600020905b81548152906001019060200180831161162c57829003601f168201915b50505050508152602001600c820180546116629061538d565b80601f016020809104026020016040519081016040528092919081815260200182805461168e9061538d565b80156116db5780601f106116b0576101008083540402835291602001916116db565b820191906000526020600020905b8154815290600101906020018083116116be57829003601f168201915b50505050508152602001600d820180546116f49061538d565b80601f01602080910402602001604051908101604052809291908181526020018280546117209061538d565b801561176d5780601f106117425761010080835404028352916020019161176d565b820191906000526020600020905b81548152906001019060200180831161175057829003601f168201915b5050509183525050600e82015460209091019060ff166007811115611794576117946153f9565b60078111156117a5576117a56153f9565b815250508486815181106117bb576117bb61540f565b60209081029190910101526117d160018661535e565b945050505b806117e0816153c8565b915050611388565b6000828152600760205260409020600601546001600160a01b03163314156118525760405162461bcd60e51b815260206004820181905260248201527f4469737472696275746f7249442063616e6e6f74206265206661726d657249446044820152606401610b33565b600082815260076020819052604090912001546001600160a01b0316156118bb5760405162461bcd60e51b815260206004820152601f60248201527f416c726561647920626f756768742062792061206469737472696275746f72006044820152606401610b33565b60008281526007602052604090206003015434146118eb5760405162461bcd60e51b8152600401610b33906152f8565b60008281526007602081905260409091206005810180546001600160a01b031990811633908117909255928201805490931617909155600e8101805460ff19166002179055600301819055611941600143615376565b600083815260086020526040902090406003909101556119603361295d565b61196d5761196d33611ace565b6000828152600760205260408082206005015490516001600160a01b03909116913480156108fc02929091818181858888f193505050501580156119b5573d6000803e3d6000fd5b50600082815260076020908152604091829020600301548251858152918201527f4800dc7afcf4dcadc2087f50ea552fbba15fa8eb54795438666c4062dd23e4219101610d51565b6000611a0a600283614709565b92915050565b611a193361241e565b611a655760405162461bcd60e51b815260206004820152601760248201527f494e56414c49443a204e6f74206120436f6e73756d65720000000000000000006044820152606401610b33565b611a6e33614751565b565b611a793361295d565b611ac55760405162461bcd60e51b815260206004820152601a60248201527f494e56414c49443a204e6f742061204469737472696275746f720000000000006044820152606401610b33565b611a6e33614793565b610ae2816147d5565b60606000611ae460065490565b905060008060005b83811015611b47573360076000611b0484600161535e565b81526020810191909152604001600020600601546001600160a01b03161415611b3557611b3260018461535e565b92505b80611b3f816153c8565b915050611aec565b5060008267ffffffffffffffff811115611b6357611b63615425565b604051908082528060200260200182016040528015611b9c57816020015b611b89614d35565b815260200190600190039081611b815790505b50905060005b838111610ad0573360076000611bb984600161535e565b81526020810191909152604001600020600601546001600160a01b03161480611c0c57503360076000611bed84600161535e565b81526020810191909152604001600020600501546001600160a01b0316145b15611fee576000611c1e82600161535e565b9050600060076000838152602001908152602001600020905080604051806101e001604052908160008201548152602001600182015481526020016002820154815260200160038201548152602001600482018054611c7c9061538d565b80601f0160208091040260200160405190810160405280929190818152602001828054611ca89061538d565b8015611cf55780601f10611cca57610100808354040283529160200191611cf5565b820191906000526020600020905b815481529060010190602001808311611cd857829003601f168201915b505050918352505060058201546001600160a01b03908116602083015260068301548116604083015260078301548116606083015260088301548116608083015260098301541660a0820152600a8201805460c090920191611d569061538d565b80601f0160208091040260200160405190810160405280929190818152602001828054611d829061538d565b8015611dcf5780601f10611da457610100808354040283529160200191611dcf565b820191906000526020600020905b815481529060010190602001808311611db257829003601f168201915b50505050508152602001600b82018054611de89061538d565b80601f0160208091040260200160405190810160405280929190818152602001828054611e149061538d565b8015611e615780601f10611e3657610100808354040283529160200191611e61565b820191906000526020600020905b815481529060010190602001808311611e4457829003601f168201915b50505050508152602001600c82018054611e7a9061538d565b80601f0160208091040260200160405190810160405280929190818152602001828054611ea69061538d565b8015611ef35780601f10611ec857610100808354040283529160200191611ef3565b820191906000526020600020905b815481529060010190602001808311611ed657829003601f168201915b50505050508152602001600d82018054611f0c9061538d565b80601f0160208091040260200160405190810160405280929190818152602001828054611f389061538d565b8015611f855780601f10611f5a57610100808354040283529160200191611f85565b820191906000526020600020905b815481529060010190602001808311611f6857829003601f168201915b5050509183525050600e82015460209091019060ff166007811115611fac57611fac6153f9565b6007811115611fbd57611fbd6153f9565b81525050848681518110611fd357611fd361540f565b6020908102919091010152611fe960018661535e565b945050505b80611ff8816153c8565b915050611ba2565b60008060076000848152602001908152602001600020604051806101e00160405290816000820154815260200160018201548152602001600282015481526020016003820154815260200160048201805461205a9061538d565b80601f01602080910402602001604051908101604052809291908181526020018280546120869061538d565b80156120d35780601f106120a8576101008083540402835291602001916120d3565b820191906000526020600020905b8154815290600101906020018083116120b657829003601f168201915b505050918352505060058201546001600160a01b03908116602083015260068301548116604083015260078301548116606083015260088301548116608083015260098301541660a0820152600a8201805460c0909201916121349061538d565b80601f01602080910402602001604051908101604052809291908181526020018280546121609061538d565b80156121ad5780601f10612182576101008083540402835291602001916121ad565b820191906000526020600020905b81548152906001019060200180831161219057829003601f168201915b50505050508152602001600b820180546121c69061538d565b80601f01602080910402602001604051908101604052809291908181526020018280546121f29061538d565b801561223f5780601f106122145761010080835404028352916020019161223f565b820191906000526020600020905b81548152906001019060200180831161222257829003601f168201915b50505050508152602001600c820180546122589061538d565b80601f01602080910402602001604051908101604052809291908181526020018280546122849061538d565b80156122d15780601f106122a6576101008083540402835291602001916122d1565b820191906000526020600020905b8154815290600101906020018083116122b457829003601f168201915b50505050508152602001600d820180546122ea9061538d565b80601f01602080910402602001604051908101604052809291908181526020018280546123169061538d565b80156123635780601f1061233857610100808354040283529160200191612363565b820191906000526020600020905b81548152906001019060200180831161234657829003601f168201915b5050509183525050600e82015460209091019060ff16600781111561238a5761238a6153f9565b600781111561239b5761239b6153f9565b815250509050806101c0015160078111156123b8576123b86153f9565b9392505050565b610ae281614817565b6123d133613dc9565b6124155760405162461bcd60e51b815260206004820152601560248201527424a72b20a624a21d102737ba1030902330b936b2b960591b6044820152606401610b33565b611a6e33614859565b6000611a0a600383614709565b6060600061243860065490565b905060008060005b8381101561249b57336007600061245884600161535e565b81526020810191909152604001600020600801546001600160a01b031614156124895761248660018461535e565b92505b80612493816153c8565b915050612440565b5060008267ffffffffffffffff8111156124b7576124b7615425565b6040519080825280602002602001820160405280156124f057816020015b6124dd614d35565b8152602001906001900390816124d55790505b50905060005b838111610ad057336007600061250d84600161535e565b81526020810191909152604001600020600801546001600160a01b031614806125605750336007600061254184600161535e565b81526020810191909152604001600020600501546001600160a01b0316145b1561294257600061257282600161535e565b9050600060076000838152602001908152602001600020905080604051806101e0016040529081600082015481526020016001820154815260200160028201548152602001600382015481526020016004820180546125d09061538d565b80601f01602080910402602001604051908101604052809291908181526020018280546125fc9061538d565b80156126495780601f1061261e57610100808354040283529160200191612649565b820191906000526020600020905b81548152906001019060200180831161262c57829003601f168201915b505050918352505060058201546001600160a01b03908116602083015260068301548116604083015260078301548116606083015260088301548116608083015260098301541660a0820152600a8201805460c0909201916126aa9061538d565b80601f01602080910402602001604051908101604052809291908181526020018280546126d69061538d565b80156127235780601f106126f857610100808354040283529160200191612723565b820191906000526020600020905b81548152906001019060200180831161270657829003601f168201915b50505050508152602001600b8201805461273c9061538d565b80601f01602080910402602001604051908101604052809291908181526020018280546127689061538d565b80156127b55780601f1061278a576101008083540402835291602001916127b5565b820191906000526020600020905b81548152906001019060200180831161279857829003601f168201915b50505050508152602001600c820180546127ce9061538d565b80601f01602080910402602001604051908101604052809291908181526020018280546127fa9061538d565b80156128475780601f1061281c57610100808354040283529160200191612847565b820191906000526020600020905b81548152906001019060200180831161282a57829003601f168201915b50505050508152602001600d820180546128609061538d565b80601f016020809104026020016040519081016040528092919081815260200182805461288c9061538d565b80156128d95780601f106128ae576101008083540402835291602001916128d9565b820191906000526020600020905b8154815290600101906020018083116128bc57829003601f168201915b5050509183525050600e82015460209091019060ff166007811115612900576129006153f9565b6007811115612911576129116153f9565b815250508486815181106129275761292761540f565b602090810291909101015261293d60018661535e565b945050505b8061294c816153c8565b9150506124f6565b610ae28161489b565b6000611a0a600183614709565b6060600061297760065490565b905060008060005b838110156129da57336007600061299784600161535e565b81526020810191909152604001600020600901546001600160a01b031614156129c8576129c560018461535e565b92505b806129d2816153c8565b91505061297f565b5060008267ffffffffffffffff8111156129f6576129f6615425565b604051908082528060200260200182016040528015612a2f57816020015b612a1c614d35565b815260200190600190039081612a145790505b50905060005b838111610ad0573360076000612a4c84600161535e565b81526020810191909152604001600020600901546001600160a01b03161480612a9f57503360076000612a8084600161535e565b81526020810191909152604001600020600501546001600160a01b0316145b15612e81576000612ab182600161535e565b9050600060076000838152602001908152602001600020905080604051806101e001604052908160008201548152602001600182015481526020016002820154815260200160038201548152602001600482018054612b0f9061538d565b80601f0160208091040260200160405190810160405280929190818152602001828054612b3b9061538d565b8015612b885780601f10612b5d57610100808354040283529160200191612b88565b820191906000526020600020905b815481529060010190602001808311612b6b57829003601f168201915b505050918352505060058201546001600160a01b03908116602083015260068301548116604083015260078301548116606083015260088301548116608083015260098301541660a0820152600a8201805460c090920191612be99061538d565b80601f0160208091040260200160405190810160405280929190818152602001828054612c159061538d565b8015612c625780601f10612c3757610100808354040283529160200191612c62565b820191906000526020600020905b815481529060010190602001808311612c4557829003601f168201915b50505050508152602001600b82018054612c7b9061538d565b80601f0160208091040260200160405190810160405280929190818152602001828054612ca79061538d565b8015612cf45780601f10612cc957610100808354040283529160200191612cf4565b820191906000526020600020905b815481529060010190602001808311612cd757829003601f168201915b50505050508152602001600c82018054612d0d9061538d565b80601f0160208091040260200160405190810160405280929190818152602001828054612d399061538d565b8015612d865780601f10612d5b57610100808354040283529160200191612d86565b820191906000526020600020905b815481529060010190602001808311612d6957829003601f168201915b50505050508152602001600d82018054612d9f9061538d565b80601f0160208091040260200160405190810160405280929190818152602001828054612dcb9061538d565b8015612e185780601f10612ded57610100808354040283529160200191612e18565b820191906000526020600020905b815481529060010190602001808311612dfb57829003601f168201915b5050509183525050600e82015460209091019060ff166007811115612e3f57612e3f6153f9565b6007811115612e5057612e506153f9565b81525050848681518110612e6657612e6661540f565b6020908102919091010152612e7c60018661535e565b945050505b80612e8b816153c8565b915050612a35565b60606000612ea060065490565b90506000808267ffffffffffffffff811115612ebe57612ebe615425565b604051908082528060200260200182016040528015612f2d57816020015b604080516101008101825260008082526020808301829052928201819052606082018190526080820181905260a0820181905260c0820181905260e08201528252600019909201910181612edc5790505b50905060005b838111610ad0578560086000612f4a84600161535e565b8152602001908152602001600020600001541415613012576000612f6f82600161535e565b90506000600860008381526020019081526020016000209050806040518061010001604052908160008201548152602001600182015481526020016002820154815260200160038201548152602001600482015481526020016005820154815260200160068201548152602001600782015481525050848681518110612ff757612ff761540f565b602090810291909101015261300d60018661535e565b945050505b8061301c816153c8565b915050612f33565b6060600061303160065490565b905060008060005b838110156130cb57600060078161305184600161535e565b81526020810191909152604001600020600501546001600160a01b0316148015906130a65750600060078161308784600161535e565b81526020810191909152604001600020600901546001600160a01b0316145b156130b9576130b660018461535e565b92505b806130c3816153c8565b915050613039565b5060008267ffffffffffffffff8111156130e7576130e7615425565b60405190808252806020026020018201604052801561312057816020015b61310d614d35565b8152602001906001900390816131055790505b50905060005b838111610ad057600060078161313d84600161535e565b81526020810191909152604001600020600501546001600160a01b0316148015906131925750600060078161317384600161535e565b81526020810191909152604001600020600901546001600160a01b0316145b156135745760006131a482600161535e565b9050600060076000838152602001908152602001600020905080604051806101e0016040529081600082015481526020016001820154815260200160028201548152602001600382015481526020016004820180546132029061538d565b80601f016020809104026020016040519081016040528092919081815260200182805461322e9061538d565b801561327b5780601f106132505761010080835404028352916020019161327b565b820191906000526020600020905b81548152906001019060200180831161325e57829003601f168201915b505050918352505060058201546001600160a01b03908116602083015260068301548116604083015260078301548116606083015260088301548116608083015260098301541660a0820152600a8201805460c0909201916132dc9061538d565b80601f01602080910402602001604051908101604052809291908181526020018280546133089061538d565b80156133555780601f1061332a57610100808354040283529160200191613355565b820191906000526020600020905b81548152906001019060200180831161333857829003601f168201915b50505050508152602001600b8201805461336e9061538d565b80601f016020809104026020016040519081016040528092919081815260200182805461339a9061538d565b80156133e75780601f106133bc576101008083540402835291602001916133e7565b820191906000526020600020905b8154815290600101906020018083116133ca57829003601f168201915b50505050508152602001600c820180546134009061538d565b80601f016020809104026020016040519081016040528092919081815260200182805461342c9061538d565b80156134795780601f1061344e57610100808354040283529160200191613479565b820191906000526020600020905b81548152906001019060200180831161345c57829003601f168201915b50505050508152602001600d820180546134929061538d565b80601f01602080910402602001604051908101604052809291908181526020018280546134be9061538d565b801561350b5780601f106134e05761010080835404028352916020019161350b565b820191906000526020600020905b8154815290600101906020018083116134ee57829003601f168201915b5050509183525050600e82015460209091019060ff166007811115613532576135326153f9565b6007811115613543576135436153f9565b815250508486815181106135595761355961540f565b602090810291909101015261356f60018661535e565b945050505b8061357e816153c8565b915050613126565b6060600061359360065490565b90506000808267ffffffffffffffff8111156135b1576135b1615425565b6040519080825280602002602001820160405280156135ea57816020015b6135d7614d35565b8152602001906001900390816135cf5790505b50905060005b838111613a1857600060078161360784600161535e565b81526020810191909152604001600020600501546001600160a01b031614613a0657600061363682600161535e565b9050600060076000838152602001908152602001600020905080604051806101e0016040529081600082015481526020016001820154815260200160028201548152602001600382015481526020016004820180546136949061538d565b80601f01602080910402602001604051908101604052809291908181526020018280546136c09061538d565b801561370d5780601f106136e25761010080835404028352916020019161370d565b820191906000526020600020905b8154815290600101906020018083116136f057829003601f168201915b505050918352505060058201546001600160a01b03908116602083015260068301548116604083015260078301548116606083015260088301548116608083015260098301541660a0820152600a8201805460c09092019161376e9061538d565b80601f016020809104026020016040519081016040528092919081815260200182805461379a9061538d565b80156137e75780601f106137bc576101008083540402835291602001916137e7565b820191906000526020600020905b8154815290600101906020018083116137ca57829003601f168201915b50505050508152602001600b820180546138009061538d565b80601f016020809104026020016040519081016040528092919081815260200182805461382c9061538d565b80156138795780601f1061384e57610100808354040283529160200191613879565b820191906000526020600020905b81548152906001019060200180831161385c57829003601f168201915b50505050508152602001600c820180546138929061538d565b80601f01602080910402602001604051908101604052809291908181526020018280546138be9061538d565b801561390b5780601f106138e05761010080835404028352916020019161390b565b820191906000526020600020905b8154815290600101906020018083116138ee57829003601f168201915b50505050508152602001600d820180546139249061538d565b80601f01602080910402602001604051908101604052809291908181526020018280546139509061538d565b801561399d5780601f106139725761010080835404028352916020019161399d565b820191906000526020600020905b81548152906001019060200180831161398057829003601f168201915b5050509183525050600e82015460209091019060ff1660078111156139c4576139c46153f9565b60078111156139d5576139d56153f9565b815250508486815181106139eb576139eb61540f565b6020908102919091010152613a0160018661535e565b945050505b80613a10816153c8565b9150506135f0565b509392505050565b60008060076000848152602001908152602001600020604051806101e001604052908160008201548152602001600182015481526020016002820154815260200160038201548152602001600482018054613a7a9061538d565b80601f0160208091040260200160405190810160405280929190818152602001828054613aa69061538d565b8015613af35780601f10613ac857610100808354040283529160200191613af3565b820191906000526020600020905b815481529060010190602001808311613ad657829003601f168201915b505050918352505060058201546001600160a01b03908116602083015260068301548116604083015260078301548116606083015260088301548116608083015260098301541660a0820152600a8201805460c090920191613b549061538d565b80601f0160208091040260200160405190810160405280929190818152602001828054613b809061538d565b8015613bcd5780601f10613ba257610100808354040283529160200191613bcd565b820191906000526020600020905b815481529060010190602001808311613bb057829003601f168201915b50505050508152602001600b82018054613be69061538d565b80601f0160208091040260200160405190810160405280929190818152602001828054613c129061538d565b8015613c5f5780601f10613c3457610100808354040283529160200191613c5f565b820191906000526020600020905b815481529060010190602001808311613c4257829003601f168201915b50505050508152602001600c82018054613c789061538d565b80601f0160208091040260200160405190810160405280929190818152602001828054613ca49061538d565b8015613cf15780601f10613cc657610100808354040283529160200191613cf1565b820191906000526020600020905b815481529060010190602001808311613cd457829003601f168201915b50505050508152602001600d82018054613d0a9061538d565b80601f0160208091040260200160405190810160405280929190818152602001828054613d369061538d565b8015613d835780601f10613d5857610100808354040283529160200191613d83565b820191906000526020600020905b815481529060010190602001808311613d6657829003601f168201915b5050509183525050600e82015460209091019060ff166007811115613daa57613daa6153f9565b6007811115613dbb57613dbb6153f9565b905250606001519392505050565b6000611a0a8183614709565b600082815260076020819052604090912001546001600160a01b0316613dff57613dff82826117e8565b6000828152600760205260409020600801546001600160a01b0316613e2c57613e288282610b4a565b5050565b613e2882614248565b613e3e336119fd565b613e8a5760405162461bcd60e51b815260206004820152601760248201527f494e56414c49443a204e6f7420612052657461696c65720000000000000000006044820152606401610b33565b611a6e336148dd565b613ea1600580546001019055565b613eaf600680546001019055565b6000613eba60055490565b60065460408051602081019390935282015260600160408051601f1981840301815282825280516020909101206101e08301909152915080613efb60065490565b8152602001613f0960055490565b8152602001828152602001838152602001848152602001336001600160a01b03168152602001336001600160a01b0316815260200160006001600160a01b0316815260200160006001600160a01b0316815260200160006001600160a01b0316815260200188815260200187815260200186815260200185815260200160006007811115613f9957613f996153f9565b905260076000613fa860055490565b8152602001908152602001600020600082015181600001556020820151816001015560408201518160020155606082015181600301556080820151816004019080519060200190613ffa929190614de8565b5060a08201516005820180546001600160a01b03199081166001600160a01b039384161790915560c0840151600684018054831691841691909117905560e0840151600784018054831691841691909117905561010084015160088401805483169184169190911790556101208401516009840180549092169216919091179055610140820151805161409791600a840191602090910190614de8565b5061016082015180516140b491600b840191602090910190614de8565b5061018082015180516140d191600c840191602090910190614de8565b506101a082015180516140ee91600d840191602090910190614de8565b506101c0820151600e8201805460ff19166001836007811115614113576141136153f9565b021790555090505060405180610100016040528061413060055490565b8152602001614140600143615376565b40815260006020820181905260408201819052606082018190526080820181905260a0820181905260c090910181905260089061417c60055490565b8152602001908152602001600020600082015181600001556020820151816001015560408201518160020155606082015181600301556080820151816004015560a0820151816005015560c0820151816006015560e082015181600701559050506141ee6141e960055490565b61491f565b6141f733613dc9565b61420457614204336123bf565b7f8e55ccfc9778ff8eba1646d765cf1982537ce0f9257054a17b48aad74525018361422e60055490565b60405190815260200160405180910390a150505050505050565b6000818152600760205260409020600501546001600160a01b03163314156142a95760405162461bcd60e51b815260206004820152601460248201527321b0b73737ba10313abc90333937b69039b2b63360611b6044820152606401610b33565b6000818152600760205260409020600901546001600160a01b0316156143115760405162461bcd60e51b815260206004820152601f60248201527f4974656d20616c726561647920626f7567687420627920636f6e73756d6572006044820152606401610b33565b60008181526007602052604090206003015434146143415760405162461bcd60e51b8152600401610b33906152f8565b60008181526007602052604090206009810180546001600160a01b03191633179055600e01805460ff1916600190811790915561437e9043615376565b6000828152600860209081526040808320934060079485015590839052902001546001600160a01b03161580156143cd57506000818152600760205260409020600801546001600160a01b0316155b156143e0576143db81614994565b6143e9565b6143e981614a7a565b6143f23361241e565b6143ff576143ff33610ad9565b61440881614aba565b600081815260076020526040808220600581015460039091015491516001600160a01b039091169282156108fc02929190818181858888f19350505050158015614456573d6000803e3d6000fd5b506040518181527ff8d4d18c02478c21f38cf4aa60c47b8baf0215ad5d0b0ad565ef8580e03c7ef1906020015b60405180910390a150565b6001600160a01b0381166144b45760405162461bcd60e51b8152600401610b339061532f565b6144be8282614709565b1561450b5760405162461bcd60e51b815260206004820152601a60248201527f494e56414c49443a204163636f756e74204861766520526f6c650000000000006044820152606401610b33565b6001600160a01b0316600090815260209190915260409020805460ff19166001179055565b61453b60038261448e565b6040516001600160a01b038216907f28b26e7a3d20aedbc5f8f2ebf7da671c0491723a2b78f47a097b0e46dee0714290600090a250565b600082815260076020908152604091829020600e8101805460ff191660039081179091550183905590516145a691016152c1565b60408051601f198184030181529181528151602092830120600085815260089093529120600201556145d9600143615376565b600092835260086020526040909220914060049092019190915550565b6000828152600760205260409020600e8101805460ff1916600390811790915501819055614625600143615376565b60008381526008602052604090209040600490910155613e2882614baa565b8060036000828152600760208190526040909120600e015460ff169081111561466f5761466f6153f9565b146146bc5760405162461bcd60e51b815260206004820152601d60248201527f494e56414c49443a204e6f7420536f6c6420546f2072657461696c65720000006044820152606401610b33565b600082815260076020908152604091829020600e01805460ff1916600517905590518381527f37f3711bfa8ff1e2bebc5e7a9afdc0de750e97f83f26f0b6d62d7a4130f99d2d9101610d51565b60006001600160a01b0382166147315760405162461bcd60e51b8152600401610b339061532f565b506001600160a01b03166000908152602091909152604090205460ff1690565b61475c600382614c97565b6040516001600160a01b038216907fe3f5ed5f263f1f01764a96edfc7d025f511ec5f7d180e8816908b78bcf74f09890600090a250565b61479e600182614c97565b6040516001600160a01b038216907f126174f6cf49c81cdb4a9214c6b8f037bef55b4ec31e4fc776cea2a1c8a88d5990600090a250565b6147e060018261448e565b6040516001600160a01b038216907fddbf200aa634dc3fb81cfd68583dd1040d1c751d335e1d86b631bde3e977fea890600090a250565b61482260008261448e565b6040516001600160a01b038216907f2e0ded4123377a3c2bc9a26f1717655a129e2f20752924d42e730ec89c83dbd090600090a250565b614864600082614c97565b6040516001600160a01b038216907fa5e0f060af304ab17dd418c7927e3da3ae7868189bf387aee09ab179ccc572f290600090a250565b6148a660028261448e565b6040516001600160a01b038216907f71ae26cad02663e3d92efd6ec56031a80d74a20c0ab4183faa8bf262261c9baa90600090a250565b6148e8600282614c97565b6040516001600160a01b038216907fdb7176e79cffef81cb01767dd0447a0b24bb72ca9778d4b245581086b2a7e6db90600090a250565b6000818152600760205260409020600e01805460ff191660019081179091556149489043615376565b4060086000838152602001908152602001600020600201819055507fa96ae0fc3224ebd79eebfe54bd130cc9cb94416cddd1f2386115e00b725324688160405161448391815260200190565b6000818152600760205260409020600e0180546006919060ff191660018302179055506040516020016149f89060208082526017908201527f4449524543545f544f5f434f4e53554d45525f53414c45000000000000000000604082015260600190565b60408051601f1981840301815282825280516020918201206000858152600883529290922060020191909155614a2e91016152c1565b60408051601f19818403018152918152815160209283012060008481526008909352912060020155614a61600143615376565b6000918252600860205260409091209040600490910155565b6000818152600760205260409020600e01805460ff19166006179055614aa1600143615376565b6000918252600860205260409091209040600690910155565b8060066000828152600760208190526040909120600e015460ff1690811115614ae557614ae56153f9565b14614b325760405162461bcd60e51b815260206004820152601d60248201527f494e56414c49443a204e6f7420536f6c6420546f20636f6e73756d65720000006044820152606401610b33565b600082815260076020819052604090912060098101546005820180546001600160a01b0319166001600160a01b03909216919091179055600e01805460ff191660018302179055506040518281527f8a746d5b91a9a334d1abbeee7d031aac6d5c59ea6e982ac06aef4346cce5749e90602001610d51565b80604051602001614bba906152c1565b60408051601f198184030181529181528151602092830120600084815260089093529120600201541415614c305760405162461bcd60e51b815260206004820181905260248201527f494e56414c49443a204e6f7420536f6c64204279204469737472696275746f726044820152606401610b33565b600082815260076020526040908190206008810154600590910180546001600160a01b0319166001600160a01b03909216919091179055517f710cdb674ad272ba75647b6f54d9dfd1b8fe19dba2528b54c7c20972b273c9ef90610d519084815260200190565b6001600160a01b038116614cbd5760405162461bcd60e51b8152600401610b339061532f565b614cc78282614709565b614d135760405162461bcd60e51b815260206004820152601d60248201527f494e56414c49443a204163636f756e742048617665204e6f20526f6c650000006044820152606401610b33565b6001600160a01b0316600090815260209190915260409020805460ff19169055565b604051806101e00160405280600081526020016000815260200160008152602001600081526020016060815260200160006001600160a01b0316815260200160006001600160a01b0316815260200160006001600160a01b0316815260200160006001600160a01b0316815260200160006001600160a01b031681526020016060815260200160608152602001606081526020016060815260200160006007811115614de357614de36153f9565b905290565b828054614df49061538d565b90600052602060002090601f016020900481019282614e165760008555614e5c565b82601f10614e2f57805160ff1916838001178555614e5c565b82800160010185558215614e5c579182015b82811115614e5c578251825591602001919060010190614e41565b50614e68929150614e6c565b5090565b5b80821115614e685760008155600101614e6d565b600082601f830112614e9257600080fd5b813567ffffffffffffffff80821115614ead57614ead615425565b604051601f8301601f19908116603f01168101908282118183101715614ed557614ed5615425565b81604052838152866020858801011115614eee57600080fd5b836020870160208301376000602085830101528094505050505092915050565b600060208284031215614f2057600080fd5b81356001600160a01b03811681146123b857600080fd5b60008060008060008060c08789031215614f5057600080fd5b863567ffffffffffffffff80821115614f6857600080fd5b614f748a838b01614e81565b97506020890135915080821115614f8a57600080fd5b614f968a838b01614e81565b96506040890135915080821115614fac57600080fd5b614fb88a838b01614e81565b95506060890135915080821115614fce57600080fd5b614fda8a838b01614e81565b94506080890135915080821115614ff057600080fd5b50614ffd89828a01614e81565b92505060a087013590509295509295509295565b60006020828403121561502357600080fd5b5035919050565b6000806040838503121561503d57600080fd5b50508035926020909101359150565b6008811061506a57634e487b7160e01b600052602160045260246000fd5b9052565b6000815180845260005b8181101561509457602081850181015186830182015201615078565b818111156150a6576000602083870101525b50601f01601f19169290920160200192915050565b60006020808301818452808551808352604092508286019150828160051b87010184880160005b8381101561522657603f1989840301855281516101e081518552888201518986015287820151888601526060808301518187015250608080830151828288015261512e8388018261506e565b9250505060a08083015161514c828801826001600160a01b03169052565b505060c0828101516001600160a01b039081169187019190915260e08084015182169087015261010080840151821690870152610120808401519091169086015261014080830151868303828801526151a5838261506e565b9250505061016080830151868303828801526151c1838261506e565b9250505061018080830151868303828801526151dd838261506e565b925050506101a080830151868303828801526151f9838261506e565b925050506101c08083015192506152128187018461504c565b5095880195935050908601906001016150e2565b509098975050505050505050565b602080825282518282018190526000919060409081850190868401855b828110156152b45781518051855286810151878601528581015186860152606080820151908601526080808201519086015260a0808201519086015260c0808201519086015260e090810151908501526101009093019290850190600101615251565b5091979650505050505050565b60208082526017908201527f4449524543545f544f5f52455441494c45525f53414c45000000000000000000604082015260600190565b6020808252601e908201527f496e73756666696369656e7420416d6f756e74207472616e7366657265640000604082015260600190565b602080825260159082015274494e56414c49443a2044454144204164647265737360581b604082015260600190565b60008219821115615371576153716153e3565b500190565b600082821015615388576153886153e3565b500390565b600181811c908216806153a157607f821691505b602082108114156153c257634e487b7160e01b600052602260045260246000fd5b50919050565b60006000198214156153dc576153dc6153e3565b5060010190565b634e487b7160e01b600052601160045260246000fd5b634e487b7160e01b600052602160045260246000fd5b634e487b7160e01b600052603260045260246000fd5b634e487b7160e01b600052604160045260246000fdfea2646970667358221220b58cb1bfb6ba8fab0447ed3c2a279d02b32ae0f9cbd40052056647f32d1313af64736f6c63430008060033",
  "linkReferences": {},
  "deployedLinkReferences": {}
}